{
    "contractName": "FinancingContract1155",
    "abi": [
        {
            "inputs": [
                {
                    "internalType": "string",
                    "name": "_name",
                    "type": "string"
                },
                {
                    "internalType": "string",
                    "name": "_symbol",
                    "type": "string"
                },
                {
                    "internalType": "uint256",
                    "name": "_operationAmount",
                    "type": "uint256"
                },
                {
                    "internalType": "uint256",
                    "name": "_amountToFinance",
                    "type": "uint256"
                },
                {
                    "internalType": "uint256",
                    "name": "_investmentFractions",
                    "type": "uint256"
                },
                {
                    "internalType": "address",
                    "name": "_addUsdt",
                    "type": "address"
                }
            ],
            "stateMutability": "nonpayable",
            "type": "constructor"
        },
        {
            "anonymous": false,
            "inputs": [
                {
                    "indexed": true,
                    "internalType": "address",
                    "name": "account",
                    "type": "address"
                },
                {
                    "indexed": true,
                    "internalType": "address",
                    "name": "operator",
                    "type": "address"
                },
                {
                    "indexed": false,
                    "internalType": "bool",
                    "name": "approved",
                    "type": "bool"
                }
            ],
            "name": "ApprovalForAll",
            "type": "event"
        },
        {
            "anonymous": false,
            "inputs": [
                {
                    "indexed": false,
                    "internalType": "uint256[]",
                    "name": "tokenIds",
                    "type": "uint256[]"
                }
            ],
            "name": "BurnNfts",
            "type": "event"
        },
        {
            "anonymous": false,
            "inputs": [
                {
                    "indexed": false,
                    "internalType": "address",
                    "name": "investor",
                    "type": "address"
                },
                {
                    "indexed": false,
                    "internalType": "uint256",
                    "name": "fractions",
                    "type": "uint256"
                }
            ],
            "name": "Invest",
            "type": "event"
        },
        {
            "anonymous": false,
            "inputs": [
                {
                    "indexed": false,
                    "internalType": "address",
                    "name": "account",
                    "type": "address"
                }
            ],
            "name": "Paused",
            "type": "event"
        },
        {
            "anonymous": false,
            "inputs": [
                {
                    "indexed": true,
                    "internalType": "bytes32",
                    "name": "role",
                    "type": "bytes32"
                },
                {
                    "indexed": true,
                    "internalType": "bytes32",
                    "name": "previousAdminRole",
                    "type": "bytes32"
                },
                {
                    "indexed": true,
                    "internalType": "bytes32",
                    "name": "newAdminRole",
                    "type": "bytes32"
                }
            ],
            "name": "RoleAdminChanged",
            "type": "event"
        },
        {
            "anonymous": false,
            "inputs": [
                {
                    "indexed": true,
                    "internalType": "bytes32",
                    "name": "role",
                    "type": "bytes32"
                },
                {
                    "indexed": true,
                    "internalType": "address",
                    "name": "account",
                    "type": "address"
                },
                {
                    "indexed": true,
                    "internalType": "address",
                    "name": "sender",
                    "type": "address"
                }
            ],
            "name": "RoleGranted",
            "type": "event"
        },
        {
            "anonymous": false,
            "inputs": [
                {
                    "indexed": true,
                    "internalType": "bytes32",
                    "name": "role",
                    "type": "bytes32"
                },
                {
                    "indexed": true,
                    "internalType": "address",
                    "name": "account",
                    "type": "address"
                },
                {
                    "indexed": true,
                    "internalType": "address",
                    "name": "sender",
                    "type": "address"
                }
            ],
            "name": "RoleRevoked",
            "type": "event"
        },
        {
            "anonymous": false,
            "inputs": [],
            "name": "TotalAmountFinanced",
            "type": "event"
        },
        {
            "anonymous": false,
            "inputs": [
                {
                    "indexed": true,
                    "internalType": "address",
                    "name": "operator",
                    "type": "address"
                },
                {
                    "indexed": true,
                    "internalType": "address",
                    "name": "from",
                    "type": "address"
                },
                {
                    "indexed": true,
                    "internalType": "address",
                    "name": "to",
                    "type": "address"
                },
                {
                    "indexed": false,
                    "internalType": "uint256[]",
                    "name": "ids",
                    "type": "uint256[]"
                },
                {
                    "indexed": false,
                    "internalType": "uint256[]",
                    "name": "values",
                    "type": "uint256[]"
                }
            ],
            "name": "TransferBatch",
            "type": "event"
        },
        {
            "anonymous": false,
            "inputs": [
                {
                    "indexed": true,
                    "internalType": "address",
                    "name": "operator",
                    "type": "address"
                },
                {
                    "indexed": true,
                    "internalType": "address",
                    "name": "from",
                    "type": "address"
                },
                {
                    "indexed": true,
                    "internalType": "address",
                    "name": "to",
                    "type": "address"
                },
                {
                    "indexed": false,
                    "internalType": "uint256",
                    "name": "id",
                    "type": "uint256"
                },
                {
                    "indexed": false,
                    "internalType": "uint256",
                    "name": "value",
                    "type": "uint256"
                }
            ],
            "name": "TransferSingle",
            "type": "event"
        },
        {
            "anonymous": false,
            "inputs": [
                {
                    "indexed": false,
                    "internalType": "string",
                    "name": "value",
                    "type": "string"
                },
                {
                    "indexed": true,
                    "internalType": "uint256",
                    "name": "id",
                    "type": "uint256"
                }
            ],
            "name": "URI",
            "type": "event"
        },
        {
            "anonymous": false,
            "inputs": [
                {
                    "indexed": false,
                    "internalType": "address",
                    "name": "account",
                    "type": "address"
                }
            ],
            "name": "Unpaused",
            "type": "event"
        },
        {
            "anonymous": false,
            "inputs": [],
            "name": "WithdrawComplete",
            "type": "event"
        },
        {
            "inputs": [],
            "name": "DEFAULT_ADMIN_ROLE",
            "outputs": [
                {
                    "internalType": "bytes32",
                    "name": "",
                    "type": "bytes32"
                }
            ],
            "stateMutability": "view",
            "type": "function"
        },
        {
            "inputs": [],
            "name": "PAUSER_ROLE",
            "outputs": [
                {
                    "internalType": "bytes32",
                    "name": "",
                    "type": "bytes32"
                }
            ],
            "stateMutability": "view",
            "type": "function"
        },
        {
            "inputs": [],
            "name": "amountToFinance",
            "outputs": [
                {
                    "internalType": "uint256",
                    "name": "",
                    "type": "uint256"
                }
            ],
            "stateMutability": "view",
            "type": "function"
        },
        {
            "inputs": [
                {
                    "internalType": "address",
                    "name": "account",
                    "type": "address"
                },
                {
                    "internalType": "uint256",
                    "name": "id",
                    "type": "uint256"
                }
            ],
            "name": "balanceOf",
            "outputs": [
                {
                    "internalType": "uint256",
                    "name": "",
                    "type": "uint256"
                }
            ],
            "stateMutability": "view",
            "type": "function"
        },
        {
            "inputs": [
                {
                    "internalType": "address[]",
                    "name": "accounts",
                    "type": "address[]"
                },
                {
                    "internalType": "uint256[]",
                    "name": "ids",
                    "type": "uint256[]"
                }
            ],
            "name": "balanceOfBatch",
            "outputs": [
                {
                    "internalType": "uint256[]",
                    "name": "",
                    "type": "uint256[]"
                }
            ],
            "stateMutability": "view",
            "type": "function"
        },
        {
            "inputs": [
                {
                    "internalType": "address",
                    "name": "account",
                    "type": "address"
                },
                {
                    "internalType": "uint256",
                    "name": "id",
                    "type": "uint256"
                },
                {
                    "internalType": "uint256",
                    "name": "value",
                    "type": "uint256"
                }
            ],
            "name": "burn",
            "outputs": [],
            "stateMutability": "nonpayable",
            "type": "function"
        },
        {
            "inputs": [
                {
                    "internalType": "address",
                    "name": "account",
                    "type": "address"
                },
                {
                    "internalType": "uint256[]",
                    "name": "ids",
                    "type": "uint256[]"
                },
                {
                    "internalType": "uint256[]",
                    "name": "values",
                    "type": "uint256[]"
                }
            ],
            "name": "burnBatch",
            "outputs": [],
            "stateMutability": "nonpayable",
            "type": "function"
        },
        {
            "inputs": [],
            "name": "buyBackPrice",
            "outputs": [
                {
                    "internalType": "uint256",
                    "name": "",
                    "type": "uint256"
                }
            ],
            "stateMutability": "view",
            "type": "function"
        },
        {
            "inputs": [
                {
                    "internalType": "uint256",
                    "name": "_amount",
                    "type": "uint256"
                }
            ],
            "name": "buyFraction",
            "outputs": [],
            "stateMutability": "nonpayable",
            "type": "function"
        },
        {
            "inputs": [
                {
                    "internalType": "uint256[]",
                    "name": "_ids",
                    "type": "uint256[]"
                },
                {
                    "internalType": "uint256[]",
                    "name": "_amount",
                    "type": "uint256[]"
                }
            ],
            "name": "buyFraction2",
            "outputs": [],
            "stateMutability": "nonpayable",
            "type": "function"
        },
        {
            "inputs": [],
            "name": "contractStatus",
            "outputs": [
                {
                    "internalType": "enum FinancingContract1155.Status",
                    "name": "",
                    "type": "uint8"
                }
            ],
            "stateMutability": "view",
            "type": "function"
        },
        {
            "inputs": [],
            "name": "fractionPrice",
            "outputs": [
                {
                    "internalType": "uint256",
                    "name": "",
                    "type": "uint256"
                }
            ],
            "stateMutability": "view",
            "type": "function"
        },
        {
            "inputs": [],
            "name": "getHistorial",
            "outputs": [
                {
                    "components": [
                        {
                            "internalType": "uint256",
                            "name": "fractions",
                            "type": "uint256"
                        },
                        {
                            "internalType": "uint256",
                            "name": "timestamp",
                            "type": "uint256"
                        },
                        {
                            "internalType": "address",
                            "name": "owner",
                            "type": "address"
                        }
                    ],
                    "internalType": "struct FinancingContract1155.HistoryFractions[]",
                    "name": "",
                    "type": "tuple[]"
                }
            ],
            "stateMutability": "view",
            "type": "function"
        },
        {
            "inputs": [
                {
                    "internalType": "bytes32",
                    "name": "role",
                    "type": "bytes32"
                }
            ],
            "name": "getRoleAdmin",
            "outputs": [
                {
                    "internalType": "bytes32",
                    "name": "",
                    "type": "bytes32"
                }
            ],
            "stateMutability": "view",
            "type": "function"
        },
        {
            "inputs": [
                {
                    "internalType": "bytes32",
                    "name": "role",
                    "type": "bytes32"
                },
                {
                    "internalType": "address",
                    "name": "account",
                    "type": "address"
                }
            ],
            "name": "grantRole",
            "outputs": [],
            "stateMutability": "nonpayable",
            "type": "function"
        },
        {
            "inputs": [
                {
                    "internalType": "bytes32",
                    "name": "role",
                    "type": "bytes32"
                },
                {
                    "internalType": "address",
                    "name": "account",
                    "type": "address"
                }
            ],
            "name": "hasRole",
            "outputs": [
                {
                    "internalType": "bool",
                    "name": "",
                    "type": "bool"
                }
            ],
            "stateMutability": "view",
            "type": "function"
        },
        {
            "inputs": [
                {
                    "internalType": "uint256",
                    "name": "",
                    "type": "uint256"
                }
            ],
            "name": "historyFractions",
            "outputs": [
                {
                    "internalType": "uint256",
                    "name": "fractions",
                    "type": "uint256"
                },
                {
                    "internalType": "uint256",
                    "name": "timestamp",
                    "type": "uint256"
                },
                {
                    "internalType": "address",
                    "name": "owner",
                    "type": "address"
                }
            ],
            "stateMutability": "view",
            "type": "function"
        },
        {
            "inputs": [],
            "name": "investmentFractions",
            "outputs": [
                {
                    "internalType": "uint256",
                    "name": "",
                    "type": "uint256"
                }
            ],
            "stateMutability": "view",
            "type": "function"
        },
        {
            "inputs": [
                {
                    "internalType": "address",
                    "name": "account",
                    "type": "address"
                },
                {
                    "internalType": "address",
                    "name": "operator",
                    "type": "address"
                }
            ],
            "name": "isApprovedForAll",
            "outputs": [
                {
                    "internalType": "bool",
                    "name": "",
                    "type": "bool"
                }
            ],
            "stateMutability": "view",
            "type": "function"
        },
        {
            "inputs": [],
            "name": "name",
            "outputs": [
                {
                    "internalType": "string",
                    "name": "",
                    "type": "string"
                }
            ],
            "stateMutability": "view",
            "type": "function"
        },
        {
            "inputs": [],
            "name": "operationAmount",
            "outputs": [
                {
                    "internalType": "uint256",
                    "name": "",
                    "type": "uint256"
                }
            ],
            "stateMutability": "view",
            "type": "function"
        },
        {
            "inputs": [],
            "name": "pause",
            "outputs": [],
            "stateMutability": "nonpayable",
            "type": "function"
        },
        {
            "inputs": [],
            "name": "paused",
            "outputs": [
                {
                    "internalType": "bool",
                    "name": "",
                    "type": "bool"
                }
            ],
            "stateMutability": "view",
            "type": "function"
        },
        {
            "inputs": [
                {
                    "internalType": "bytes32",
                    "name": "role",
                    "type": "bytes32"
                },
                {
                    "internalType": "address",
                    "name": "account",
                    "type": "address"
                }
            ],
            "name": "renounceRole",
            "outputs": [],
            "stateMutability": "nonpayable",
            "type": "function"
        },
        {
            "inputs": [
                {
                    "internalType": "bytes32",
                    "name": "role",
                    "type": "bytes32"
                },
                {
                    "internalType": "address",
                    "name": "account",
                    "type": "address"
                }
            ],
            "name": "revokeRole",
            "outputs": [],
            "stateMutability": "nonpayable",
            "type": "function"
        },
        {
            "inputs": [
                {
                    "internalType": "address",
                    "name": "from",
                    "type": "address"
                },
                {
                    "internalType": "address",
                    "name": "to",
                    "type": "address"
                },
                {
                    "internalType": "uint256[]",
                    "name": "ids",
                    "type": "uint256[]"
                },
                {
                    "internalType": "uint256[]",
                    "name": "amounts",
                    "type": "uint256[]"
                },
                {
                    "internalType": "bytes",
                    "name": "data",
                    "type": "bytes"
                }
            ],
            "name": "safeBatchTransferFrom",
            "outputs": [],
            "stateMutability": "nonpayable",
            "type": "function"
        },
        {
            "inputs": [
                {
                    "internalType": "address",
                    "name": "from",
                    "type": "address"
                },
                {
                    "internalType": "address",
                    "name": "to",
                    "type": "address"
                },
                {
                    "internalType": "uint256",
                    "name": "id",
                    "type": "uint256"
                },
                {
                    "internalType": "uint256",
                    "name": "amount",
                    "type": "uint256"
                },
                {
                    "internalType": "bytes",
                    "name": "data",
                    "type": "bytes"
                }
            ],
            "name": "safeTransferFrom",
            "outputs": [],
            "stateMutability": "nonpayable",
            "type": "function"
        },
        {
            "inputs": [
                {
                    "internalType": "address",
                    "name": "operator",
                    "type": "address"
                },
                {
                    "internalType": "bool",
                    "name": "approved",
                    "type": "bool"
                }
            ],
            "name": "setApprovalForAll",
            "outputs": [],
            "stateMutability": "nonpayable",
            "type": "function"
        },
        {
            "inputs": [
                {
                    "internalType": "uint256",
                    "name": "profit",
                    "type": "uint256"
                }
            ],
            "name": "setBuyBack",
            "outputs": [],
            "stateMutability": "nonpayable",
            "type": "function"
        },
        {
            "inputs": [
                {
                    "internalType": "bytes4",
                    "name": "interfaceId",
                    "type": "bytes4"
                }
            ],
            "name": "supportsInterface",
            "outputs": [
                {
                    "internalType": "bool",
                    "name": "",
                    "type": "bool"
                }
            ],
            "stateMutability": "view",
            "type": "function"
        },
        {
            "inputs": [],
            "name": "symbol",
            "outputs": [
                {
                    "internalType": "string",
                    "name": "",
                    "type": "string"
                }
            ],
            "stateMutability": "view",
            "type": "function"
        },
        {
            "inputs": [],
            "name": "totalSupply",
            "outputs": [
                {
                    "internalType": "uint256",
                    "name": "",
                    "type": "uint256"
                }
            ],
            "stateMutability": "view",
            "type": "function"
        },
        {
            "inputs": [],
            "name": "unpause",
            "outputs": [],
            "stateMutability": "nonpayable",
            "type": "function"
        },
        {
            "inputs": [
                {
                    "internalType": "uint256",
                    "name": "",
                    "type": "uint256"
                }
            ],
            "name": "uri",
            "outputs": [
                {
                    "internalType": "string",
                    "name": "",
                    "type": "string"
                }
            ],
            "stateMutability": "view",
            "type": "function"
        },
        {
            "inputs": [],
            "name": "withdrawBuyBack",
            "outputs": [],
            "stateMutability": "nonpayable",
            "type": "function"
        },
        {
            "inputs": [],
            "name": "withdrawUSDT",
            "outputs": [],
            "stateMutability": "nonpayable",
            "type": "function"
        }
    ],
    "bytecode": "608060405234801562000010575f80fd5b5060405162003c1538038062003c15833981016040819052620000339162000268565b60408051602081019091525f81526200004c81620000f3565b506003805460ff19169055620000635f3362000105565b6200008f7f65d7a28e3265b37a6474929f336521b332c1681b933f6cb9f3376673440d862a3362000105565b600d80546001600160a01b0319166001600160a01b0383161790556005620000b8878262000395565b506006620000c7868262000395565b5060088490556009839055600a829055620000e3828462000461565b600b555062000481945050505050565b600262000101828262000395565b5050565b5f8281526004602090815260408083206001600160a01b038516845290915290205460ff1662000101575f8281526004602090815260408083206001600160a01b03851684529091529020805460ff19166001179055620001633390565b6001600160a01b0316816001600160a01b0316837f2f8788117e7eff1d82e926ec794901d17c78024a50270940304540a733656f0d60405160405180910390a45050565b634e487b7160e01b5f52604160045260245ffd5b5f82601f830112620001cb575f80fd5b81516001600160401b0380821115620001e857620001e8620001a7565b604051601f8301601f19908116603f01168101908282118183101715620002135762000213620001a7565b816040528381526020925086602085880101111562000230575f80fd5b5f91505b8382101562000253578582018301518183018401529082019062000234565b5f602085830101528094505050505092915050565b5f805f805f8060c087890312156200027e575f80fd5b86516001600160401b038082111562000295575f80fd5b620002a38a838b01620001bb565b97506020890151915080821115620002b9575f80fd5b50620002c889828a01620001bb565b604089015160608a015160808b015160a08c01519399509197509550935090506001600160a01b0381168114620002fd575f80fd5b809150509295509295509295565b600181811c908216806200032057607f821691505b6020821081036200033f57634e487b7160e01b5f52602260045260245ffd5b50919050565b601f8211156200039057805f5260205f20601f840160051c810160208510156200036c5750805b601f840160051c820191505b818110156200038d575f815560010162000378565b50505b505050565b81516001600160401b03811115620003b157620003b1620001a7565b620003c981620003c284546200030b565b8462000345565b602080601f831160018114620003ff575f8415620003e75750858301515b5f19600386901b1c1916600185901b17855562000459565b5f85815260208120601f198616915b828110156200042f578886015182559484019460019091019084016200040e565b50858210156200044d57878501515f19600388901b60f8161c191681555b505060018460011b0185555b505050505050565b5f826200047c57634e487b7160e01b5f52601260045260245ffd5b500490565b613786806200048f5f395ff3fe608060405234801561000f575f80fd5b5060043610610212575f3560e01c80638e1a3b6e1161011f578063b773f909116100a9578063e23000a011610079578063e23000a014610456578063e63ab1e91461045f578063e985e9c514610486578063f242432a146104c1578063f5298aca146104d4575f80fd5b8063b773f9091461040b578063c6ee20d214610420578063c7ee10421461043a578063d547741f14610443575f80fd5b80639d4150be116100ef5780639d4150be1461039e5780639faffb2c146103d5578063a217fddf146103e8578063a22cb465146103ef578063b1efc75514610402575f80fd5b80638e1a3b6e146103685780638efe68141461037b57806391d148541461038357806395d89b4114610396575f80fd5b8063362e496b116101a057806356953bda1161017057806356953bda146103305780635c975abb146103395780635ef4e99d146103445780636b20c4541461034d5780638456cb5914610360575f80fd5b8063362e496b146102ed57806336568abe146102f55780633f4ba83a146103085780634e1273f414610310575f80fd5b806318160ddd116101e657806318160ddd14610287578063248a9ca3146102905780632a7f505b146102b25780632eb2c2d6146102c75780632f2ff15d146102da575f80fd5b8062fdd58e1461021657806301ffc9a71461023c57806306fdde031461025f5780630e89341c14610274575b5f80fd5b610229610224366004612add565b6104e7565b6040519081526020015b60405180910390f35b61024f61024a366004612b1a565b61057e565b6040519015158152602001610233565b610267610588565b6040516102339190612b82565b610267610282366004612b94565b610614565b610229600e5481565b61022961029e366004612b94565b5f9081526004602052604090206001015490565b6102c56102c0366004612b94565b6106a6565b005b6102c56102d5366004612cef565b61092a565b6102c56102e8366004612d91565b610976565b6102c561099f565b6102c5610303366004612d91565b610b38565b6102c5610bb6565b61032361031e366004612dbb565b610beb565b6040516102339190612eb9565b610229600b5481565b60035460ff1661024f565b61022960095481565b6102c561035b366004612ecb565b610d0a565b6102c5610d4d565b6102c5610376366004612b94565b610d7f565b6102c561131d565b61024f610391366004612d91565b6115e3565b61026761160d565b6103b16103ac366004612b94565b61161a565b6040805193845260208401929092526001600160a01b031690820152606001610233565b6102c56103e3366004612f39565b611654565b6102295f81565b6102c56103fd366004612f8e565b611a2c565b61022960085481565b610413611a37565b6040516102339190612fc3565b60135461042d9060ff1681565b6040516102339190613038565b610229600a5481565b6102c5610451366004612d91565b611ab7565b610229600c5481565b6102297f65d7a28e3265b37a6474929f336521b332c1681b933f6cb9f3376673440d862a81565b61024f61049436600461305e565b6001600160a01b039182165f90815260016020908152604080832093909416825291909152205460ff1690565b6102c56104cf366004613086565b611adb565b6102c56104e23660046130e5565b611b20565b5f6001600160a01b0383166105565760405162461bcd60e51b815260206004820152602a60248201527f455243313135353a2061646472657373207a65726f206973206e6f742061207660448201526930b634b21037bbb732b960b11b60648201526084015b60405180910390fd5b505f818152602081815260408083206001600160a01b03861684529091529020545b92915050565b5f61057882611b63565b6005805461059590613115565b80601f01602080910402602001604051908101604052809291908181526020018280546105c190613115565b801561060c5780601f106105e35761010080835404028352916020019161060c565b820191905f5260205f20905b8154815290600101906020018083116105ef57829003601f168201915b505050505081565b60606002805461062390613115565b80601f016020809104026020016040519081016040528092919081815260200182805461064f90613115565b801561069a5780601f106106715761010080835404028352916020019161069a565b820191905f5260205f20905b81548152906001019060200180831161067d57829003601f168201915b50505050509050919050565b5f6106b081611b87565b5f82116106f65760405162461bcd60e51b815260206004820152601460248201527350726f6669742063616e2774206265207a65726f60601b604482015260640161054d565b5f6064836009546107079190613161565b6107119190613178565b60095461071e9190613197565b905061072d81620f4240613161565b600d546040516370a0823160e01b81523360048201529192506001600160a01b0316906370a0823190602401602060405180830381865afa158015610774573d5f803e3d5ffd5b505050506040513d601f19601f8201168201806040525081019061079891906131aa565b8111156107e75760405162461bcd60e51b815260206004820152601760248201527f4e6f7420656e6f75676820555344542062616c616e6365000000000000000000604482015260640161054d565b600d54604051636eb1769f60e11b815233600482015230602482015282916001600160a01b03169063dd62ed3e90604401602060405180830381865afa158015610833573d5f803e3d5ffd5b505050506040513d601f19601f8201168201806040525081019061085791906131aa565b10156108755760405162461bcd60e51b815260040161054d906131c1565b600d546040516323b872dd60e01b8152336004820152306024820152604481018390526001600160a01b03909116906323b872dd906064016020604051808303815f875af11580156108c9573d5f803e3d5ffd5b505050506040513d601f19601f820116820180604052508101906108ed9190613229565b50606483600b546108fe9190613161565b6109089190613178565b600b546109159190613197565b600c5550506013805460ff1916600317905550565b6001600160a01b03851633148061094657506109468533610494565b6109625760405162461bcd60e51b815260040161054d90613244565b61096f8585858585611b91565b5050505050565b5f8281526004602052604090206001015461099081611b87565b61099a8383611d2f565b505050565b5f6109a981611b87565b600d546040516370a0823160e01b81523060048201525f916001600160a01b0316906370a0823190602401602060405180830381865afa1580156109ef573d5f803e3d5ffd5b505050506040513d601f19601f82011682018060405250810190610a1391906131aa565b9050600160135460ff166003811115610a2e57610a2e613024565b14610a715760405162461bcd60e51b81526020600482015260136024820152722737ba1037b71039b7b6321039ba30ba3ab99760691b604482015260640161054d565b600d5460405163a9059cbb60e01b8152336004820152602481018390526001600160a01b039091169063a9059cbb906044016020604051808303815f875af1158015610abf573d5f803e3d5ffd5b505050506040513d601f19601f82011682018060405250810190610ae39190613229565b610aff5760405162461bcd60e51b815260040161054d90613292565b6013805460ff191660021790556040517f852267b619ccc49c4941eadd7b0df613a646044e6b39e2e7f2a3e8ad4f94a061905f90a15050565b6001600160a01b0381163314610ba85760405162461bcd60e51b815260206004820152602f60248201527f416363657373436f6e74726f6c3a2063616e206f6e6c792072656e6f756e636560448201526e103937b632b9903337b91039b2b63360891b606482015260840161054d565b610bb28282611db4565b5050565b7f65d7a28e3265b37a6474929f336521b332c1681b933f6cb9f3376673440d862a610be081611b87565b610be8611e1a565b50565b60608151835114610c505760405162461bcd60e51b815260206004820152602960248201527f455243313135353a206163636f756e747320616e6420696473206c656e677468604482015268040dad2e6dac2e8c6d60bb1b606482015260840161054d565b5f83516001600160401b03811115610c6a57610c6a612bab565b604051908082528060200260200182016040528015610c93578160200160208202803683370190505b5090505f5b8451811015610d0257610cdd858281518110610cb657610cb66132c0565b6020026020010151858381518110610cd057610cd06132c0565b60200260200101516104e7565b828281518110610cef57610cef6132c0565b6020908102919091010152600101610c98565b509392505050565b6001600160a01b038316331480610d265750610d268333610494565b610d425760405162461bcd60e51b815260040161054d90613244565b61099a838383611e6c565b7f65d7a28e3265b37a6474929f336521b332c1681b933f6cb9f3376673440d862a610d7781611b87565b610be8611ff4565b610d87612031565b5f81600b54620f4240610d9a9190613161565b610da49190613161565b90505f60135460ff166003811115610dbe57610dbe613024565b14610e015760405162461bcd60e51b81526020600482015260136024820152722a34329039b0b6329034b99031b637b9b2b21760691b604482015260640161054d565b5f8211610e495760405162461bcd60e51b815260206004820152601660248201527520b6b7bab73a1031b0b73737ba103132903d32b9379760511b604482015260640161054d565b600a54821115610e6b5760405162461bcd60e51b815260040161054d906132d4565b600d546040516370a0823160e01b815233600482015282916001600160a01b0316906370a0823190602401602060405180830381865afa158015610eb1573d5f803e3d5ffd5b505050506040513d601f19601f82011682018060405250810190610ed591906131aa565b1015610f235760405162461bcd60e51b815260206004820152601a60248201527f496e73737566696369656e7420555344542062616c616e63652e000000000000604482015260640161054d565b600d54604051636eb1769f60e11b815233600482015230602482015282916001600160a01b03169063dd62ed3e90604401602060405180830381865afa158015610f6f573d5f803e3d5ffd5b505050506040513d601f19601f82011682018060405250810190610f9391906131aa565b1015610fb15760405162461bcd60e51b815260040161054d906131c1565b600d546040516323b872dd60e01b8152336004820152306024820152604481018390526001600160a01b03909116906323b872dd906064016020604051808303815f875af1158015611005573d5f803e3d5ffd5b505050506040513d601f19601f820116820180604052508101906110299190613229565b6110455760405162461bcd60e51b815260040161054d90613292565b5f826001600160401b0381111561105e5761105e612bab565b604051908082528060200260200182016040528015611087578160200160208202803683370190505b5090505f836001600160401b038111156110a3576110a3612bab565b6040519080825280602002602001820160405280156110cc578160200160208202803683370190505b5090505f5b848160ff16101561119657600754838260ff16815181106110f4576110f46132c0565b602090810291909101810191909152335f908152601182526040812060075481546001818101845592845293909220909201558251839060ff841690811061113e5761113e6132c0565b602090810291909101810191909152335f908152601282526040812080546001818101835591835292822090920191909155600780549161117e8361331b565b9190505550808061118e90613333565b9150506110d1565b506111b133838360405180602001604052805f815250612079565b335f90815260106020526040812080548692906111cf908490613197565b909155505060408051338152602081018690527fd90d253a9de34d2fdd5a75ae49ea17fcb43af32fc8ea08cc6d2341991dd3872e910160405180910390a1600a5461121b906001613197565b60075403611259576013805460ff191660011790556040517f658874d26f90568be0c9e9763f5bd128d548b4559233ac9846a8e92c5b95e677905f90a15b505060408051606081018252928352426020840190815233918401918252600f80546001810182555f9190915293517f8d1108e10bcb7c27dddfc02ed9d693a074039d026cf4ea4240b40f7d581ac802600390950294850155517f8d1108e10bcb7c27dddfc02ed9d693a074039d026cf4ea4240b40f7d581ac803840155517f8d1108e10bcb7c27dddfc02ed9d693a074039d026cf4ea4240b40f7d581ac80490920180546001600160a01b0319166001600160a01b039093169290921790915550565b600360135460ff16600381111561133657611336613024565b146113835760405162461bcd60e51b815260206004820152601960248201527f436f6e7472616374206973206e6f742066696e69736865642e00000000000000604482015260640161054d565b335f90815260126020908152604080832054601190925290912054146113a7575f80fd5b335f90815260106020908152604080832054601190925290912054146113cb575f80fd5b335f90815260106020526040902054806114205760405162461bcd60e51b815260206004820152601660248201527521b0b63632b9103430b9903737ba103a37b5b2b7399760511b604482015260640161054d565b5f600c548261142f9190613161565b335f8181526011602090815260409182902080548351818402810184019094528084529495506114ec94909183018282801561148857602002820191905f5260205f20905b815481526020019060010190808311611474575b5050335f90815260126020908152604091829020805483518184028101840190945280845292955093509091508301828280156114e257602002820191905f5260205f20905b8154815260200190600101908083116114ce575b5050505050611e6c565b335f908152601160205260409081902090517ff8a73082349ec6de87794cb1e590e5945ef4b31036675ab2b713998706441af39161152991613351565b60405180910390a1335f90815260116020526040812061154891612a94565b335f90815260126020526040812061155f91612a94565b335f8181526010602052604080822091909155600d54905163a9059cbb60e01b81526004810192909252602482018390526001600160a01b03169063a9059cbb906044016020604051808303815f875af11580156115bf573d5f803e3d5ffd5b505050506040513d601f19601f8201168201806040525081019061099a9190613229565b5f9182526004602090815260408084206001600160a01b0393909316845291905290205460ff1690565b6006805461059590613115565b600f8181548110611629575f80fd5b5f9182526020909120600390910201805460018201546002909201549092506001600160a01b031683565b61165c612031565b8051600b545f90829061167290620f4240613161565b61167c9190613161565b90505f82116116c65760405162461bcd60e51b815260206004820152601660248201527520b6b7bab73a1031b0b73737ba103132903d32b9379760511b604482015260640161054d565b5f60135460ff1660038111156116de576116de613024565b146117215760405162461bcd60e51b81526020600482015260136024820152722a34329039b0b6329034b99031b637b9b2b21760691b604482015260640161054d565b600a548211156117435760405162461bcd60e51b815260040161054d906132d4565b600a5482600e546117549190613197565b11156117a25760405162461bcd60e51b815260206004820152601a60248201527f457863656564696e6720746f74616c206672616374696f6e732e000000000000604482015260640161054d565b600d546040516370a0823160e01b815233600482015282916001600160a01b0316906370a0823190602401602060405180830381865afa1580156117e8573d5f803e3d5ffd5b505050506040513d601f19601f8201168201806040525081019061180c91906131aa565b101561185a5760405162461bcd60e51b815260206004820152601a60248201527f496e73737566696369656e7420555344542062616c616e63652e000000000000604482015260640161054d565b600d54604051636eb1769f60e11b815233600482015230602482015282916001600160a01b03169063dd62ed3e90604401602060405180830381865afa1580156118a6573d5f803e3d5ffd5b505050506040513d601f19601f820116820180604052508101906118ca91906131aa565b10156118e85760405162461bcd60e51b815260040161054d906131c1565b600d546040516323b872dd60e01b8152336004820152306024820152604481018390526001600160a01b03909116906323b872dd906064016020604051808303815f875af115801561193c573d5f803e3d5ffd5b505050506040513d601f19601f820116820180604052508101906119609190613229565b61197c5760405162461bcd60e51b815260040161054d90613292565b61199633858560405180602001604052805f815250612079565b81600e5f8282546119a79190613197565b909155505060408051338152602081018490527fd90d253a9de34d2fdd5a75ae49ea17fcb43af32fc8ea08cc6d2341991dd3872e910160405180910390a1600a54600e5403611a26576013805460ff191660011790556040517f658874d26f90568be0c9e9763f5bd128d548b4559233ac9846a8e92c5b95e677905f90a15b50505050565b610bb23383836121f9565b6060600f805480602002602001604051908101604052809291908181526020015f905b82821015611aae575f848152602090819020604080516060810182526003860290920180548352600180820154848601526002909101546001600160a01b0316918301919091529083529092019101611a5a565b50505050905090565b5f82815260046020526040902060010154611ad181611b87565b61099a8383611db4565b6001600160a01b038516331480611af75750611af78533610494565b611b135760405162461bcd60e51b815260040161054d90613244565b61096f85858585856122d8565b6001600160a01b038316331480611b3c5750611b3c8333610494565b611b585760405162461bcd60e51b815260040161054d90613244565b61099a83838361240c565b5f6001600160e01b03198216637965db0b60e01b1480610578575061057882612522565b610be88133612571565b8151835114611bb25760405162461bcd60e51b815260040161054d90613397565b6001600160a01b038416611bd85760405162461bcd60e51b815260040161054d906133df565b33611be78187878787876125ca565b5f5b8451811015611cc1575f858281518110611c0557611c056132c0565b602002602001015190505f858381518110611c2257611c226132c0565b6020908102919091018101515f84815280835260408082206001600160a01b038e168352909352919091205490915081811015611c715760405162461bcd60e51b815260040161054d90613424565b5f838152602081815260408083206001600160a01b038e8116855292528083208585039055908b16825281208054849290611cad908490613197565b909155505060019093019250611be9915050565b50846001600160a01b0316866001600160a01b0316826001600160a01b03167f4a39dc06d4c0dbc64b70af90fd698a233a518aa5d07e595d983b8c0526c8f7fb8787604051611d1192919061346e565b60405180910390a4611d278187878787876125d8565b505050505050565b611d3982826115e3565b610bb2575f8281526004602090815260408083206001600160a01b03851684529091529020805460ff19166001179055611d703390565b6001600160a01b0316816001600160a01b0316837f2f8788117e7eff1d82e926ec794901d17c78024a50270940304540a733656f0d60405160405180910390a45050565b611dbe82826115e3565b15610bb2575f8281526004602090815260408083206001600160a01b0385168085529252808320805460ff1916905551339285917ff6391f5c32d9c69d2a47ea670b442974b53935d1edc7fd64eb21e047a839171b9190a45050565b611e22612732565b6003805460ff191690557f5db9ee0a495bf2e6ff9c91a7834c1ba4fdd244a5e8aa4e537bd38aeae4b073aa335b6040516001600160a01b03909116815260200160405180910390a1565b6001600160a01b038316611e925760405162461bcd60e51b815260040161054d9061349b565b8051825114611eb35760405162461bcd60e51b815260040161054d90613397565b5f339050611ed381855f868660405180602001604052805f8152506125ca565b5f5b8351811015611f89575f848281518110611ef157611ef16132c0565b602002602001015190505f848381518110611f0e57611f0e6132c0565b6020908102919091018101515f84815280835260408082206001600160a01b038c168352909352919091205490915081811015611f5d5760405162461bcd60e51b815260040161054d906134de565b5f928352602083815260408085206001600160a01b038b16865290915290922091039055600101611ed5565b505f6001600160a01b0316846001600160a01b0316826001600160a01b03167f4a39dc06d4c0dbc64b70af90fd698a233a518aa5d07e595d983b8c0526c8f7fb8686604051611fd992919061346e565b60405180910390a460408051602081019091525f9052611a26565b611ffc612031565b6003805460ff191660011790557f62e78cea01bee320cd4e420270b5ea74000d11b0c9f74754ebdbfc544b05a258611e4f3390565b60035460ff16156120775760405162461bcd60e51b815260206004820152601060248201526f14185d5cd8589b194e881c185d5cd95960821b604482015260640161054d565b565b6001600160a01b0384166120d95760405162461bcd60e51b815260206004820152602160248201527f455243313135353a206d696e7420746f20746865207a65726f206164647265736044820152607360f81b606482015260840161054d565b81518351146120fa5760405162461bcd60e51b815260040161054d90613397565b33612109815f878787876125ca565b5f5b845181101561219357838181518110612126576121266132c0565b60200260200101515f80878481518110612142576121426132c0565b602002602001015181526020019081526020015f205f886001600160a01b03166001600160a01b031681526020019081526020015f205f8282546121869190613197565b909155505060010161210b565b50846001600160a01b03165f6001600160a01b0316826001600160a01b03167f4a39dc06d4c0dbc64b70af90fd698a233a518aa5d07e595d983b8c0526c8f7fb87876040516121e392919061346e565b60405180910390a461096f815f878787876125d8565b816001600160a01b0316836001600160a01b03160361226c5760405162461bcd60e51b815260206004820152602960248201527f455243313135353a2073657474696e6720617070726f76616c20737461747573604482015268103337b91039b2b63360b91b606482015260840161054d565b6001600160a01b038381165f81815260016020908152604080832094871680845294825291829020805460ff191686151590811790915591519182527f17307eab39ab6107e8899845ad3d59bd9653f200f220920489ca2b5937696c31910160405180910390a3505050565b6001600160a01b0384166122fe5760405162461bcd60e51b815260040161054d906133df565b335f6123098561277b565b90505f6123158561277b565b90506123258389898585896125ca565b5f868152602081815260408083206001600160a01b038c168452909152902054858110156123655760405162461bcd60e51b815260040161054d90613424565b5f878152602081815260408083206001600160a01b038d8116855292528083208985039055908a168252812080548892906123a1908490613197565b909155505060408051888152602081018890526001600160a01b03808b16928c821692918816917fc3d58168c5ae7397731d063d5bbf3d657854427343f4c083240f7aacaa2d0f62910160405180910390a4612401848a8a8a8a8a6127c4565b505050505050505050565b6001600160a01b0383166124325760405162461bcd60e51b815260040161054d9061349b565b335f61243d8461277b565b90505f6124498461277b565b905061246783875f858560405180602001604052805f8152506125ca565b5f858152602081815260408083206001600160a01b038a168452909152902054848110156124a75760405162461bcd60e51b815260040161054d906134de565b5f868152602081815260408083206001600160a01b038b81168086529184528285208a8703905582518b81529384018a90529092908816917fc3d58168c5ae7397731d063d5bbf3d657854427343f4c083240f7aacaa2d0f62910160405180910390a460408051602081019091525f90525b50505050505050565b5f6001600160e01b03198216636cdb3d1360e11b148061255257506001600160e01b031982166303a24d0760e21b145b8061057857506301ffc9a760e01b6001600160e01b0319831614610578565b61257b82826115e3565b610bb2576125888161287e565b612593836020612890565b6040516020016125a4929190613522565b60408051601f198184030181529082905262461bcd60e51b825261054d91600401612b82565b611d27868686868686612a2c565b6001600160a01b0384163b15611d275760405163bc197c8160e01b81526001600160a01b0385169063bc197c819061261c9089908990889088908890600401613596565b6020604051808303815f875af1925050508015612656575060408051601f3d908101601f19168201909252612653918101906135f3565b60015b6127025761266261360e565b806308c379a00361269b5750612676613627565b80612681575061269d565b8060405162461bcd60e51b815260040161054d9190612b82565b505b60405162461bcd60e51b815260206004820152603460248201527f455243313135353a207472616e7366657220746f206e6f6e2d455243313135356044820152732932b1b2b4bb32b91034b6b83632b6b2b73a32b960611b606482015260840161054d565b6001600160e01b0319811663bc197c8160e01b146125195760405162461bcd60e51b815260040161054d906136af565b60035460ff166120775760405162461bcd60e51b815260206004820152601460248201527314185d5cd8589b194e881b9bdd081c185d5cd95960621b604482015260640161054d565b6040805160018082528183019092526060915f91906020808301908036833701905050905082815f815181106127b3576127b36132c0565b602090810291909101015292915050565b6001600160a01b0384163b15611d275760405163f23a6e6160e01b81526001600160a01b0385169063f23a6e619061280890899089908890889088906004016136f7565b6020604051808303815f875af1925050508015612842575060408051601f3d908101601f1916820190925261283f918101906135f3565b60015b61284e5761266261360e565b6001600160e01b0319811663f23a6e6160e01b146125195760405162461bcd60e51b815260040161054d906136af565b60606105786001600160a01b03831660145b60605f61289e836002613161565b6128a9906002613197565b6001600160401b038111156128c0576128c0612bab565b6040519080825280601f01601f1916602001820160405280156128ea576020820181803683370190505b509050600360fc1b815f81518110612904576129046132c0565b60200101906001600160f81b03191690815f1a905350600f60fb1b81600181518110612932576129326132c0565b60200101906001600160f81b03191690815f1a9053505f612954846002613161565b61295f906001613197565b90505b60018111156129d6576f181899199a1a9b1b9c1cb0b131b232b360811b85600f1660108110612993576129936132c0565b1a60f81b8282815181106129a9576129a96132c0565b60200101906001600160f81b03191690815f1a90535060049490941c936129cf8161373b565b9050612962565b508315612a255760405162461bcd60e51b815260206004820181905260248201527f537472696e67733a20686578206c656e67746820696e73756666696369656e74604482015260640161054d565b9392505050565b60035460ff1615611d275760405162461bcd60e51b815260206004820152602c60248201527f455243313135355061757361626c653a20746f6b656e207472616e736665722060448201526b1dda1a5b19481c185d5cd95960a21b606482015260840161054d565b5080545f8255905f5260205f2090810190610be891905b80821115612abe575f8155600101612aab565b5090565b80356001600160a01b0381168114612ad8575f80fd5b919050565b5f8060408385031215612aee575f80fd5b612af783612ac2565b946020939093013593505050565b6001600160e01b031981168114610be8575f80fd5b5f60208284031215612b2a575f80fd5b8135612a2581612b05565b5f5b83811015612b4f578181015183820152602001612b37565b50505f910152565b5f8151808452612b6e816020860160208601612b35565b601f01601f19169290920160200192915050565b602081525f612a256020830184612b57565b5f60208284031215612ba4575f80fd5b5035919050565b634e487b7160e01b5f52604160045260245ffd5b601f8201601f191681016001600160401b0381118282101715612be457612be4612bab565b6040525050565b5f6001600160401b03821115612c0357612c03612bab565b5060051b60200190565b5f82601f830112612c1c575f80fd5b81356020612c2982612beb565b604051612c368282612bbf565b80915083815260208101915060208460051b870101935086841115612c59575f80fd5b602086015b84811015612c755780358352918301918301612c5e565b509695505050505050565b5f82601f830112612c8f575f80fd5b81356001600160401b03811115612ca857612ca8612bab565b604051612cbf601f8301601f191660200182612bbf565b818152846020838601011115612cd3575f80fd5b816020850160208301375f918101602001919091529392505050565b5f805f805f60a08688031215612d03575f80fd5b612d0c86612ac2565b9450612d1a60208701612ac2565b935060408601356001600160401b0380821115612d35575f80fd5b612d4189838a01612c0d565b94506060880135915080821115612d56575f80fd5b612d6289838a01612c0d565b93506080880135915080821115612d77575f80fd5b50612d8488828901612c80565b9150509295509295909350565b5f8060408385031215612da2575f80fd5b82359150612db260208401612ac2565b90509250929050565b5f8060408385031215612dcc575f80fd5b82356001600160401b0380821115612de2575f80fd5b818501915085601f830112612df5575f80fd5b81356020612e0282612beb565b604051612e0f8282612bbf565b83815260059390931b8501820192828101915089841115612e2e575f80fd5b948201945b83861015612e5357612e4486612ac2565b82529482019490820190612e33565b96505086013592505080821115612e68575f80fd5b50612e7585828601612c0d565b9150509250929050565b5f815180845260208085019450602084015f5b83811015612eae57815187529582019590820190600101612e92565b509495945050505050565b602081525f612a256020830184612e7f565b5f805f60608486031215612edd575f80fd5b612ee684612ac2565b925060208401356001600160401b0380821115612f01575f80fd5b612f0d87838801612c0d565b93506040860135915080821115612f22575f80fd5b50612f2f86828701612c0d565b9150509250925092565b5f8060408385031215612f4a575f80fd5b82356001600160401b0380821115612f60575f80fd5b612f6c86838701612c0d565b93506020850135915080821115612e68575f80fd5b8015158114610be8575f80fd5b5f8060408385031215612f9f575f80fd5b612fa883612ac2565b91506020830135612fb881612f81565b809150509250929050565b602080825282518282018190525f919060409081850190868401855b828110156130175781518051855286810151878601528501516001600160a01b03168585015260609093019290850190600101612fdf565b5091979650505050505050565b634e487b7160e01b5f52602160045260245ffd5b602081016004831061305857634e487b7160e01b5f52602160045260245ffd5b91905290565b5f806040838503121561306f575f80fd5b61307883612ac2565b9150612db260208401612ac2565b5f805f805f60a0868803121561309a575f80fd5b6130a386612ac2565b94506130b160208701612ac2565b9350604086013592506060860135915060808601356001600160401b038111156130d9575f80fd5b612d8488828901612c80565b5f805f606084860312156130f7575f80fd5b61310084612ac2565b95602085013595506040909401359392505050565b600181811c9082168061312957607f821691505b60208210810361314757634e487b7160e01b5f52602260045260245ffd5b50919050565b634e487b7160e01b5f52601160045260245ffd5b80820281158282048414176105785761057861314d565b5f8261319257634e487b7160e01b5f52601260045260245ffd5b500490565b808201808211156105785761057861314d565b5f602082840312156131ba575f80fd5b5051919050565b60208082526042908201527f496e206f7264657220746f2070726f636565642c20796f75206d75737420617060408201527f70726f76652074686520726571756972656420616d6f756e74206f66205553446060820152612a1760f11b608082015260a00190565b5f60208284031215613239575f80fd5b8151612a2581612f81565b6020808252602e908201527f455243313135353a2063616c6c6572206973206e6f7420746f6b656e206f776e60408201526d195c881bdc88185c1c1c9bdd995960921b606082015260800190565b6020808252601490820152732aa9a22a103a3930b739b332b91032b93937b91760611b604082015260600190565b634e487b7160e01b5f52603260045260245ffd5b60208082526027908201527f416d6f756e7420746f2062757920657863656564657320746f74616c2066726160408201526631ba34b7b7399760c91b606082015260800190565b5f6001820161332c5761332c61314d565b5060010190565b5f60ff821660ff81036133485761334861314d565b60010192915050565b602080825282548282018190525f8481528281209092916040850190845b8181101561338b5783548352600193840193928501920161336f565b50909695505050505050565b60208082526028908201527f455243313135353a2069647320616e6420616d6f756e7473206c656e677468206040820152670dad2e6dac2e8c6d60c31b606082015260800190565b60208082526025908201527f455243313135353a207472616e7366657220746f20746865207a65726f206164604082015264647265737360d81b606082015260800190565b6020808252602a908201527f455243313135353a20696e73756666696369656e742062616c616e636520666f60408201526939103a3930b739b332b960b11b606082015260800190565b604081525f6134806040830185612e7f565b82810360208401526134928185612e7f565b95945050505050565b60208082526023908201527f455243313135353a206275726e2066726f6d20746865207a65726f206164647260408201526265737360e81b606082015260800190565b60208082526024908201527f455243313135353a206275726e20616d6f756e7420657863656564732062616c604082015263616e636560e01b606082015260800190565b7f416363657373436f6e74726f6c3a206163636f756e742000000000000000000081525f8351613559816017850160208801612b35565b7001034b99036b4b9b9b4b733903937b6329607d1b601791840191820152835161358a816028840160208801612b35565b01602801949350505050565b6001600160a01b0386811682528516602082015260a0604082018190525f906135c190830186612e7f565b82810360608401526135d38186612e7f565b905082810360808401526135e78185612b57565b98975050505050505050565b5f60208284031215613603575f80fd5b8151612a2581612b05565b5f60033d11156136245760045f803e505f5160e01c5b90565b5f60443d10156136345790565b6040516003193d81016004833e81513d6001600160401b03816024840111818411171561366357505050505090565b828501915081518181111561367b5750505050505090565b843d87010160208285010111156136955750505050505090565b6136a460208286010187612bbf565b509095945050505050565b60208082526028908201527f455243313135353a204552433131353552656365697665722072656a656374656040820152676420746f6b656e7360c01b606082015260800190565b6001600160a01b03868116825285166020820152604081018490526060810183905260a0608082018190525f9061373090830184612b57565b979650505050505050565b5f816137495761374961314d565b505f19019056fea2646970667358221220765b955b957e287248f7d439b440820ac0ad427221770869e18295f0c4e6370f64736f6c63430008170033",
    "sourcePath": "c:/Users/usuario/Desktop/Programacion/TruMarket-BB/blockchain/contracts/NFT1155.sol",
    "compiler": {
        "name": "solc",
        "version": "0.8.23+commit.f704f362"
    },
    "functionHashes": {
        "DEFAULT_ADMIN_ROLE()": "a217fddf",
        "PAUSER_ROLE()": "e63ab1e9",
        "amountToFinance()": "5ef4e99d",
        "balanceOf(address,uint256)": "00fdd58e",
        "balanceOfBatch(address[],uint256[])": "4e1273f4",
        "burn(address,uint256,uint256)": "f5298aca",
        "burnBatch(address,uint256[],uint256[])": "6b20c454",
        "buyBackPrice()": "e23000a0",
        "buyFraction(uint256)": "8e1a3b6e",
        "buyFraction2(uint256[],uint256[])": "9faffb2c",
        "contractStatus()": "c6ee20d2",
        "fractionPrice()": "56953bda",
        "getHistorial()": "b773f909",
        "getRoleAdmin(bytes32)": "248a9ca3",
        "grantRole(bytes32,address)": "2f2ff15d",
        "hasRole(bytes32,address)": "91d14854",
        "historyFractions(uint256)": "9d4150be",
        "investmentFractions()": "c7ee1042",
        "isApprovedForAll(address,address)": "e985e9c5",
        "name()": "06fdde03",
        "operationAmount()": "b1efc755",
        "pause()": "8456cb59",
        "paused()": "5c975abb",
        "renounceRole(bytes32,address)": "36568abe",
        "revokeRole(bytes32,address)": "d547741f",
        "safeBatchTransferFrom(address,address,uint256[],uint256[],bytes)": "2eb2c2d6",
        "safeTransferFrom(address,address,uint256,uint256,bytes)": "f242432a",
        "setApprovalForAll(address,bool)": "a22cb465",
        "setBuyBack(uint256)": "2a7f505b",
        "supportsInterface(bytes4)": "01ffc9a7",
        "symbol()": "95d89b41",
        "totalSupply()": "18160ddd",
        "unpause()": "3f4ba83a",
        "uri(uint256)": "0e89341c",
        "withdrawBuyBack()": "8efe6814",
        "withdrawUSDT()": "362e496b"
    },
    "gasEstimates": {
        "creation": {
            "codeDepositCost": "2842800",
            "executionCost": "infinite",
            "totalCost": "infinite"
        },
        "external": {
            "DEFAULT_ADMIN_ROLE()": "271",
            "PAUSER_ROLE()": "249",
            "amountToFinance()": "2372",
            "balanceOf(address,uint256)": "2719",
            "balanceOfBatch(address[],uint256[])": "infinite",
            "burn(address,uint256,uint256)": "infinite",
            "burnBatch(address,uint256[],uint256[])": "infinite",
            "buyBackPrice()": "2327",
            "buyFraction(uint256)": "infinite",
            "buyFraction2(uint256[],uint256[])": "infinite",
            "contractStatus()": "2417",
            "fractionPrice()": "2328",
            "getHistorial()": "infinite",
            "getRoleAdmin(bytes32)": "2498",
            "grantRole(bytes32,address)": "infinite",
            "hasRole(bytes32,address)": "2752",
            "historyFractions(uint256)": "8936",
            "investmentFractions()": "2372",
            "isApprovedForAll(address,address)": "infinite",
            "name()": "infinite",
            "operationAmount()": "2416",
            "pause()": "infinite",
            "paused()": "2370",
            "renounceRole(bytes32,address)": "29065",
            "revokeRole(bytes32,address)": "infinite",
            "safeBatchTransferFrom(address,address,uint256[],uint256[],bytes)": "infinite",
            "safeTransferFrom(address,address,uint256,uint256,bytes)": "infinite",
            "setApprovalForAll(address,bool)": "26820",
            "setBuyBack(uint256)": "infinite",
            "supportsInterface(bytes4)": "infinite",
            "symbol()": "infinite",
            "totalSupply()": "2329",
            "unpause()": "infinite",
            "uri(uint256)": "infinite",
            "withdrawBuyBack()": "infinite",
            "withdrawUSDT()": "infinite"
        },
        "internal": {
            "_beforeTokenTransfer(address,address,address,uint256[] memory,uint256[] memory,bytes memory)": "infinite"
        }
    }
}