{
    "contractName": "Factory",
    "abi": [
        {
            "inputs": [],
            "stateMutability": "nonpayable",
            "type": "constructor"
        },
        {
            "anonymous": false,
            "inputs": [
                {
                    "indexed": false,
                    "internalType": "address",
                    "name": "previousAdmin",
                    "type": "address"
                },
                {
                    "indexed": false,
                    "internalType": "address",
                    "name": "newAdmin",
                    "type": "address"
                }
            ],
            "name": "AdminChanged",
            "type": "event"
        },
        {
            "anonymous": false,
            "inputs": [
                {
                    "indexed": true,
                    "internalType": "address",
                    "name": "beacon",
                    "type": "address"
                }
            ],
            "name": "BeaconUpgraded",
            "type": "event"
        },
        {
            "anonymous": false,
            "inputs": [
                {
                    "indexed": true,
                    "internalType": "address",
                    "name": "deployedContract",
                    "type": "address"
                }
            ],
            "name": "ContractCreated",
            "type": "event"
        },
        {
            "anonymous": false,
            "inputs": [
                {
                    "indexed": false,
                    "internalType": "uint8",
                    "name": "version",
                    "type": "uint8"
                }
            ],
            "name": "Initialized",
            "type": "event"
        },
        {
            "anonymous": false,
            "inputs": [
                {
                    "indexed": false,
                    "internalType": "address",
                    "name": "account",
                    "type": "address"
                }
            ],
            "name": "Paused",
            "type": "event"
        },
        {
            "anonymous": false,
            "inputs": [
                {
                    "indexed": true,
                    "internalType": "bytes32",
                    "name": "role",
                    "type": "bytes32"
                },
                {
                    "indexed": true,
                    "internalType": "bytes32",
                    "name": "previousAdminRole",
                    "type": "bytes32"
                },
                {
                    "indexed": true,
                    "internalType": "bytes32",
                    "name": "newAdminRole",
                    "type": "bytes32"
                }
            ],
            "name": "RoleAdminChanged",
            "type": "event"
        },
        {
            "anonymous": false,
            "inputs": [
                {
                    "indexed": true,
                    "internalType": "bytes32",
                    "name": "role",
                    "type": "bytes32"
                },
                {
                    "indexed": true,
                    "internalType": "address",
                    "name": "account",
                    "type": "address"
                },
                {
                    "indexed": true,
                    "internalType": "address",
                    "name": "sender",
                    "type": "address"
                }
            ],
            "name": "RoleGranted",
            "type": "event"
        },
        {
            "anonymous": false,
            "inputs": [
                {
                    "indexed": true,
                    "internalType": "bytes32",
                    "name": "role",
                    "type": "bytes32"
                },
                {
                    "indexed": true,
                    "internalType": "address",
                    "name": "account",
                    "type": "address"
                },
                {
                    "indexed": true,
                    "internalType": "address",
                    "name": "sender",
                    "type": "address"
                }
            ],
            "name": "RoleRevoked",
            "type": "event"
        },
        {
            "anonymous": false,
            "inputs": [
                {
                    "indexed": false,
                    "internalType": "address",
                    "name": "account",
                    "type": "address"
                }
            ],
            "name": "Unpaused",
            "type": "event"
        },
        {
            "anonymous": false,
            "inputs": [
                {
                    "indexed": true,
                    "internalType": "address",
                    "name": "implementation",
                    "type": "address"
                }
            ],
            "name": "Upgraded",
            "type": "event"
        },
        {
            "inputs": [],
            "name": "DEFAULT_ADMIN_ROLE",
            "outputs": [
                {
                    "internalType": "bytes32",
                    "name": "",
                    "type": "bytes32"
                }
            ],
            "stateMutability": "view",
            "type": "function"
        },
        {
            "inputs": [
                {
                    "internalType": "string",
                    "name": "_name",
                    "type": "string"
                },
                {
                    "internalType": "uint256",
                    "name": "_operationAmount",
                    "type": "uint256"
                },
                {
                    "internalType": "uint256",
                    "name": "_amountToFinance",
                    "type": "uint256"
                },
                {
                    "internalType": "uint256",
                    "name": "_investmentFractions",
                    "type": "uint256"
                },
                {
                    "internalType": "address",
                    "name": "_addUsdc",
                    "type": "address"
                }
            ],
            "name": "FactoryFunc",
            "outputs": [
                {
                    "internalType": "address",
                    "name": "",
                    "type": "address"
                }
            ],
            "stateMutability": "nonpayable",
            "type": "function"
        },
        {
            "inputs": [],
            "name": "PAUSER_ROLE",
            "outputs": [
                {
                    "internalType": "bytes32",
                    "name": "",
                    "type": "bytes32"
                }
            ],
            "stateMutability": "view",
            "type": "function"
        },
        {
            "inputs": [],
            "name": "UPGRADER_ROLE",
            "outputs": [
                {
                    "internalType": "bytes32",
                    "name": "",
                    "type": "bytes32"
                }
            ],
            "stateMutability": "view",
            "type": "function"
        },
        {
            "inputs": [],
            "name": "contractsCounter",
            "outputs": [
                {
                    "internalType": "uint256",
                    "name": "",
                    "type": "uint256"
                }
            ],
            "stateMutability": "view",
            "type": "function"
        },
        {
            "inputs": [],
            "name": "getAddresses",
            "outputs": [
                {
                    "internalType": "address[]",
                    "name": "",
                    "type": "address[]"
                }
            ],
            "stateMutability": "view",
            "type": "function"
        },
        {
            "inputs": [
                {
                    "internalType": "bytes32",
                    "name": "role",
                    "type": "bytes32"
                }
            ],
            "name": "getRoleAdmin",
            "outputs": [
                {
                    "internalType": "bytes32",
                    "name": "",
                    "type": "bytes32"
                }
            ],
            "stateMutability": "view",
            "type": "function"
        },
        {
            "inputs": [
                {
                    "internalType": "bytes32",
                    "name": "role",
                    "type": "bytes32"
                },
                {
                    "internalType": "address",
                    "name": "account",
                    "type": "address"
                }
            ],
            "name": "grantRole",
            "outputs": [],
            "stateMutability": "nonpayable",
            "type": "function"
        },
        {
            "inputs": [
                {
                    "internalType": "bytes32",
                    "name": "role",
                    "type": "bytes32"
                },
                {
                    "internalType": "address",
                    "name": "account",
                    "type": "address"
                }
            ],
            "name": "hasRole",
            "outputs": [
                {
                    "internalType": "bool",
                    "name": "",
                    "type": "bool"
                }
            ],
            "stateMutability": "view",
            "type": "function"
        },
        {
            "inputs": [],
            "name": "initialize",
            "outputs": [],
            "stateMutability": "nonpayable",
            "type": "function"
        },
        {
            "inputs": [],
            "name": "pause",
            "outputs": [],
            "stateMutability": "nonpayable",
            "type": "function"
        },
        {
            "inputs": [],
            "name": "paused",
            "outputs": [
                {
                    "internalType": "bool",
                    "name": "",
                    "type": "bool"
                }
            ],
            "stateMutability": "view",
            "type": "function"
        },
        {
            "inputs": [],
            "name": "proxiableUUID",
            "outputs": [
                {
                    "internalType": "bytes32",
                    "name": "",
                    "type": "bytes32"
                }
            ],
            "stateMutability": "view",
            "type": "function"
        },
        {
            "inputs": [
                {
                    "internalType": "bytes32",
                    "name": "role",
                    "type": "bytes32"
                },
                {
                    "internalType": "address",
                    "name": "account",
                    "type": "address"
                }
            ],
            "name": "renounceRole",
            "outputs": [],
            "stateMutability": "nonpayable",
            "type": "function"
        },
        {
            "inputs": [
                {
                    "internalType": "bytes32",
                    "name": "role",
                    "type": "bytes32"
                },
                {
                    "internalType": "address",
                    "name": "account",
                    "type": "address"
                }
            ],
            "name": "revokeRole",
            "outputs": [],
            "stateMutability": "nonpayable",
            "type": "function"
        },
        {
            "inputs": [
                {
                    "internalType": "bytes4",
                    "name": "interfaceId",
                    "type": "bytes4"
                }
            ],
            "name": "supportsInterface",
            "outputs": [
                {
                    "internalType": "bool",
                    "name": "",
                    "type": "bool"
                }
            ],
            "stateMutability": "view",
            "type": "function"
        },
        {
            "inputs": [],
            "name": "unpause",
            "outputs": [],
            "stateMutability": "nonpayable",
            "type": "function"
        },
        {
            "inputs": [
                {
                    "internalType": "address",
                    "name": "newImplementation",
                    "type": "address"
                }
            ],
            "name": "upgradeTo",
            "outputs": [],
            "stateMutability": "nonpayable",
            "type": "function"
        },
        {
            "inputs": [
                {
                    "internalType": "address",
                    "name": "newImplementation",
                    "type": "address"
                },
                {
                    "internalType": "bytes",
                    "name": "data",
                    "type": "bytes"
                }
            ],
            "name": "upgradeToAndCall",
            "outputs": [],
            "stateMutability": "payable",
            "type": "function"
        }
    ],
    "bytecode": "60a060405230608052348015610013575f80fd5b5061001c610021565b6100dd565b5f54610100900460ff161561008c5760405162461bcd60e51b815260206004820152602760248201527f496e697469616c697a61626c653a20636f6e747261637420697320696e697469604482015266616c697a696e6760c81b606482015260840160405180910390fd5b5f5460ff908116146100db575f805460ff191660ff9081179091556040519081527f7f26b83ff96e1f2b6a682f133852f6798a09c465da95921460cefb38474024989060200160405180910390a15b565b6080516151b6620001125f395f81816105de01528181610621015281816106eb0152818161072e01526107c401526151b65ff3fe60806040526004361062000127575f3560e01c80635c975abb11620000aa578063a39fac12116200006a578063a39fac121462000315578063cc9f3ab6146200033b578063d547741f1462000353578063e63ab1e91462000377578063f72c0d8b146200039a575f80fd5b80635c975abb14620002955780638129fc1c14620002ae5780638456cb5914620002c557806391d1485414620002dc578063a217fddf1462000300575f80fd5b806336568abe11620000f657806336568abe14620002085780633659cfe6146200022c5780633f4ba83a14620002505780634f1ef286146200026757806352d1902d146200027e575f80fd5b806301ffc9a7146200012b578063248a9ca314620001645780632f2ff15d14620001a5578063316ea32314620001cb575b5f80fd5b34801562000137575f80fd5b506200014f620001493660046200152d565b620003cf565b60405190151581526020015b60405180910390f35b34801562000170575f80fd5b50620001966200018236600462001556565b5f9081526097602052604090206001015490565b6040519081526020016200015b565b348015620001b1575f80fd5b50620001c9620001c33660046200158a565b62000406565b005b348015620001d7575f80fd5b50620001ef620001e936600462001645565b62000433565b6040516001600160a01b0390911681526020016200015b565b34801562000214575f80fd5b50620001c9620002263660046200158a565b6200054e565b34801562000238575f80fd5b50620001c96200024a366004620016c5565b620005d4565b3480156200025c575f80fd5b50620001c9620006bd565b620001c962000278366004620016e1565b620006e1565b3480156200028a575f80fd5b5062000196620007b8565b348015620002a1575f80fd5b5060335460ff166200014f565b348015620002ba575f80fd5b50620001c96200086c565b348015620002d1575f80fd5b50620001c9620009e5565b348015620002e8575f80fd5b506200014f620002fa3660046200158a565b62000a09565b3480156200030c575f80fd5b50620001965f81565b34801562000321575f80fd5b506200032c62000a33565b6040516200015b919062001746565b34801562000347575f80fd5b506200019661012d5481565b3480156200035f575f80fd5b50620001c9620003713660046200158a565b62000a96565b34801562000383575f80fd5b50620001965f805160206200513a83398151915281565b348015620003a6575f80fd5b50620001967f189ab7a9244df0848122154315af71fe140f3db0fe014031783b0946b8c9d2e381565b5f6001600160e01b03198216637965db0b60e01b14806200040057506301ffc9a760e01b6001600160e01b03198316145b92915050565b5f82815260976020526040902060010154620004228162000abe565b6200042e838362000aca565b505050565b5f600161012d5f828254620004499190620017a8565b925050819055505f6200045f61012d5462000b53565b604051602001620004719190620017e2565b60405160208183030381529060405290505f87828888888861012d546040516200049b906200151f565b620004ad97969594939291906200183a565b604051809103905ff080158015620004c7573d5f803e3d5ffd5b5061012e80546001810182555f9182527fbdaadd9f750d0166045bf387a364eadd28ba243e04512a47282aa5147a68e37f0180546001600160a01b0319166001600160a01b038416908117909155604051929350839290917fcf78cf0d6f3d8371e1075c69c492ab4ec5d8cf23a1a239b6a51a1d00be7ca31291a298975050505050505050565b6001600160a01b0381163314620005c45760405162461bcd60e51b815260206004820152602f60248201527f416363657373436f6e74726f6c3a2063616e206f6e6c792072656e6f756e636560448201526e103937b632b9903337b91039b2b63360891b60648201526084015b60405180910390fd5b620005d0828262000bea565b5050565b6001600160a01b037f00000000000000000000000000000000000000000000000000000000000000001630036200061f5760405162461bcd60e51b8152600401620005bb9062001896565b7f00000000000000000000000000000000000000000000000000000000000000006001600160a01b0316620006695f805160206200511a833981519152546001600160a01b031690565b6001600160a01b031614620006925760405162461bcd60e51b8152600401620005bb90620018e2565b6200069d8162000c53565b604080515f80825260208201909252620006ba9183919062000c7f565b50565b5f805160206200513a833981519152620006d78162000abe565b620006ba62000df6565b6001600160a01b037f00000000000000000000000000000000000000000000000000000000000000001630036200072c5760405162461bcd60e51b8152600401620005bb9062001896565b7f00000000000000000000000000000000000000000000000000000000000000006001600160a01b0316620007765f805160206200511a833981519152546001600160a01b031690565b6001600160a01b0316146200079f5760405162461bcd60e51b8152600401620005bb90620018e2565b620007aa8262000c53565b620005d08282600162000c7f565b5f306001600160a01b037f00000000000000000000000000000000000000000000000000000000000000001614620008595760405162461bcd60e51b815260206004820152603860248201527f555550535570677261646561626c653a206d757374206e6f742062652063616c60448201527f6c6564207468726f7567682064656c656761746563616c6c00000000000000006064820152608401620005bb565b505f805160206200511a83398151915290565b5f54610100900460ff16158080156200088b57505f54600160ff909116105b80620008a65750303b158015620008a657505f5460ff166001145b6200090b5760405162461bcd60e51b815260206004820152602e60248201527f496e697469616c697a61626c653a20636f6e747261637420697320616c72656160448201526d191e481a5b9a5d1a585b1a5e995960921b6064820152608401620005bb565b5f805460ff1916600117905580156200092d575f805461ff0019166101001790555b6200093762000e4a565b6200094162000e7f565b6200094b62000e7f565b620009575f3362000aca565b620009715f805160206200513a8339815191523362000aca565b6200099d7f189ab7a9244df0848122154315af71fe140f3db0fe014031783b0946b8c9d2e33362000aca565b8015620006ba575f805461ff0019169055604051600181527f7f26b83ff96e1f2b6a682f133852f6798a09c465da95921460cefb38474024989060200160405180910390a150565b5f805160206200513a833981519152620009ff8162000abe565b620006ba62000ea8565b5f9182526097602090815260408084206001600160a01b0393909316845291905290205460ff1690565b606061012e80548060200260200160405190810160405280929190818152602001828054801562000a8c57602002820191905f5260205f20905b81546001600160a01b0316815260019091019060200180831162000a6d575b5050505050905090565b5f8281526097602052604090206001015462000ab28162000abe565b6200042e838362000bea565b620006ba813362000ee8565b62000ad6828262000a09565b620005d0575f8281526097602090815260408083206001600160a01b03851684529091529020805460ff1916600117905562000b0f3390565b6001600160a01b0316816001600160a01b0316837f2f8788117e7eff1d82e926ec794901d17c78024a50270940304540a733656f0d60405160405180910390a45050565b60605f62000b618362000f4c565b60010190505f8167ffffffffffffffff81111562000b835762000b83620015b7565b6040519080825280601f01601f19166020018201604052801562000bae576020820181803683370190505b5090508181016020015b5f19016f181899199a1a9b1b9c1cb0b131b232b360811b600a86061a8153600a850494508462000bb857509392505050565b62000bf6828262000a09565b15620005d0575f8281526097602090815260408083206001600160a01b0385168085529252808320805460ff1916905551339285917ff6391f5c32d9c69d2a47ea670b442974b53935d1edc7fd64eb21e047a839171b9190a45050565b7f189ab7a9244df0848122154315af71fe140f3db0fe014031783b0946b8c9d2e3620005d08162000abe565b7f4910fdfa16fed3260ed0e7147f7cc6da11a60208b5b9406d12a635614ffd91435460ff161562000cb5576200042e836200102a565b826001600160a01b03166352d1902d6040518163ffffffff1660e01b8152600401602060405180830381865afa92505050801562000d12575060408051601f3d908101601f1916820190925262000d0f918101906200192e565b60015b62000d775760405162461bcd60e51b815260206004820152602e60248201527f45524331393637557067726164653a206e657720696d706c656d656e7461746960448201526d6f6e206973206e6f74205555505360901b6064820152608401620005bb565b5f805160206200511a833981519152811462000de85760405162461bcd60e51b815260206004820152602960248201527f45524331393637557067726164653a20756e737570706f727465642070726f786044820152681a58589b195555525160ba1b6064820152608401620005bb565b506200042e838383620010c8565b62000e00620010f8565b6033805460ff191690557f5db9ee0a495bf2e6ff9c91a7834c1ba4fdd244a5e8aa4e537bd38aeae4b073aa335b6040516001600160a01b03909116815260200160405180910390a1565b5f54610100900460ff1662000e735760405162461bcd60e51b8152600401620005bb9062001946565b62000e7d62001143565b565b5f54610100900460ff1662000e7d5760405162461bcd60e51b8152600401620005bb9062001946565b62000eb262001178565b6033805460ff191660011790557f62e78cea01bee320cd4e420270b5ea74000d11b0c9f74754ebdbfc544b05a25862000e2d3390565b62000ef4828262000a09565b620005d05762000f0481620011c0565b62000f11836020620011d3565b60405160200162000f2492919062001991565b60408051601f198184030181529082905262461bcd60e51b8252620005bb9160040162001a09565b5f8072184f03e93ff9f4daa797ed6e38ed64bf6a1f0160401b831062000f8b5772184f03e93ff9f4daa797ed6e38ed64bf6a1f0160401b830492506040015b6d04ee2d6d415b85acef8100000000831062000fb8576d04ee2d6d415b85acef8100000000830492506020015b662386f26fc10000831062000fd757662386f26fc10000830492506010015b6305f5e100831062000ff0576305f5e100830492506008015b61271083106200100557612710830492506004015b6064831062001018576064830492506002015b600a8310620004005760010192915050565b6001600160a01b0381163b620010995760405162461bcd60e51b815260206004820152602d60248201527f455243313936373a206e657720696d706c656d656e746174696f6e206973206e60448201526c1bdd08184818dbdb9d1c9858dd609a1b6064820152608401620005bb565b5f805160206200511a83398151915280546001600160a01b0319166001600160a01b0392909216919091179055565b620010d3836200138e565b5f82511180620010e05750805b156200042e57620010f28383620013cf565b50505050565b60335460ff1662000e7d5760405162461bcd60e51b815260206004820152601460248201527314185d5cd8589b194e881b9bdd081c185d5cd95960621b6044820152606401620005bb565b5f54610100900460ff166200116c5760405162461bcd60e51b8152600401620005bb9062001946565b6033805460ff19169055565b60335460ff161562000e7d5760405162461bcd60e51b815260206004820152601060248201526f14185d5cd8589b194e881c185d5cd95960821b6044820152606401620005bb565b6060620004006001600160a01b03831660145b60605f620011e383600262001a1d565b620011f0906002620017a8565b67ffffffffffffffff8111156200120b576200120b620015b7565b6040519080825280601f01601f19166020018201604052801562001236576020820181803683370190505b509050600360fc1b815f8151811062001253576200125362001a37565b60200101906001600160f81b03191690815f1a905350600f60fb1b8160018151811062001284576200128462001a37565b60200101906001600160f81b03191690815f1a9053505f620012a884600262001a1d565b620012b5906001620017a8565b90505b600181111562001336576f181899199a1a9b1b9c1cb0b131b232b360811b85600f1660108110620012ed57620012ed62001a37565b1a60f81b82828151811062001306576200130662001a37565b60200101906001600160f81b03191690815f1a90535060049490941c936200132e8162001a4b565b9050620012b8565b508315620013875760405162461bcd60e51b815260206004820181905260248201527f537472696e67733a20686578206c656e67746820696e73756666696369656e746044820152606401620005bb565b9392505050565b62001399816200102a565b6040516001600160a01b038216907fbc7cd75a20ee27fd9adebab32041f755214dbc6bffa90cc0225b39da2e5c2d3b905f90a250565b60606200138783836040518060600160405280602781526020016200515a6027913960605f80856001600160a01b0316856040516200140f919062001a63565b5f60405180830381855af49150503d805f811462001449576040519150601f19603f3d011682016040523d82523d5f602084013e6200144e565b606091505b509150915062001461868383876200146b565b9695505050505050565b60608315620014de5782515f03620014d6576001600160a01b0385163b620014d65760405162461bcd60e51b815260206004820152601d60248201527f416464726573733a2063616c6c20746f206e6f6e2d636f6e74726163740000006044820152606401620005bb565b5081620014ea565b620014ea8383620014f2565b949350505050565b815115620015035781518083602001fd5b8060405162461bcd60e51b8152600401620005bb919062001a09565b6136998062001a8183390190565b5f602082840312156200153e575f80fd5b81356001600160e01b03198116811462001387575f80fd5b5f6020828403121562001567575f80fd5b5035919050565b80356001600160a01b038116811462001585575f80fd5b919050565b5f80604083850312156200159c575f80fd5b82359150620015ae602084016200156e565b90509250929050565b634e487b7160e01b5f52604160045260245ffd5b5f67ffffffffffffffff80841115620015e857620015e8620015b7565b604051601f8501601f19908116603f01168101908282118183101715620016135762001613620015b7565b816040528093508581528686860111156200162c575f80fd5b858560208301375f602087830101525050509392505050565b5f805f805f60a086880312156200165a575f80fd5b853567ffffffffffffffff81111562001671575f80fd5b8601601f8101881362001682575f80fd5b6200169388823560208401620015cb565b955050602086013593506040860135925060608601359150620016b9608087016200156e565b90509295509295909350565b5f60208284031215620016d6575f80fd5b62001387826200156e565b5f8060408385031215620016f3575f80fd5b620016fe836200156e565b9150602083013567ffffffffffffffff8111156200171a575f80fd5b8301601f810185136200172b575f80fd5b6200173c85823560208401620015cb565b9150509250929050565b602080825282518282018190525f9190848201906040850190845b81811015620017885783516001600160a01b03168352928401929184019160010162001761565b50909695505050505050565b634e487b7160e01b5f52601160045260245ffd5b8082018082111562000400576200040062001794565b5f5b83811015620017da578181015183820152602001620017c0565b50505f910152565b61544d60f01b81525f825162001800816002850160208701620017be565b9190910160020192915050565b5f815180845262001826816020860160208601620017be565b601f01601f19169290920160200192915050565b60e081525f6200184e60e083018a6200180d565b828103602084015262001862818a6200180d565b60408401989098525050606081019490945260808401929092526001600160a01b031660a083015260c09091015292915050565b6020808252602c908201527f46756e6374696f6e206d7573742062652063616c6c6564207468726f7567682060408201526b19195b1959d85d1958d85b1b60a21b606082015260800190565b6020808252602c908201527f46756e6374696f6e206d7573742062652063616c6c6564207468726f7567682060408201526b6163746976652070726f787960a01b606082015260800190565b5f602082840312156200193f575f80fd5b5051919050565b6020808252602b908201527f496e697469616c697a61626c653a20636f6e7472616374206973206e6f74206960408201526a6e697469616c697a696e6760a81b606082015260800190565b7f416363657373436f6e74726f6c3a206163636f756e742000000000000000000081525f8351620019ca816017850160208801620017be565b7001034b99036b4b9b9b4b733903937b6329607d1b6017918401918201528351620019fd816028840160208801620017be565b01602801949350505050565b602081525f6200138760208301846200180d565b808202811582820484141762000400576200040062001794565b634e487b7160e01b5f52603260045260245ffd5b5f8162001a5c5762001a5c62001794565b505f190190565b5f825162001a76818460208701620017be565b919091019291505056fe608060405234801562000010575f80fd5b506040516200369938038062003699833981016040819052620000339162000275565b60408051602081019091525f81526200004c8162000100565b506003805460ff19169055620000635f3362000112565b6200008f7f65d7a28e3265b37a6474929f336521b332c1681b933f6cb9f3376673440d862a3362000112565b600f80546001600160a01b0319166001600160a01b0384161790556005620000b88882620003ac565b506006620000c78782620003ac565b5060088590556009849055600a839055620000e3838562000478565b600b5560075550506011805460ff19169055506200049892505050565b60026200010e8282620003ac565b5050565b5f8281526004602090815260408083206001600160a01b038516845290915290205460ff166200010e575f8281526004602090815260408083206001600160a01b03851684529091529020805460ff19166001179055620001703390565b6001600160a01b0316816001600160a01b0316837f2f8788117e7eff1d82e926ec794901d17c78024a50270940304540a733656f0d60405160405180910390a45050565b634e487b7160e01b5f52604160045260245ffd5b5f82601f830112620001d8575f80fd5b81516001600160401b0380821115620001f557620001f5620001b4565b604051601f8301601f19908116603f01168101908282118183101715620002205762000220620001b4565b81604052838152602092508660208588010111156200023d575f80fd5b5f91505b8382101562000260578582018301518183018401529082019062000241565b5f602085830101528094505050505092915050565b5f805f805f805f60e0888a0312156200028c575f80fd5b87516001600160401b0380821115620002a3575f80fd5b620002b18b838c01620001c8565b985060208a0151915080821115620002c7575f80fd5b50620002d68a828b01620001c8565b60408a015160608b015160808c015160a08d0151939a509198509650945090506001600160a01b03811681146200030b575f80fd5b8092505060c0880151905092959891949750929550565b600181811c908216806200033757607f821691505b6020821081036200035657634e487b7160e01b5f52602260045260245ffd5b50919050565b601f821115620003a757805f5260205f20601f840160051c81016020851015620003835750805b601f840160051c820191505b81811015620003a4575f81556001016200038f565b50505b505050565b81516001600160401b03811115620003c857620003c8620001b4565b620003e081620003d9845462000322565b846200035c565b602080601f83116001811462000416575f8415620003fe5750858301515b5f19600386901b1c1916600185901b17855562000470565b5f85815260208120601f198616915b82811015620004465788860151825594840194600190910190840162000425565b50858210156200046457878501515f19600388901b60f8161c191681555b505060018460011b0185555b505050505050565b5f826200049357634e487b7160e01b5f52601260045260245ffd5b500490565b6131f380620004a65f395ff3fe608060405234801561000f575f80fd5b5060043610610233575f3560e01c80638e1a3b6e11610135578063b773f909116100b4578063e63ab1e911610079578063e63ab1e9146104a7578063e985e9c5146104ce578063f242432a14610509578063f5298aca1461051c578063f8dd32921461052f575f80fd5b8063b773f90914610460578063c6ee20d214610475578063c7ee104214610482578063d547741f1461048b578063e23000a01461049e575f80fd5b80639d4150be116100fa5780639d4150be146103fd578063a217fddf14610434578063a22cb4651461043b578063b1efc7551461044e578063b3cea21714610457575f80fd5b80638e1a3b6e146103bf5780638efe6814146103d257806391d14854146103da57806395d89b41146103ed578063974137b1146103f5575f80fd5b806336568abe116101c157806356953bda1161018657806356953bda146103875780635c975abb146103905780635ef4e99d1461039b5780636b20c454146103a45780638456cb59146103b7575f80fd5b806336568abe1461030d5780633eed6a17146103205780633f4ba83a146103345780633feb5f2b1461033c5780634e1273f414610367575f80fd5b8063248a9ca311610207578063248a9ca3146102a85780632a7f505b146102ca5780632eb2c2d6146102df5780632f2ff15d146102f2578063362e496b14610305575f80fd5b8062fdd58e1461023757806301ffc9a71461025d57806306fdde03146102805780630e89341c14610295575b5f80fd5b61024a610245366004612648565b610538565b6040519081526020015b60405180910390f35b61027061026b366004612685565b6105cf565b6040519015158152602001610254565b6102886105d9565b60405161025491906126ed565b6102886102a33660046126ff565b610665565b61024a6102b63660046126ff565b5f9081526004602052604090206001015490565b6102dd6102d83660046126ff565b6106f7565b005b6102dd6102ed36600461285d565b610a6f565b6102dd610300366004612900565b610abb565b6102dd610ae4565b6102dd61031b366004612900565b610c8e565b60115460ff165b604051610254919061293e565b6102dd610d0c565b61034f61034a3660046126ff565b610d41565b6040516001600160a01b039091168152602001610254565b61037a610375366004612964565b610d69565b6040516102549190612a63565b61024a600b5481565b60035460ff16610270565b61024a60095481565b6102dd6103b2366004612a75565b610e89565b6102dd610ecc565b6102dd6103cd3660046126ff565b610efe565b6102dd61140e565b6102706103e8366004612900565b6115ba565b6102886115e4565b600c5461024a565b61041061040b3660046126ff565b6115f1565b6040805193845260208401929092526001600160a01b031690820152606001610254565b61024a5f81565b6102dd610449366004612af1565b61162b565b61024a60085481565b61024a60075481565b610468611636565b6040516102549190612b26565b6011546103279060ff1681565b61024a600a5481565b6102dd610499366004612900565b6116b6565b61024a600c5481565b61024a7f65d7a28e3265b37a6474929f336521b332c1681b933f6cb9f3376673440d862a81565b6102706104dc366004612b87565b6001600160a01b039182165f90815260016020908152604080832093909416825291909152205460ff1690565b6102dd610517366004612baf565b6116da565b6102dd61052a366004612c0f565b61171f565b61024a600d5481565b5f6001600160a01b0383166105a75760405162461bcd60e51b815260206004820152602a60248201527f455243313135353a2061646472657373207a65726f206973206e6f742061207660448201526930b634b21037bbb732b960b11b60648201526084015b60405180910390fd5b505f818152602081815260408083206001600160a01b03861684529091529020545b92915050565b5f6105c982611762565b600580546105e690612c3f565b80601f016020809104026020016040519081016040528092919081815260200182805461061290612c3f565b801561065d5780601f106106345761010080835404028352916020019161065d565b820191905f5260205f20905b81548152906001019060200180831161064057829003601f168201915b505050505081565b60606002805461067490612c3f565b80601f01602080910402602001604051908101604052809291908181526020018280546106a090612c3f565b80156106eb5780601f106106c2576101008083540402835291602001916106eb565b820191905f5260205f20905b8154815290600101906020018083116106ce57829003601f168201915b50505050509050919050565b5f61070181611786565b600260115460ff16600381111561071a5761071a61292a565b146107675760405162461bcd60e51b815260206004820152601b60248201527f496e76616c69642073746174757320666f72204275796261636b2e0000000000604482015260640161059e565b5f82116107ad5760405162461bcd60e51b815260206004820152601460248201527350726f6669742063616e2774206265207a65726f60601b604482015260640161059e565b5f6064836009546107be9190612c8b565b6107c89190612ca2565b6009546107d59190612cc1565b90506107e481620f4240612c8b565b600f546040516370a0823160e01b81523360048201529192506001600160a01b0316906370a0823190602401602060405180830381865afa15801561082b573d5f803e3d5ffd5b505050506040513d601f19601f8201168201806040525081019061084f9190612cd4565b81111561089e5760405162461bcd60e51b815260206004820152601760248201527f4e6f7420656e6f75676820555344542062616c616e6365000000000000000000604482015260640161059e565b600f54604051636eb1769f60e11b815233600482015230602482015282916001600160a01b03169063dd62ed3e90604401602060405180830381865afa1580156108ea573d5f803e3d5ffd5b505050506040513d601f19601f8201168201806040525081019061090e9190612cd4565b101561098d5760405162461bcd60e51b815260206004820152604260248201527f496e206f7264657220746f2070726f636565642c20796f75206d75737420617060448201527f70726f76652074686520726571756972656420616d6f756e74206f66205553446064820152612a1760f11b608482015260a40161059e565b600f546040516323b872dd60e01b8152336004820152306024820152604481018390526001600160a01b03909116906323b872dd906064016020604051808303815f875af11580156109e1573d5f803e3d5ffd5b505050506040513d601f19601f82011682018060405250810190610a059190612ceb565b610a215760405162461bcd60e51b815260040161059e90612d06565b606483600b54610a319190612c8b565b610a3b9190612ca2565b600b54610a489190612cc1565b600c819055610a5a90620f4240612c8b565b600c5550506011805460ff1916600317905550565b6001600160a01b038516331480610a8b5750610a8b85336104dc565b610aa75760405162461bcd60e51b815260040161059e90612d34565b610ab48585858585611790565b5050505050565b5f82815260046020526040902060010154610ad581611786565b610adf838361192e565b505050565b5f610aee81611786565b600f546040516370a0823160e01b81523060048201525f916001600160a01b0316906370a0823190602401602060405180830381865afa158015610b34573d5f803e3d5ffd5b505050506040513d601f19601f82011682018060405250810190610b589190612cd4565b9050600160115460ff166003811115610b7357610b7361292a565b14610bb65760405162461bcd60e51b81526020600482015260136024820152722737ba1037b71039b7b6321039ba30ba3ab99760691b604482015260640161059e565b600f5460405163a9059cbb60e01b8152336004820152602481018390526001600160a01b039091169063a9059cbb906044016020604051808303815f875af1158015610c04573d5f803e3d5ffd5b505050506040513d601f19601f82011682018060405250810190610c289190612ceb565b610c445760405162461bcd60e51b815260040161059e90612d06565b6011805460ff1916600217905560408051338152602081018390527fe3d1236ecf6efa77c3b3e79162ba9c387bb4b5230852cabb42b2e3f6a65ffec2910160405180910390a15050565b6001600160a01b0381163314610cfe5760405162461bcd60e51b815260206004820152602f60248201527f416363657373436f6e74726f6c3a2063616e206f6e6c792072656e6f756e636560448201526e103937b632b9903337b91039b2b63360891b606482015260840161059e565b610d0882826119b3565b5050565b7f65d7a28e3265b37a6474929f336521b332c1681b933f6cb9f3376673440d862a610d3681611786565b610d3e611a19565b50565b600e8181548110610d50575f80fd5b5f918252602090912001546001600160a01b0316905081565b60608151835114610dce5760405162461bcd60e51b815260206004820152602960248201527f455243313135353a206163636f756e747320616e6420696473206c656e677468604482015268040dad2e6dac2e8c6d60bb1b606482015260840161059e565b5f835167ffffffffffffffff811115610de957610de9612716565b604051908082528060200260200182016040528015610e12578160200160208202803683370190505b5090505f5b8451811015610e8157610e5c858281518110610e3557610e35612d82565b6020026020010151858381518110610e4f57610e4f612d82565b6020026020010151610538565b828281518110610e6e57610e6e612d82565b6020908102919091010152600101610e17565b509392505050565b6001600160a01b038316331480610ea55750610ea583336104dc565b610ec15760405162461bcd60e51b815260040161059e90612d34565b610adf838383611a6b565b7f65d7a28e3265b37a6474929f336521b332c1681b933f6cb9f3376673440d862a610ef681611786565b610d3e611bf4565b610f06611c31565b5f81600b54620f4240610f199190612c8b565b610f239190612c8b565b90505f60115460ff166003811115610f3d57610f3d61292a565b14610f805760405162461bcd60e51b81526020600482015260136024820152722a34329039b0b6329034b99031b637b9b2b21760691b604482015260640161059e565b5f8211610fc85760405162461bcd60e51b815260206004820152601660248201527520b6b7bab73a1031b0b73737ba103132903d32b9379760511b604482015260640161059e565b600d54600a54610fd89190612d96565b8211156110365760405162461bcd60e51b815260206004820152602660248201527f416d6f756e7420746f20627579206578636565647320746f74616c20667261636044820152653a34b7b7399760d11b606482015260840161059e565b600f546040516370a0823160e01b815233600482015282916001600160a01b0316906370a0823190602401602060405180830381865afa15801561107c573d5f803e3d5ffd5b505050506040513d601f19601f820116820180604052508101906110a09190612cd4565b10156110ee5760405162461bcd60e51b815260206004820152601a60248201527f496e73756666696369656e7420555344542062616c616e63652e000000000000604482015260640161059e565b600f54604051636eb1769f60e11b815233600482015230602482015282916001600160a01b03169063dd62ed3e90604401602060405180830381865afa15801561113a573d5f803e3d5ffd5b505050506040513d601f19601f8201168201806040525081019061115e9190612cd4565b10156111b85760405162461bcd60e51b8152602060048201526024808201527f417070726f76652074686520726571756972656420616d6f756e74206f66205560448201526329a22a1760e11b606482015260840161059e565b600f546040516323b872dd60e01b8152336004820152306024820152604481018390526001600160a01b03909116906323b872dd906064016020604051808303815f875af115801561120c573d5f803e3d5ffd5b505050506040513d601f19601f820116820180604052508101906112309190612ceb565b61124c5760405162461bcd60e51b815260040161059e90612d06565b611268336007548460405180602001604052805f815250611c79565b60408051338152602081018490527fd90d253a9de34d2fdd5a75ae49ea17fcb43af32fc8ea08cc6d2341991dd3872e910160405180910390a1600e80546001810182555f9182527fbb7b4a454dc3493923482f07822329ed19e8244eff582cc204f8554c3620c3fd0180546001600160a01b03191633179055600d80548492906112f3908490612cc1565b9091555050600a54600d540361134d576011805460ff191660011790556009546040517fa9bd1ee47937bee215a99910f193b3d3f3dec63a935e5be277309ce06b0a2b9f9161134491600e90612da9565b60405180910390a15b5060408051606081018252918252426020830190815233918301918252601080546001810182555f9190915292517f1b6847dc741a1b0cd08d278845f9d819d87b734759afb55fe2de5cb82a9ae672600390940293840155517f1b6847dc741a1b0cd08d278845f9d819d87b734759afb55fe2de5cb82a9ae673830155517f1b6847dc741a1b0cd08d278845f9d819d87b734759afb55fe2de5cb82a9ae67490910180546001600160a01b0319166001600160a01b03909216919091179055565b611416611c31565b600360115460ff16600381111561142f5761142f61292a565b1461147c5760405162461bcd60e51b815260206004820152601960248201527f436f6e7472616374206973206e6f742066696e69736865642e00000000000000604482015260640161059e565b5f61148933600754610538565b90505f81116114d25760405162461bcd60e51b815260206004820152601560248201527421b0b63632b9103430b9903737903a37b5b2b7399760591b604482015260640161059e565b5f600c54826114e19190612c8b565b90506114f03360075484611d96565b60075460408051918252602082018490527fb98a7424d5f1b26fcef82bf9ffc50913246b18195d53475580c9ba5ee7c0fc75910160405180910390a1600f5460405163a9059cbb60e01b8152336004820152602481018390526001600160a01b039091169063a9059cbb906044016020604051808303815f875af115801561157a573d5f803e3d5ffd5b505050506040513d601f19601f8201168201806040525081019061159e9190612ceb565b610d085760405162461bcd60e51b815260040161059e90612d06565b5f9182526004602090815260408084206001600160a01b0393909316845291905290205460ff1690565b600680546105e690612c3f565b60108181548110611600575f80fd5b5f9182526020909120600390910201805460018201546002909201549092506001600160a01b031683565b610d08338383611ea7565b60606010805480602002602001604051908101604052809291908181526020015f905b828210156116ad575f848152602090819020604080516060810182526003860290920180548352600180820154848601526002909101546001600160a01b0316918301919091529083529092019101611659565b50505050905090565b5f828152600460205260409020600101546116d081611786565b610adf83836119b3565b6001600160a01b0385163314806116f657506116f685336104dc565b6117125760405162461bcd60e51b815260040161059e90612d34565b610ab48585858585611f86565b6001600160a01b03831633148061173b575061173b83336104dc565b6117575760405162461bcd60e51b815260040161059e90612d34565b610adf838383611d96565b5f6001600160e01b03198216637965db0b60e01b14806105c957506105c9826120ba565b610d3e8133612109565b81518351146117b15760405162461bcd60e51b815260040161059e90612e03565b6001600160a01b0384166117d75760405162461bcd60e51b815260040161059e90612e4b565b336117e6818787878787612162565b5f5b84518110156118c0575f85828151811061180457611804612d82565b602002602001015190505f85838151811061182157611821612d82565b6020908102919091018101515f84815280835260408082206001600160a01b038e1683529093529190912054909150818110156118705760405162461bcd60e51b815260040161059e90612e90565b5f838152602081815260408083206001600160a01b038e8116855292528083208585039055908b168252812080548492906118ac908490612cc1565b9091555050600190930192506117e8915050565b50846001600160a01b0316866001600160a01b0316826001600160a01b03167f4a39dc06d4c0dbc64b70af90fd698a233a518aa5d07e595d983b8c0526c8f7fb8787604051611910929190612eda565b60405180910390a4611926818787878787612170565b505050505050565b61193882826115ba565b610d08575f8281526004602090815260408083206001600160a01b03851684529091529020805460ff1916600117905561196f3390565b6001600160a01b0316816001600160a01b0316837f2f8788117e7eff1d82e926ec794901d17c78024a50270940304540a733656f0d60405160405180910390a45050565b6119bd82826115ba565b15610d08575f8281526004602090815260408083206001600160a01b0385168085529252808320805460ff1916905551339285917ff6391f5c32d9c69d2a47ea670b442974b53935d1edc7fd64eb21e047a839171b9190a45050565b611a216122ca565b6003805460ff191690557f5db9ee0a495bf2e6ff9c91a7834c1ba4fdd244a5e8aa4e537bd38aeae4b073aa335b6040516001600160a01b03909116815260200160405180910390a1565b6001600160a01b038316611a915760405162461bcd60e51b815260040161059e90612f07565b8051825114611ab25760405162461bcd60e51b815260040161059e90612e03565b5f339050611ad281855f868660405180602001604052805f815250612162565b5f5b8351811015611b88575f848281518110611af057611af0612d82565b602002602001015190505f848381518110611b0d57611b0d612d82565b6020908102919091018101515f84815280835260408082206001600160a01b038c168352909352919091205490915081811015611b5c5760405162461bcd60e51b815260040161059e90612f4a565b5f928352602083815260408085206001600160a01b038b16865290915290922091039055600101611ad4565b505f6001600160a01b0316846001600160a01b0316826001600160a01b03167f4a39dc06d4c0dbc64b70af90fd698a233a518aa5d07e595d983b8c0526c8f7fb8686604051611bd8929190612eda565b60405180910390a460408051602081019091525f905250505050565b611bfc611c31565b6003805460ff191660011790557f62e78cea01bee320cd4e420270b5ea74000d11b0c9f74754ebdbfc544b05a258611a4e3390565b60035460ff1615611c775760405162461bcd60e51b815260206004820152601060248201526f14185d5cd8589b194e881c185d5cd95960821b604482015260640161059e565b565b6001600160a01b038416611cd95760405162461bcd60e51b815260206004820152602160248201527f455243313135353a206d696e7420746f20746865207a65726f206164647265736044820152607360f81b606482015260840161059e565b335f611ce485612313565b90505f611cf085612313565b9050611d00835f89858589612162565b5f868152602081815260408083206001600160a01b038b16845290915281208054879290611d2f908490612cc1565b909155505060408051878152602081018790526001600160a01b03808a16925f92918716917fc3d58168c5ae7397731d063d5bbf3d657854427343f4c083240f7aacaa2d0f62910160405180910390a4611d8d835f8989898961235c565b50505050505050565b6001600160a01b038316611dbc5760405162461bcd60e51b815260040161059e90612f07565b335f611dc784612313565b90505f611dd384612313565b9050611df183875f858560405180602001604052805f815250612162565b5f858152602081815260408083206001600160a01b038a16845290915290205484811015611e315760405162461bcd60e51b815260040161059e90612f4a565b5f868152602081815260408083206001600160a01b038b81168086529184528285208a8703905582518b81529384018a90529092908816917fc3d58168c5ae7397731d063d5bbf3d657854427343f4c083240f7aacaa2d0f62910160405180910390a460408051602081019091525f9052611d8d565b816001600160a01b0316836001600160a01b031603611f1a5760405162461bcd60e51b815260206004820152602960248201527f455243313135353a2073657474696e6720617070726f76616c20737461747573604482015268103337b91039b2b63360b91b606482015260840161059e565b6001600160a01b038381165f81815260016020908152604080832094871680845294825291829020805460ff191686151590811790915591519182527f17307eab39ab6107e8899845ad3d59bd9653f200f220920489ca2b5937696c31910160405180910390a3505050565b6001600160a01b038416611fac5760405162461bcd60e51b815260040161059e90612e4b565b335f611fb785612313565b90505f611fc385612313565b9050611fd3838989858589612162565b5f868152602081815260408083206001600160a01b038c168452909152902054858110156120135760405162461bcd60e51b815260040161059e90612e90565b5f878152602081815260408083206001600160a01b038d8116855292528083208985039055908a1682528120805488929061204f908490612cc1565b909155505060408051888152602081018890526001600160a01b03808b16928c821692918816917fc3d58168c5ae7397731d063d5bbf3d657854427343f4c083240f7aacaa2d0f62910160405180910390a46120af848a8a8a8a8a61235c565b505050505050505050565b5f6001600160e01b03198216636cdb3d1360e11b14806120ea57506001600160e01b031982166303a24d0760e21b145b806105c957506301ffc9a760e01b6001600160e01b03198316146105c9565b61211382826115ba565b610d085761212081612416565b61212b836020612428565b60405160200161213c929190612f8e565b60408051601f198184030181529082905262461bcd60e51b825261059e916004016126ed565b6119268686868686866125c5565b6001600160a01b0384163b156119265760405163bc197c8160e01b81526001600160a01b0385169063bc197c81906121b49089908990889088908890600401613002565b6020604051808303815f875af19250505080156121ee575060408051601f3d908101601f191682019092526121eb9181019061305f565b60015b61229a576121fa61307a565b806308c379a003612233575061220e613093565b806122195750612235565b8060405162461bcd60e51b815260040161059e91906126ed565b505b60405162461bcd60e51b815260206004820152603460248201527f455243313135353a207472616e7366657220746f206e6f6e2d455243313135356044820152732932b1b2b4bb32b91034b6b83632b6b2b73a32b960611b606482015260840161059e565b6001600160e01b0319811663bc197c8160e01b14611d8d5760405162461bcd60e51b815260040161059e9061311c565b60035460ff16611c775760405162461bcd60e51b815260206004820152601460248201527314185d5cd8589b194e881b9bdd081c185d5cd95960621b604482015260640161059e565b6040805160018082528183019092526060915f91906020808301908036833701905050905082815f8151811061234b5761234b612d82565b602090810291909101015292915050565b6001600160a01b0384163b156119265760405163f23a6e6160e01b81526001600160a01b0385169063f23a6e61906123a09089908990889088908890600401613164565b6020604051808303815f875af19250505080156123da575060408051601f3d908101601f191682019092526123d79181019061305f565b60015b6123e6576121fa61307a565b6001600160e01b0319811663f23a6e6160e01b14611d8d5760405162461bcd60e51b815260040161059e9061311c565b60606105c96001600160a01b03831660145b60605f612436836002612c8b565b612441906002612cc1565b67ffffffffffffffff81111561245957612459612716565b6040519080825280601f01601f191660200182016040528015612483576020820181803683370190505b509050600360fc1b815f8151811061249d5761249d612d82565b60200101906001600160f81b03191690815f1a905350600f60fb1b816001815181106124cb576124cb612d82565b60200101906001600160f81b03191690815f1a9053505f6124ed846002612c8b565b6124f8906001612cc1565b90505b600181111561256f576f181899199a1a9b1b9c1cb0b131b232b360811b85600f166010811061252c5761252c612d82565b1a60f81b82828151811061254257612542612d82565b60200101906001600160f81b03191690815f1a90535060049490941c93612568816131a8565b90506124fb565b5083156125be5760405162461bcd60e51b815260206004820181905260248201527f537472696e67733a20686578206c656e67746820696e73756666696369656e74604482015260640161059e565b9392505050565b60035460ff16156119265760405162461bcd60e51b815260206004820152602c60248201527f455243313135355061757361626c653a20746f6b656e207472616e736665722060448201526b1dda1a5b19481c185d5cd95960a21b606482015260840161059e565b80356001600160a01b0381168114612643575f80fd5b919050565b5f8060408385031215612659575f80fd5b6126628361262d565b946020939093013593505050565b6001600160e01b031981168114610d3e575f80fd5b5f60208284031215612695575f80fd5b81356125be81612670565b5f5b838110156126ba5781810151838201526020016126a2565b50505f910152565b5f81518084526126d98160208601602086016126a0565b601f01601f19169290920160200192915050565b602081525f6125be60208301846126c2565b5f6020828403121561270f575f80fd5b5035919050565b634e487b7160e01b5f52604160045260245ffd5b601f8201601f1916810167ffffffffffffffff8111828210171561275057612750612716565b6040525050565b5f67ffffffffffffffff82111561277057612770612716565b5060051b60200190565b5f82601f830112612789575f80fd5b8135602061279682612757565b6040516127a3828261272a565b80915083815260208101915060208460051b8701019350868411156127c6575f80fd5b602086015b848110156127e257803583529183019183016127cb565b509695505050505050565b5f82601f8301126127fc575f80fd5b813567ffffffffffffffff81111561281657612816612716565b60405161282d601f8301601f19166020018261272a565b818152846020838601011115612841575f80fd5b816020850160208301375f918101602001919091529392505050565b5f805f805f60a08688031215612871575f80fd5b61287a8661262d565b94506128886020870161262d565b9350604086013567ffffffffffffffff808211156128a4575f80fd5b6128b089838a0161277a565b945060608801359150808211156128c5575f80fd5b6128d189838a0161277a565b935060808801359150808211156128e6575f80fd5b506128f3888289016127ed565b9150509295509295909350565b5f8060408385031215612911575f80fd5b823591506129216020840161262d565b90509250929050565b634e487b7160e01b5f52602160045260245ffd5b602081016004831061295e57634e487b7160e01b5f52602160045260245ffd5b91905290565b5f8060408385031215612975575f80fd5b823567ffffffffffffffff8082111561298c575f80fd5b818501915085601f83011261299f575f80fd5b813560206129ac82612757565b6040516129b9828261272a565b83815260059390931b85018201928281019150898411156129d8575f80fd5b948201945b838610156129fd576129ee8661262d565b825294820194908201906129dd565b96505086013592505080821115612a12575f80fd5b50612a1f8582860161277a565b9150509250929050565b5f815180845260208085019450602084015f5b83811015612a5857815187529582019590820190600101612a3c565b509495945050505050565b602081525f6125be6020830184612a29565b5f805f60608486031215612a87575f80fd5b612a908461262d565b9250602084013567ffffffffffffffff80821115612aac575f80fd5b612ab88783880161277a565b93506040860135915080821115612acd575f80fd5b50612ada8682870161277a565b9150509250925092565b8015158114610d3e575f80fd5b5f8060408385031215612b02575f80fd5b612b0b8361262d565b91506020830135612b1b81612ae4565b809150509250929050565b602080825282518282018190525f919060409081850190868401855b82811015612b7a5781518051855286810151878601528501516001600160a01b03168585015260609093019290850190600101612b42565b5091979650505050505050565b5f8060408385031215612b98575f80fd5b612ba18361262d565b91506129216020840161262d565b5f805f805f60a08688031215612bc3575f80fd5b612bcc8661262d565b9450612bda6020870161262d565b93506040860135925060608601359150608086013567ffffffffffffffff811115612c03575f80fd5b6128f3888289016127ed565b5f805f60608486031215612c21575f80fd5b612c2a8461262d565b95602085013595506040909401359392505050565b600181811c90821680612c5357607f821691505b602082108103612c7157634e487b7160e01b5f52602260045260245ffd5b50919050565b634e487b7160e01b5f52601160045260245ffd5b80820281158282048414176105c9576105c9612c77565b5f82612cbc57634e487b7160e01b5f52601260045260245ffd5b500490565b808201808211156105c9576105c9612c77565b5f60208284031215612ce4575f80fd5b5051919050565b5f60208284031215612cfb575f80fd5b81516125be81612ae4565b6020808252601490820152732aa9a22a103a3930b739b332b91032b93937b91760611b604082015260600190565b6020808252602e908201527f455243313135353a2063616c6c6572206973206e6f7420746f6b656e206f776e60408201526d195c881bdc88185c1c1c9bdd995960921b606082015260800190565b634e487b7160e01b5f52603260045260245ffd5b818103818111156105c9576105c9612c77565b5f60408201848352602060406020850152818554808452606086019150865f5260205f2093505f5b81811015612df65784546001600160a01b031683526001948501949284019201612dd1565b5090979650505050505050565b60208082526028908201527f455243313135353a2069647320616e6420616d6f756e7473206c656e677468206040820152670dad2e6dac2e8c6d60c31b606082015260800190565b60208082526025908201527f455243313135353a207472616e7366657220746f20746865207a65726f206164604082015264647265737360d81b606082015260800190565b6020808252602a908201527f455243313135353a20696e73756666696369656e742062616c616e636520666f60408201526939103a3930b739b332b960b11b606082015260800190565b604081525f612eec6040830185612a29565b8281036020840152612efe8185612a29565b95945050505050565b60208082526023908201527f455243313135353a206275726e2066726f6d20746865207a65726f206164647260408201526265737360e81b606082015260800190565b60208082526024908201527f455243313135353a206275726e20616d6f756e7420657863656564732062616c604082015263616e636560e01b606082015260800190565b7f416363657373436f6e74726f6c3a206163636f756e742000000000000000000081525f8351612fc58160178501602088016126a0565b7001034b99036b4b9b9b4b733903937b6329607d1b6017918401918201528351612ff68160288401602088016126a0565b01602801949350505050565b6001600160a01b0386811682528516602082015260a0604082018190525f9061302d90830186612a29565b828103606084015261303f8186612a29565b9050828103608084015261305381856126c2565b98975050505050505050565b5f6020828403121561306f575f80fd5b81516125be81612670565b5f60033d11156130905760045f803e505f5160e01c5b90565b5f60443d10156130a05790565b6040516003193d81016004833e81513d67ffffffffffffffff81602484011181841117156130d057505050505090565b82850191508151818111156130e85750505050505090565b843d87010160208285010111156131025750505050505090565b6131116020828601018761272a565b509095945050505050565b60208082526028908201527f455243313135353a204552433131353552656365697665722072656a656374656040820152676420746f6b656e7360c01b606082015260800190565b6001600160a01b03868116825285166020820152604081018490526060810183905260a0608082018190525f9061319d908301846126c2565b979650505050505050565b5f816131b6576131b6612c77565b505f19019056fea26469706673582212209a0b607b8cedf4200a426c6e1058c6df36086a735156ea3268a543e26332409964736f6c63430008170033360894a13ba1a3210667c828492db98dca3e2076cc3735a920a3ca505d382bbc65d7a28e3265b37a6474929f336521b332c1681b933f6cb9f3376673440d862a416464726573733a206c6f772d6c6576656c2064656c65676174652063616c6c206661696c6564a2646970667358221220ec6a9ba75b0645279cfa4437b0a71b000033464d78940fb87dec7c9964ddbc8564736f6c63430008170033",
    "sourcePath": "c:/Users/usuario/Desktop/Programacion/TruMarket-BB/contracts/NftFactory.sol",
    "compiler": {
        "name": "solc",
        "version": "0.8.23+commit.f704f362"
    },
    "functionHashes": {
        "DEFAULT_ADMIN_ROLE()": "a217fddf",
        "FactoryFunc(string,uint256,uint256,uint256,address)": "316ea323",
        "PAUSER_ROLE()": "e63ab1e9",
        "UPGRADER_ROLE()": "f72c0d8b",
        "contractsCounter()": "cc9f3ab6",
        "getAddresses()": "a39fac12",
        "getRoleAdmin(bytes32)": "248a9ca3",
        "grantRole(bytes32,address)": "2f2ff15d",
        "hasRole(bytes32,address)": "91d14854",
        "initialize()": "8129fc1c",
        "pause()": "8456cb59",
        "paused()": "5c975abb",
        "proxiableUUID()": "52d1902d",
        "renounceRole(bytes32,address)": "36568abe",
        "revokeRole(bytes32,address)": "d547741f",
        "supportsInterface(bytes4)": "01ffc9a7",
        "unpause()": "3f4ba83a",
        "upgradeTo(address)": "3659cfe6",
        "upgradeToAndCall(address,bytes)": "4f1ef286"
    },
    "gasEstimates": {
        "creation": {
            "codeDepositCost": "4183600",
            "executionCost": "infinite",
            "totalCost": "infinite"
        },
        "external": {
            "DEFAULT_ADMIN_ROLE()": "304",
            "FactoryFunc(string,uint256,uint256,uint256,address)": "infinite",
            "PAUSER_ROLE()": "infinite",
            "UPGRADER_ROLE()": "304",
            "contractsCounter()": "2338",
            "getAddresses()": "infinite",
            "getRoleAdmin(bytes32)": "2487",
            "grantRole(bytes32,address)": "infinite",
            "hasRole(bytes32,address)": "2740",
            "initialize()": "infinite",
            "pause()": "infinite",
            "paused()": "2315",
            "proxiableUUID()": "infinite",
            "renounceRole(bytes32,address)": "29020",
            "revokeRole(bytes32,address)": "infinite",
            "supportsInterface(bytes4)": "447",
            "unpause()": "infinite",
            "upgradeTo(address)": "infinite",
            "upgradeToAndCall(address,bytes)": "infinite"
        },
        "internal": {
            "_authorizeUpgrade(address)": "infinite"
        }
    }
}