{
    "contractName": "FinancingContractERC721",
    "abi": [
        {
            "inputs": [
                {
                    "internalType": "string",
                    "name": "_name",
                    "type": "string"
                },
                {
                    "internalType": "string",
                    "name": "_symbol",
                    "type": "string"
                },
                {
                    "internalType": "uint256",
                    "name": "_amountToFinance",
                    "type": "uint256"
                },
                {
                    "internalType": "uint256",
                    "name": "_investmentFractions",
                    "type": "uint256"
                },
                {
                    "internalType": "address",
                    "name": "_addUsdt",
                    "type": "address"
                }
            ],
            "stateMutability": "nonpayable",
            "type": "constructor"
        },
        {
            "anonymous": false,
            "inputs": [
                {
                    "indexed": true,
                    "internalType": "address",
                    "name": "owner",
                    "type": "address"
                },
                {
                    "indexed": true,
                    "internalType": "address",
                    "name": "approved",
                    "type": "address"
                },
                {
                    "indexed": true,
                    "internalType": "uint256",
                    "name": "tokenId",
                    "type": "uint256"
                }
            ],
            "name": "Approval",
            "type": "event"
        },
        {
            "anonymous": false,
            "inputs": [
                {
                    "indexed": true,
                    "internalType": "address",
                    "name": "owner",
                    "type": "address"
                },
                {
                    "indexed": true,
                    "internalType": "address",
                    "name": "operator",
                    "type": "address"
                },
                {
                    "indexed": false,
                    "internalType": "bool",
                    "name": "approved",
                    "type": "bool"
                }
            ],
            "name": "ApprovalForAll",
            "type": "event"
        },
        {
            "anonymous": false,
            "inputs": [
                {
                    "indexed": false,
                    "internalType": "uint256",
                    "name": "tokenId",
                    "type": "uint256"
                }
            ],
            "name": "BurnNft",
            "type": "event"
        },
        {
            "anonymous": false,
            "inputs": [
                {
                    "indexed": false,
                    "internalType": "address",
                    "name": "investor",
                    "type": "address"
                },
                {
                    "indexed": false,
                    "internalType": "uint256",
                    "name": "fractions",
                    "type": "uint256"
                }
            ],
            "name": "Invest",
            "type": "event"
        },
        {
            "anonymous": false,
            "inputs": [
                {
                    "indexed": false,
                    "internalType": "address",
                    "name": "account",
                    "type": "address"
                }
            ],
            "name": "Paused",
            "type": "event"
        },
        {
            "anonymous": false,
            "inputs": [
                {
                    "indexed": true,
                    "internalType": "bytes32",
                    "name": "role",
                    "type": "bytes32"
                },
                {
                    "indexed": true,
                    "internalType": "bytes32",
                    "name": "previousAdminRole",
                    "type": "bytes32"
                },
                {
                    "indexed": true,
                    "internalType": "bytes32",
                    "name": "newAdminRole",
                    "type": "bytes32"
                }
            ],
            "name": "RoleAdminChanged",
            "type": "event"
        },
        {
            "anonymous": false,
            "inputs": [
                {
                    "indexed": true,
                    "internalType": "bytes32",
                    "name": "role",
                    "type": "bytes32"
                },
                {
                    "indexed": true,
                    "internalType": "address",
                    "name": "account",
                    "type": "address"
                },
                {
                    "indexed": true,
                    "internalType": "address",
                    "name": "sender",
                    "type": "address"
                }
            ],
            "name": "RoleGranted",
            "type": "event"
        },
        {
            "anonymous": false,
            "inputs": [
                {
                    "indexed": true,
                    "internalType": "bytes32",
                    "name": "role",
                    "type": "bytes32"
                },
                {
                    "indexed": true,
                    "internalType": "address",
                    "name": "account",
                    "type": "address"
                },
                {
                    "indexed": true,
                    "internalType": "address",
                    "name": "sender",
                    "type": "address"
                }
            ],
            "name": "RoleRevoked",
            "type": "event"
        },
        {
            "anonymous": false,
            "inputs": [],
            "name": "TotalAmountFinanced",
            "type": "event"
        },
        {
            "anonymous": false,
            "inputs": [
                {
                    "indexed": true,
                    "internalType": "address",
                    "name": "from",
                    "type": "address"
                },
                {
                    "indexed": true,
                    "internalType": "address",
                    "name": "to",
                    "type": "address"
                },
                {
                    "indexed": true,
                    "internalType": "uint256",
                    "name": "tokenId",
                    "type": "uint256"
                }
            ],
            "name": "Transfer",
            "type": "event"
        },
        {
            "anonymous": false,
            "inputs": [
                {
                    "indexed": false,
                    "internalType": "address",
                    "name": "account",
                    "type": "address"
                }
            ],
            "name": "Unpaused",
            "type": "event"
        },
        {
            "anonymous": false,
            "inputs": [],
            "name": "WithdrawComplete",
            "type": "event"
        },
        {
            "anonymous": false,
            "inputs": [
                {
                    "indexed": false,
                    "internalType": "uint256",
                    "name": "step",
                    "type": "uint256"
                },
                {
                    "indexed": false,
                    "internalType": "string",
                    "name": "description",
                    "type": "string"
                }
            ],
            "name": "newMilestone",
            "type": "event"
        },
        {
            "inputs": [],
            "name": "DEFAULT_ADMIN_ROLE",
            "outputs": [
                {
                    "internalType": "bytes32",
                    "name": "",
                    "type": "bytes32"
                }
            ],
            "stateMutability": "view",
            "type": "function"
        },
        {
            "inputs": [],
            "name": "PAUSER_ROLE",
            "outputs": [
                {
                    "internalType": "bytes32",
                    "name": "",
                    "type": "bytes32"
                }
            ],
            "stateMutability": "view",
            "type": "function"
        },
        {
            "inputs": [],
            "name": "amountToFinance",
            "outputs": [
                {
                    "internalType": "uint256",
                    "name": "",
                    "type": "uint256"
                }
            ],
            "stateMutability": "view",
            "type": "function"
        },
        {
            "inputs": [
                {
                    "internalType": "address",
                    "name": "to",
                    "type": "address"
                },
                {
                    "internalType": "uint256",
                    "name": "tokenId",
                    "type": "uint256"
                }
            ],
            "name": "approve",
            "outputs": [],
            "stateMutability": "nonpayable",
            "type": "function"
        },
        {
            "inputs": [
                {
                    "internalType": "address",
                    "name": "owner",
                    "type": "address"
                }
            ],
            "name": "balanceOf",
            "outputs": [
                {
                    "internalType": "uint256",
                    "name": "",
                    "type": "uint256"
                }
            ],
            "stateMutability": "view",
            "type": "function"
        },
        {
            "inputs": [],
            "name": "buyBackPrice",
            "outputs": [
                {
                    "internalType": "uint256",
                    "name": "",
                    "type": "uint256"
                }
            ],
            "stateMutability": "view",
            "type": "function"
        },
        {
            "inputs": [
                {
                    "internalType": "uint256",
                    "name": "_amount",
                    "type": "uint256"
                }
            ],
            "name": "buyFraction",
            "outputs": [],
            "stateMutability": "nonpayable",
            "type": "function"
        },
        {
            "inputs": [],
            "name": "contractStatus",
            "outputs": [
                {
                    "internalType": "enum FinancingContractERC721.Status",
                    "name": "",
                    "type": "uint8"
                }
            ],
            "stateMutability": "view",
            "type": "function"
        },
        {
            "inputs": [],
            "name": "fractionPrice",
            "outputs": [
                {
                    "internalType": "uint256",
                    "name": "",
                    "type": "uint256"
                }
            ],
            "stateMutability": "view",
            "type": "function"
        },
        {
            "inputs": [
                {
                    "internalType": "uint256",
                    "name": "tokenId",
                    "type": "uint256"
                }
            ],
            "name": "getApproved",
            "outputs": [
                {
                    "internalType": "address",
                    "name": "",
                    "type": "address"
                }
            ],
            "stateMutability": "view",
            "type": "function"
        },
        {
            "inputs": [],
            "name": "getHistorial",
            "outputs": [
                {
                    "components": [
                        {
                            "internalType": "uint256",
                            "name": "fractions",
                            "type": "uint256"
                        },
                        {
                            "internalType": "uint256",
                            "name": "timestamp",
                            "type": "uint256"
                        },
                        {
                            "internalType": "address",
                            "name": "owner",
                            "type": "address"
                        }
                    ],
                    "internalType": "struct FinancingContractERC721.HistoryFractions[]",
                    "name": "",
                    "type": "tuple[]"
                }
            ],
            "stateMutability": "view",
            "type": "function"
        },
        {
            "inputs": [
                {
                    "internalType": "bytes32",
                    "name": "role",
                    "type": "bytes32"
                }
            ],
            "name": "getRoleAdmin",
            "outputs": [
                {
                    "internalType": "bytes32",
                    "name": "",
                    "type": "bytes32"
                }
            ],
            "stateMutability": "view",
            "type": "function"
        },
        {
            "inputs": [
                {
                    "internalType": "bytes32",
                    "name": "role",
                    "type": "bytes32"
                },
                {
                    "internalType": "address",
                    "name": "account",
                    "type": "address"
                }
            ],
            "name": "grantRole",
            "outputs": [],
            "stateMutability": "nonpayable",
            "type": "function"
        },
        {
            "inputs": [
                {
                    "internalType": "bytes32",
                    "name": "role",
                    "type": "bytes32"
                },
                {
                    "internalType": "address",
                    "name": "account",
                    "type": "address"
                }
            ],
            "name": "hasRole",
            "outputs": [
                {
                    "internalType": "bool",
                    "name": "",
                    "type": "bool"
                }
            ],
            "stateMutability": "view",
            "type": "function"
        },
        {
            "inputs": [
                {
                    "internalType": "uint256",
                    "name": "",
                    "type": "uint256"
                }
            ],
            "name": "historyFractions",
            "outputs": [
                {
                    "internalType": "uint256",
                    "name": "fractions",
                    "type": "uint256"
                },
                {
                    "internalType": "uint256",
                    "name": "timestamp",
                    "type": "uint256"
                },
                {
                    "internalType": "address",
                    "name": "owner",
                    "type": "address"
                }
            ],
            "stateMutability": "view",
            "type": "function"
        },
        {
            "inputs": [],
            "name": "investmentFractions",
            "outputs": [
                {
                    "internalType": "uint256",
                    "name": "",
                    "type": "uint256"
                }
            ],
            "stateMutability": "view",
            "type": "function"
        },
        {
            "inputs": [
                {
                    "internalType": "address",
                    "name": "owner",
                    "type": "address"
                },
                {
                    "internalType": "address",
                    "name": "operator",
                    "type": "address"
                }
            ],
            "name": "isApprovedForAll",
            "outputs": [
                {
                    "internalType": "bool",
                    "name": "",
                    "type": "bool"
                }
            ],
            "stateMutability": "view",
            "type": "function"
        },
        {
            "inputs": [],
            "name": "name",
            "outputs": [
                {
                    "internalType": "string",
                    "name": "",
                    "type": "string"
                }
            ],
            "stateMutability": "view",
            "type": "function"
        },
        {
            "inputs": [
                {
                    "internalType": "uint256",
                    "name": "tokenId",
                    "type": "uint256"
                }
            ],
            "name": "ownerOf",
            "outputs": [
                {
                    "internalType": "address",
                    "name": "",
                    "type": "address"
                }
            ],
            "stateMutability": "view",
            "type": "function"
        },
        {
            "inputs": [],
            "name": "pause",
            "outputs": [],
            "stateMutability": "nonpayable",
            "type": "function"
        },
        {
            "inputs": [],
            "name": "paused",
            "outputs": [
                {
                    "internalType": "bool",
                    "name": "",
                    "type": "bool"
                }
            ],
            "stateMutability": "view",
            "type": "function"
        },
        {
            "inputs": [
                {
                    "internalType": "bytes32",
                    "name": "role",
                    "type": "bytes32"
                },
                {
                    "internalType": "address",
                    "name": "account",
                    "type": "address"
                }
            ],
            "name": "renounceRole",
            "outputs": [],
            "stateMutability": "nonpayable",
            "type": "function"
        },
        {
            "inputs": [
                {
                    "internalType": "bytes32",
                    "name": "role",
                    "type": "bytes32"
                },
                {
                    "internalType": "address",
                    "name": "account",
                    "type": "address"
                }
            ],
            "name": "revokeRole",
            "outputs": [],
            "stateMutability": "nonpayable",
            "type": "function"
        },
        {
            "inputs": [
                {
                    "internalType": "address",
                    "name": "from",
                    "type": "address"
                },
                {
                    "internalType": "address",
                    "name": "to",
                    "type": "address"
                },
                {
                    "internalType": "uint256",
                    "name": "tokenId",
                    "type": "uint256"
                }
            ],
            "name": "safeTransferFrom",
            "outputs": [],
            "stateMutability": "nonpayable",
            "type": "function"
        },
        {
            "inputs": [
                {
                    "internalType": "address",
                    "name": "from",
                    "type": "address"
                },
                {
                    "internalType": "address",
                    "name": "to",
                    "type": "address"
                },
                {
                    "internalType": "uint256",
                    "name": "tokenId",
                    "type": "uint256"
                },
                {
                    "internalType": "bytes",
                    "name": "data",
                    "type": "bytes"
                }
            ],
            "name": "safeTransferFrom",
            "outputs": [],
            "stateMutability": "nonpayable",
            "type": "function"
        },
        {
            "inputs": [
                {
                    "internalType": "address",
                    "name": "operator",
                    "type": "address"
                },
                {
                    "internalType": "bool",
                    "name": "approved",
                    "type": "bool"
                }
            ],
            "name": "setApprovalForAll",
            "outputs": [],
            "stateMutability": "nonpayable",
            "type": "function"
        },
        {
            "inputs": [
                {
                    "internalType": "uint256",
                    "name": "profit",
                    "type": "uint256"
                }
            ],
            "name": "setBuyBack",
            "outputs": [],
            "stateMutability": "nonpayable",
            "type": "function"
        },
        {
            "inputs": [
                {
                    "internalType": "bytes4",
                    "name": "interfaceId",
                    "type": "bytes4"
                }
            ],
            "name": "supportsInterface",
            "outputs": [
                {
                    "internalType": "bool",
                    "name": "",
                    "type": "bool"
                }
            ],
            "stateMutability": "view",
            "type": "function"
        },
        {
            "inputs": [],
            "name": "symbol",
            "outputs": [
                {
                    "internalType": "string",
                    "name": "",
                    "type": "string"
                }
            ],
            "stateMutability": "view",
            "type": "function"
        },
        {
            "inputs": [
                {
                    "internalType": "uint256",
                    "name": "index",
                    "type": "uint256"
                }
            ],
            "name": "tokenByIndex",
            "outputs": [
                {
                    "internalType": "uint256",
                    "name": "",
                    "type": "uint256"
                }
            ],
            "stateMutability": "view",
            "type": "function"
        },
        {
            "inputs": [
                {
                    "internalType": "address",
                    "name": "owner",
                    "type": "address"
                },
                {
                    "internalType": "uint256",
                    "name": "index",
                    "type": "uint256"
                }
            ],
            "name": "tokenOfOwnerByIndex",
            "outputs": [
                {
                    "internalType": "uint256",
                    "name": "",
                    "type": "uint256"
                }
            ],
            "stateMutability": "view",
            "type": "function"
        },
        {
            "inputs": [
                {
                    "internalType": "uint256",
                    "name": "tokenId",
                    "type": "uint256"
                }
            ],
            "name": "tokenURI",
            "outputs": [
                {
                    "internalType": "string",
                    "name": "",
                    "type": "string"
                }
            ],
            "stateMutability": "view",
            "type": "function"
        },
        {
            "inputs": [],
            "name": "totalSupply",
            "outputs": [
                {
                    "internalType": "uint256",
                    "name": "",
                    "type": "uint256"
                }
            ],
            "stateMutability": "view",
            "type": "function"
        },
        {
            "inputs": [
                {
                    "internalType": "address",
                    "name": "from",
                    "type": "address"
                },
                {
                    "internalType": "address",
                    "name": "to",
                    "type": "address"
                },
                {
                    "internalType": "uint256",
                    "name": "tokenId",
                    "type": "uint256"
                }
            ],
            "name": "transferFrom",
            "outputs": [],
            "stateMutability": "nonpayable",
            "type": "function"
        },
        {
            "inputs": [],
            "name": "unpause",
            "outputs": [],
            "stateMutability": "nonpayable",
            "type": "function"
        },
        {
            "inputs": [],
            "name": "withdrawBuyBack",
            "outputs": [],
            "stateMutability": "nonpayable",
            "type": "function"
        },
        {
            "inputs": [],
            "name": "withdrawUSDT",
            "outputs": [],
            "stateMutability": "nonpayable",
            "type": "function"
        }
    ],
    "bytecode": "608060405234801562000010575f80fd5b50604051620032493803806200324983398101604081905262000033916200023f565b84845f62000042838262000364565b50600162000051828262000364565b5050600a805460ff19169055506200006a5f33620000db565b620000967f65d7a28e3265b37a6474929f336521b332c1681b933f6cb9f3376673440d862a33620000db565b60118054610100600160a81b0319166101006001600160a01b03841602179055600d839055600e829055620000cc828462000430565b600f5550620004509350505050565b5f828152600b602090815260408083206001600160a01b038516845290915290205460ff166200017a575f828152600b602090815260408083206001600160a01b03851684529091529020805460ff19166001179055620001393390565b6001600160a01b0316816001600160a01b0316837f2f8788117e7eff1d82e926ec794901d17c78024a50270940304540a733656f0d60405160405180910390a45b5050565b634e487b7160e01b5f52604160045260245ffd5b5f82601f830112620001a2575f80fd5b81516001600160401b0380821115620001bf57620001bf6200017e565b604051601f8301601f19908116603f01168101908282118183101715620001ea57620001ea6200017e565b816040528381526020925086602085880101111562000207575f80fd5b5f91505b838210156200022a57858201830151818301840152908201906200020b565b5f602085830101528094505050505092915050565b5f805f805f60a0868803121562000254575f80fd5b85516001600160401b03808211156200026b575f80fd5b6200027989838a0162000192565b965060208801519150808211156200028f575f80fd5b506200029e8882890162000192565b6040880151606089015160808a0151929750909550935090506001600160a01b0381168114620002cc575f80fd5b809150509295509295909350565b600181811c90821680620002ef57607f821691505b6020821081036200030e57634e487b7160e01b5f52602260045260245ffd5b50919050565b601f8211156200035f57805f5260205f20601f840160051c810160208510156200033b5750805b601f840160051c820191505b818110156200035c575f815560010162000347565b50505b505050565b81516001600160401b038111156200038057620003806200017e565b6200039881620003918454620002da565b8462000314565b602080601f831160018114620003ce575f8415620003b65750858301515b5f19600386901b1c1916600185901b17855562000428565b5f85815260208120601f198616915b82811015620003fe57888601518255948401946001909101908401620003dd565b50858210156200041c57878501515f19600388901b60f8161c191681555b505060018460011b0185555b505050505050565b5f826200044b57634e487b7160e01b5f52601260045260245ffd5b500490565b612deb806200045e5f395ff3fe608060405234801561000f575f80fd5b506004361061021e575f3560e01c80636352211e1161012a578063a22cb465116100b4578063c87b56dd11610079578063c87b56dd14610485578063d547741f14610498578063e23000a0146104ab578063e63ab1e9146104b4578063e985e9c5146104db575f80fd5b8063a22cb46514610427578063b773f9091461043a578063b88d4fde1461044f578063c6ee20d214610462578063c7ee10421461047c575f80fd5b80638efe6814116100fa5780638efe6814146103c657806391d14854146103ce57806395d89b41146103e15780639d4150be146103e9578063a217fddf14610420575f80fd5b80636352211e1461038557806370a08231146103985780638456cb59146103ab5780638e1a3b6e146103b3575f80fd5b80632f745c59116101ab57806342842e0e1161017b57806342842e0e146103425780634f6ccce71461035557806356953bda146103685780635c975abb146103715780635ef4e99d1461037c575f80fd5b80632f745c591461030c578063362e496b1461031f57806336568abe146103275780633f4ba83a1461033a575f80fd5b806318160ddd116101f157806318160ddd1461029f57806323b872dd146102b1578063248a9ca3146102c45780632a7f505b146102e65780632f2ff15d146102f9575f80fd5b806301ffc9a71461022257806306fdde031461024a578063081812fc1461025f578063095ea7b31461028a575b5f80fd5b6102356102303660046126e5565b610516565b60405190151581526020015b60405180910390f35b610252610526565b604051610241919061274d565b61027261026d36600461275f565b6105b5565b6040516001600160a01b039091168152602001610241565b61029d610298366004612791565b6105da565b005b6008545b604051908152602001610241565b61029d6102bf3660046127b9565b6106f3565b6102a36102d236600461275f565b5f908152600b602052604090206001015490565b61029d6102f436600461275f565b610724565b61029d6103073660046127f2565b6109b6565b6102a361031a366004612791565b6109da565b61029d610a6e565b61029d6103353660046127f2565b610c0f565b61029d610c8d565b61029d6103503660046127b9565b610cc2565b6102a361036336600461275f565b610cdc565b6102a3600f5481565b600a5460ff16610235565b6102a3600d5481565b61027261039336600461275f565b610d6c565b6102a36103a636600461281c565b610dcb565b61029d610e4f565b61029d6103c136600461275f565b610e81565b61029d611325565b6102356103dc3660046127f2565b61148b565b6102526114b5565b6103fc6103f736600461275f565b6114c4565b6040805193845260208401929092526001600160a01b031690820152606001610241565b6102a35f81565b61029d610435366004612842565b6114fe565b610442611509565b6040516102419190612877565b61029d61045d3660046128ec565b611589565b60145461046f9060ff1681565b60405161024191906129d5565b6102a3600e5481565b61025261049336600461275f565b6115c1565b61029d6104a63660046127f2565b611631565b6102a360105481565b6102a37f65d7a28e3265b37a6474929f336521b332c1681b933f6cb9f3376673440d862a81565b6102356104e93660046129fb565b6001600160a01b039182165f90815260056020908152604080832093909416825291909152205460ff1690565b5f61052082611655565b92915050565b60605f805461053490612a23565b80601f016020809104026020016040519081016040528092919081815260200182805461056090612a23565b80156105ab5780601f10610582576101008083540402835291602001916105ab565b820191905f5260205f20905b81548152906001019060200180831161058e57829003601f168201915b5050505050905090565b5f6105bf82611679565b505f908152600460205260409020546001600160a01b031690565b5f6105e482610d6c565b9050806001600160a01b0316836001600160a01b0316036106565760405162461bcd60e51b815260206004820152602160248201527f4552433732313a20617070726f76616c20746f2063757272656e74206f776e656044820152603960f91b60648201526084015b60405180910390fd5b336001600160a01b0382161480610672575061067281336104e9565b6106e45760405162461bcd60e51b815260206004820152603d60248201527f4552433732313a20617070726f76652063616c6c6572206973206e6f7420746f60448201527f6b656e206f776e6572206f7220617070726f76656420666f7220616c6c000000606482015260840161064d565b6106ee83836116d7565b505050565b6106fd3382611744565b6107195760405162461bcd60e51b815260040161064d90612a5b565b6106ee8383836117c1565b5f61072e81611930565b5f82116107745760405162461bcd60e51b815260206004820152601460248201527350726f6669742063616e2774206265207a65726f60601b604482015260640161064d565b5f606483600d546107859190612abc565b61078f9190612ad3565b600d5461079c9190612af2565b90506107ab81620f4240612abc565b6011546040516370a0823160e01b815233600482015291925061010090046001600160a01b0316906370a0823190602401602060405180830381865afa1580156107f7573d5f803e3d5ffd5b505050506040513d601f19601f8201168201806040525081019061081b9190612b05565b81111561086a5760405162461bcd60e51b815260206004820152601760248201527f4e6f7420656e6f75676820555344542062616c616e6365000000000000000000604482015260640161064d565b601154604051636eb1769f60e11b8152336004820152306024820152829161010090046001600160a01b03169063dd62ed3e90604401602060405180830381865afa1580156108bb573d5f803e3d5ffd5b505050506040513d601f19601f820116820180604052508101906108df9190612b05565b10156108fd5760405162461bcd60e51b815260040161064d90612b1c565b6011546040516323b872dd60e01b8152336004820152306024820152604481018390526101009091046001600160a01b0316906323b872dd906064016020604051808303815f875af1158015610955573d5f803e3d5ffd5b505050506040513d601f19601f820116820180604052508101906109799190612b84565b50606483600f5461098a9190612abc565b6109949190612ad3565b600f546109a19190612af2565b60105550506014805460ff1916600317905550565b5f828152600b60205260409020600101546109d081611930565b6106ee838361193a565b5f6109e483610dcb565b8210610a465760405162461bcd60e51b815260206004820152602b60248201527f455243373231456e756d657261626c653a206f776e657220696e646578206f7560448201526a74206f6620626f756e647360a81b606482015260840161064d565b506001600160a01b03919091165f908152600660209081526040808320938352929052205490565b5f610a7881611930565b6011546040516370a0823160e01b81523060048201525f9161010090046001600160a01b0316906370a0823190602401602060405180830381865afa158015610ac3573d5f803e3d5ffd5b505050506040513d601f19601f82011682018060405250810190610ae79190612b05565b9050600160145460ff166003811115610b0257610b026129c1565b14610b455760405162461bcd60e51b81526020600482015260136024820152722737ba1037b71039b7b6321039ba30ba3ab99760691b604482015260640161064d565b60115460405163a9059cbb60e01b8152336004820152602481018390526101009091046001600160a01b03169063a9059cbb906044016020604051808303815f875af1158015610b97573d5f803e3d5ffd5b505050506040513d601f19601f82011682018060405250810190610bbb9190612b84565b610bfe5760405162461bcd60e51b81526020600482015260146024820152732aa9a22a103a3930b739b332b91032b93937b91760611b604482015260640161064d565b50506014805460ff19166002179055565b6001600160a01b0381163314610c7f5760405162461bcd60e51b815260206004820152602f60248201527f416363657373436f6e74726f6c3a2063616e206f6e6c792072656e6f756e636560448201526e103937b632b9903337b91039b2b63360891b606482015260840161064d565b610c8982826119bf565b5050565b7f65d7a28e3265b37a6474929f336521b332c1681b933f6cb9f3376673440d862a610cb781611930565b610cbf611a25565b50565b6106ee83838360405180602001604052805f815250611589565b5f610ce660085490565b8210610d495760405162461bcd60e51b815260206004820152602c60248201527f455243373231456e756d657261626c653a20676c6f62616c20696e646578206f60448201526b7574206f6620626f756e647360a01b606482015260840161064d565b60088281548110610d5c57610d5c612b9f565b905f5260205f2001549050919050565b5f818152600260205260408120546001600160a01b0316806105205760405162461bcd60e51b8152602060048201526018602482015277115490cdcc8c4e881a5b9d985b1a59081d1bdad95b88125160421b604482015260640161064d565b5f6001600160a01b038216610e345760405162461bcd60e51b815260206004820152602960248201527f4552433732313a2061646472657373207a65726f206973206e6f7420612076616044820152683634b21037bbb732b960b91b606482015260840161064d565b506001600160a01b03165f9081526003602052604090205490565b7f65d7a28e3265b37a6474929f336521b332c1681b933f6cb9f3376673440d862a610e7981611930565b610cbf611a77565b610e89611ab4565b5f81600f54620f4240610e9c9190612abc565b610ea69190612abc565b90505f60145460ff166003811115610ec057610ec06129c1565b14610f035760405162461bcd60e51b81526020600482015260136024820152722a34329039b0b6329034b99031b637b9b2b21760691b604482015260640161064d565b5f8211610f4b5760405162461bcd60e51b815260206004820152601660248201527520b6b7bab73a1031b0b73737ba103132903d32b9379760511b604482015260640161064d565b600e54610f59906001612af2565b8210610fb75760405162461bcd60e51b815260206004820152602760248201527f416d6f756e7420746f2062757920657863656564657320746f74616c2066726160448201526631ba34b7b7399760c91b606482015260840161064d565b6011546040516370a0823160e01b8152336004820152829161010090046001600160a01b0316906370a0823190602401602060405180830381865afa158015611002573d5f803e3d5ffd5b505050506040513d601f19601f820116820180604052508101906110269190612b05565b10156110745760405162461bcd60e51b815260206004820152601a60248201527f496e73737566696369656e7420555344542062616c616e63652e000000000000604482015260640161064d565b601154604051636eb1769f60e11b8152336004820152306024820152829161010090046001600160a01b03169063dd62ed3e90604401602060405180830381865afa1580156110c5573d5f803e3d5ffd5b505050506040513d601f19601f820116820180604052508101906110e99190612b05565b10156111075760405162461bcd60e51b815260040161064d90612b1c565b6011546040516323b872dd60e01b8152336004820152306024820152604481018390526101009091046001600160a01b0316906323b872dd906064016020604051808303815f875af115801561115f573d5f803e3d5ffd5b505050506040513d601f19601f820116820180604052508101906111839190612b84565b6111c65760405162461bcd60e51b81526020600482015260146024820152732aa9a22a103a3930b739b332b91032b93937b91760611b604482015260640161064d565b5f5b828160ff161015611206576111df33600c54611afc565b600c8054905f6111ee83612bb3565b919050555080806111fe90612bcb565b9150506111c8565b5060408051338152602081018490527fd90d253a9de34d2fdd5a75ae49ea17fcb43af32fc8ea08cc6d2341991dd3872e910160405180910390a1600e5461124e906001612af2565b600c5403611264576014805460ff191660011790555b5060408051606081018252918252426020830190815233918301918252601280546001810182555f9190915292517fbb8a6a4669ba250d26cd7a459eca9d215f8307e33aebe50379bc5a3617ec3444600390940293840155517fbb8a6a4669ba250d26cd7a459eca9d215f8307e33aebe50379bc5a3617ec3445830155517fbb8a6a4669ba250d26cd7a459eca9d215f8307e33aebe50379bc5a3617ec344690910180546001600160a01b0319166001600160a01b03909216919091179055565b600360145460ff16600381111561133e5761133e6129c1565b1461138b5760405162461bcd60e51b815260206004820152601960248201527f436f6e7472616374206973206e6f742066696e69736865642e00000000000000604482015260640161064d565b5f61139533610dcb565b90505f81116113df5760405162461bcd60e51b815260206004820152601660248201527521b0b63632b9103430b9903737ba103a37b5b2b7399760511b604482015260640161064d565b5f601054826113ee9190612abc565b90505f5b828110156114145761140c61140733836109da565b611b15565b6001016113f2565b5060115460405163a9059cbb60e01b8152336004820152602481018390526101009091046001600160a01b03169063a9059cbb906044016020604051808303815f875af1158015611467573d5f803e3d5ffd5b505050506040513d601f19601f820116820180604052508101906106ee9190612b84565b5f918252600b602090815260408084206001600160a01b0393909316845291905290205460ff1690565b60606001805461053490612a23565b601281815481106114d3575f80fd5b5f9182526020909120600390910201805460018201546002909201549092506001600160a01b031683565b610c89338383611bb4565b60606012805480602002602001604051908101604052809291908181526020015f905b82821015611580575f848152602090819020604080516060810182526003860290920180548352600180820154848601526002909101546001600160a01b031691830191909152908352909201910161152c565b50505050905090565b6115933383611744565b6115af5760405162461bcd60e51b815260040161064d90612a5b565b6115bb84848484611c81565b50505050565b60606115cc82611679565b5f6115e160408051602081019091525f815290565b90505f8151116115ff5760405180602001604052805f81525061162a565b8061160984611cb4565b60405160200161161a929190612be9565b6040516020818303038152906040525b9392505050565b5f828152600b602052604090206001015461164b81611930565b6106ee83836119bf565b5f6001600160e01b03198216637965db0b60e01b1480610520575061052082611d44565b5f818152600260205260409020546001600160a01b0316610cbf5760405162461bcd60e51b8152602060048201526018602482015277115490cdcc8c4e881a5b9d985b1a59081d1bdad95b88125160421b604482015260640161064d565b5f81815260046020526040902080546001600160a01b0319166001600160a01b038416908117909155819061170b82610d6c565b6001600160a01b03167f8c5be1e5ebec7d5bd14f71427d1e84f3dd0314c0f7b2291e5b200ac8c7c3b92560405160405180910390a45050565b5f8061174f83610d6c565b9050806001600160a01b0316846001600160a01b0316148061179557506001600160a01b038082165f9081526005602090815260408083209388168352929052205460ff165b806117b95750836001600160a01b03166117ae846105b5565b6001600160a01b0316145b949350505050565b826001600160a01b03166117d482610d6c565b6001600160a01b0316146117fa5760405162461bcd60e51b815260040161064d90612c17565b6001600160a01b03821661185c5760405162461bcd60e51b8152602060048201526024808201527f4552433732313a207472616e7366657220746f20746865207a65726f206164646044820152637265737360e01b606482015260840161064d565b6118698383836001611d68565b826001600160a01b031661187c82610d6c565b6001600160a01b0316146118a25760405162461bcd60e51b815260040161064d90612c17565b5f81815260046020908152604080832080546001600160a01b03199081169091556001600160a01b038781168086526003855283862080545f1901905590871680865283862080546001019055868652600290945282852080549092168417909155905184937fddf252ad1be2c89b69c2b068fc378daa952ba7f163c4a11628f55a4df523b3ef91a4505050565b610cbf8133611d74565b611944828261148b565b610c89575f828152600b602090815260408083206001600160a01b03851684529091529020805460ff1916600117905561197b3390565b6001600160a01b0316816001600160a01b0316837f2f8788117e7eff1d82e926ec794901d17c78024a50270940304540a733656f0d60405160405180910390a45050565b6119c9828261148b565b15610c89575f828152600b602090815260408083206001600160a01b0385168085529252808320805460ff1916905551339285917ff6391f5c32d9c69d2a47ea670b442974b53935d1edc7fd64eb21e047a839171b9190a45050565b611a2d611dcd565b600a805460ff191690557f5db9ee0a495bf2e6ff9c91a7834c1ba4fdd244a5e8aa4e537bd38aeae4b073aa335b6040516001600160a01b03909116815260200160405180910390a1565b611a7f611ab4565b600a805460ff191660011790557f62e78cea01bee320cd4e420270b5ea74000d11b0c9f74754ebdbfc544b05a258611a5a3390565b600a5460ff1615611afa5760405162461bcd60e51b815260206004820152601060248201526f14185d5cd8589b194e881c185d5cd95960821b604482015260640161064d565b565b610c89828260405180602001604052805f815250611e16565b5f611b1f82610d6c565b9050611b2e815f846001611d68565b611b3782610d6c565b5f83815260046020908152604080832080546001600160a01b03199081169091556001600160a01b0385168085526003845282852080545f190190558785526002909352818420805490911690555192935084927fddf252ad1be2c89b69c2b068fc378daa952ba7f163c4a11628f55a4df523b3ef908390a45050565b816001600160a01b0316836001600160a01b031603611c155760405162461bcd60e51b815260206004820152601960248201527f4552433732313a20617070726f766520746f2063616c6c657200000000000000604482015260640161064d565b6001600160a01b038381165f81815260056020908152604080832094871680845294825291829020805460ff191686151590811790915591519182527f17307eab39ab6107e8899845ad3d59bd9653f200f220920489ca2b5937696c31910160405180910390a3505050565b611c8c8484846117c1565b611c9884848484611e48565b6115bb5760405162461bcd60e51b815260040161064d90612c5c565b60605f611cc083611f45565b60010190505f8167ffffffffffffffff811115611cdf57611cdf6128d8565b6040519080825280601f01601f191660200182016040528015611d09576020820181803683370190505b5090508181016020015b5f19016f181899199a1a9b1b9c1cb0b131b232b360811b600a86061a8153600a8504945084611d1357509392505050565b5f6001600160e01b0319821663780e9d6360e01b148061052057506105208261201c565b6115bb8484848461206b565b611d7e828261148b565b610c8957611d8b816120de565b611d968360206120f0565b604051602001611da7929190612cae565b60408051601f198184030181529082905262461bcd60e51b825261064d9160040161274d565b600a5460ff16611afa5760405162461bcd60e51b815260206004820152601460248201527314185d5cd8589b194e881b9bdd081c185d5cd95960621b604482015260640161064d565b611e208383612286565b611e2c5f848484611e48565b6106ee5760405162461bcd60e51b815260040161064d90612c5c565b5f6001600160a01b0384163b15611f3a57604051630a85bd0160e11b81526001600160a01b0385169063150b7a0290611e8b903390899088908890600401612d22565b6020604051808303815f875af1925050508015611ec5575060408051601f3d908101601f19168201909252611ec291810190612d5e565b60015b611f20573d808015611ef2576040519150601f19603f3d011682016040523d82523d5f602084013e611ef7565b606091505b5080515f03611f185760405162461bcd60e51b815260040161064d90612c5c565b805181602001fd5b6001600160e01b031916630a85bd0160e11b1490506117b9565b506001949350505050565b5f8072184f03e93ff9f4daa797ed6e38ed64bf6a1f0160401b8310611f835772184f03e93ff9f4daa797ed6e38ed64bf6a1f0160401b830492506040015b6d04ee2d6d415b85acef81000000008310611faf576d04ee2d6d415b85acef8100000000830492506020015b662386f26fc100008310611fcd57662386f26fc10000830492506010015b6305f5e1008310611fe5576305f5e100830492506008015b6127108310611ff957612710830492506004015b6064831061200b576064830492506002015b600a83106105205760010192915050565b5f6001600160e01b031982166380ac58cd60e01b148061204c57506001600160e01b03198216635b5e139f60e01b145b8061052057506301ffc9a760e01b6001600160e01b0319831614610520565b6120778484848461241b565b600a5460ff16156115bb5760405162461bcd60e51b815260206004820152602b60248201527f4552433732315061757361626c653a20746f6b656e207472616e73666572207760448201526a1a1a5b19481c185d5cd95960aa1b606482015260840161064d565b60606105206001600160a01b03831660145b60605f6120fe836002612abc565b612109906002612af2565b67ffffffffffffffff811115612121576121216128d8565b6040519080825280601f01601f19166020018201604052801561214b576020820181803683370190505b509050600360fc1b815f8151811061216557612165612b9f565b60200101906001600160f81b03191690815f1a905350600f60fb1b8160018151811061219357612193612b9f565b60200101906001600160f81b03191690815f1a9053505f6121b5846002612abc565b6121c0906001612af2565b90505b6001811115612237576f181899199a1a9b1b9c1cb0b131b232b360811b85600f16601081106121f4576121f4612b9f565b1a60f81b82828151811061220a5761220a612b9f565b60200101906001600160f81b03191690815f1a90535060049490941c9361223081612d79565b90506121c3565b50831561162a5760405162461bcd60e51b815260206004820181905260248201527f537472696e67733a20686578206c656e67746820696e73756666696369656e74604482015260640161064d565b6001600160a01b0382166122dc5760405162461bcd60e51b815260206004820181905260248201527f4552433732313a206d696e7420746f20746865207a65726f2061646472657373604482015260640161064d565b5f818152600260205260409020546001600160a01b0316156123405760405162461bcd60e51b815260206004820152601c60248201527f4552433732313a20746f6b656e20616c7265616479206d696e74656400000000604482015260640161064d565b61234d5f83836001611d68565b5f818152600260205260409020546001600160a01b0316156123b15760405162461bcd60e51b815260206004820152601c60248201527f4552433732313a20746f6b656e20616c7265616479206d696e74656400000000604482015260640161064d565b6001600160a01b0382165f81815260036020908152604080832080546001019055848352600290915280822080546001600160a01b0319168417905551839291907fddf252ad1be2c89b69c2b068fc378daa952ba7f163c4a11628f55a4df523b3ef908290a45050565b600181111561248a5760405162461bcd60e51b815260206004820152603560248201527f455243373231456e756d657261626c653a20636f6e7365637574697665207472604482015274185b9cd9995c9cc81b9bdd081cdd5c1c1bdc9d1959605a1b606482015260840161064d565b816001600160a01b0385166124e5576124e081600880545f838152600960205260408120829055600182018355919091527ff3f7a9fe364faab93b216da50a3214154f22a0a2b415b23a84c8169e8b636ee30155565b612508565b836001600160a01b0316856001600160a01b03161461250857612508858261254e565b6001600160a01b0384166125245761251f816125e7565b612547565b846001600160a01b0316846001600160a01b03161461254757612547848261268e565b5050505050565b5f600161255a84610dcb565b6125649190612d8e565b5f838152600760205260409020549091508082146125b5576001600160a01b0384165f9081526006602090815260408083208584528252808320548484528184208190558352600790915290208190555b505f9182526007602090815260408084208490556001600160a01b039094168352600681528383209183525290812055565b6008545f906125f890600190612d8e565b5f838152600960205260408120546008805493945090928490811061261f5761261f612b9f565b905f5260205f2001549050806008838154811061263e5761263e612b9f565b5f91825260208083209091019290925582815260099091526040808220849055858252812055600880548061267557612675612da1565b600190038181905f5260205f20015f9055905550505050565b5f61269883610dcb565b6001600160a01b039093165f908152600660209081526040808320868452825280832085905593825260079052919091209190915550565b6001600160e01b031981168114610cbf575f80fd5b5f602082840312156126f5575f80fd5b813561162a816126d0565b5f5b8381101561271a578181015183820152602001612702565b50505f910152565b5f8151808452612739816020860160208601612700565b601f01601f19169290920160200192915050565b602081525f61162a6020830184612722565b5f6020828403121561276f575f80fd5b5035919050565b80356001600160a01b038116811461278c575f80fd5b919050565b5f80604083850312156127a2575f80fd5b6127ab83612776565b946020939093013593505050565b5f805f606084860312156127cb575f80fd5b6127d484612776565b92506127e260208501612776565b9150604084013590509250925092565b5f8060408385031215612803575f80fd5b8235915061281360208401612776565b90509250929050565b5f6020828403121561282c575f80fd5b61162a82612776565b8015158114610cbf575f80fd5b5f8060408385031215612853575f80fd5b61285c83612776565b9150602083013561286c81612835565b809150509250929050565b602080825282518282018190525f919060409081850190868401855b828110156128cb5781518051855286810151878601528501516001600160a01b03168585015260609093019290850190600101612893565b5091979650505050505050565b634e487b7160e01b5f52604160045260245ffd5b5f805f80608085870312156128ff575f80fd5b61290885612776565b935061291660208601612776565b925060408501359150606085013567ffffffffffffffff80821115612939575f80fd5b818701915087601f83011261294c575f80fd5b81358181111561295e5761295e6128d8565b604051601f8201601f19908116603f01168101908382118183101715612986576129866128d8565b816040528281528a602084870101111561299e575f80fd5b826020860160208301375f60208483010152809550505050505092959194509250565b634e487b7160e01b5f52602160045260245ffd5b60208101600483106129f557634e487b7160e01b5f52602160045260245ffd5b91905290565b5f8060408385031215612a0c575f80fd5b612a1583612776565b915061281360208401612776565b600181811c90821680612a3757607f821691505b602082108103612a5557634e487b7160e01b5f52602260045260245ffd5b50919050565b6020808252602d908201527f4552433732313a2063616c6c6572206973206e6f7420746f6b656e206f776e6560408201526c1c881bdc88185c1c1c9bdd9959609a1b606082015260800190565b634e487b7160e01b5f52601160045260245ffd5b808202811582820484141761052057610520612aa8565b5f82612aed57634e487b7160e01b5f52601260045260245ffd5b500490565b8082018082111561052057610520612aa8565b5f60208284031215612b15575f80fd5b5051919050565b60208082526042908201527f496e206f7264657220746f2070726f636565642c20796f75206d75737420617060408201527f70726f76652074686520726571756972656420616d6f756e74206f66205553446060820152612a1760f11b608082015260a00190565b5f60208284031215612b94575f80fd5b815161162a81612835565b634e487b7160e01b5f52603260045260245ffd5b5f60018201612bc457612bc4612aa8565b5060010190565b5f60ff821660ff8103612be057612be0612aa8565b60010192915050565b5f8351612bfa818460208801612700565b835190830190612c0e818360208801612700565b01949350505050565b60208082526025908201527f4552433732313a207472616e736665722066726f6d20696e636f72726563742060408201526437bbb732b960d91b606082015260800190565b60208082526032908201527f4552433732313a207472616e7366657220746f206e6f6e20455243373231526560408201527131b2b4bb32b91034b6b83632b6b2b73a32b960711b606082015260800190565b7f416363657373436f6e74726f6c3a206163636f756e742000000000000000000081525f8351612ce5816017850160208801612700565b7001034b99036b4b9b9b4b733903937b6329607d1b6017918401918201528351612d16816028840160208801612700565b01602801949350505050565b6001600160a01b03858116825284166020820152604081018390526080606082018190525f90612d5490830184612722565b9695505050505050565b5f60208284031215612d6e575f80fd5b815161162a816126d0565b5f81612d8757612d87612aa8565b505f190190565b8181038181111561052057610520612aa8565b634e487b7160e01b5f52603160045260245ffdfea2646970667358221220958db8b4464c531f4f77ec1e2cab887288ce41069301a05d6c3a0425b453f71864736f6c63430008170033",
    "sourcePath": "c:/Users/usuario/Desktop/Programacion/TruMarket-BB/contracts/NftFactory.sol",
    "compiler": {
        "name": "solc",
        "version": "0.8.23+commit.f704f362"
    },
    "functionHashes": {
        "DEFAULT_ADMIN_ROLE()": "a217fddf",
        "PAUSER_ROLE()": "e63ab1e9",
        "amountToFinance()": "5ef4e99d",
        "approve(address,uint256)": "095ea7b3",
        "balanceOf(address)": "70a08231",
        "buyBackPrice()": "e23000a0",
        "buyFraction(uint256)": "8e1a3b6e",
        "contractStatus()": "c6ee20d2",
        "fractionPrice()": "56953bda",
        "getApproved(uint256)": "081812fc",
        "getHistorial()": "b773f909",
        "getRoleAdmin(bytes32)": "248a9ca3",
        "grantRole(bytes32,address)": "2f2ff15d",
        "hasRole(bytes32,address)": "91d14854",
        "historyFractions(uint256)": "9d4150be",
        "investmentFractions()": "c7ee1042",
        "isApprovedForAll(address,address)": "e985e9c5",
        "name()": "06fdde03",
        "ownerOf(uint256)": "6352211e",
        "pause()": "8456cb59",
        "paused()": "5c975abb",
        "renounceRole(bytes32,address)": "36568abe",
        "revokeRole(bytes32,address)": "d547741f",
        "safeTransferFrom(address,address,uint256)": "42842e0e",
        "safeTransferFrom(address,address,uint256,bytes)": "b88d4fde",
        "setApprovalForAll(address,bool)": "a22cb465",
        "setBuyBack(uint256)": "2a7f505b",
        "supportsInterface(bytes4)": "01ffc9a7",
        "symbol()": "95d89b41",
        "tokenByIndex(uint256)": "4f6ccce7",
        "tokenOfOwnerByIndex(address,uint256)": "2f745c59",
        "tokenURI(uint256)": "c87b56dd",
        "totalSupply()": "18160ddd",
        "transferFrom(address,address,uint256)": "23b872dd",
        "unpause()": "3f4ba83a",
        "withdrawBuyBack()": "8efe6814",
        "withdrawUSDT()": "362e496b"
    },
    "gasEstimates": {
        "creation": {
            "codeDepositCost": "2351000",
            "executionCost": "infinite",
            "totalCost": "infinite"
        },
        "external": {
            "DEFAULT_ADMIN_ROLE()": "326",
            "PAUSER_ROLE()": "304",
            "amountToFinance()": "2427",
            "approve(address,uint256)": "infinite",
            "balanceOf(address)": "2653",
            "buyBackPrice()": "2382",
            "buyFraction(uint256)": "infinite",
            "contractStatus()": "2461",
            "fractionPrice()": "2383",
            "getApproved(uint256)": "4810",
            "getHistorial()": "infinite",
            "getRoleAdmin(bytes32)": "2531",
            "grantRole(bytes32,address)": "infinite",
            "hasRole(bytes32,address)": "2718",
            "historyFractions(uint256)": "9002",
            "investmentFractions()": "2427",
            "isApprovedForAll(address,address)": "infinite",
            "name()": "infinite",
            "ownerOf(uint256)": "2581",
            "pause()": "infinite",
            "paused()": "2403",
            "renounceRole(bytes32,address)": "29087",
            "revokeRole(bytes32,address)": "infinite",
            "safeTransferFrom(address,address,uint256)": "infinite",
            "safeTransferFrom(address,address,uint256,bytes)": "infinite",
            "setApprovalForAll(address,bool)": "26754",
            "setBuyBack(uint256)": "infinite",
            "supportsInterface(bytes4)": "infinite",
            "symbol()": "infinite",
            "tokenByIndex(uint256)": "6777",
            "tokenOfOwnerByIndex(address,uint256)": "4970",
            "tokenURI(uint256)": "infinite",
            "totalSupply()": "2326",
            "transferFrom(address,address,uint256)": "infinite",
            "unpause()": "infinite",
            "withdrawBuyBack()": "infinite",
            "withdrawUSDT()": "infinite"
        },
        "internal": {
            "_beforeTokenTransfer(address,address,uint256,uint256)": "infinite"
        }
    }
}