{
    "contractName": "FinancingContract1155",
    "abi": [
        {
            "inputs": [
                {
                    "internalType": "string",
                    "name": "_name",
                    "type": "string"
                },
                {
                    "internalType": "string",
                    "name": "_symbol",
                    "type": "string"
                },
                {
                    "internalType": "uint256",
                    "name": "_operationAmount",
                    "type": "uint256"
                },
                {
                    "internalType": "uint256",
                    "name": "_amountToFinance",
                    "type": "uint256"
                },
                {
                    "internalType": "uint256",
                    "name": "_investmentFractions",
                    "type": "uint256"
                },
                {
                    "internalType": "address",
                    "name": "_addUsdt",
                    "type": "address"
                }
            ],
            "stateMutability": "nonpayable",
            "type": "constructor"
        },
        {
            "anonymous": false,
            "inputs": [
                {
                    "indexed": true,
                    "internalType": "address",
                    "name": "account",
                    "type": "address"
                },
                {
                    "indexed": true,
                    "internalType": "address",
                    "name": "operator",
                    "type": "address"
                },
                {
                    "indexed": false,
                    "internalType": "bool",
                    "name": "approved",
                    "type": "bool"
                }
            ],
            "name": "ApprovalForAll",
            "type": "event"
        },
        {
            "anonymous": false,
            "inputs": [
                {
                    "indexed": false,
                    "internalType": "uint256[]",
                    "name": "tokenIds",
                    "type": "uint256[]"
                }
            ],
            "name": "BurnNfts",
            "type": "event"
        },
        {
            "anonymous": false,
            "inputs": [
                {
                    "indexed": false,
                    "internalType": "address",
                    "name": "investor",
                    "type": "address"
                },
                {
                    "indexed": false,
                    "internalType": "uint256",
                    "name": "fractions",
                    "type": "uint256"
                }
            ],
            "name": "Invest",
            "type": "event"
        },
        {
            "anonymous": false,
            "inputs": [
                {
                    "indexed": false,
                    "internalType": "address",
                    "name": "account",
                    "type": "address"
                }
            ],
            "name": "Paused",
            "type": "event"
        },
        {
            "anonymous": false,
            "inputs": [
                {
                    "indexed": true,
                    "internalType": "bytes32",
                    "name": "role",
                    "type": "bytes32"
                },
                {
                    "indexed": true,
                    "internalType": "bytes32",
                    "name": "previousAdminRole",
                    "type": "bytes32"
                },
                {
                    "indexed": true,
                    "internalType": "bytes32",
                    "name": "newAdminRole",
                    "type": "bytes32"
                }
            ],
            "name": "RoleAdminChanged",
            "type": "event"
        },
        {
            "anonymous": false,
            "inputs": [
                {
                    "indexed": true,
                    "internalType": "bytes32",
                    "name": "role",
                    "type": "bytes32"
                },
                {
                    "indexed": true,
                    "internalType": "address",
                    "name": "account",
                    "type": "address"
                },
                {
                    "indexed": true,
                    "internalType": "address",
                    "name": "sender",
                    "type": "address"
                }
            ],
            "name": "RoleGranted",
            "type": "event"
        },
        {
            "anonymous": false,
            "inputs": [
                {
                    "indexed": true,
                    "internalType": "bytes32",
                    "name": "role",
                    "type": "bytes32"
                },
                {
                    "indexed": true,
                    "internalType": "address",
                    "name": "account",
                    "type": "address"
                },
                {
                    "indexed": true,
                    "internalType": "address",
                    "name": "sender",
                    "type": "address"
                }
            ],
            "name": "RoleRevoked",
            "type": "event"
        },
        {
            "anonymous": false,
            "inputs": [],
            "name": "TotalAmountFinanced",
            "type": "event"
        },
        {
            "anonymous": false,
            "inputs": [
                {
                    "indexed": true,
                    "internalType": "address",
                    "name": "operator",
                    "type": "address"
                },
                {
                    "indexed": true,
                    "internalType": "address",
                    "name": "from",
                    "type": "address"
                },
                {
                    "indexed": true,
                    "internalType": "address",
                    "name": "to",
                    "type": "address"
                },
                {
                    "indexed": false,
                    "internalType": "uint256[]",
                    "name": "ids",
                    "type": "uint256[]"
                },
                {
                    "indexed": false,
                    "internalType": "uint256[]",
                    "name": "values",
                    "type": "uint256[]"
                }
            ],
            "name": "TransferBatch",
            "type": "event"
        },
        {
            "anonymous": false,
            "inputs": [
                {
                    "indexed": true,
                    "internalType": "address",
                    "name": "operator",
                    "type": "address"
                },
                {
                    "indexed": true,
                    "internalType": "address",
                    "name": "from",
                    "type": "address"
                },
                {
                    "indexed": true,
                    "internalType": "address",
                    "name": "to",
                    "type": "address"
                },
                {
                    "indexed": false,
                    "internalType": "uint256",
                    "name": "id",
                    "type": "uint256"
                },
                {
                    "indexed": false,
                    "internalType": "uint256",
                    "name": "value",
                    "type": "uint256"
                }
            ],
            "name": "TransferSingle",
            "type": "event"
        },
        {
            "anonymous": false,
            "inputs": [
                {
                    "indexed": false,
                    "internalType": "string",
                    "name": "value",
                    "type": "string"
                },
                {
                    "indexed": true,
                    "internalType": "uint256",
                    "name": "id",
                    "type": "uint256"
                }
            ],
            "name": "URI",
            "type": "event"
        },
        {
            "anonymous": false,
            "inputs": [
                {
                    "indexed": false,
                    "internalType": "address",
                    "name": "account",
                    "type": "address"
                }
            ],
            "name": "Unpaused",
            "type": "event"
        },
        {
            "anonymous": false,
            "inputs": [],
            "name": "WithdrawComplete",
            "type": "event"
        },
        {
            "inputs": [],
            "name": "DEFAULT_ADMIN_ROLE",
            "outputs": [
                {
                    "internalType": "bytes32",
                    "name": "",
                    "type": "bytes32"
                }
            ],
            "stateMutability": "view",
            "type": "function"
        },
        {
            "inputs": [],
            "name": "PAUSER_ROLE",
            "outputs": [
                {
                    "internalType": "bytes32",
                    "name": "",
                    "type": "bytes32"
                }
            ],
            "stateMutability": "view",
            "type": "function"
        },
        {
            "inputs": [],
            "name": "amountToFinance",
            "outputs": [
                {
                    "internalType": "uint256",
                    "name": "",
                    "type": "uint256"
                }
            ],
            "stateMutability": "view",
            "type": "function"
        },
        {
            "inputs": [
                {
                    "internalType": "address",
                    "name": "account",
                    "type": "address"
                },
                {
                    "internalType": "uint256",
                    "name": "id",
                    "type": "uint256"
                }
            ],
            "name": "balanceOf",
            "outputs": [
                {
                    "internalType": "uint256",
                    "name": "",
                    "type": "uint256"
                }
            ],
            "stateMutability": "view",
            "type": "function"
        },
        {
            "inputs": [
                {
                    "internalType": "address[]",
                    "name": "accounts",
                    "type": "address[]"
                },
                {
                    "internalType": "uint256[]",
                    "name": "ids",
                    "type": "uint256[]"
                }
            ],
            "name": "balanceOfBatch",
            "outputs": [
                {
                    "internalType": "uint256[]",
                    "name": "",
                    "type": "uint256[]"
                }
            ],
            "stateMutability": "view",
            "type": "function"
        },
        {
            "inputs": [
                {
                    "internalType": "address",
                    "name": "account",
                    "type": "address"
                },
                {
                    "internalType": "uint256",
                    "name": "id",
                    "type": "uint256"
                },
                {
                    "internalType": "uint256",
                    "name": "value",
                    "type": "uint256"
                }
            ],
            "name": "burn",
            "outputs": [],
            "stateMutability": "nonpayable",
            "type": "function"
        },
        {
            "inputs": [
                {
                    "internalType": "address",
                    "name": "account",
                    "type": "address"
                },
                {
                    "internalType": "uint256[]",
                    "name": "ids",
                    "type": "uint256[]"
                },
                {
                    "internalType": "uint256[]",
                    "name": "values",
                    "type": "uint256[]"
                }
            ],
            "name": "burnBatch",
            "outputs": [],
            "stateMutability": "nonpayable",
            "type": "function"
        },
        {
            "inputs": [],
            "name": "buyBackPrice",
            "outputs": [
                {
                    "internalType": "uint256",
                    "name": "",
                    "type": "uint256"
                }
            ],
            "stateMutability": "view",
            "type": "function"
        },
        {
            "inputs": [
                {
                    "internalType": "uint256",
                    "name": "_amount",
                    "type": "uint256"
                }
            ],
            "name": "buyFraction",
            "outputs": [],
            "stateMutability": "nonpayable",
            "type": "function"
        },
        {
            "inputs": [
                {
                    "internalType": "uint256[]",
                    "name": "_ids",
                    "type": "uint256[]"
                },
                {
                    "internalType": "uint256[]",
                    "name": "_amount",
                    "type": "uint256[]"
                }
            ],
            "name": "buyFraction2",
            "outputs": [],
            "stateMutability": "nonpayable",
            "type": "function"
        },
        {
            "inputs": [],
            "name": "contractStatus",
            "outputs": [
                {
                    "internalType": "enum FinancingContract1155.Status",
                    "name": "",
                    "type": "uint8"
                }
            ],
            "stateMutability": "view",
            "type": "function"
        },
        {
            "inputs": [],
            "name": "fractionPrice",
            "outputs": [
                {
                    "internalType": "uint256",
                    "name": "",
                    "type": "uint256"
                }
            ],
            "stateMutability": "view",
            "type": "function"
        },
        {
            "inputs": [],
            "name": "getHistorial",
            "outputs": [
                {
                    "components": [
                        {
                            "internalType": "uint256",
                            "name": "fractions",
                            "type": "uint256"
                        },
                        {
                            "internalType": "uint256",
                            "name": "timestamp",
                            "type": "uint256"
                        },
                        {
                            "internalType": "address",
                            "name": "owner",
                            "type": "address"
                        }
                    ],
                    "internalType": "struct FinancingContract1155.HistoryFractions[]",
                    "name": "",
                    "type": "tuple[]"
                }
            ],
            "stateMutability": "view",
            "type": "function"
        },
        {
            "inputs": [
                {
                    "internalType": "bytes32",
                    "name": "role",
                    "type": "bytes32"
                }
            ],
            "name": "getRoleAdmin",
            "outputs": [
                {
                    "internalType": "bytes32",
                    "name": "",
                    "type": "bytes32"
                }
            ],
            "stateMutability": "view",
            "type": "function"
        },
        {
            "inputs": [
                {
                    "internalType": "bytes32",
                    "name": "role",
                    "type": "bytes32"
                },
                {
                    "internalType": "address",
                    "name": "account",
                    "type": "address"
                }
            ],
            "name": "grantRole",
            "outputs": [],
            "stateMutability": "nonpayable",
            "type": "function"
        },
        {
            "inputs": [
                {
                    "internalType": "bytes32",
                    "name": "role",
                    "type": "bytes32"
                },
                {
                    "internalType": "address",
                    "name": "account",
                    "type": "address"
                }
            ],
            "name": "hasRole",
            "outputs": [
                {
                    "internalType": "bool",
                    "name": "",
                    "type": "bool"
                }
            ],
            "stateMutability": "view",
            "type": "function"
        },
        {
            "inputs": [
                {
                    "internalType": "uint256",
                    "name": "",
                    "type": "uint256"
                }
            ],
            "name": "historyFractions",
            "outputs": [
                {
                    "internalType": "uint256",
                    "name": "fractions",
                    "type": "uint256"
                },
                {
                    "internalType": "uint256",
                    "name": "timestamp",
                    "type": "uint256"
                },
                {
                    "internalType": "address",
                    "name": "owner",
                    "type": "address"
                }
            ],
            "stateMutability": "view",
            "type": "function"
        },
        {
            "inputs": [],
            "name": "investmentFractions",
            "outputs": [
                {
                    "internalType": "uint256",
                    "name": "",
                    "type": "uint256"
                }
            ],
            "stateMutability": "view",
            "type": "function"
        },
        {
            "inputs": [
                {
                    "internalType": "address",
                    "name": "account",
                    "type": "address"
                },
                {
                    "internalType": "address",
                    "name": "operator",
                    "type": "address"
                }
            ],
            "name": "isApprovedForAll",
            "outputs": [
                {
                    "internalType": "bool",
                    "name": "",
                    "type": "bool"
                }
            ],
            "stateMutability": "view",
            "type": "function"
        },
        {
            "inputs": [],
            "name": "name",
            "outputs": [
                {
                    "internalType": "string",
                    "name": "",
                    "type": "string"
                }
            ],
            "stateMutability": "view",
            "type": "function"
        },
        {
            "inputs": [],
            "name": "operationAmount",
            "outputs": [
                {
                    "internalType": "uint256",
                    "name": "",
                    "type": "uint256"
                }
            ],
            "stateMutability": "view",
            "type": "function"
        },
        {
            "inputs": [],
            "name": "pause",
            "outputs": [],
            "stateMutability": "nonpayable",
            "type": "function"
        },
        {
            "inputs": [],
            "name": "paused",
            "outputs": [
                {
                    "internalType": "bool",
                    "name": "",
                    "type": "bool"
                }
            ],
            "stateMutability": "view",
            "type": "function"
        },
        {
            "inputs": [
                {
                    "internalType": "bytes32",
                    "name": "role",
                    "type": "bytes32"
                },
                {
                    "internalType": "address",
                    "name": "account",
                    "type": "address"
                }
            ],
            "name": "renounceRole",
            "outputs": [],
            "stateMutability": "nonpayable",
            "type": "function"
        },
        {
            "inputs": [
                {
                    "internalType": "bytes32",
                    "name": "role",
                    "type": "bytes32"
                },
                {
                    "internalType": "address",
                    "name": "account",
                    "type": "address"
                }
            ],
            "name": "revokeRole",
            "outputs": [],
            "stateMutability": "nonpayable",
            "type": "function"
        },
        {
            "inputs": [
                {
                    "internalType": "address",
                    "name": "from",
                    "type": "address"
                },
                {
                    "internalType": "address",
                    "name": "to",
                    "type": "address"
                },
                {
                    "internalType": "uint256[]",
                    "name": "ids",
                    "type": "uint256[]"
                },
                {
                    "internalType": "uint256[]",
                    "name": "amounts",
                    "type": "uint256[]"
                },
                {
                    "internalType": "bytes",
                    "name": "data",
                    "type": "bytes"
                }
            ],
            "name": "safeBatchTransferFrom",
            "outputs": [],
            "stateMutability": "nonpayable",
            "type": "function"
        },
        {
            "inputs": [
                {
                    "internalType": "address",
                    "name": "from",
                    "type": "address"
                },
                {
                    "internalType": "address",
                    "name": "to",
                    "type": "address"
                },
                {
                    "internalType": "uint256",
                    "name": "id",
                    "type": "uint256"
                },
                {
                    "internalType": "uint256",
                    "name": "amount",
                    "type": "uint256"
                },
                {
                    "internalType": "bytes",
                    "name": "data",
                    "type": "bytes"
                }
            ],
            "name": "safeTransferFrom",
            "outputs": [],
            "stateMutability": "nonpayable",
            "type": "function"
        },
        {
            "inputs": [
                {
                    "internalType": "address",
                    "name": "operator",
                    "type": "address"
                },
                {
                    "internalType": "bool",
                    "name": "approved",
                    "type": "bool"
                }
            ],
            "name": "setApprovalForAll",
            "outputs": [],
            "stateMutability": "nonpayable",
            "type": "function"
        },
        {
            "inputs": [
                {
                    "internalType": "uint256",
                    "name": "profit",
                    "type": "uint256"
                }
            ],
            "name": "setBuyBack",
            "outputs": [],
            "stateMutability": "nonpayable",
            "type": "function"
        },
        {
            "inputs": [
                {
                    "internalType": "bytes4",
                    "name": "interfaceId",
                    "type": "bytes4"
                }
            ],
            "name": "supportsInterface",
            "outputs": [
                {
                    "internalType": "bool",
                    "name": "",
                    "type": "bool"
                }
            ],
            "stateMutability": "view",
            "type": "function"
        },
        {
            "inputs": [],
            "name": "symbol",
            "outputs": [
                {
                    "internalType": "string",
                    "name": "",
                    "type": "string"
                }
            ],
            "stateMutability": "view",
            "type": "function"
        },
        {
            "inputs": [],
            "name": "totalSupply",
            "outputs": [
                {
                    "internalType": "uint256",
                    "name": "",
                    "type": "uint256"
                }
            ],
            "stateMutability": "view",
            "type": "function"
        },
        {
            "inputs": [],
            "name": "unpause",
            "outputs": [],
            "stateMutability": "nonpayable",
            "type": "function"
        },
        {
            "inputs": [
                {
                    "internalType": "uint256",
                    "name": "",
                    "type": "uint256"
                }
            ],
            "name": "uri",
            "outputs": [
                {
                    "internalType": "string",
                    "name": "",
                    "type": "string"
                }
            ],
            "stateMutability": "view",
            "type": "function"
        },
        {
            "inputs": [],
            "name": "withdrawBuyBack",
            "outputs": [],
            "stateMutability": "nonpayable",
            "type": "function"
        },
        {
            "inputs": [],
            "name": "withdrawUSDT",
            "outputs": [],
            "stateMutability": "nonpayable",
            "type": "function"
        }
    ],
    "bytecode": "608060405234801562000010575f80fd5b5060405162003c9738038062003c97833981016040819052620000339162000272565b60408051602081019091525f81526200004c81620000fd565b506003805460ff19169055620000635f336200010f565b6200008f7f65d7a28e3265b37a6474929f336521b332c1681b933f6cb9f3376673440d862a336200010f565b600d80546001600160a01b0319166001600160a01b0383161790556005620000b887826200039f565b506006620000c786826200039f565b5060088490556009839055600a829055620000e382846200046b565b600b5550506013805460ff19169055506200048b92505050565b60026200010b82826200039f565b5050565b5f8281526004602090815260408083206001600160a01b038516845290915290205460ff166200010b575f8281526004602090815260408083206001600160a01b03851684529091529020805460ff191660011790556200016d3390565b6001600160a01b0316816001600160a01b0316837f2f8788117e7eff1d82e926ec794901d17c78024a50270940304540a733656f0d60405160405180910390a45050565b634e487b7160e01b5f52604160045260245ffd5b5f82601f830112620001d5575f80fd5b81516001600160401b0380821115620001f257620001f2620001b1565b604051601f8301601f19908116603f011681019082821181831017156200021d576200021d620001b1565b81604052838152602092508660208588010111156200023a575f80fd5b5f91505b838210156200025d57858201830151818301840152908201906200023e565b5f602085830101528094505050505092915050565b5f805f805f8060c0878903121562000288575f80fd5b86516001600160401b03808211156200029f575f80fd5b620002ad8a838b01620001c5565b97506020890151915080821115620002c3575f80fd5b50620002d289828a01620001c5565b604089015160608a015160808b015160a08c01519399509197509550935090506001600160a01b038116811462000307575f80fd5b809150509295509295509295565b600181811c908216806200032a57607f821691505b6020821081036200034957634e487b7160e01b5f52602260045260245ffd5b50919050565b601f8211156200039a57805f5260205f20601f840160051c81016020851015620003765750805b601f840160051c820191505b8181101562000397575f815560010162000382565b50505b505050565b81516001600160401b03811115620003bb57620003bb620001b1565b620003d381620003cc845462000315565b846200034f565b602080601f83116001811462000409575f8415620003f15750858301515b5f19600386901b1c1916600185901b17855562000463565b5f85815260208120601f198616915b82811015620004395788860151825594840194600190910190840162000418565b50858210156200045757878501515f19600388901b60f8161c191681555b505060018460011b0185555b505050505050565b5f826200048657634e487b7160e01b5f52601260045260245ffd5b500490565b6137fe80620004995f395ff3fe608060405234801561000f575f80fd5b5060043610610212575f3560e01c80638e1a3b6e1161011f578063b773f909116100a9578063e23000a011610079578063e23000a014610456578063e63ab1e91461045f578063e985e9c514610486578063f242432a146104c1578063f5298aca146104d4575f80fd5b8063b773f9091461040b578063c6ee20d214610420578063c7ee10421461043a578063d547741f14610443575f80fd5b80639d4150be116100ef5780639d4150be1461039e5780639faffb2c146103d5578063a217fddf146103e8578063a22cb465146103ef578063b1efc75514610402575f80fd5b80638e1a3b6e146103685780638efe68141461037b57806391d148541461038357806395d89b4114610396575f80fd5b8063362e496b116101a057806356953bda1161017057806356953bda146103305780635c975abb146103395780635ef4e99d146103445780636b20c4541461034d5780638456cb5914610360575f80fd5b8063362e496b146102ed57806336568abe146102f55780633f4ba83a146103085780634e1273f414610310575f80fd5b806318160ddd116101e657806318160ddd14610287578063248a9ca3146102905780632a7f505b146102b25780632eb2c2d6146102c75780632f2ff15d146102da575f80fd5b8062fdd58e1461021657806301ffc9a71461023c57806306fdde031461025f5780630e89341c14610274575b5f80fd5b610229610224366004612b55565b6104e7565b6040519081526020015b60405180910390f35b61024f61024a366004612b92565b61057e565b6040519015158152602001610233565b610267610588565b6040516102339190612bfa565b610267610282366004612c0c565b610614565b610229600e5481565b61022961029e366004612c0c565b5f9081526004602052604090206001015490565b6102c56102c0366004612c0c565b6106a6565b005b6102c56102d5366004612d67565b6109a2565b6102c56102e8366004612e09565b6109ee565b6102c5610a17565b6102c5610303366004612e09565b610bb0565b6102c5610c2e565b61032361031e366004612e33565b610c63565b6040516102339190612f31565b610229600b5481565b60035460ff1661024f565b61022960095481565b6102c561035b366004612f43565b610d82565b6102c5610dc5565b6102c5610376366004612c0c565b610df7565b6102c5611395565b61024f610391366004612e09565b61165b565b610267611685565b6103b16103ac366004612c0c565b611692565b6040805193845260208401929092526001600160a01b031690820152606001610233565b6102c56103e3366004612fb1565b6116cc565b6102295f81565b6102c56103fd366004613006565b611aa4565b61022960085481565b610413611aaf565b604051610233919061303b565b60135461042d9060ff1681565b60405161023391906130b0565b610229600a5481565b6102c5610451366004612e09565b611b2f565b610229600c5481565b6102297f65d7a28e3265b37a6474929f336521b332c1681b933f6cb9f3376673440d862a81565b61024f6104943660046130d6565b6001600160a01b039182165f90815260016020908152604080832093909416825291909152205460ff1690565b6102c56104cf3660046130fe565b611b53565b6102c56104e236600461315d565b611b98565b5f6001600160a01b0383166105565760405162461bcd60e51b815260206004820152602a60248201527f455243313135353a2061646472657373207a65726f206973206e6f742061207660448201526930b634b21037bbb732b960b11b60648201526084015b60405180910390fd5b505f818152602081815260408083206001600160a01b03861684529091529020545b92915050565b5f61057882611bdb565b600580546105959061318d565b80601f01602080910402602001604051908101604052809291908181526020018280546105c19061318d565b801561060c5780601f106105e35761010080835404028352916020019161060c565b820191905f5260205f20905b8154815290600101906020018083116105ef57829003601f168201915b505050505081565b6060600280546106239061318d565b80601f016020809104026020016040519081016040528092919081815260200182805461064f9061318d565b801561069a5780601f106106715761010080835404028352916020019161069a565b820191905f5260205f20905b81548152906001019060200180831161067d57829003601f168201915b50505050509050919050565b5f6106b081611bff565b600260135460ff1660038111156106c9576106c961309c565b146107165760405162461bcd60e51b815260206004820152601b60248201527f496e76616c69642073746174757320666f72204275796261636b2e0000000000604482015260640161054d565b5f821161075c5760405162461bcd60e51b815260206004820152601460248201527350726f6669742063616e2774206265207a65726f60601b604482015260640161054d565b5f60648360095461076d91906131d9565b61077791906131f0565b600954610784919061320f565b905061079381620f42406131d9565b600d546040516370a0823160e01b81523360048201529192506001600160a01b0316906370a0823190602401602060405180830381865afa1580156107da573d5f803e3d5ffd5b505050506040513d601f19601f820116820180604052508101906107fe9190613222565b81111561084d5760405162461bcd60e51b815260206004820152601760248201527f4e6f7420656e6f75676820555344542062616c616e6365000000000000000000604482015260640161054d565b600d54604051636eb1769f60e11b815233600482015230602482015282916001600160a01b03169063dd62ed3e90604401602060405180830381865afa158015610899573d5f803e3d5ffd5b505050506040513d601f19601f820116820180604052508101906108bd9190613222565b10156108db5760405162461bcd60e51b815260040161054d90613239565b600d546040516323b872dd60e01b8152336004820152306024820152604481018390526001600160a01b03909116906323b872dd906064016020604051808303815f875af115801561092f573d5f803e3d5ffd5b505050506040513d601f19601f8201168201806040525081019061095391906132a1565b50606483600b5461096491906131d9565b61096e91906131f0565b600b5461097b919061320f565b600c81905561098d90620f42406131d9565b600c5550506013805460ff1916600317905550565b6001600160a01b0385163314806109be57506109be8533610494565b6109da5760405162461bcd60e51b815260040161054d906132bc565b6109e78585858585611c09565b5050505050565b5f82815260046020526040902060010154610a0881611bff565b610a128383611da7565b505050565b5f610a2181611bff565b600d546040516370a0823160e01b81523060048201525f916001600160a01b0316906370a0823190602401602060405180830381865afa158015610a67573d5f803e3d5ffd5b505050506040513d601f19601f82011682018060405250810190610a8b9190613222565b9050600160135460ff166003811115610aa657610aa661309c565b14610ae95760405162461bcd60e51b81526020600482015260136024820152722737ba1037b71039b7b6321039ba30ba3ab99760691b604482015260640161054d565b600d5460405163a9059cbb60e01b8152336004820152602481018390526001600160a01b039091169063a9059cbb906044016020604051808303815f875af1158015610b37573d5f803e3d5ffd5b505050506040513d601f19601f82011682018060405250810190610b5b91906132a1565b610b775760405162461bcd60e51b815260040161054d9061330a565b6013805460ff191660021790556040517f852267b619ccc49c4941eadd7b0df613a646044e6b39e2e7f2a3e8ad4f94a061905f90a15050565b6001600160a01b0381163314610c205760405162461bcd60e51b815260206004820152602f60248201527f416363657373436f6e74726f6c3a2063616e206f6e6c792072656e6f756e636560448201526e103937b632b9903337b91039b2b63360891b606482015260840161054d565b610c2a8282611e2c565b5050565b7f65d7a28e3265b37a6474929f336521b332c1681b933f6cb9f3376673440d862a610c5881611bff565b610c60611e92565b50565b60608151835114610cc85760405162461bcd60e51b815260206004820152602960248201527f455243313135353a206163636f756e747320616e6420696473206c656e677468604482015268040dad2e6dac2e8c6d60bb1b606482015260840161054d565b5f83516001600160401b03811115610ce257610ce2612c23565b604051908082528060200260200182016040528015610d0b578160200160208202803683370190505b5090505f5b8451811015610d7a57610d55858281518110610d2e57610d2e613338565b6020026020010151858381518110610d4857610d48613338565b60200260200101516104e7565b828281518110610d6757610d67613338565b6020908102919091010152600101610d10565b509392505050565b6001600160a01b038316331480610d9e5750610d9e8333610494565b610dba5760405162461bcd60e51b815260040161054d906132bc565b610a12838383611ee4565b7f65d7a28e3265b37a6474929f336521b332c1681b933f6cb9f3376673440d862a610def81611bff565b610c6061206c565b610dff6120a9565b5f81600b54620f4240610e1291906131d9565b610e1c91906131d9565b90505f60135460ff166003811115610e3657610e3661309c565b14610e795760405162461bcd60e51b81526020600482015260136024820152722a34329039b0b6329034b99031b637b9b2b21760691b604482015260640161054d565b5f8211610ec15760405162461bcd60e51b815260206004820152601660248201527520b6b7bab73a1031b0b73737ba103132903d32b9379760511b604482015260640161054d565b600a54821115610ee35760405162461bcd60e51b815260040161054d9061334c565b600d546040516370a0823160e01b815233600482015282916001600160a01b0316906370a0823190602401602060405180830381865afa158015610f29573d5f803e3d5ffd5b505050506040513d601f19601f82011682018060405250810190610f4d9190613222565b1015610f9b5760405162461bcd60e51b815260206004820152601a60248201527f496e73756666696369656e7420555344542062616c616e63652e000000000000604482015260640161054d565b600d54604051636eb1769f60e11b815233600482015230602482015282916001600160a01b03169063dd62ed3e90604401602060405180830381865afa158015610fe7573d5f803e3d5ffd5b505050506040513d601f19601f8201168201806040525081019061100b9190613222565b10156110295760405162461bcd60e51b815260040161054d90613239565b600d546040516323b872dd60e01b8152336004820152306024820152604481018390526001600160a01b03909116906323b872dd906064016020604051808303815f875af115801561107d573d5f803e3d5ffd5b505050506040513d601f19601f820116820180604052508101906110a191906132a1565b6110bd5760405162461bcd60e51b815260040161054d9061330a565b5f826001600160401b038111156110d6576110d6612c23565b6040519080825280602002602001820160405280156110ff578160200160208202803683370190505b5090505f836001600160401b0381111561111b5761111b612c23565b604051908082528060200260200182016040528015611144578160200160208202803683370190505b5090505f5b848160ff16101561120e57600754838260ff168151811061116c5761116c613338565b602090810291909101810191909152335f908152601182526040812060075481546001818101845592845293909220909201558251839060ff84169081106111b6576111b6613338565b602090810291909101810191909152335f90815260128252604081208054600181810183559183529282209092019190915560078054916111f683613393565b91905055508080611206906133ab565b915050611149565b5061122933838360405180602001604052805f8152506120f1565b335f908152601060205260408120805486929061124790849061320f565b909155505060408051338152602081018690527fd90d253a9de34d2fdd5a75ae49ea17fcb43af32fc8ea08cc6d2341991dd3872e910160405180910390a1600a5461129390600161320f565b600754036112d1576013805460ff191660011790556040517f658874d26f90568be0c9e9763f5bd128d548b4559233ac9846a8e92c5b95e677905f90a15b505060408051606081018252928352426020840190815233918401918252600f80546001810182555f9190915293517f8d1108e10bcb7c27dddfc02ed9d693a074039d026cf4ea4240b40f7d581ac802600390950294850155517f8d1108e10bcb7c27dddfc02ed9d693a074039d026cf4ea4240b40f7d581ac803840155517f8d1108e10bcb7c27dddfc02ed9d693a074039d026cf4ea4240b40f7d581ac80490920180546001600160a01b0319166001600160a01b039093169290921790915550565b600360135460ff1660038111156113ae576113ae61309c565b146113fb5760405162461bcd60e51b815260206004820152601960248201527f436f6e7472616374206973206e6f742066696e69736865642e00000000000000604482015260640161054d565b335f908152601260209081526040808320546011909252909120541461141f575f80fd5b335f9081526010602090815260408083205460119092529091205414611443575f80fd5b335f90815260106020526040902054806114985760405162461bcd60e51b815260206004820152601660248201527521b0b63632b9103430b9903737ba103a37b5b2b7399760511b604482015260640161054d565b5f600c54826114a791906131d9565b335f81815260116020908152604091829020805483518184028101840190945280845294955061156494909183018282801561150057602002820191905f5260205f20905b8154815260200190600101908083116114ec575b5050335f908152601260209081526040918290208054835181840281018401909452808452929550935090915083018282801561155a57602002820191905f5260205f20905b815481526020019060010190808311611546575b5050505050611ee4565b335f908152601160205260409081902090517ff8a73082349ec6de87794cb1e590e5945ef4b31036675ab2b713998706441af3916115a1916133c9565b60405180910390a1335f9081526011602052604081206115c091612b0c565b335f9081526012602052604081206115d791612b0c565b335f8181526010602052604080822091909155600d54905163a9059cbb60e01b81526004810192909252602482018390526001600160a01b03169063a9059cbb906044016020604051808303815f875af1158015611637573d5f803e3d5ffd5b505050506040513d601f19601f82011682018060405250810190610a1291906132a1565b5f9182526004602090815260408084206001600160a01b0393909316845291905290205460ff1690565b600680546105959061318d565b600f81815481106116a1575f80fd5b5f9182526020909120600390910201805460018201546002909201549092506001600160a01b031683565b6116d46120a9565b8051600b545f9082906116ea90620f42406131d9565b6116f491906131d9565b90505f821161173e5760405162461bcd60e51b815260206004820152601660248201527520b6b7bab73a1031b0b73737ba103132903d32b9379760511b604482015260640161054d565b5f60135460ff1660038111156117565761175661309c565b146117995760405162461bcd60e51b81526020600482015260136024820152722a34329039b0b6329034b99031b637b9b2b21760691b604482015260640161054d565b600a548211156117bb5760405162461bcd60e51b815260040161054d9061334c565b600a5482600e546117cc919061320f565b111561181a5760405162461bcd60e51b815260206004820152601a60248201527f457863656564696e6720746f74616c206672616374696f6e732e000000000000604482015260640161054d565b600d546040516370a0823160e01b815233600482015282916001600160a01b0316906370a0823190602401602060405180830381865afa158015611860573d5f803e3d5ffd5b505050506040513d601f19601f820116820180604052508101906118849190613222565b10156118d25760405162461bcd60e51b815260206004820152601a60248201527f496e73756666696369656e7420555344542062616c616e63652e000000000000604482015260640161054d565b600d54604051636eb1769f60e11b815233600482015230602482015282916001600160a01b03169063dd62ed3e90604401602060405180830381865afa15801561191e573d5f803e3d5ffd5b505050506040513d601f19601f820116820180604052508101906119429190613222565b10156119605760405162461bcd60e51b815260040161054d90613239565b600d546040516323b872dd60e01b8152336004820152306024820152604481018390526001600160a01b03909116906323b872dd906064016020604051808303815f875af11580156119b4573d5f803e3d5ffd5b505050506040513d601f19601f820116820180604052508101906119d891906132a1565b6119f45760405162461bcd60e51b815260040161054d9061330a565b611a0e33858560405180602001604052805f8152506120f1565b81600e5f828254611a1f919061320f565b909155505060408051338152602081018490527fd90d253a9de34d2fdd5a75ae49ea17fcb43af32fc8ea08cc6d2341991dd3872e910160405180910390a1600a54600e5403611a9e576013805460ff191660011790556040517f658874d26f90568be0c9e9763f5bd128d548b4559233ac9846a8e92c5b95e677905f90a15b50505050565b610c2a338383612271565b6060600f805480602002602001604051908101604052809291908181526020015f905b82821015611b26575f848152602090819020604080516060810182526003860290920180548352600180820154848601526002909101546001600160a01b0316918301919091529083529092019101611ad2565b50505050905090565b5f82815260046020526040902060010154611b4981611bff565b610a128383611e2c565b6001600160a01b038516331480611b6f5750611b6f8533610494565b611b8b5760405162461bcd60e51b815260040161054d906132bc565b6109e78585858585612350565b6001600160a01b038316331480611bb45750611bb48333610494565b611bd05760405162461bcd60e51b815260040161054d906132bc565b610a12838383612484565b5f6001600160e01b03198216637965db0b60e01b148061057857506105788261259a565b610c6081336125e9565b8151835114611c2a5760405162461bcd60e51b815260040161054d9061340f565b6001600160a01b038416611c505760405162461bcd60e51b815260040161054d90613457565b33611c5f818787878787612642565b5f5b8451811015611d39575f858281518110611c7d57611c7d613338565b602002602001015190505f858381518110611c9a57611c9a613338565b6020908102919091018101515f84815280835260408082206001600160a01b038e168352909352919091205490915081811015611ce95760405162461bcd60e51b815260040161054d9061349c565b5f838152602081815260408083206001600160a01b038e8116855292528083208585039055908b16825281208054849290611d2590849061320f565b909155505060019093019250611c61915050565b50846001600160a01b0316866001600160a01b0316826001600160a01b03167f4a39dc06d4c0dbc64b70af90fd698a233a518aa5d07e595d983b8c0526c8f7fb8787604051611d899291906134e6565b60405180910390a4611d9f818787878787612650565b505050505050565b611db1828261165b565b610c2a575f8281526004602090815260408083206001600160a01b03851684529091529020805460ff19166001179055611de83390565b6001600160a01b0316816001600160a01b0316837f2f8788117e7eff1d82e926ec794901d17c78024a50270940304540a733656f0d60405160405180910390a45050565b611e36828261165b565b15610c2a575f8281526004602090815260408083206001600160a01b0385168085529252808320805460ff1916905551339285917ff6391f5c32d9c69d2a47ea670b442974b53935d1edc7fd64eb21e047a839171b9190a45050565b611e9a6127aa565b6003805460ff191690557f5db9ee0a495bf2e6ff9c91a7834c1ba4fdd244a5e8aa4e537bd38aeae4b073aa335b6040516001600160a01b03909116815260200160405180910390a1565b6001600160a01b038316611f0a5760405162461bcd60e51b815260040161054d90613513565b8051825114611f2b5760405162461bcd60e51b815260040161054d9061340f565b5f339050611f4b81855f868660405180602001604052805f815250612642565b5f5b8351811015612001575f848281518110611f6957611f69613338565b602002602001015190505f848381518110611f8657611f86613338565b6020908102919091018101515f84815280835260408082206001600160a01b038c168352909352919091205490915081811015611fd55760405162461bcd60e51b815260040161054d90613556565b5f928352602083815260408085206001600160a01b038b16865290915290922091039055600101611f4d565b505f6001600160a01b0316846001600160a01b0316826001600160a01b03167f4a39dc06d4c0dbc64b70af90fd698a233a518aa5d07e595d983b8c0526c8f7fb86866040516120519291906134e6565b60405180910390a460408051602081019091525f9052611a9e565b6120746120a9565b6003805460ff191660011790557f62e78cea01bee320cd4e420270b5ea74000d11b0c9f74754ebdbfc544b05a258611ec73390565b60035460ff16156120ef5760405162461bcd60e51b815260206004820152601060248201526f14185d5cd8589b194e881c185d5cd95960821b604482015260640161054d565b565b6001600160a01b0384166121515760405162461bcd60e51b815260206004820152602160248201527f455243313135353a206d696e7420746f20746865207a65726f206164647265736044820152607360f81b606482015260840161054d565b81518351146121725760405162461bcd60e51b815260040161054d9061340f565b33612181815f87878787612642565b5f5b845181101561220b5783818151811061219e5761219e613338565b60200260200101515f808784815181106121ba576121ba613338565b602002602001015181526020019081526020015f205f886001600160a01b03166001600160a01b031681526020019081526020015f205f8282546121fe919061320f565b9091555050600101612183565b50846001600160a01b03165f6001600160a01b0316826001600160a01b03167f4a39dc06d4c0dbc64b70af90fd698a233a518aa5d07e595d983b8c0526c8f7fb878760405161225b9291906134e6565b60405180910390a46109e7815f87878787612650565b816001600160a01b0316836001600160a01b0316036122e45760405162461bcd60e51b815260206004820152602960248201527f455243313135353a2073657474696e6720617070726f76616c20737461747573604482015268103337b91039b2b63360b91b606482015260840161054d565b6001600160a01b038381165f81815260016020908152604080832094871680845294825291829020805460ff191686151590811790915591519182527f17307eab39ab6107e8899845ad3d59bd9653f200f220920489ca2b5937696c31910160405180910390a3505050565b6001600160a01b0384166123765760405162461bcd60e51b815260040161054d90613457565b335f612381856127f3565b90505f61238d856127f3565b905061239d838989858589612642565b5f868152602081815260408083206001600160a01b038c168452909152902054858110156123dd5760405162461bcd60e51b815260040161054d9061349c565b5f878152602081815260408083206001600160a01b038d8116855292528083208985039055908a1682528120805488929061241990849061320f565b909155505060408051888152602081018890526001600160a01b03808b16928c821692918816917fc3d58168c5ae7397731d063d5bbf3d657854427343f4c083240f7aacaa2d0f62910160405180910390a4612479848a8a8a8a8a61283c565b505050505050505050565b6001600160a01b0383166124aa5760405162461bcd60e51b815260040161054d90613513565b335f6124b5846127f3565b90505f6124c1846127f3565b90506124df83875f858560405180602001604052805f815250612642565b5f858152602081815260408083206001600160a01b038a1684529091529020548481101561251f5760405162461bcd60e51b815260040161054d90613556565b5f868152602081815260408083206001600160a01b038b81168086529184528285208a8703905582518b81529384018a90529092908816917fc3d58168c5ae7397731d063d5bbf3d657854427343f4c083240f7aacaa2d0f62910160405180910390a460408051602081019091525f90525b50505050505050565b5f6001600160e01b03198216636cdb3d1360e11b14806125ca57506001600160e01b031982166303a24d0760e21b145b8061057857506301ffc9a760e01b6001600160e01b0319831614610578565b6125f3828261165b565b610c2a57612600816128f6565b61260b836020612908565b60405160200161261c92919061359a565b60408051601f198184030181529082905262461bcd60e51b825261054d91600401612bfa565b611d9f868686868686612aa4565b6001600160a01b0384163b15611d9f5760405163bc197c8160e01b81526001600160a01b0385169063bc197c8190612694908990899088908890889060040161360e565b6020604051808303815f875af19250505080156126ce575060408051601f3d908101601f191682019092526126cb9181019061366b565b60015b61277a576126da613686565b806308c379a00361271357506126ee61369f565b806126f95750612715565b8060405162461bcd60e51b815260040161054d9190612bfa565b505b60405162461bcd60e51b815260206004820152603460248201527f455243313135353a207472616e7366657220746f206e6f6e2d455243313135356044820152732932b1b2b4bb32b91034b6b83632b6b2b73a32b960611b606482015260840161054d565b6001600160e01b0319811663bc197c8160e01b146125915760405162461bcd60e51b815260040161054d90613727565b60035460ff166120ef5760405162461bcd60e51b815260206004820152601460248201527314185d5cd8589b194e881b9bdd081c185d5cd95960621b604482015260640161054d565b6040805160018082528183019092526060915f91906020808301908036833701905050905082815f8151811061282b5761282b613338565b602090810291909101015292915050565b6001600160a01b0384163b15611d9f5760405163f23a6e6160e01b81526001600160a01b0385169063f23a6e6190612880908990899088908890889060040161376f565b6020604051808303815f875af19250505080156128ba575060408051601f3d908101601f191682019092526128b79181019061366b565b60015b6128c6576126da613686565b6001600160e01b0319811663f23a6e6160e01b146125915760405162461bcd60e51b815260040161054d90613727565b60606105786001600160a01b03831660145b60605f6129168360026131d9565b61292190600261320f565b6001600160401b0381111561293857612938612c23565b6040519080825280601f01601f191660200182016040528015612962576020820181803683370190505b509050600360fc1b815f8151811061297c5761297c613338565b60200101906001600160f81b03191690815f1a905350600f60fb1b816001815181106129aa576129aa613338565b60200101906001600160f81b03191690815f1a9053505f6129cc8460026131d9565b6129d790600161320f565b90505b6001811115612a4e576f181899199a1a9b1b9c1cb0b131b232b360811b85600f1660108110612a0b57612a0b613338565b1a60f81b828281518110612a2157612a21613338565b60200101906001600160f81b03191690815f1a90535060049490941c93612a47816137b3565b90506129da565b508315612a9d5760405162461bcd60e51b815260206004820181905260248201527f537472696e67733a20686578206c656e67746820696e73756666696369656e74604482015260640161054d565b9392505050565b60035460ff1615611d9f5760405162461bcd60e51b815260206004820152602c60248201527f455243313135355061757361626c653a20746f6b656e207472616e736665722060448201526b1dda1a5b19481c185d5cd95960a21b606482015260840161054d565b5080545f8255905f5260205f2090810190610c6091905b80821115612b36575f8155600101612b23565b5090565b80356001600160a01b0381168114612b50575f80fd5b919050565b5f8060408385031215612b66575f80fd5b612b6f83612b3a565b946020939093013593505050565b6001600160e01b031981168114610c60575f80fd5b5f60208284031215612ba2575f80fd5b8135612a9d81612b7d565b5f5b83811015612bc7578181015183820152602001612baf565b50505f910152565b5f8151808452612be6816020860160208601612bad565b601f01601f19169290920160200192915050565b602081525f612a9d6020830184612bcf565b5f60208284031215612c1c575f80fd5b5035919050565b634e487b7160e01b5f52604160045260245ffd5b601f8201601f191681016001600160401b0381118282101715612c5c57612c5c612c23565b6040525050565b5f6001600160401b03821115612c7b57612c7b612c23565b5060051b60200190565b5f82601f830112612c94575f80fd5b81356020612ca182612c63565b604051612cae8282612c37565b80915083815260208101915060208460051b870101935086841115612cd1575f80fd5b602086015b84811015612ced5780358352918301918301612cd6565b509695505050505050565b5f82601f830112612d07575f80fd5b81356001600160401b03811115612d2057612d20612c23565b604051612d37601f8301601f191660200182612c37565b818152846020838601011115612d4b575f80fd5b816020850160208301375f918101602001919091529392505050565b5f805f805f60a08688031215612d7b575f80fd5b612d8486612b3a565b9450612d9260208701612b3a565b935060408601356001600160401b0380821115612dad575f80fd5b612db989838a01612c85565b94506060880135915080821115612dce575f80fd5b612dda89838a01612c85565b93506080880135915080821115612def575f80fd5b50612dfc88828901612cf8565b9150509295509295909350565b5f8060408385031215612e1a575f80fd5b82359150612e2a60208401612b3a565b90509250929050565b5f8060408385031215612e44575f80fd5b82356001600160401b0380821115612e5a575f80fd5b818501915085601f830112612e6d575f80fd5b81356020612e7a82612c63565b604051612e878282612c37565b83815260059390931b8501820192828101915089841115612ea6575f80fd5b948201945b83861015612ecb57612ebc86612b3a565b82529482019490820190612eab565b96505086013592505080821115612ee0575f80fd5b50612eed85828601612c85565b9150509250929050565b5f815180845260208085019450602084015f5b83811015612f2657815187529582019590820190600101612f0a565b509495945050505050565b602081525f612a9d6020830184612ef7565b5f805f60608486031215612f55575f80fd5b612f5e84612b3a565b925060208401356001600160401b0380821115612f79575f80fd5b612f8587838801612c85565b93506040860135915080821115612f9a575f80fd5b50612fa786828701612c85565b9150509250925092565b5f8060408385031215612fc2575f80fd5b82356001600160401b0380821115612fd8575f80fd5b612fe486838701612c85565b93506020850135915080821115612ee0575f80fd5b8015158114610c60575f80fd5b5f8060408385031215613017575f80fd5b61302083612b3a565b9150602083013561303081612ff9565b809150509250929050565b602080825282518282018190525f919060409081850190868401855b8281101561308f5781518051855286810151878601528501516001600160a01b03168585015260609093019290850190600101613057565b5091979650505050505050565b634e487b7160e01b5f52602160045260245ffd5b60208101600483106130d057634e487b7160e01b5f52602160045260245ffd5b91905290565b5f80604083850312156130e7575f80fd5b6130f083612b3a565b9150612e2a60208401612b3a565b5f805f805f60a08688031215613112575f80fd5b61311b86612b3a565b945061312960208701612b3a565b9350604086013592506060860135915060808601356001600160401b03811115613151575f80fd5b612dfc88828901612cf8565b5f805f6060848603121561316f575f80fd5b61317884612b3a565b95602085013595506040909401359392505050565b600181811c908216806131a157607f821691505b6020821081036131bf57634e487b7160e01b5f52602260045260245ffd5b50919050565b634e487b7160e01b5f52601160045260245ffd5b8082028115828204841417610578576105786131c5565b5f8261320a57634e487b7160e01b5f52601260045260245ffd5b500490565b80820180821115610578576105786131c5565b5f60208284031215613232575f80fd5b5051919050565b60208082526042908201527f496e206f7264657220746f2070726f636565642c20796f75206d75737420617060408201527f70726f76652074686520726571756972656420616d6f756e74206f66205553446060820152612a1760f11b608082015260a00190565b5f602082840312156132b1575f80fd5b8151612a9d81612ff9565b6020808252602e908201527f455243313135353a2063616c6c6572206973206e6f7420746f6b656e206f776e60408201526d195c881bdc88185c1c1c9bdd995960921b606082015260800190565b6020808252601490820152732aa9a22a103a3930b739b332b91032b93937b91760611b604082015260600190565b634e487b7160e01b5f52603260045260245ffd5b60208082526027908201527f416d6f756e7420746f2062757920657863656564657320746f74616c2066726160408201526631ba34b7b7399760c91b606082015260800190565b5f600182016133a4576133a46131c5565b5060010190565b5f60ff821660ff81036133c0576133c06131c5565b60010192915050565b602080825282548282018190525f8481528281209092916040850190845b81811015613403578354835260019384019392850192016133e7565b50909695505050505050565b60208082526028908201527f455243313135353a2069647320616e6420616d6f756e7473206c656e677468206040820152670dad2e6dac2e8c6d60c31b606082015260800190565b60208082526025908201527f455243313135353a207472616e7366657220746f20746865207a65726f206164604082015264647265737360d81b606082015260800190565b6020808252602a908201527f455243313135353a20696e73756666696369656e742062616c616e636520666f60408201526939103a3930b739b332b960b11b606082015260800190565b604081525f6134f86040830185612ef7565b828103602084015261350a8185612ef7565b95945050505050565b60208082526023908201527f455243313135353a206275726e2066726f6d20746865207a65726f206164647260408201526265737360e81b606082015260800190565b60208082526024908201527f455243313135353a206275726e20616d6f756e7420657863656564732062616c604082015263616e636560e01b606082015260800190565b7f416363657373436f6e74726f6c3a206163636f756e742000000000000000000081525f83516135d1816017850160208801612bad565b7001034b99036b4b9b9b4b733903937b6329607d1b6017918401918201528351613602816028840160208801612bad565b01602801949350505050565b6001600160a01b0386811682528516602082015260a0604082018190525f9061363990830186612ef7565b828103606084015261364b8186612ef7565b9050828103608084015261365f8185612bcf565b98975050505050505050565b5f6020828403121561367b575f80fd5b8151612a9d81612b7d565b5f60033d111561369c5760045f803e505f5160e01c5b90565b5f60443d10156136ac5790565b6040516003193d81016004833e81513d6001600160401b0381602484011181841117156136db57505050505090565b82850191508151818111156136f35750505050505090565b843d870101602082850101111561370d5750505050505090565b61371c60208286010187612c37565b509095945050505050565b60208082526028908201527f455243313135353a204552433131353552656365697665722072656a656374656040820152676420746f6b656e7360c01b606082015260800190565b6001600160a01b03868116825285166020820152604081018490526060810183905260a0608082018190525f906137a890830184612bcf565b979650505050505050565b5f816137c1576137c16131c5565b505f19019056fea26469706673582212202a2bdf538873af8b7a06ca8bf117837c175abac762a0fdba7ddeee8cd239dd3064736f6c63430008170033",
    "sourcePath": "c:/Users/usuario/Desktop/Programacion/TruMarket-BB/contracts/NFT1155.sol",
    "compiler": {
        "name": "solc",
        "version": "0.8.23+commit.f704f362"
    },
    "functionHashes": {
        "DEFAULT_ADMIN_ROLE()": "a217fddf",
        "PAUSER_ROLE()": "e63ab1e9",
        "amountToFinance()": "5ef4e99d",
        "balanceOf(address,uint256)": "00fdd58e",
        "balanceOfBatch(address[],uint256[])": "4e1273f4",
        "burn(address,uint256,uint256)": "f5298aca",
        "burnBatch(address,uint256[],uint256[])": "6b20c454",
        "buyBackPrice()": "e23000a0",
        "buyFraction(uint256)": "8e1a3b6e",
        "buyFraction2(uint256[],uint256[])": "9faffb2c",
        "contractStatus()": "c6ee20d2",
        "fractionPrice()": "56953bda",
        "getHistorial()": "b773f909",
        "getRoleAdmin(bytes32)": "248a9ca3",
        "grantRole(bytes32,address)": "2f2ff15d",
        "hasRole(bytes32,address)": "91d14854",
        "historyFractions(uint256)": "9d4150be",
        "investmentFractions()": "c7ee1042",
        "isApprovedForAll(address,address)": "e985e9c5",
        "name()": "06fdde03",
        "operationAmount()": "b1efc755",
        "pause()": "8456cb59",
        "paused()": "5c975abb",
        "renounceRole(bytes32,address)": "36568abe",
        "revokeRole(bytes32,address)": "d547741f",
        "safeBatchTransferFrom(address,address,uint256[],uint256[],bytes)": "2eb2c2d6",
        "safeTransferFrom(address,address,uint256,uint256,bytes)": "f242432a",
        "setApprovalForAll(address,bool)": "a22cb465",
        "setBuyBack(uint256)": "2a7f505b",
        "supportsInterface(bytes4)": "01ffc9a7",
        "symbol()": "95d89b41",
        "totalSupply()": "18160ddd",
        "unpause()": "3f4ba83a",
        "uri(uint256)": "0e89341c",
        "withdrawBuyBack()": "8efe6814",
        "withdrawUSDT()": "362e496b"
    },
    "gasEstimates": {
        "creation": {
            "codeDepositCost": "2866800",
            "executionCost": "infinite",
            "totalCost": "infinite"
        },
        "external": {
            "DEFAULT_ADMIN_ROLE()": "271",
            "PAUSER_ROLE()": "249",
            "amountToFinance()": "2372",
            "balanceOf(address,uint256)": "2719",
            "balanceOfBatch(address[],uint256[])": "infinite",
            "burn(address,uint256,uint256)": "infinite",
            "burnBatch(address,uint256[],uint256[])": "infinite",
            "buyBackPrice()": "2327",
            "buyFraction(uint256)": "infinite",
            "buyFraction2(uint256[],uint256[])": "infinite",
            "contractStatus()": "2417",
            "fractionPrice()": "2328",
            "getHistorial()": "infinite",
            "getRoleAdmin(bytes32)": "2498",
            "grantRole(bytes32,address)": "infinite",
            "hasRole(bytes32,address)": "2752",
            "historyFractions(uint256)": "8936",
            "investmentFractions()": "2372",
            "isApprovedForAll(address,address)": "infinite",
            "name()": "infinite",
            "operationAmount()": "2416",
            "pause()": "infinite",
            "paused()": "2370",
            "renounceRole(bytes32,address)": "29065",
            "revokeRole(bytes32,address)": "infinite",
            "safeBatchTransferFrom(address,address,uint256[],uint256[],bytes)": "infinite",
            "safeTransferFrom(address,address,uint256,uint256,bytes)": "infinite",
            "setApprovalForAll(address,bool)": "26820",
            "setBuyBack(uint256)": "infinite",
            "supportsInterface(bytes4)": "infinite",
            "symbol()": "infinite",
            "totalSupply()": "2329",
            "unpause()": "infinite",
            "uri(uint256)": "infinite",
            "withdrawBuyBack()": "infinite",
            "withdrawUSDT()": "infinite"
        },
        "internal": {
            "_beforeTokenTransfer(address,address,address,uint256[] memory,uint256[] memory,bytes memory)": "infinite"
        }
    }
}