{
    "_format": "hh-sol-artifact-1",
    "contractName": "Factory",
    "sourceName": "contracts/NftFactory.sol",
    "abi": [
        {
            "inputs": [],
            "stateMutability": "nonpayable",
            "type": "constructor"
        },
        {
            "anonymous": false,
            "inputs": [
                {
                    "indexed": false,
                    "internalType": "address",
                    "name": "previousAdmin",
                    "type": "address"
                },
                {
                    "indexed": false,
                    "internalType": "address",
                    "name": "newAdmin",
                    "type": "address"
                }
            ],
            "name": "AdminChanged",
            "type": "event"
        },
        {
            "anonymous": false,
            "inputs": [
                {
                    "indexed": true,
                    "internalType": "address",
                    "name": "beacon",
                    "type": "address"
                }
            ],
            "name": "BeaconUpgraded",
            "type": "event"
        },
        {
            "anonymous": false,
            "inputs": [
                {
                    "indexed": false,
                    "internalType": "uint8",
                    "name": "version",
                    "type": "uint8"
                }
            ],
            "name": "Initialized",
            "type": "event"
        },
        {
            "anonymous": false,
            "inputs": [
                {
                    "indexed": true,
                    "internalType": "address",
                    "name": "deployedContract",
                    "type": "address"
                }
            ],
            "name": "NewContractDeployed",
            "type": "event"
        },
        {
            "anonymous": false,
            "inputs": [
                {
                    "indexed": false,
                    "internalType": "address",
                    "name": "account",
                    "type": "address"
                }
            ],
            "name": "Paused",
            "type": "event"
        },
        {
            "anonymous": false,
            "inputs": [
                {
                    "indexed": true,
                    "internalType": "bytes32",
                    "name": "role",
                    "type": "bytes32"
                },
                {
                    "indexed": true,
                    "internalType": "bytes32",
                    "name": "previousAdminRole",
                    "type": "bytes32"
                },
                {
                    "indexed": true,
                    "internalType": "bytes32",
                    "name": "newAdminRole",
                    "type": "bytes32"
                }
            ],
            "name": "RoleAdminChanged",
            "type": "event"
        },
        {
            "anonymous": false,
            "inputs": [
                {
                    "indexed": true,
                    "internalType": "bytes32",
                    "name": "role",
                    "type": "bytes32"
                },
                {
                    "indexed": true,
                    "internalType": "address",
                    "name": "account",
                    "type": "address"
                },
                {
                    "indexed": true,
                    "internalType": "address",
                    "name": "sender",
                    "type": "address"
                }
            ],
            "name": "RoleGranted",
            "type": "event"
        },
        {
            "anonymous": false,
            "inputs": [
                {
                    "indexed": true,
                    "internalType": "bytes32",
                    "name": "role",
                    "type": "bytes32"
                },
                {
                    "indexed": true,
                    "internalType": "address",
                    "name": "account",
                    "type": "address"
                },
                {
                    "indexed": true,
                    "internalType": "address",
                    "name": "sender",
                    "type": "address"
                }
            ],
            "name": "RoleRevoked",
            "type": "event"
        },
        {
            "anonymous": false,
            "inputs": [
                {
                    "indexed": false,
                    "internalType": "address",
                    "name": "account",
                    "type": "address"
                }
            ],
            "name": "Unpaused",
            "type": "event"
        },
        {
            "anonymous": false,
            "inputs": [
                {
                    "indexed": true,
                    "internalType": "address",
                    "name": "implementation",
                    "type": "address"
                }
            ],
            "name": "Upgraded",
            "type": "event"
        },
        {
            "inputs": [],
            "name": "DEFAULT_ADMIN_ROLE",
            "outputs": [
                {
                    "internalType": "bytes32",
                    "name": "",
                    "type": "bytes32"
                }
            ],
            "stateMutability": "view",
            "type": "function"
        },
        {
            "inputs": [
                {
                    "internalType": "string",
                    "name": "_name",
                    "type": "string"
                },
                {
                    "internalType": "uint256",
                    "name": "_amountToFinance",
                    "type": "uint256"
                },
                {
                    "internalType": "uint256",
                    "name": "_investmentFractions",
                    "type": "uint256"
                },
                {
                    "internalType": "address",
                    "name": "_addUsdc",
                    "type": "address"
                }
            ],
            "name": "FactoryFunc",
            "outputs": [
                {
                    "internalType": "address",
                    "name": "",
                    "type": "address"
                }
            ],
            "stateMutability": "nonpayable",
            "type": "function"
        },
        {
            "inputs": [],
            "name": "PAUSER_ROLE",
            "outputs": [
                {
                    "internalType": "bytes32",
                    "name": "",
                    "type": "bytes32"
                }
            ],
            "stateMutability": "view",
            "type": "function"
        },
        {
            "inputs": [],
            "name": "UPGRADER_ROLE",
            "outputs": [
                {
                    "internalType": "bytes32",
                    "name": "",
                    "type": "bytes32"
                }
            ],
            "stateMutability": "view",
            "type": "function"
        },
        {
            "inputs": [],
            "name": "contractsCounter",
            "outputs": [
                {
                    "internalType": "uint256",
                    "name": "",
                    "type": "uint256"
                }
            ],
            "stateMutability": "view",
            "type": "function"
        },
        {
            "inputs": [],
            "name": "getAddresses",
            "outputs": [
                {
                    "internalType": "address[]",
                    "name": "",
                    "type": "address[]"
                }
            ],
            "stateMutability": "view",
            "type": "function"
        },
        {
            "inputs": [
                {
                    "internalType": "bytes32",
                    "name": "role",
                    "type": "bytes32"
                }
            ],
            "name": "getRoleAdmin",
            "outputs": [
                {
                    "internalType": "bytes32",
                    "name": "",
                    "type": "bytes32"
                }
            ],
            "stateMutability": "view",
            "type": "function"
        },
        {
            "inputs": [
                {
                    "internalType": "bytes32",
                    "name": "role",
                    "type": "bytes32"
                },
                {
                    "internalType": "address",
                    "name": "account",
                    "type": "address"
                }
            ],
            "name": "grantRole",
            "outputs": [],
            "stateMutability": "nonpayable",
            "type": "function"
        },
        {
            "inputs": [
                {
                    "internalType": "bytes32",
                    "name": "role",
                    "type": "bytes32"
                },
                {
                    "internalType": "address",
                    "name": "account",
                    "type": "address"
                }
            ],
            "name": "hasRole",
            "outputs": [
                {
                    "internalType": "bool",
                    "name": "",
                    "type": "bool"
                }
            ],
            "stateMutability": "view",
            "type": "function"
        },
        {
            "inputs": [],
            "name": "initialize",
            "outputs": [],
            "stateMutability": "nonpayable",
            "type": "function"
        },
        {
            "inputs": [],
            "name": "pause",
            "outputs": [],
            "stateMutability": "nonpayable",
            "type": "function"
        },
        {
            "inputs": [],
            "name": "paused",
            "outputs": [
                {
                    "internalType": "bool",
                    "name": "",
                    "type": "bool"
                }
            ],
            "stateMutability": "view",
            "type": "function"
        },
        {
            "inputs": [
                {
                    "internalType": "address",
                    "name": "",
                    "type": "address"
                }
            ],
            "name": "profits",
            "outputs": [
                {
                    "internalType": "uint256",
                    "name": "",
                    "type": "uint256"
                }
            ],
            "stateMutability": "view",
            "type": "function"
        },
        {
            "inputs": [],
            "name": "proxiableUUID",
            "outputs": [
                {
                    "internalType": "bytes32",
                    "name": "",
                    "type": "bytes32"
                }
            ],
            "stateMutability": "view",
            "type": "function"
        },
        {
            "inputs": [
                {
                    "internalType": "bytes32",
                    "name": "role",
                    "type": "bytes32"
                },
                {
                    "internalType": "address",
                    "name": "account",
                    "type": "address"
                }
            ],
            "name": "renounceRole",
            "outputs": [],
            "stateMutability": "nonpayable",
            "type": "function"
        },
        {
            "inputs": [
                {
                    "internalType": "bytes32",
                    "name": "role",
                    "type": "bytes32"
                },
                {
                    "internalType": "address",
                    "name": "account",
                    "type": "address"
                }
            ],
            "name": "revokeRole",
            "outputs": [],
            "stateMutability": "nonpayable",
            "type": "function"
        },
        {
            "inputs": [
                {
                    "internalType": "bytes4",
                    "name": "interfaceId",
                    "type": "bytes4"
                }
            ],
            "name": "supportsInterface",
            "outputs": [
                {
                    "internalType": "bool",
                    "name": "",
                    "type": "bool"
                }
            ],
            "stateMutability": "view",
            "type": "function"
        },
        {
            "inputs": [],
            "name": "unpause",
            "outputs": [],
            "stateMutability": "nonpayable",
            "type": "function"
        },
        {
            "inputs": [
                {
                    "internalType": "address",
                    "name": "newImplementation",
                    "type": "address"
                }
            ],
            "name": "upgradeTo",
            "outputs": [],
            "stateMutability": "nonpayable",
            "type": "function"
        },
        {
            "inputs": [
                {
                    "internalType": "address",
                    "name": "newImplementation",
                    "type": "address"
                },
                {
                    "internalType": "bytes",
                    "name": "data",
                    "type": "bytes"
                }
            ],
            "name": "upgradeToAndCall",
            "outputs": [],
            "stateMutability": "payable",
            "type": "function"
        }
    ],
    "bytecode": "0x60a06040523060805234801561001457600080fd5b5061001d610022565b6100e1565b600054610100900460ff161561008e5760405162461bcd60e51b815260206004820152602760248201527f496e697469616c697a61626c653a20636f6e747261637420697320696e697469604482015266616c697a696e6760c81b606482015260840160405180910390fd5b60005460ff908116146100df576000805460ff191660ff9081179091556040519081527f7f26b83ff96e1f2b6a682f133852f6798a09c465da95921460cefb38474024989060200160405180910390a15b565b6080516153086200011960003960008181610731015281816107b8015281816108eb015281816109720152610a5f01526153086000f3fe6080604052600436106200017b5760003560e01c80638129fc1c11620000cf578063cc85f080116200007d578063d547741f1162000060578063d547741f1462000410578063e63ab1e91462000435578063f72c0d8b146200046b57600080fd5b8063cc85f08014620003c5578063cc9f3ab614620003f757600080fd5b806391d1485411620000b257806391d14854146200033d578063a217fddf1462000387578063a39fac12146200039e57600080fd5b80638129fc1c146200030d5780638456cb59146200032557600080fd5b80633659cfe6116200012d5780634f1ef28611620001105780634f1ef28614620002c457806352d1902d14620002db5780635c975abb14620002f357600080fd5b80633659cfe614620002875780633f4ba83a14620002ac57600080fd5b80632f2ff15d11620001625780632f2ff15d14620001fd5780633166be9d146200022457806336568abe146200026257600080fd5b806301ffc9a71462000180578063248a9ca314620001ba575b600080fd5b3480156200018d57600080fd5b50620001a56200019f366004620019e2565b620004a1565b60405190151581526020015b60405180910390f35b348015620001c757600080fd5b50620001ee620001d936600462001a26565b60009081526097602052604090206001015490565b604051908152602001620001b1565b3480156200020a57600080fd5b50620002226200021c36600462001a5d565b6200053b565b005b3480156200023157600080fd5b50620002496200024336600462001b1f565b62000569565b6040516001600160a01b039091168152602001620001b1565b3480156200026f57600080fd5b50620002226200028136600462001a5d565b62000693565b3480156200029457600080fd5b5062000222620002a636600462001b9b565b62000727565b348015620002b957600080fd5b5062000222620008ab565b62000222620002d536600462001bb9565b620008e1565b348015620002e857600080fd5b50620001ee62000a52565b3480156200030057600080fd5b5060335460ff16620001a5565b3480156200031a57600080fd5b506200022262000b19565b3480156200033257600080fd5b506200022262000cba565b3480156200034a57600080fd5b50620001a56200035c36600462001a5d565b60009182526097602090815260408084206001600160a01b0393909316845291905290205460ff1690565b3480156200039457600080fd5b50620001ee600081565b348015620003ab57600080fd5b50620003b662000cf0565b604051620001b1919062001c22565b348015620003d257600080fd5b50620001ee620003e436600462001b9b565b61012f6020526000908152604090205481565b3480156200040457600080fd5b50620001ee61012d5481565b3480156200041d57600080fd5b50620002226200042f36600462001a5d565b62000d55565b3480156200044257600080fd5b50620001ee7f65d7a28e3265b37a6474929f336521b332c1681b933f6cb9f3376673440d862a81565b3480156200047857600080fd5b50620001ee7f189ab7a9244df0848122154315af71fe140f3db0fe014031783b0946b8c9d2e381565b60007fffffffff0000000000000000000000000000000000000000000000000000000082167f7965db0b0000000000000000000000000000000000000000000000000000000014806200053557507f01ffc9a7000000000000000000000000000000000000000000000000000000007fffffffff000000000000000000000000000000000000000000000000000000008316145b92915050565b600082815260976020526040902060010154620005588162000d7e565b62000564838362000d8a565b505050565b6000600161012d600082825462000581919062001c87565b9250508190555060006200059861012d5462000e2e565b604051602001620005aa919062001cc3565b604051602081830303815290604052905060008682878787604051620005d090620019d4565b620005e095949392919062001d38565b604051809103906000f080158015620005fd573d6000803e3d6000fd5b5061012e805460018101825560009182527fbdaadd9f750d0166045bf387a364eadd28ba243e04512a47282aa5147a68e37f01805473ffffffffffffffffffffffffffffffffffffffff19166001600160a01b038416908117909155604051929350839290917f8860d70e5b00031c5eb44ff56b037b8497064bcf3929d191503df422d0718a7a91a2925050505b949350505050565b6001600160a01b0381163314620007175760405162461bcd60e51b815260206004820152602f60248201527f416363657373436f6e74726f6c3a2063616e206f6e6c792072656e6f756e636560448201527f20726f6c657320666f722073656c66000000000000000000000000000000000060648201526084015b60405180910390fd5b62000723828262000ed5565b5050565b6001600160a01b037f0000000000000000000000000000000000000000000000000000000000000000163003620007b65760405162461bcd60e51b815260206004820152602c60248201527f46756e6374696f6e206d7573742062652063616c6c6564207468726f7567682060448201526b19195b1959d85d1958d85b1b60a21b60648201526084016200070e565b7f00000000000000000000000000000000000000000000000000000000000000006001600160a01b0316620008127f360894a13ba1a3210667c828492db98dca3e2076cc3735a920a3ca505d382bbc546001600160a01b031690565b6001600160a01b0316146200087f5760405162461bcd60e51b815260206004820152602c60248201527f46756e6374696f6e206d7573742062652063616c6c6564207468726f7567682060448201526b6163746976652070726f787960a01b60648201526084016200070e565b6200088a8162000f59565b60408051600080825260208201909252620008a89183919062000f85565b50565b7f65d7a28e3265b37a6474929f336521b332c1681b933f6cb9f3376673440d862a620008d78162000d7e565b620008a862001131565b6001600160a01b037f0000000000000000000000000000000000000000000000000000000000000000163003620009705760405162461bcd60e51b815260206004820152602c60248201527f46756e6374696f6e206d7573742062652063616c6c6564207468726f7567682060448201526b19195b1959d85d1958d85b1b60a21b60648201526084016200070e565b7f00000000000000000000000000000000000000000000000000000000000000006001600160a01b0316620009cc7f360894a13ba1a3210667c828492db98dca3e2076cc3735a920a3ca505d382bbc546001600160a01b031690565b6001600160a01b03161462000a395760405162461bcd60e51b815260206004820152602c60248201527f46756e6374696f6e206d7573742062652063616c6c6564207468726f7567682060448201526b6163746976652070726f787960a01b60648201526084016200070e565b62000a448262000f59565b620007238282600162000f85565b6000306001600160a01b037f0000000000000000000000000000000000000000000000000000000000000000161462000af45760405162461bcd60e51b815260206004820152603860248201527f555550535570677261646561626c653a206d757374206e6f742062652063616c60448201527f6c6564207468726f7567682064656c656761746563616c6c000000000000000060648201526084016200070e565b507f360894a13ba1a3210667c828492db98dca3e2076cc3735a920a3ca505d382bbc90565b600054610100900460ff161580801562000b3a5750600054600160ff909116105b8062000b565750303b15801562000b56575060005460ff166001145b62000bca5760405162461bcd60e51b815260206004820152602e60248201527f496e697469616c697a61626c653a20636f6e747261637420697320616c72656160448201527f647920696e697469616c697a656400000000000000000000000000000000000060648201526084016200070e565b6000805460ff19166001179055801562000bee576000805461ff0019166101001790555b62000bf862001185565b62000c02620011fe565b62000c0c620011fe565b62000c1960003362000d8a565b62000c457f65d7a28e3265b37a6474929f336521b332c1681b933f6cb9f3376673440d862a3362000d8a565b62000c717f189ab7a9244df0848122154315af71fe140f3db0fe014031783b0946b8c9d2e33362000d8a565b8015620008a8576000805461ff0019169055604051600181527f7f26b83ff96e1f2b6a682f133852f6798a09c465da95921460cefb38474024989060200160405180910390a150565b7f65d7a28e3265b37a6474929f336521b332c1681b933f6cb9f3376673440d862a62000ce68162000d7e565b620008a86200126b565b606061012e80548060200260200160405190810160405280929190818152602001828054801562000d4b57602002820191906000526020600020905b81546001600160a01b0316815260019091019060200180831162000d2c575b5050505050905090565b60008281526097602052604090206001015462000d728162000d7e565b62000564838362000ed5565b620008a88133620012ab565b60008281526097602090815260408083206001600160a01b038516845290915290205460ff16620007235760008281526097602090815260408083206001600160a01b03851684529091529020805460ff1916600117905562000dea3390565b6001600160a01b0316816001600160a01b0316837f2f8788117e7eff1d82e926ec794901d17c78024a50270940304540a733656f0d60405160405180910390a45050565b6060600062000e3d8362001329565b600101905060008167ffffffffffffffff81111562000e605762000e6062001a8c565b6040519080825280601f01601f19166020018201604052801562000e8b576020820181803683370190505b5090508181016020015b600019017f3031323334353637383961626364656600000000000000000000000000000000600a86061a8153600a850494508462000e9557509392505050565b60008281526097602090815260408083206001600160a01b038516845290915290205460ff1615620007235760008281526097602090815260408083206001600160a01b0385168085529252808320805460ff1916905551339285917ff6391f5c32d9c69d2a47ea670b442974b53935d1edc7fd64eb21e047a839171b9190a45050565b7f189ab7a9244df0848122154315af71fe140f3db0fe014031783b0946b8c9d2e3620007238162000d7e565b7f4910fdfa16fed3260ed0e7147f7cc6da11a60208b5b9406d12a635614ffd91435460ff161562000fbb57620005648362001412565b826001600160a01b03166352d1902d6040518163ffffffff1660e01b8152600401602060405180830381865afa92505050801562001018575060408051601f3d908101601f19168201909252620010159181019062001d88565b60015b6200108c5760405162461bcd60e51b815260206004820152602e60248201527f45524331393637557067726164653a206e657720696d706c656d656e7461746960448201527f6f6e206973206e6f74205555505300000000000000000000000000000000000060648201526084016200070e565b7f360894a13ba1a3210667c828492db98dca3e2076cc3735a920a3ca505d382bbc8114620011235760405162461bcd60e51b815260206004820152602960248201527f45524331393637557067726164653a20756e737570706f727465642070726f7860448201527f6961626c6555554944000000000000000000000000000000000000000000000060648201526084016200070e565b5062000564838383620014df565b6200113b62001510565b6033805460ff191690557f5db9ee0a495bf2e6ff9c91a7834c1ba4fdd244a5e8aa4e537bd38aeae4b073aa335b6040516001600160a01b03909116815260200160405180910390a1565b600054610100900460ff16620011f25760405162461bcd60e51b815260206004820152602b60248201527f496e697469616c697a61626c653a20636f6e7472616374206973206e6f74206960448201526a6e697469616c697a696e6760a81b60648201526084016200070e565b620011fc62001564565b565b600054610100900460ff16620011fc5760405162461bcd60e51b815260206004820152602b60248201527f496e697469616c697a61626c653a20636f6e7472616374206973206e6f74206960448201526a6e697469616c697a696e6760a81b60648201526084016200070e565b62001275620015dd565b6033805460ff191660011790557f62e78cea01bee320cd4e420270b5ea74000d11b0c9f74754ebdbfc544b05a258620011683390565b60008281526097602090815260408083206001600160a01b038516845290915290205460ff166200072357620012e18162001632565b620012ee83602062001645565b6040516020016200130192919062001da2565b60408051601f198184030181529082905262461bcd60e51b82526200070e9160040162001e27565b6000807a184f03e93ff9f4daa797ed6e38ed64bf6a1f010000000000000000831062001373577a184f03e93ff9f4daa797ed6e38ed64bf6a1f010000000000000000830492506040015b6d04ee2d6d415b85acef81000000008310620013a0576d04ee2d6d415b85acef8100000000830492506020015b662386f26fc100008310620013bf57662386f26fc10000830492506010015b6305f5e1008310620013d8576305f5e100830492506008015b6127108310620013ed57612710830492506004015b6064831062001400576064830492506002015b600a8310620005355760010192915050565b6001600160a01b0381163b620014915760405162461bcd60e51b815260206004820152602d60248201527f455243313936373a206e657720696d706c656d656e746174696f6e206973206e60448201527f6f74206120636f6e74726163740000000000000000000000000000000000000060648201526084016200070e565b7f360894a13ba1a3210667c828492db98dca3e2076cc3735a920a3ca505d382bbc805473ffffffffffffffffffffffffffffffffffffffff19166001600160a01b0392909216919091179055565b620014ea836200184b565b600082511180620014f85750805b1562000564576200150a83836200188d565b50505050565b60335460ff16620011fc5760405162461bcd60e51b815260206004820152601460248201527f5061757361626c653a206e6f742070617573656400000000000000000000000060448201526064016200070e565b600054610100900460ff16620015d15760405162461bcd60e51b815260206004820152602b60248201527f496e697469616c697a61626c653a20636f6e7472616374206973206e6f74206960448201526a6e697469616c697a696e6760a81b60648201526084016200070e565b6033805460ff19169055565b60335460ff1615620011fc5760405162461bcd60e51b815260206004820152601060248201527f5061757361626c653a207061757365640000000000000000000000000000000060448201526064016200070e565b6060620005356001600160a01b03831660145b606060006200165683600262001e3c565b6200166390600262001c87565b67ffffffffffffffff8111156200167e576200167e62001a8c565b6040519080825280601f01601f191660200182016040528015620016a9576020820181803683370190505b5090507f300000000000000000000000000000000000000000000000000000000000000081600081518110620016e357620016e362001e56565b60200101906001600160f81b031916908160001a9053507f78000000000000000000000000000000000000000000000000000000000000008160018151811062001731576200173162001e56565b60200101906001600160f81b031916908160001a90535060006200175784600262001e3c565b6200176490600162001c87565b90505b6001811115620017f3577f303132333435363738396162636465660000000000000000000000000000000085600f1660108110620017a957620017a962001e56565b1a60f81b828281518110620017c257620017c262001e56565b60200101906001600160f81b031916908160001a90535060049490941c93620017eb8162001e6c565b905062001767565b508315620018445760405162461bcd60e51b815260206004820181905260248201527f537472696e67733a20686578206c656e67746820696e73756666696369656e7460448201526064016200070e565b9392505050565b620018568162001412565b6040516001600160a01b038216907fbc7cd75a20ee27fd9adebab32041f755214dbc6bffa90cc0225b39da2e5c2d3b90600090a250565b6060620018448383604051806060016040528060278152602001620052ac602791396060600080856001600160a01b031685604051620018ce919062001e86565b600060405180830381855af49150503d80600081146200190b576040519150601f19603f3d011682016040523d82523d6000602084013e62001910565b606091505b509150915062001923868383876200192d565b9695505050505050565b60608315620019a157825160000362001999576001600160a01b0385163b620019995760405162461bcd60e51b815260206004820152601d60248201527f416464726573733a2063616c6c20746f206e6f6e2d636f6e747261637400000060448201526064016200070e565b50816200068b565b6200068b8383815115620019b85781518083602001fd5b8060405162461bcd60e51b81526004016200070e919062001e27565b6134078062001ea583390190565b600060208284031215620019f557600080fd5b81357fffffffff00000000000000000000000000000000000000000000000000000000811681146200184457600080fd5b60006020828403121562001a3957600080fd5b5035919050565b80356001600160a01b038116811462001a5857600080fd5b919050565b6000806040838503121562001a7157600080fd5b8235915062001a836020840162001a40565b90509250929050565b634e487b7160e01b600052604160045260246000fd5b600067ffffffffffffffff8084111562001ac05762001ac062001a8c565b604051601f8501601f19908116603f0116810190828211818310171562001aeb5762001aeb62001a8c565b8160405280935085815286868601111562001b0557600080fd5b858560208301376000602087830101525050509392505050565b6000806000806080858703121562001b3657600080fd5b843567ffffffffffffffff81111562001b4e57600080fd5b8501601f8101871362001b6057600080fd5b62001b718782356020840162001aa2565b945050602085013592506040850135915062001b906060860162001a40565b905092959194509250565b60006020828403121562001bae57600080fd5b620018448262001a40565b6000806040838503121562001bcd57600080fd5b62001bd88362001a40565b9150602083013567ffffffffffffffff81111562001bf557600080fd5b8301601f8101851362001c0757600080fd5b62001c188582356020840162001aa2565b9150509250929050565b6020808252825182820181905260009190848201906040850190845b8181101562001c655783516001600160a01b03168352928401929184019160010162001c3e565b50909695505050505050565b634e487b7160e01b600052601160045260246000fd5b8082018082111562000535576200053562001c71565b60005b8381101562001cba57818101518382015260200162001ca0565b50506000910152565b7f544d00000000000000000000000000000000000000000000000000000000000081526000825162001cfd81600285016020870162001c9d565b9190910160020192915050565b6000815180845262001d2481602086016020860162001c9d565b601f01601f19169290920160200192915050565b60a08152600062001d4d60a083018862001d0a565b828103602084015262001d61818862001d0a565b6040840196909652505060608101929092526001600160a01b031660809091015292915050565b60006020828403121562001d9b57600080fd5b5051919050565b7f416363657373436f6e74726f6c3a206163636f756e742000000000000000000081526000835162001ddc81601785016020880162001c9d565b7f206973206d697373696e6720726f6c6520000000000000000000000000000000601791840191820152835162001e1b81602884016020880162001c9d565b01602801949350505050565b60208152600062001844602083018462001d0a565b808202811582820484141762000535576200053562001c71565b634e487b7160e01b600052603260045260246000fd5b60008162001e7e5762001e7e62001c71565b506000190190565b6000825162001e9a81846020870162001c9d565b919091019291505056fe60806040523480156200001157600080fd5b506040516200340738038062003407833981016040819052620000349162000a79565b8484600062000044838262000ba9565b50600162000053828262000ba9565b5050600a805460ff19169055506200006d600033620000e8565b620000997f65d7a28e3265b37a6474929f336521b332c1681b933f6cb9f3376673440d862a33620000e8565b600f8054610100600160a81b0319166101006001600160a01b03841602179055600c839055600d829055620000cf828462000c8b565b600e55620000dd8262000173565b505050505062000d9b565b620000f48282620001fc565b6200016f576000828152600b602090815260408083206001600160a01b03851684529091529020805460ff191660011790556200012e3390565b6001600160a01b0316816001600160a01b0316837f2f8788117e7eff1d82e926ec794901d17c78024a50270940304540a733656f0d60405160405180910390a45b5050565b60008111620001c95760405162461bcd60e51b815260206004820152601660248201527f416d6f756e742063616e6e6f74206265207a65726f2e0000000000000000000060448201526064015b60405180910390fd5b60005b818160ff1610156200016f57620001e73060ff831662000229565b80620001f38162000cae565b915050620001cc565b6000828152600b602090815260408083206001600160a01b038516845290915290205460ff165b92915050565b6200016f8282604051806020016040528060008152506200024b60201b60201c565b620002578383620002c3565b62000266600084848462000464565b620002be5760405162461bcd60e51b81526020600482015260326024820152600080516020620033e783398151915260448201527131b2b4bb32b91034b6b83632b6b2b73a32b960711b6064820152608401620001c0565b505050565b6001600160a01b0382166200031b5760405162461bcd60e51b815260206004820181905260248201527f4552433732313a206d696e7420746f20746865207a65726f20616464726573736044820152606401620001c0565b6000818152600260205260409020546001600160a01b031615620003825760405162461bcd60e51b815260206004820152601c60248201527f4552433732313a20746f6b656e20616c7265616479206d696e746564000000006044820152606401620001c0565b62000392600083836001620005ac565b6000818152600260205260409020546001600160a01b031615620003f95760405162461bcd60e51b815260206004820152601c60248201527f4552433732313a20746f6b656e20616c7265616479206d696e746564000000006044820152606401620001c0565b6001600160a01b038216600081815260036020908152604080832080546001019055848352600290915280822080546001600160a01b0319168417905551839291907fddf252ad1be2c89b69c2b068fc378daa952ba7f163c4a11628f55a4df523b3ef908290a45050565b60006001600160a01b0384163b15620005a057604051630a85bd0160e11b81526001600160a01b0385169063150b7a0290620004ab90339089908890889060040162000cd0565b6020604051808303816000875af1925050508015620004e9575060408051601f3d908101601f19168201909252620004e69181019062000d26565b60015b62000585573d8080156200051a576040519150601f19603f3d011682016040523d82523d6000602084013e6200051f565b606091505b5080516000036200057d5760405162461bcd60e51b81526020600482015260326024820152600080516020620033e783398151915260448201527131b2b4bb32b91034b6b83632b6b2b73a32b960711b6064820152608401620001c0565b805181602001fd5b6001600160e01b031916630a85bd0160e11b149050620005a4565b5060015b949350505050565b620005ba84848484620005c0565b50505050565b620005ce8484848462000637565b600a5460ff1615620005ba5760405162461bcd60e51b815260206004820152602b60248201527f4552433732315061757361626c653a20746f6b656e207472616e73666572207760448201526a1a1a5b19481c185d5cd95960aa1b6064820152608401620001c0565b6001811115620006b05760405162461bcd60e51b815260206004820152603560248201527f455243373231456e756d657261626c653a20636f6e736563757469766520747260448201527f616e7366657273206e6f7420737570706f7274656400000000000000000000006064820152608401620001c0565b816001600160a01b0385166200070f576200070981600880546000838152600960205260408120829055600182018355919091527ff3f7a9fe364faab93b216da50a3214154f22a0a2b415b23a84c8169e8b636ee30155565b62000735565b836001600160a01b0316856001600160a01b031614620007355762000735858262000782565b6001600160a01b03841662000755576200074f8162000824565b6200077b565b846001600160a01b0316846001600160a01b0316146200077b576200077b8482620008de565b5050505050565b60006001620007918462000924565b6200079d919062000d59565b600083815260076020526040902054909150808214620007f1576001600160a01b03841660009081526006602090815260408083208584528252808320548484528184208190558352600790915290208190555b5060009182526007602090815260408084208490556001600160a01b039094168352600681528383209183525290812055565b600854600090620008389060019062000d59565b6000838152600960205260408120546008805493945090928490811062000863576200086362000d6f565b90600052602060002001549050806008838154811062000887576200088762000d6f565b6000918252602080832090910192909255828152600990915260408082208490558582528120556008805480620008c257620008c262000d85565b6001900381819060005260206000200160009055905550505050565b6000620008eb8362000924565b6001600160a01b039093166000908152600660209081526040808320868452825280832085905593825260079052919091209190915550565b60006001600160a01b038216620009905760405162461bcd60e51b815260206004820152602960248201527f4552433732313a2061646472657373207a65726f206973206e6f7420612076616044820152683634b21037bbb732b960b91b6064820152608401620001c0565b506001600160a01b031660009081526003602052604090205490565b634e487b7160e01b600052604160045260246000fd5b60005b83811015620009df578181015183820152602001620009c5565b50506000910152565b600082601f830112620009fa57600080fd5b81516001600160401b038082111562000a175762000a17620009ac565b604051601f8301601f19908116603f0116810190828211818310171562000a425762000a42620009ac565b8160405283815286602085880101111562000a5c57600080fd5b62000a6f846020830160208901620009c2565b9695505050505050565b600080600080600060a0868803121562000a9257600080fd5b85516001600160401b038082111562000aaa57600080fd5b62000ab889838a01620009e8565b9650602088015191508082111562000acf57600080fd5b5062000ade88828901620009e8565b6040880151606089015160808a0151929750909550935090506001600160a01b038116811462000b0d57600080fd5b809150509295509295909350565b600181811c9082168062000b3057607f821691505b60208210810362000b5157634e487b7160e01b600052602260045260246000fd5b50919050565b601f821115620002be57600081815260208120601f850160051c8101602086101562000b805750805b601f850160051c820191505b8181101562000ba15782815560010162000b8c565b505050505050565b81516001600160401b0381111562000bc55762000bc5620009ac565b62000bdd8162000bd6845462000b1b565b8462000b57565b602080601f83116001811462000c15576000841562000bfc5750858301515b600019600386901b1c1916600185901b17855562000ba1565b600085815260208120601f198616915b8281101562000c465788860151825594840194600190910190840162000c25565b508582101562000c655787850151600019600388901b60f8161c191681555b5050505050600190811b01905550565b634e487b7160e01b600052601160045260246000fd5b60008262000ca957634e487b7160e01b600052601260045260246000fd5b500490565b600060ff821660ff810362000cc75762000cc762000c75565b60010192915050565b600060018060a01b03808716835280861660208401525083604083015260806060830152825180608084015262000d0f8160a0850160208701620009c2565b601f01601f19169190910160a00195945050505050565b60006020828403121562000d3957600080fd5b81516001600160e01b03198116811462000d5257600080fd5b9392505050565b8181038181111562000223576200022362000c75565b634e487b7160e01b600052603260045260246000fd5b634e487b7160e01b600052603160045260246000fd5b61263c8062000dab6000396000f3fe608060405234801561001057600080fd5b50600436106101e55760003560e01c80635ef4e99d1161010f578063a22cb465116100a2578063c87b56dd11610071578063c87b56dd1461040d578063d547741f14610420578063e63ab1e914610433578063e985e9c51461045a57600080fd5b8063a22cb465146103bd578063b88d4fde146103d0578063c6ee20d2146103e3578063c7ee10421461040457600080fd5b80638e1a3b6e116100de5780638e1a3b6e1461036157806391d148541461037457806395d89b41146103ad578063a217fddf146103b557600080fd5b80635ef4e99d1461032a5780636352211e1461033357806370a08231146103465780638456cb591461035957600080fd5b80632f2ff15d1161018757806342842e0e1161015657806342842e0e146102f05780634f6ccce71461030357806356953bda146103165780635c975abb1461031f57600080fd5b80632f2ff15d146102af5780632f745c59146102c257806336568abe146102d55780633f4ba83a146102e857600080fd5b8063095ea7b3116101c3578063095ea7b31461025257806318160ddd1461026757806323b872dd14610279578063248a9ca31461028c57600080fd5b806301ffc9a7146101ea57806306fdde0314610212578063081812fc14610227575b600080fd5b6101fd6101f83660046120f6565b610496565b60405190151581526020015b60405180910390f35b61021a6104a7565b6040516102099190612163565b61023a610235366004612176565b610539565b6040516001600160a01b039091168152602001610209565b6102656102603660046121ab565b610560565b005b6008545b604051908152602001610209565b6102656102873660046121d5565b610696565b61026b61029a366004612176565b6000908152600b602052604090206001015490565b6102656102bd366004612211565b61070d565b61026b6102d03660046121ab565b610732565b6102656102e3366004612211565b6107da565b610265610866565b6102656102fe3660046121d5565b61089b565b61026b610311366004612176565b6108b6565b61026b600e5481565b600a5460ff166101fd565b61026b600c5481565b61023a610341366004612176565b61095a565b61026b61035436600461223d565b6109bf565b610265610a59565b61026561036f366004612176565b610a8b565b6101fd610382366004612211565b6000918252600b602090815260408084206001600160a01b0393909316845291905290205460ff1690565b61021a610ecd565b61026b600081565b6102656103cb366004612266565b610edc565b6102656103de3660046122b3565b610ee7565b600f546103f790600160a81b900460ff1681565b60405161020991906123a5565b61026b600d5481565b61021a61041b366004612176565b610f65565b61026561042e366004612211565b610fd9565b61026b7f65d7a28e3265b37a6474929f336521b332c1681b933f6cb9f3376673440d862a81565b6101fd6104683660046123cd565b6001600160a01b03918216600090815260056020908152604080832093909416825291909152205460ff1690565b60006104a182610ffe565b92915050565b6060600080546104b6906123f7565b80601f01602080910402602001604051908101604052809291908181526020018280546104e2906123f7565b801561052f5780601f106105045761010080835404028352916020019161052f565b820191906000526020600020905b81548152906001019060200180831161051257829003601f168201915b5050505050905090565b60006105448261103c565b506000908152600460205260409020546001600160a01b031690565b600061056b8261095a565b9050806001600160a01b0316836001600160a01b0316036105f95760405162461bcd60e51b815260206004820152602160248201527f4552433732313a20617070726f76616c20746f2063757272656e74206f776e6560448201527f720000000000000000000000000000000000000000000000000000000000000060648201526084015b60405180910390fd5b336001600160a01b038216148061061557506106158133610468565b6106875760405162461bcd60e51b815260206004820152603d60248201527f4552433732313a20617070726f76652063616c6c6572206973206e6f7420746f60448201527f6b656e206f776e6572206f7220617070726f76656420666f7220616c6c00000060648201526084016105f0565b61069183836110a0565b505050565b6106a0338261111b565b6107025760405162461bcd60e51b815260206004820152602d60248201527f4552433732313a2063616c6c6572206973206e6f7420746f6b656e206f776e6560448201526c1c881bdc88185c1c1c9bdd9959609a1b60648201526084016105f0565b61069183838361119a565b6000828152600b6020526040902060010154610728816113ad565b61069183836113b7565b600061073d836109bf565b82106107b15760405162461bcd60e51b815260206004820152602b60248201527f455243373231456e756d657261626c653a206f776e657220696e646578206f7560448201527f74206f6620626f756e647300000000000000000000000000000000000000000060648201526084016105f0565b506001600160a01b03919091166000908152600660209081526040808320938352929052205490565b6001600160a01b03811633146108585760405162461bcd60e51b815260206004820152602f60248201527f416363657373436f6e74726f6c3a2063616e206f6e6c792072656e6f756e636560448201527f20726f6c657320666f722073656c66000000000000000000000000000000000060648201526084016105f0565b6108628282611459565b5050565b7f65d7a28e3265b37a6474929f336521b332c1681b933f6cb9f3376673440d862a610890816113ad565b6108986114dc565b50565b61069183838360405180602001604052806000815250610ee7565b60006108c160085490565b82106109355760405162461bcd60e51b815260206004820152602c60248201527f455243373231456e756d657261626c653a20676c6f62616c20696e646578206f60448201527f7574206f6620626f756e6473000000000000000000000000000000000000000060648201526084016105f0565b6008828154811061094857610948612431565b90600052602060002001549050919050565b6000818152600260205260408120546001600160a01b0316806104a15760405162461bcd60e51b815260206004820152601860248201527f4552433732313a20696e76616c696420746f6b656e204944000000000000000060448201526064016105f0565b60006001600160a01b038216610a3d5760405162461bcd60e51b815260206004820152602960248201527f4552433732313a2061646472657373207a65726f206973206e6f74206120766160448201527f6c6964206f776e6572000000000000000000000000000000000000000000000060648201526084016105f0565b506001600160a01b031660009081526003602052604090205490565b7f65d7a28e3265b37a6474929f336521b332c1681b933f6cb9f3376673440d862a610a83816113ad565b61089861152e565b610a9361156b565b600081600e54620f4240610aa7919061245d565b610ab1919061245d565b90506000600f54600160a81b900460ff166003811115610ad357610ad361238f565b14610b205760405162461bcd60e51b815260206004820152601760248201527f4c6120636f6d707261206573746120636572726164612e00000000000000000060448201526064016105f0565b60008211610b705760405162461bcd60e51b815260206004820152601660248201527f416d6f756e742063616e6e6f74206265207a65726f2e0000000000000000000060448201526064016105f0565b600d548210610be75760405162461bcd60e51b815260206004820152602760248201527f416d6f756e7420746f2062757920657863656564657320746f74616c2066726160448201527f6374696f6e732e0000000000000000000000000000000000000000000000000060648201526084016105f0565b600f546040517f70a08231000000000000000000000000000000000000000000000000000000008152336004820152829161010090046001600160a01b0316906370a0823190602401602060405180830381865afa158015610c4d573d6000803e3d6000fd5b505050506040513d601f19601f82011682018060405250810190610c719190612474565b1015610cbf5760405162461bcd60e51b815260206004820152601a60248201527f496e73737566696369656e7420555344542062616c616e63652e00000000000060448201526064016105f0565b600f546040517fdd62ed3e000000000000000000000000000000000000000000000000000000008152336004820152306024820152829161010090046001600160a01b03169063dd62ed3e90604401602060405180830381865afa158015610d2b573d6000803e3d6000fd5b505050506040513d601f19601f82011682018060405250810190610d4f9190612474565b1015610de95760405162461bcd60e51b815260206004820152604260248201527f496e206f7264657220746f2070726f636565642c20796f75206d75737420617060448201527f70726f76652074686520726571756972656420616d6f756e74206f662055534460648201527f542e000000000000000000000000000000000000000000000000000000000000608482015260a4016105f0565b600f546040517f23b872dd000000000000000000000000000000000000000000000000000000008152336004820152306024820152604481018390526101009091046001600160a01b0316906323b872dd906064016020604051808303816000875af1158015610e5d573d6000803e3d6000fd5b505050506040513d601f19601f82011682018060405250810190610e81919061248d565b6108625760405162461bcd60e51b815260206004820152601460248201527f55534454207472616e73666572206572726f722e00000000000000000000000060448201526064016105f0565b6060600180546104b6906123f7565b6108623383836115c0565b610ef1338361111b565b610f535760405162461bcd60e51b815260206004820152602d60248201527f4552433732313a2063616c6c6572206973206e6f7420746f6b656e206f776e6560448201526c1c881bdc88185c1c1c9bdd9959609a1b60648201526084016105f0565b610f5f8484848461168e565b50505050565b6060610f708261103c565b6000610f8760408051602081019091526000815290565b90506000815111610fa75760405180602001604052806000815250610fd2565b80610fb184611717565b604051602001610fc29291906124aa565b6040516020818303038152906040525b9392505050565b6000828152600b6020526040902060010154610ff4816113ad565b6106918383611459565b60006001600160e01b031982167f7965db0b0000000000000000000000000000000000000000000000000000000014806104a157506104a1826117b7565b6000818152600260205260409020546001600160a01b03166108985760405162461bcd60e51b815260206004820152601860248201527f4552433732313a20696e76616c696420746f6b656e204944000000000000000060448201526064016105f0565b6000818152600460205260409020805473ffffffffffffffffffffffffffffffffffffffff19166001600160a01b03841690811790915581906110e28261095a565b6001600160a01b03167f8c5be1e5ebec7d5bd14f71427d1e84f3dd0314c0f7b2291e5b200ac8c7c3b92560405160405180910390a45050565b6000806111278361095a565b9050806001600160a01b0316846001600160a01b0316148061116e57506001600160a01b0380821660009081526005602090815260408083209388168352929052205460ff165b806111925750836001600160a01b031661118784610539565b6001600160a01b0316145b949350505050565b826001600160a01b03166111ad8261095a565b6001600160a01b0316146112115760405162461bcd60e51b815260206004820152602560248201527f4552433732313a207472616e736665722066726f6d20696e636f72726563742060448201526437bbb732b960d91b60648201526084016105f0565b6001600160a01b03821661128c5760405162461bcd60e51b8152602060048201526024808201527f4552433732313a207472616e7366657220746f20746865207a65726f2061646460448201527f726573730000000000000000000000000000000000000000000000000000000060648201526084016105f0565b61129983838360016117f5565b826001600160a01b03166112ac8261095a565b6001600160a01b0316146113105760405162461bcd60e51b815260206004820152602560248201527f4552433732313a207472616e736665722066726f6d20696e636f72726563742060448201526437bbb732b960d91b60648201526084016105f0565b6000818152600460209081526040808320805473ffffffffffffffffffffffffffffffffffffffff199081169091556001600160a01b0387811680865260038552838620805460001901905590871680865283862080546001019055868652600290945282852080549092168417909155905184937fddf252ad1be2c89b69c2b068fc378daa952ba7f163c4a11628f55a4df523b3ef91a4505050565b6108988133611801565b6000828152600b602090815260408083206001600160a01b038516845290915290205460ff16610862576000828152600b602090815260408083206001600160a01b03851684529091529020805460ff191660011790556114153390565b6001600160a01b0316816001600160a01b0316837f2f8788117e7eff1d82e926ec794901d17c78024a50270940304540a733656f0d60405160405180910390a45050565b6000828152600b602090815260408083206001600160a01b038516845290915290205460ff1615610862576000828152600b602090815260408083206001600160a01b0385168085529252808320805460ff1916905551339285917ff6391f5c32d9c69d2a47ea670b442974b53935d1edc7fd64eb21e047a839171b9190a45050565b6114e4611876565b600a805460ff191690557f5db9ee0a495bf2e6ff9c91a7834c1ba4fdd244a5e8aa4e537bd38aeae4b073aa335b6040516001600160a01b03909116815260200160405180910390a1565b61153661156b565b600a805460ff191660011790557f62e78cea01bee320cd4e420270b5ea74000d11b0c9f74754ebdbfc544b05a2586115113390565b600a5460ff16156115be5760405162461bcd60e51b815260206004820152601060248201527f5061757361626c653a207061757365640000000000000000000000000000000060448201526064016105f0565b565b816001600160a01b0316836001600160a01b0316036116215760405162461bcd60e51b815260206004820152601960248201527f4552433732313a20617070726f766520746f2063616c6c65720000000000000060448201526064016105f0565b6001600160a01b03838116600081815260056020908152604080832094871680845294825291829020805460ff191686151590811790915591519182527f17307eab39ab6107e8899845ad3d59bd9653f200f220920489ca2b5937696c31910160405180910390a3505050565b61169984848461119a565b6116a5848484846118c8565b610f5f5760405162461bcd60e51b815260206004820152603260248201527f4552433732313a207472616e7366657220746f206e6f6e20455243373231526560448201527f63656976657220696d706c656d656e746572000000000000000000000000000060648201526084016105f0565b6060600061172483611a1f565b600101905060008167ffffffffffffffff8111156117445761174461229d565b6040519080825280601f01601f19166020018201604052801561176e576020820181803683370190505b5090508181016020015b600019017f3031323334353637383961626364656600000000000000000000000000000000600a86061a8153600a850494508461177857509392505050565b60006001600160e01b031982167f780e9d630000000000000000000000000000000000000000000000000000000014806104a157506104a182611b01565b610f5f84848484611b9c565b6000828152600b602090815260408083206001600160a01b038516845290915290205460ff166108625761183481611c21565b61183f836020611c33565b6040516020016118509291906124d9565b60408051601f198184030181529082905262461bcd60e51b82526105f091600401612163565b600a5460ff166115be5760405162461bcd60e51b815260206004820152601460248201527f5061757361626c653a206e6f742070617573656400000000000000000000000060448201526064016105f0565b60006001600160a01b0384163b15611a1457604051630a85bd0160e11b81526001600160a01b0385169063150b7a029061190c90339089908890889060040161255a565b6020604051808303816000875af1925050508015611947575060408051601f3d908101601f1916820190925261194491810190612596565b60015b6119fa573d808015611975576040519150601f19603f3d011682016040523d82523d6000602084013e61197a565b606091505b5080516000036119f25760405162461bcd60e51b815260206004820152603260248201527f4552433732313a207472616e7366657220746f206e6f6e20455243373231526560448201527f63656976657220696d706c656d656e746572000000000000000000000000000060648201526084016105f0565b805181602001fd5b6001600160e01b031916630a85bd0160e11b149050611192565b506001949350505050565b6000807a184f03e93ff9f4daa797ed6e38ed64bf6a1f0100000000000000008310611a68577a184f03e93ff9f4daa797ed6e38ed64bf6a1f010000000000000000830492506040015b6d04ee2d6d415b85acef81000000008310611a94576d04ee2d6d415b85acef8100000000830492506020015b662386f26fc100008310611ab257662386f26fc10000830492506010015b6305f5e1008310611aca576305f5e100830492506008015b6127108310611ade57612710830492506004015b60648310611af0576064830492506002015b600a83106104a15760010192915050565b60006001600160e01b031982167f80ac58cd000000000000000000000000000000000000000000000000000000001480611b6457506001600160e01b031982167f5b5e139f00000000000000000000000000000000000000000000000000000000145b806104a157507f01ffc9a7000000000000000000000000000000000000000000000000000000006001600160e01b03198316146104a1565b611ba884848484611e14565b600a5460ff1615610f5f5760405162461bcd60e51b815260206004820152602b60248201527f4552433732315061757361626c653a20746f6b656e207472616e73666572207760448201527f68696c652070617573656400000000000000000000000000000000000000000060648201526084016105f0565b60606104a16001600160a01b03831660145b60606000611c4283600261245d565b611c4d9060026125b3565b67ffffffffffffffff811115611c6557611c6561229d565b6040519080825280601f01601f191660200182016040528015611c8f576020820181803683370190505b5090507f300000000000000000000000000000000000000000000000000000000000000081600081518110611cc657611cc6612431565b60200101906001600160f81b031916908160001a9053507f780000000000000000000000000000000000000000000000000000000000000081600181518110611d1157611d11612431565b60200101906001600160f81b031916908160001a9053506000611d3584600261245d565b611d409060016125b3565b90505b6001811115611dc5577f303132333435363738396162636465660000000000000000000000000000000085600f1660108110611d8157611d81612431565b1a60f81b828281518110611d9757611d97612431565b60200101906001600160f81b031916908160001a90535060049490941c93611dbe816125c6565b9050611d43565b508315610fd25760405162461bcd60e51b815260206004820181905260248201527f537472696e67733a20686578206c656e67746820696e73756666696369656e7460448201526064016105f0565b6001811115611e8b5760405162461bcd60e51b815260206004820152603560248201527f455243373231456e756d657261626c653a20636f6e736563757469766520747260448201527f616e7366657273206e6f7420737570706f72746564000000000000000000000060648201526084016105f0565b816001600160a01b038516611ee757611ee281600880546000838152600960205260408120829055600182018355919091527ff3f7a9fe364faab93b216da50a3214154f22a0a2b415b23a84c8169e8b636ee30155565b611f0a565b836001600160a01b0316856001600160a01b031614611f0a57611f0a8582611f50565b6001600160a01b038416611f2657611f2181611fed565b611f49565b846001600160a01b0316846001600160a01b031614611f4957611f49848261209c565b5050505050565b60006001611f5d846109bf565b611f6791906125dd565b600083815260076020526040902054909150808214611fba576001600160a01b03841660009081526006602090815260408083208584528252808320548484528184208190558352600790915290208190555b5060009182526007602090815260408084208490556001600160a01b039094168352600681528383209183525290812055565b600854600090611fff906001906125dd565b6000838152600960205260408120546008805493945090928490811061202757612027612431565b90600052602060002001549050806008838154811061204857612048612431565b6000918252602080832090910192909255828152600990915260408082208490558582528120556008805480612080576120806125f0565b6001900381819060005260206000200160009055905550505050565b60006120a7836109bf565b6001600160a01b039093166000908152600660209081526040808320868452825280832085905593825260079052919091209190915550565b6001600160e01b03198116811461089857600080fd5b60006020828403121561210857600080fd5b8135610fd2816120e0565b60005b8381101561212e578181015183820152602001612116565b50506000910152565b6000815180845261214f816020860160208601612113565b601f01601f19169290920160200192915050565b602081526000610fd26020830184612137565b60006020828403121561218857600080fd5b5035919050565b80356001600160a01b03811681146121a657600080fd5b919050565b600080604083850312156121be57600080fd5b6121c78361218f565b946020939093013593505050565b6000806000606084860312156121ea57600080fd5b6121f38461218f565b92506122016020850161218f565b9150604084013590509250925092565b6000806040838503121561222457600080fd5b823591506122346020840161218f565b90509250929050565b60006020828403121561224f57600080fd5b610fd28261218f565b801515811461089857600080fd5b6000806040838503121561227957600080fd5b6122828361218f565b9150602083013561229281612258565b809150509250929050565b634e487b7160e01b600052604160045260246000fd5b600080600080608085870312156122c957600080fd5b6122d28561218f565b93506122e06020860161218f565b925060408501359150606085013567ffffffffffffffff8082111561230457600080fd5b818701915087601f83011261231857600080fd5b81358181111561232a5761232a61229d565b604051601f8201601f19908116603f011681019083821181831017156123525761235261229d565b816040528281528a602084870101111561236b57600080fd5b82602086016020830137600060208483010152809550505050505092959194509250565b634e487b7160e01b600052602160045260246000fd5b60208101600483106123c757634e487b7160e01b600052602160045260246000fd5b91905290565b600080604083850312156123e057600080fd5b6123e98361218f565b91506122346020840161218f565b600181811c9082168061240b57607f821691505b60208210810361242b57634e487b7160e01b600052602260045260246000fd5b50919050565b634e487b7160e01b600052603260045260246000fd5b634e487b7160e01b600052601160045260246000fd5b80820281158282048414176104a1576104a1612447565b60006020828403121561248657600080fd5b5051919050565b60006020828403121561249f57600080fd5b8151610fd281612258565b600083516124bc818460208801612113565b8351908301906124d0818360208801612113565b01949350505050565b7f416363657373436f6e74726f6c3a206163636f756e7420000000000000000000815260008351612511816017850160208801612113565b7f206973206d697373696e6720726f6c6520000000000000000000000000000000601791840191820152835161254e816028840160208801612113565b01602801949350505050565b60006001600160a01b0380871683528086166020840152508360408301526080606083015261258c6080830184612137565b9695505050505050565b6000602082840312156125a857600080fd5b8151610fd2816120e0565b808201808211156104a1576104a1612447565b6000816125d5576125d5612447565b506000190190565b818103818111156104a1576104a1612447565b634e487b7160e01b600052603160045260246000fdfea2646970667358221220dac9528f3adbfb1fa7b4d97e0fc38bc647cd9d823e182c5ee0d2837a0ca9ae4a64736f6c634300081300334552433732313a207472616e7366657220746f206e6f6e204552433732315265416464726573733a206c6f772d6c6576656c2064656c65676174652063616c6c206661696c6564a2646970667358221220a9bf0a79690cd50fb204f96d3e5eea09752cde51c8d561cca0e7e5f6524730eb64736f6c63430008130033",
    "linkReferences": {},
    "deployedLinkReferences": {}
}