{
  "_format": "hh-sol-artifact-1",
  "contractName": "Factory",
  "sourceName": "contracts/Factory.sol",
  "abi": [
    {
      "inputs": [],
      "stateMutability": "nonpayable",
      "type": "constructor"
    },
    {
      "anonymous": false,
      "inputs": [
        {
          "indexed": false,
          "internalType": "address",
          "name": "previousAdmin",
          "type": "address"
        },
        {
          "indexed": false,
          "internalType": "address",
          "name": "newAdmin",
          "type": "address"
        }
      ],
      "name": "AdminChanged",
      "type": "event"
    },
    {
      "anonymous": false,
      "inputs": [
        {
          "indexed": true,
          "internalType": "address",
          "name": "beacon",
          "type": "address"
        }
      ],
      "name": "BeaconUpgraded",
      "type": "event"
    },
    {
      "anonymous": false,
      "inputs": [
        {
          "indexed": true,
          "internalType": "address",
          "name": "deployedContract",
          "type": "address"
        }
      ],
      "name": "ContractCreated",
      "type": "event"
    },
    {
      "anonymous": false,
      "inputs": [
        {
          "indexed": false,
          "internalType": "uint8",
          "name": "version",
          "type": "uint8"
        }
      ],
      "name": "Initialized",
      "type": "event"
    },
    {
      "anonymous": false,
      "inputs": [
        {
          "indexed": false,
          "internalType": "address",
          "name": "account",
          "type": "address"
        }
      ],
      "name": "Paused",
      "type": "event"
    },
    {
      "anonymous": false,
      "inputs": [
        {
          "indexed": true,
          "internalType": "bytes32",
          "name": "role",
          "type": "bytes32"
        },
        {
          "indexed": true,
          "internalType": "bytes32",
          "name": "previousAdminRole",
          "type": "bytes32"
        },
        {
          "indexed": true,
          "internalType": "bytes32",
          "name": "newAdminRole",
          "type": "bytes32"
        }
      ],
      "name": "RoleAdminChanged",
      "type": "event"
    },
    {
      "anonymous": false,
      "inputs": [
        {
          "indexed": true,
          "internalType": "bytes32",
          "name": "role",
          "type": "bytes32"
        },
        {
          "indexed": true,
          "internalType": "address",
          "name": "account",
          "type": "address"
        },
        {
          "indexed": true,
          "internalType": "address",
          "name": "sender",
          "type": "address"
        }
      ],
      "name": "RoleGranted",
      "type": "event"
    },
    {
      "anonymous": false,
      "inputs": [
        {
          "indexed": true,
          "internalType": "bytes32",
          "name": "role",
          "type": "bytes32"
        },
        {
          "indexed": true,
          "internalType": "address",
          "name": "account",
          "type": "address"
        },
        {
          "indexed": true,
          "internalType": "address",
          "name": "sender",
          "type": "address"
        }
      ],
      "name": "RoleRevoked",
      "type": "event"
    },
    {
      "anonymous": false,
      "inputs": [
        {
          "indexed": false,
          "internalType": "address",
          "name": "account",
          "type": "address"
        }
      ],
      "name": "Unpaused",
      "type": "event"
    },
    {
      "anonymous": false,
      "inputs": [
        {
          "indexed": true,
          "internalType": "address",
          "name": "implementation",
          "type": "address"
        }
      ],
      "name": "Upgraded",
      "type": "event"
    },
    {
      "inputs": [],
      "name": "DEFAULT_ADMIN_ROLE",
      "outputs": [
        {
          "internalType": "bytes32",
          "name": "",
          "type": "bytes32"
        }
      ],
      "stateMutability": "view",
      "type": "function"
    },
    {
      "inputs": [
        {
          "internalType": "string",
          "name": "_name",
          "type": "string"
        },
        {
          "internalType": "uint256",
          "name": "_operationAmount",
          "type": "uint256"
        },
        {
          "internalType": "uint256",
          "name": "_amountToFinance",
          "type": "uint256"
        },
        {
          "internalType": "uint256",
          "name": "_investmentFractions",
          "type": "uint256"
        },
        {
          "internalType": "address",
          "name": "_addUsdc",
          "type": "address"
        }
      ],
      "name": "FactoryFunc",
      "outputs": [
        {
          "internalType": "address",
          "name": "",
          "type": "address"
        }
      ],
      "stateMutability": "nonpayable",
      "type": "function"
    },
    {
      "inputs": [],
      "name": "PAUSER_ROLE",
      "outputs": [
        {
          "internalType": "bytes32",
          "name": "",
          "type": "bytes32"
        }
      ],
      "stateMutability": "view",
      "type": "function"
    },
    {
      "inputs": [],
      "name": "UPGRADER_ROLE",
      "outputs": [
        {
          "internalType": "bytes32",
          "name": "",
          "type": "bytes32"
        }
      ],
      "stateMutability": "view",
      "type": "function"
    },
    {
      "inputs": [],
      "name": "contractsCounter",
      "outputs": [
        {
          "internalType": "uint256",
          "name": "",
          "type": "uint256"
        }
      ],
      "stateMutability": "view",
      "type": "function"
    },
    {
      "inputs": [],
      "name": "getAddresses",
      "outputs": [
        {
          "internalType": "address[]",
          "name": "",
          "type": "address[]"
        }
      ],
      "stateMutability": "view",
      "type": "function"
    },
    {
      "inputs": [
        {
          "internalType": "bytes32",
          "name": "role",
          "type": "bytes32"
        }
      ],
      "name": "getRoleAdmin",
      "outputs": [
        {
          "internalType": "bytes32",
          "name": "",
          "type": "bytes32"
        }
      ],
      "stateMutability": "view",
      "type": "function"
    },
    {
      "inputs": [
        {
          "internalType": "bytes32",
          "name": "role",
          "type": "bytes32"
        },
        {
          "internalType": "address",
          "name": "account",
          "type": "address"
        }
      ],
      "name": "grantRole",
      "outputs": [],
      "stateMutability": "nonpayable",
      "type": "function"
    },
    {
      "inputs": [
        {
          "internalType": "bytes32",
          "name": "role",
          "type": "bytes32"
        },
        {
          "internalType": "address",
          "name": "account",
          "type": "address"
        }
      ],
      "name": "hasRole",
      "outputs": [
        {
          "internalType": "bool",
          "name": "",
          "type": "bool"
        }
      ],
      "stateMutability": "view",
      "type": "function"
    },
    {
      "inputs": [],
      "name": "initialize",
      "outputs": [],
      "stateMutability": "nonpayable",
      "type": "function"
    },
    {
      "inputs": [],
      "name": "pause",
      "outputs": [],
      "stateMutability": "nonpayable",
      "type": "function"
    },
    {
      "inputs": [],
      "name": "paused",
      "outputs": [
        {
          "internalType": "bool",
          "name": "",
          "type": "bool"
        }
      ],
      "stateMutability": "view",
      "type": "function"
    },
    {
      "inputs": [],
      "name": "proxiableUUID",
      "outputs": [
        {
          "internalType": "bytes32",
          "name": "",
          "type": "bytes32"
        }
      ],
      "stateMutability": "view",
      "type": "function"
    },
    {
      "inputs": [
        {
          "internalType": "bytes32",
          "name": "role",
          "type": "bytes32"
        },
        {
          "internalType": "address",
          "name": "account",
          "type": "address"
        }
      ],
      "name": "renounceRole",
      "outputs": [],
      "stateMutability": "nonpayable",
      "type": "function"
    },
    {
      "inputs": [
        {
          "internalType": "bytes32",
          "name": "role",
          "type": "bytes32"
        },
        {
          "internalType": "address",
          "name": "account",
          "type": "address"
        }
      ],
      "name": "revokeRole",
      "outputs": [],
      "stateMutability": "nonpayable",
      "type": "function"
    },
    {
      "inputs": [
        {
          "internalType": "bytes4",
          "name": "interfaceId",
          "type": "bytes4"
        }
      ],
      "name": "supportsInterface",
      "outputs": [
        {
          "internalType": "bool",
          "name": "",
          "type": "bool"
        }
      ],
      "stateMutability": "view",
      "type": "function"
    },
    {
      "inputs": [],
      "name": "unpause",
      "outputs": [],
      "stateMutability": "nonpayable",
      "type": "function"
    },
    {
      "inputs": [
        {
          "internalType": "address",
          "name": "newImplementation",
          "type": "address"
        }
      ],
      "name": "upgradeTo",
      "outputs": [],
      "stateMutability": "nonpayable",
      "type": "function"
    },
    {
      "inputs": [
        {
          "internalType": "address",
          "name": "newImplementation",
          "type": "address"
        },
        {
          "internalType": "bytes",
          "name": "data",
          "type": "bytes"
        }
      ],
      "name": "upgradeToAndCall",
      "outputs": [],
      "stateMutability": "payable",
      "type": "function"
    }
  ],
  "bytecode": "0x60a06040523060805234801561001457600080fd5b5061001d610022565b6100e1565b600054610100900460ff161561008e5760405162461bcd60e51b815260206004820152602760248201527f496e697469616c697a61626c653a20636f6e747261637420697320696e697469604482015266616c697a696e6760c81b606482015260840160405180910390fd5b60005460ff908116146100df576000805460ff191660ff9081179091556040519081527f7f26b83ff96e1f2b6a682f133852f6798a09c465da95921460cefb38474024989060200160405180910390a15b565b608051615bc462000119600039600081816106ff01528181610786015281816108b9015281816109400152610a2d0152615bc46000f3fe6080604052600436106200015e5760003560e01c80635c975abb11620000cf578063a39fac12116200007d578063d547741f1162000060578063d547741f14620003c1578063e63ab1e914620003e6578063f72c0d8b146200041c57600080fd5b8063a39fac121462000381578063cc9f3ab614620003a857600080fd5b80638456cb5911620000b25780638456cb59146200030857806391d148541462000320578063a217fddf146200036a57600080fd5b80635c975abb14620002d65780638129fc1c14620002f057600080fd5b806336568abe116200012d5780633f4ba83a11620001105780633f4ba83a146200028f5780634f1ef28614620002a757806352d1902d14620002be57600080fd5b806336568abe14620002455780633659cfe6146200026a57600080fd5b806301ffc9a71462000163578063248a9ca3146200019d5780632f2ff15d14620001e0578063316ea3231462000207575b600080fd5b3480156200017057600080fd5b506200018862000182366004620019be565b62000452565b60405190151581526020015b60405180910390f35b348015620001aa57600080fd5b50620001d1620001bc36600462001a02565b60009081526097602052604090206001015490565b60405190815260200162000194565b348015620001ed57600080fd5b5062000205620001ff36600462001a39565b620004ec565b005b3480156200021457600080fd5b506200022c6200022636600462001afb565b6200051a565b6040516001600160a01b03909116815260200162000194565b3480156200025257600080fd5b50620002056200026436600462001a39565b62000661565b3480156200027757600080fd5b50620002056200028936600462001b81565b620006f5565b3480156200029c57600080fd5b506200020562000879565b62000205620002b836600462001b9f565b620008af565b348015620002cb57600080fd5b50620001d162000a20565b348015620002e357600080fd5b5060335460ff1662000188565b348015620002fd57600080fd5b506200020562000ae7565b3480156200031557600080fd5b506200020562000c88565b3480156200032d57600080fd5b50620001886200033f36600462001a39565b60009182526097602090815260408084206001600160a01b0393909316845291905290205460ff1690565b3480156200037757600080fd5b50620001d1600081565b3480156200038e57600080fd5b506200039962000cbe565b60405162000194919062001c08565b348015620003b557600080fd5b50620001d161012d5481565b348015620003ce57600080fd5b5062000205620003e036600462001a39565b62000d23565b348015620003f357600080fd5b50620001d17f65d7a28e3265b37a6474929f336521b332c1681b933f6cb9f3376673440d862a81565b3480156200042957600080fd5b50620001d17f189ab7a9244df0848122154315af71fe140f3db0fe014031783b0946b8c9d2e381565b60007fffffffff0000000000000000000000000000000000000000000000000000000082167f7965db0b000000000000000000000000000000000000000000000000000000001480620004e657507f01ffc9a7000000000000000000000000000000000000000000000000000000007fffffffff000000000000000000000000000000000000000000000000000000008316145b92915050565b600082815260976020526040902060010154620005098162000d4c565b62000515838362000d58565b505050565b600080620005288162000d4c565b6200053262000dfc565b600161012d600082825462000548919062001c6d565b9250508190555060006200055f61012d5462000e53565b60405160200162000571919062001ca9565b6040516020818303038152906040529050600088828989898961012d546040516200059c90620019b0565b620005ae979695949392919062001d1e565b604051809103906000f080158015620005cb573d6000803e3d6000fd5b5061012e805460018101825560009182527fbdaadd9f750d0166045bf387a364eadd28ba243e04512a47282aa5147a68e37f01805473ffffffffffffffffffffffffffffffffffffffff19166001600160a01b038416908117909155604051929350839290917fcf78cf0d6f3d8371e1075c69c492ab4ec5d8cf23a1a239b6a51a1d00be7ca31291a29998505050505050505050565b6001600160a01b0381163314620006e55760405162461bcd60e51b815260206004820152602f60248201527f416363657373436f6e74726f6c3a2063616e206f6e6c792072656e6f756e636560448201527f20726f6c657320666f722073656c66000000000000000000000000000000000060648201526084015b60405180910390fd5b620006f1828262000efa565b5050565b6001600160a01b037f0000000000000000000000000000000000000000000000000000000000000000163003620007845760405162461bcd60e51b815260206004820152602c60248201527f46756e6374696f6e206d7573742062652063616c6c6564207468726f7567682060448201526b19195b1959d85d1958d85b1b60a21b6064820152608401620006dc565b7f00000000000000000000000000000000000000000000000000000000000000006001600160a01b0316620007e07f360894a13ba1a3210667c828492db98dca3e2076cc3735a920a3ca505d382bbc546001600160a01b031690565b6001600160a01b0316146200084d5760405162461bcd60e51b815260206004820152602c60248201527f46756e6374696f6e206d7573742062652063616c6c6564207468726f7567682060448201526b6163746976652070726f787960a01b6064820152608401620006dc565b620008588162000f7e565b60408051600080825260208201909252620008769183919062000faa565b50565b7f65d7a28e3265b37a6474929f336521b332c1681b933f6cb9f3376673440d862a620008a58162000d4c565b6200087662001156565b6001600160a01b037f00000000000000000000000000000000000000000000000000000000000000001630036200093e5760405162461bcd60e51b815260206004820152602c60248201527f46756e6374696f6e206d7573742062652063616c6c6564207468726f7567682060448201526b19195b1959d85d1958d85b1b60a21b6064820152608401620006dc565b7f00000000000000000000000000000000000000000000000000000000000000006001600160a01b03166200099a7f360894a13ba1a3210667c828492db98dca3e2076cc3735a920a3ca505d382bbc546001600160a01b031690565b6001600160a01b03161462000a075760405162461bcd60e51b815260206004820152602c60248201527f46756e6374696f6e206d7573742062652063616c6c6564207468726f7567682060448201526b6163746976652070726f787960a01b6064820152608401620006dc565b62000a128262000f7e565b620006f18282600162000faa565b6000306001600160a01b037f0000000000000000000000000000000000000000000000000000000000000000161462000ac25760405162461bcd60e51b815260206004820152603860248201527f555550535570677261646561626c653a206d757374206e6f742062652063616c60448201527f6c6564207468726f7567682064656c656761746563616c6c00000000000000006064820152608401620006dc565b507f360894a13ba1a3210667c828492db98dca3e2076cc3735a920a3ca505d382bbc90565b600054610100900460ff161580801562000b085750600054600160ff909116105b8062000b245750303b15801562000b24575060005460ff166001145b62000b985760405162461bcd60e51b815260206004820152602e60248201527f496e697469616c697a61626c653a20636f6e747261637420697320616c72656160448201527f647920696e697469616c697a65640000000000000000000000000000000000006064820152608401620006dc565b6000805460ff19166001179055801562000bbc576000805461ff0019166101001790555b62000bc6620011aa565b62000bd062001221565b62000bda62001221565b62000be760003362000d58565b62000c137f65d7a28e3265b37a6474929f336521b332c1681b933f6cb9f3376673440d862a3362000d58565b62000c3f7f189ab7a9244df0848122154315af71fe140f3db0fe014031783b0946b8c9d2e33362000d58565b801562000876576000805461ff0019169055604051600181527f7f26b83ff96e1f2b6a682f133852f6798a09c465da95921460cefb38474024989060200160405180910390a150565b7f65d7a28e3265b37a6474929f336521b332c1681b933f6cb9f3376673440d862a62000cb48162000d4c565b620008766200128e565b606061012e80548060200260200160405190810160405280929190818152602001828054801562000d1957602002820191906000526020600020905b81546001600160a01b0316815260019091019060200180831162000cfa575b5050505050905090565b60008281526097602052604090206001015462000d408162000d4c565b62000515838362000efa565b620008768133620012ce565b60008281526097602090815260408083206001600160a01b038516845290915290205460ff16620006f15760008281526097602090815260408083206001600160a01b03851684529091529020805460ff1916600117905562000db83390565b6001600160a01b0316816001600160a01b0316837f2f8788117e7eff1d82e926ec794901d17c78024a50270940304540a733656f0d60405160405180910390a45050565b60335460ff161562000e515760405162461bcd60e51b815260206004820152601060248201527f5061757361626c653a20706175736564000000000000000000000000000000006044820152606401620006dc565b565b6060600062000e62836200134c565b600101905060008167ffffffffffffffff81111562000e855762000e8562001a68565b6040519080825280601f01601f19166020018201604052801562000eb0576020820181803683370190505b5090508181016020015b600019017f3031323334353637383961626364656600000000000000000000000000000000600a86061a8153600a850494508462000eba57509392505050565b60008281526097602090815260408083206001600160a01b038516845290915290205460ff1615620006f15760008281526097602090815260408083206001600160a01b0385168085529252808320805460ff1916905551339285917ff6391f5c32d9c69d2a47ea670b442974b53935d1edc7fd64eb21e047a839171b9190a45050565b7f189ab7a9244df0848122154315af71fe140f3db0fe014031783b0946b8c9d2e3620006f18162000d4c565b7f4910fdfa16fed3260ed0e7147f7cc6da11a60208b5b9406d12a635614ffd91435460ff161562000fe057620005158362001435565b826001600160a01b03166352d1902d6040518163ffffffff1660e01b8152600401602060405180830381865afa9250505080156200103d575060408051601f3d908101601f191682019092526200103a9181019062001d7b565b60015b620010b15760405162461bcd60e51b815260206004820152602e60248201527f45524331393637557067726164653a206e657720696d706c656d656e7461746960448201527f6f6e206973206e6f7420555550530000000000000000000000000000000000006064820152608401620006dc565b7f360894a13ba1a3210667c828492db98dca3e2076cc3735a920a3ca505d382bbc8114620011485760405162461bcd60e51b815260206004820152602960248201527f45524331393637557067726164653a20756e737570706f727465642070726f7860448201527f6961626c655555494400000000000000000000000000000000000000000000006064820152608401620006dc565b506200051583838362001502565b6200116062001533565b6033805460ff191690557f5db9ee0a495bf2e6ff9c91a7834c1ba4fdd244a5e8aa4e537bd38aeae4b073aa335b6040516001600160a01b03909116815260200160405180910390a1565b600054610100900460ff16620012175760405162461bcd60e51b815260206004820152602b60248201527f496e697469616c697a61626c653a20636f6e7472616374206973206e6f74206960448201526a6e697469616c697a696e6760a81b6064820152608401620006dc565b62000e5162001587565b600054610100900460ff1662000e515760405162461bcd60e51b815260206004820152602b60248201527f496e697469616c697a61626c653a20636f6e7472616374206973206e6f74206960448201526a6e697469616c697a696e6760a81b6064820152608401620006dc565b6200129862000dfc565b6033805460ff191660011790557f62e78cea01bee320cd4e420270b5ea74000d11b0c9f74754ebdbfc544b05a2586200118d3390565b60008281526097602090815260408083206001600160a01b038516845290915290205460ff16620006f157620013048162001600565b6200131183602062001613565b6040516020016200132492919062001d95565b60408051601f198184030181529082905262461bcd60e51b8252620006dc9160040162001e1a565b6000807a184f03e93ff9f4daa797ed6e38ed64bf6a1f010000000000000000831062001396577a184f03e93ff9f4daa797ed6e38ed64bf6a1f010000000000000000830492506040015b6d04ee2d6d415b85acef81000000008310620013c3576d04ee2d6d415b85acef8100000000830492506020015b662386f26fc100008310620013e257662386f26fc10000830492506010015b6305f5e1008310620013fb576305f5e100830492506008015b61271083106200141057612710830492506004015b6064831062001423576064830492506002015b600a8310620004e65760010192915050565b6001600160a01b0381163b620014b45760405162461bcd60e51b815260206004820152602d60248201527f455243313936373a206e657720696d706c656d656e746174696f6e206973206e60448201527f6f74206120636f6e7472616374000000000000000000000000000000000000006064820152608401620006dc565b7f360894a13ba1a3210667c828492db98dca3e2076cc3735a920a3ca505d382bbc805473ffffffffffffffffffffffffffffffffffffffff19166001600160a01b0392909216919091179055565b6200150d8362001819565b6000825111806200151b5750805b1562000515576200152d83836200185b565b50505050565b60335460ff1662000e515760405162461bcd60e51b815260206004820152601460248201527f5061757361626c653a206e6f74207061757365640000000000000000000000006044820152606401620006dc565b600054610100900460ff16620015f45760405162461bcd60e51b815260206004820152602b60248201527f496e697469616c697a61626c653a20636f6e7472616374206973206e6f74206960448201526a6e697469616c697a696e6760a81b6064820152608401620006dc565b6033805460ff19169055565b6060620004e66001600160a01b03831660145b606060006200162483600262001e2f565b6200163190600262001c6d565b67ffffffffffffffff8111156200164c576200164c62001a68565b6040519080825280601f01601f19166020018201604052801562001677576020820181803683370190505b5090507f300000000000000000000000000000000000000000000000000000000000000081600081518110620016b157620016b162001e49565b60200101906001600160f81b031916908160001a9053507f780000000000000000000000000000000000000000000000000000000000000081600181518110620016ff57620016ff62001e49565b60200101906001600160f81b031916908160001a90535060006200172584600262001e2f565b6200173290600162001c6d565b90505b6001811115620017c1577f303132333435363738396162636465660000000000000000000000000000000085600f166010811062001777576200177762001e49565b1a60f81b82828151811062001790576200179062001e49565b60200101906001600160f81b031916908160001a90535060049490941c93620017b98162001e5f565b905062001735565b508315620018125760405162461bcd60e51b815260206004820181905260248201527f537472696e67733a20686578206c656e67746820696e73756666696369656e746044820152606401620006dc565b9392505050565b620018248162001435565b6040516001600160a01b038216907fbc7cd75a20ee27fd9adebab32041f755214dbc6bffa90cc0225b39da2e5c2d3b90600090a250565b606062001812838360405180606001604052806027815260200162005b68602791396060600080856001600160a01b0316856040516200189c919062001e79565b600060405180830381855af49150503d8060008114620018d9576040519150601f19603f3d011682016040523d82523d6000602084013e620018de565b606091505b5091509150620018f186838387620018fb565b9695505050505050565b606083156200196f57825160000362001967576001600160a01b0385163b620019675760405162461bcd60e51b815260206004820152601d60248201527f416464726573733a2063616c6c20746f206e6f6e2d636f6e74726163740000006044820152606401620006dc565b50816200197b565b6200197b838362001983565b949350505050565b815115620019945781518083602001fd5b8060405162461bcd60e51b8152600401620006dc919062001e1a565b613cd08062001e9883390190565b600060208284031215620019d157600080fd5b81357fffffffff00000000000000000000000000000000000000000000000000000000811681146200181257600080fd5b60006020828403121562001a1557600080fd5b5035919050565b80356001600160a01b038116811462001a3457600080fd5b919050565b6000806040838503121562001a4d57600080fd5b8235915062001a5f6020840162001a1c565b90509250929050565b634e487b7160e01b600052604160045260246000fd5b600067ffffffffffffffff8084111562001a9c5762001a9c62001a68565b604051601f8501601f19908116603f0116810190828211818310171562001ac75762001ac762001a68565b8160405280935085815286868601111562001ae157600080fd5b858560208301376000602087830101525050509392505050565b600080600080600060a0868803121562001b1457600080fd5b853567ffffffffffffffff81111562001b2c57600080fd5b8601601f8101881362001b3e57600080fd5b62001b4f8882356020840162001a7e565b95505060208601359350604086013592506060860135915062001b756080870162001a1c565b90509295509295909350565b60006020828403121562001b9457600080fd5b620018128262001a1c565b6000806040838503121562001bb357600080fd5b62001bbe8362001a1c565b9150602083013567ffffffffffffffff81111562001bdb57600080fd5b8301601f8101851362001bed57600080fd5b62001bfe8582356020840162001a7e565b9150509250929050565b6020808252825182820181905260009190848201906040850190845b8181101562001c4b5783516001600160a01b03168352928401929184019160010162001c24565b50909695505050505050565b634e487b7160e01b600052601160045260246000fd5b80820180821115620004e657620004e662001c57565b60005b8381101562001ca057818101518382015260200162001c86565b50506000910152565b7f544d00000000000000000000000000000000000000000000000000000000000081526000825162001ce381600285016020870162001c83565b9190910160020192915050565b6000815180845262001d0a81602086016020860162001c83565b601f01601f19169290920160200192915050565b60e08152600062001d3360e083018a62001cf0565b828103602084015262001d47818a62001cf0565b60408401989098525050606081019490945260808401929092526001600160a01b031660a083015260c09091015292915050565b60006020828403121562001d8e57600080fd5b5051919050565b7f416363657373436f6e74726f6c3a206163636f756e742000000000000000000081526000835162001dcf81601785016020880162001c83565b7f206973206d697373696e6720726f6c6520000000000000000000000000000000601791840191820152835162001e0e81602884016020880162001c83565b01602801949350505050565b60208152600062001812602083018462001cf0565b8082028115828204841417620004e657620004e662001c57565b634e487b7160e01b600052603260045260246000fd5b60008162001e715762001e7162001c57565b506000190190565b6000825162001e8d81846020870162001c83565b919091019291505056fe60806040523480156200001157600080fd5b5060405162003cd038038062003cd083398101604081905262000034916200027e565b6040805160208101909152600081526200004e8162000103565b506003805460ff191690556200006660003362000115565b620000927f65d7a28e3265b37a6474929f336521b332c1681b933f6cb9f3376673440d862a3362000115565b600f80546001600160a01b0319166001600160a01b0384161790556005620000bb8882620003c2565b506006620000ca8782620003c2565b5060088590556009849055600a839055620000e683856200048e565b600b5560075550506011805460ff1916905550620004b192505050565b6002620001118282620003c2565b5050565b60008281526004602090815260408083206001600160a01b038516845290915290205460ff16620001115760008281526004602090815260408083206001600160a01b03851684529091529020805460ff19166001179055620001753390565b6001600160a01b0316816001600160a01b0316837f2f8788117e7eff1d82e926ec794901d17c78024a50270940304540a733656f0d60405160405180910390a45050565b634e487b7160e01b600052604160045260246000fd5b600082601f830112620001e157600080fd5b81516001600160401b0380821115620001fe57620001fe620001b9565b604051601f8301601f19908116603f01168101908282118183101715620002295762000229620001b9565b816040528381526020925086838588010111156200024657600080fd5b600091505b838210156200026a57858201830151818301840152908201906200024b565b600093810190920192909252949350505050565b600080600080600080600060e0888a0312156200029a57600080fd5b87516001600160401b0380821115620002b257600080fd5b620002c08b838c01620001cf565b985060208a0151915080821115620002d757600080fd5b50620002e68a828b01620001cf565b60408a015160608b015160808c015160a08d0151939a509198509650945090506001600160a01b03811681146200031c57600080fd5b8092505060c0880151905092959891949750929550565b600181811c908216806200034857607f821691505b6020821081036200036957634e487b7160e01b600052602260045260246000fd5b50919050565b601f821115620003bd57600081815260208120601f850160051c81016020861015620003985750805b601f850160051c820191505b81811015620003b957828155600101620003a4565b5050505b505050565b81516001600160401b03811115620003de57620003de620001b9565b620003f681620003ef845462000333565b846200036f565b602080601f8311600181146200042e5760008415620004155750858301515b600019600386901b1c1916600185901b178555620003b9565b600085815260208120601f198616915b828110156200045f578886015182559484019460019091019084016200043e565b50858210156200047e5787850151600019600388901b60f8161c191681555b5050505050600190811b01905550565b600082620004ac57634e487b7160e01b600052601260045260246000fd5b500490565b61380f80620004c16000396000f3fe608060405234801561001057600080fd5b50600436106102ac5760003560e01c80638e1a3b6e1161017b578063b773f909116100d8578063e63ab1e91161008c578063f242432a11610071578063f242432a146105ac578063f5298aca146105bf578063f8dd3292146105d257600080fd5b8063e63ab1e914610549578063e985e9c51461057057600080fd5b8063c7ee1042116100bd578063c7ee104214610524578063d547741f1461052d578063e23000a01461054057600080fd5b8063b773f90914610502578063c6ee20d21461051757600080fd5b80639d4150be1161012f578063a22cb46511610114578063a22cb465146104dd578063b1efc755146104f0578063b3cea217146104f957600080fd5b80639d4150be1461049e578063a217fddf146104d557600080fd5b806391d148541161016057806391d148541461045557806395d89b411461048e578063974137b11461049657600080fd5b80638e1a3b6e1461043a5780638efe68141461044d57600080fd5b806336568abe1161022957806356953bda116101dd5780635ef4e99d116101c25780635ef4e99d146104165780636b20c4541461041f5780638456cb591461043257600080fd5b806356953bda146104025780635c975abb1461040b57600080fd5b80633f4ba83a1161020e5780633f4ba83a146103af5780633feb5f2b146103b75780634e1273f4146103e257600080fd5b806336568abe146103885780633eed6a171461039b57600080fd5b8063248a9ca3116102805780632eb2c2d6116102655780632eb2c2d61461035a5780632f2ff15d1461036d578063362e496b1461038057600080fd5b8063248a9ca3146103225780632a7f505b1461034557600080fd5b8062fdd58e146102b157806301ffc9a7146102d757806306fdde03146102fa5780630e89341c1461030f575b600080fd5b6102c46102bf366004612e10565b6105db565b6040519081526020015b60405180910390f35b6102ea6102e5366004612e50565b610687565b60405190151581526020016102ce565b610302610692565b6040516102ce9190612ebd565b61030261031d366004612ed0565b610720565b6102c4610330366004612ed0565b60009081526004602052604090206001015490565b610358610353366004612ed0565b6107b4565b005b610358610368366004613035565b610b81565b61035861037b3660046130df565b610c14565b610358610c3e565b6103586103963660046130df565b610e20565b60115460ff165b6040516102ce9190613121565b610358610eac565b6103ca6103c5366004612ed0565b610ee1565b6040516001600160a01b0390911681526020016102ce565b6103f56103f0366004613149565b610f0b565b6040516102ce919061324f565b6102c4600b5481565b60035460ff166102ea565b6102c460095481565b61035861042d366004613262565b611049565b6103586110d3565b610358610448366004612ed0565b611105565b6103586116a4565b6102ea6104633660046130df565b60009182526004602090815260408084206001600160a01b0393909316845291905290205460ff1690565b610302611885565b600c546102c4565b6104b16104ac366004612ed0565b611892565b6040805193845260208401929092526001600160a01b0316908201526060016102ce565b6102c4600081565b6103586104eb3660046132e4565b6118ce565b6102c460085481565b6102c460075481565b61050a6118d9565b6040516102ce919061331b565b6011546103a29060ff1681565b6102c4600a5481565b61035861053b3660046130df565b61195b565b6102c4600c5481565b6102c47f65d7a28e3265b37a6474929f336521b332c1681b933f6cb9f3376673440d862a81565b6102ea61057e36600461337d565b6001600160a01b03918216600090815260016020908152604080832093909416825291909152205460ff1690565b6103586105ba3660046133a7565b611980565b6103586105cd36600461340c565b611a0c565b6102c4600d5481565b60006001600160a01b03831661065e5760405162461bcd60e51b815260206004820152602a60248201527f455243313135353a2061646472657373207a65726f206973206e6f742061207660448201527f616c6964206f776e65720000000000000000000000000000000000000000000060648201526084015b60405180910390fd5b506000818152602081815260408083206001600160a01b03861684529091529020545b92915050565b600061068182611a96565b6005805461069f9061343f565b80601f01602080910402602001604051908101604052809291908181526020018280546106cb9061343f565b80156107185780601f106106ed57610100808354040283529160200191610718565b820191906000526020600020905b8154815290600101906020018083116106fb57829003601f168201915b505050505081565b60606002805461072f9061343f565b80601f016020809104026020016040519081016040528092919081815260200182805461075b9061343f565b80156107a85780601f1061077d576101008083540402835291602001916107a8565b820191906000526020600020905b81548152906001019060200180831161078b57829003601f168201915b50505050509050919050565b60006107bf81611ad4565b600260115460ff1660038111156107d8576107d861310b565b146108255760405162461bcd60e51b815260206004820152601b60248201527f496e76616c69642073746174757320666f72204275796261636b2e00000000006044820152606401610655565b600082116108755760405162461bcd60e51b815260206004820152601460248201527f50726f6669742063616e2774206265207a65726f0000000000000000000000006044820152606401610655565b6000606483600954610887919061348f565b61089191906134a6565b60095461089e91906134c8565b90506108ad81620f424061348f565b600f546040516370a0823160e01b81523360048201529192506001600160a01b0316906370a0823190602401602060405180830381865afa1580156108f6573d6000803e3d6000fd5b505050506040513d601f19601f8201168201806040525081019061091a91906134db565b8111156109695760405162461bcd60e51b815260206004820152601760248201527f4e6f7420656e6f75676820555344542062616c616e63650000000000000000006044820152606401610655565b600f54604051636eb1769f60e11b815233600482015230602482015282916001600160a01b03169063dd62ed3e90604401602060405180830381865afa1580156109b7573d6000803e3d6000fd5b505050506040513d601f19601f820116820180604052508101906109db91906134db565b1015610a755760405162461bcd60e51b815260206004820152604260248201527f496e206f7264657220746f2070726f636565642c20796f75206d75737420617060448201527f70726f76652074686520726571756972656420616d6f756e74206f662055534460648201527f542e000000000000000000000000000000000000000000000000000000000000608482015260a401610655565b600f546040516323b872dd60e01b8152336004820152306024820152604481018390526001600160a01b03909116906323b872dd906064016020604051808303816000875af1158015610acc573d6000803e3d6000fd5b505050506040513d601f19601f82011682018060405250810190610af091906134f4565b610b335760405162461bcd60e51b81526020600482015260146024820152732aa9a22a103a3930b739b332b91032b93937b91760611b6044820152606401610655565b606483600b54610b43919061348f565b610b4d91906134a6565b600b54610b5a91906134c8565b600c819055610b6c90620f424061348f565b600c5550506011805460ff1916600317905550565b6001600160a01b038516331480610b9d5750610b9d853361057e565b610c005760405162461bcd60e51b815260206004820152602e60248201527f455243313135353a2063616c6c6572206973206e6f7420746f6b656e206f776e60448201526d195c881bdc88185c1c1c9bdd995960921b6064820152608401610655565b610c0d8585858585611ade565b5050505050565b600082815260046020526040902060010154610c2f81611ad4565b610c398383611d4a565b505050565b6000610c4981611ad4565b600f546040516370a0823160e01b81523060048201526000916001600160a01b0316906370a0823190602401602060405180830381865afa158015610c92573d6000803e3d6000fd5b505050506040513d601f19601f82011682018060405250810190610cb691906134db565b9050600160115460ff166003811115610cd157610cd161310b565b14610d1e5760405162461bcd60e51b815260206004820152601360248201527f4e6f74206f6e20736f6c64207374617475732e000000000000000000000000006044820152606401610655565b600f5460405163a9059cbb60e01b8152336004820152602481018390526001600160a01b039091169063a9059cbb906044016020604051808303816000875af1158015610d6f573d6000803e3d6000fd5b505050506040513d601f19601f82011682018060405250810190610d9391906134f4565b610dd65760405162461bcd60e51b81526020600482015260146024820152732aa9a22a103a3930b739b332b91032b93937b91760611b6044820152606401610655565b6011805460ff1916600217905560408051338152602081018390527fe3d1236ecf6efa77c3b3e79162ba9c387bb4b5230852cabb42b2e3f6a65ffec2910160405180910390a15050565b6001600160a01b0381163314610e9e5760405162461bcd60e51b815260206004820152602f60248201527f416363657373436f6e74726f6c3a2063616e206f6e6c792072656e6f756e636560448201527f20726f6c657320666f722073656c6600000000000000000000000000000000006064820152608401610655565b610ea88282611dec565b5050565b7f65d7a28e3265b37a6474929f336521b332c1681b933f6cb9f3376673440d862a610ed681611ad4565b610ede611e6f565b50565b600e8181548110610ef157600080fd5b6000918252602090912001546001600160a01b0316905081565b60608151835114610f845760405162461bcd60e51b815260206004820152602960248201527f455243313135353a206163636f756e747320616e6420696473206c656e67746860448201527f206d69736d6174636800000000000000000000000000000000000000000000006064820152608401610655565b6000835167ffffffffffffffff811115610fa057610fa0612ee9565b604051908082528060200260200182016040528015610fc9578160200160208202803683370190505b50905060005b845181101561104157611014858281518110610fed57610fed613511565b602002602001015185838151811061100757611007613511565b60200260200101516105db565b82828151811061102657611026613511565b602090810291909101015261103a81613527565b9050610fcf565b509392505050565b6001600160a01b0383163314806110655750611065833361057e565b6110c85760405162461bcd60e51b815260206004820152602e60248201527f455243313135353a2063616c6c6572206973206e6f7420746f6b656e206f776e60448201526d195c881bdc88185c1c1c9bdd995960921b6064820152608401610655565b610c39838383611ec1565b7f65d7a28e3265b37a6474929f336521b332c1681b933f6cb9f3376673440d862a6110fd81611ad4565b610ede612117565b61110d612154565b600081600b54620f4240611121919061348f565b61112b919061348f565b9050600060115460ff1660038111156111465761114661310b565b146111935760405162461bcd60e51b815260206004820152601360248201527f5468652073616c6520697320636c6f7365642e000000000000000000000000006044820152606401610655565b600082116111e35760405162461bcd60e51b815260206004820152601660248201527f416d6f756e742063616e6e6f74206265207a65726f2e000000000000000000006044820152606401610655565b600d54600a546111f39190613540565b8211156112685760405162461bcd60e51b815260206004820152602660248201527f416d6f756e7420746f20627579206578636565647320746f74616c206672616360448201527f74696f6e732e00000000000000000000000000000000000000000000000000006064820152608401610655565b600f546040516370a0823160e01b815233600482015282916001600160a01b0316906370a0823190602401602060405180830381865afa1580156112b0573d6000803e3d6000fd5b505050506040513d601f19601f820116820180604052508101906112d491906134db565b10156113225760405162461bcd60e51b815260206004820152601a60248201527f496e73756666696369656e7420555344542062616c616e63652e0000000000006044820152606401610655565b600f54604051636eb1769f60e11b815233600482015230602482015282916001600160a01b03169063dd62ed3e90604401602060405180830381865afa158015611370573d6000803e3d6000fd5b505050506040513d601f19601f8201168201806040525081019061139491906134db565b10156114075760405162461bcd60e51b8152602060048201526024808201527f417070726f76652074686520726571756972656420616d6f756e74206f66205560448201527f5344542e000000000000000000000000000000000000000000000000000000006064820152608401610655565b600f546040516323b872dd60e01b8152336004820152306024820152604481018390526001600160a01b03909116906323b872dd906064016020604051808303816000875af115801561145e573d6000803e3d6000fd5b505050506040513d601f19601f8201168201806040525081019061148291906134f4565b6114c55760405162461bcd60e51b81526020600482015260146024820152732aa9a22a103a3930b739b332b91032b93937b91760611b6044820152606401610655565b6114e23360075484604051806020016040528060008152506121a9565b60408051338152602081018490527fd90d253a9de34d2fdd5a75ae49ea17fcb43af32fc8ea08cc6d2341991dd3872e910160405180910390a1600e805460018101825560009182527fbb7b4a454dc3493923482f07822329ed19e8244eff582cc204f8554c3620c3fd01805473ffffffffffffffffffffffffffffffffffffffff191633179055600d805484929061157b9084906134c8565b9091555050600a54600d54036115d5576011805460ff191660011790556009546040517fa9bd1ee47937bee215a99910f193b3d3f3dec63a935e5be277309ce06b0a2b9f916115cc91600e90613553565b60405180910390a15b50604080516060810182529182524260208301908152339183019182526010805460018101825560009190915292517f1b6847dc741a1b0cd08d278845f9d819d87b734759afb55fe2de5cb82a9ae672600390940293840155517f1b6847dc741a1b0cd08d278845f9d819d87b734759afb55fe2de5cb82a9ae673830155517f1b6847dc741a1b0cd08d278845f9d819d87b734759afb55fe2de5cb82a9ae674909101805473ffffffffffffffffffffffffffffffffffffffff19166001600160a01b03909216919091179055565b6116ac612154565b600360115460ff1660038111156116c5576116c561310b565b146117125760405162461bcd60e51b815260206004820152601960248201527f436f6e7472616374206973206e6f742066696e69736865642e000000000000006044820152606401610655565b6000611720336007546105db565b9050600081116117725760405162461bcd60e51b815260206004820152601560248201527f43616c6c657220686173206e6f20746f6b656e732e00000000000000000000006044820152606401610655565b6000600c5482611782919061348f565b905061179133600754846122e8565b60075460408051918252602082018490527fb98a7424d5f1b26fcef82bf9ffc50913246b18195d53475580c9ba5ee7c0fc75910160405180910390a1600f5460405163a9059cbb60e01b8152336004820152602481018390526001600160a01b039091169063a9059cbb906044016020604051808303816000875af115801561181e573d6000803e3d6000fd5b505050506040513d601f19601f8201168201806040525081019061184291906134f4565b610ea85760405162461bcd60e51b81526020600482015260146024820152732aa9a22a103a3930b739b332b91032b93937b91760611b6044820152606401610655565b6006805461069f9061343f565b601081815481106118a257600080fd5b60009182526020909120600390910201805460018201546002909201549092506001600160a01b031683565b610ea8338383612478565b60606010805480602002602001604051908101604052809291908181526020016000905b82821015611952576000848152602090819020604080516060810182526003860290920180548352600180820154848601526002909101546001600160a01b03169183019190915290835290920191016118fd565b50505050905090565b60008281526004602052604090206001015461197681611ad4565b610c398383611dec565b6001600160a01b03851633148061199c575061199c853361057e565b6119ff5760405162461bcd60e51b815260206004820152602e60248201527f455243313135353a2063616c6c6572206973206e6f7420746f6b656e206f776e60448201526d195c881bdc88185c1c1c9bdd995960921b6064820152608401610655565b610c0d858585858561256c565b6001600160a01b038316331480611a285750611a28833361057e565b611a8b5760405162461bcd60e51b815260206004820152602e60248201527f455243313135353a2063616c6c6572206973206e6f7420746f6b656e206f776e60448201526d195c881bdc88185c1c1c9bdd995960921b6064820152608401610655565b610c398383836122e8565b60006001600160e01b031982167f7965db0b000000000000000000000000000000000000000000000000000000001480610681575061068182612725565b610ede81336127c0565b8151835114611b405760405162461bcd60e51b815260206004820152602860248201527f455243313135353a2069647320616e6420616d6f756e7473206c656e677468206044820152670dad2e6dac2e8c6d60c31b6064820152608401610655565b6001600160a01b038416611ba45760405162461bcd60e51b815260206004820152602560248201527f455243313135353a207472616e7366657220746f20746865207a65726f206164604482015264647265737360d81b6064820152608401610655565b33611bb3818787878787612835565b60005b8451811015611cdc576000858281518110611bd357611bd3613511565b602002602001015190506000858381518110611bf157611bf1613511565b602090810291909101810151600084815280835260408082206001600160a01b038e168352909352919091205490915081811015611c845760405162461bcd60e51b815260206004820152602a60248201527f455243313135353a20696e73756666696369656e742062616c616e636520666f60448201526939103a3930b739b332b960b11b6064820152608401610655565b6000838152602081815260408083206001600160a01b038e8116855292528083208585039055908b16825281208054849290611cc19084906134c8565b9250508190555050505080611cd590613527565b9050611bb6565b50846001600160a01b0316866001600160a01b0316826001600160a01b03167f4a39dc06d4c0dbc64b70af90fd698a233a518aa5d07e595d983b8c0526c8f7fb8787604051611d2c9291906135af565b60405180910390a4611d42818787878787612843565b505050505050565b60008281526004602090815260408083206001600160a01b038516845290915290205460ff16610ea85760008281526004602090815260408083206001600160a01b03851684529091529020805460ff19166001179055611da83390565b6001600160a01b0316816001600160a01b0316837f2f8788117e7eff1d82e926ec794901d17c78024a50270940304540a733656f0d60405160405180910390a45050565b60008281526004602090815260408083206001600160a01b038516845290915290205460ff1615610ea85760008281526004602090815260408083206001600160a01b0385168085529252808320805460ff1916905551339285917ff6391f5c32d9c69d2a47ea670b442974b53935d1edc7fd64eb21e047a839171b9190a45050565b611e776129e8565b6003805460ff191690557f5db9ee0a495bf2e6ff9c91a7834c1ba4fdd244a5e8aa4e537bd38aeae4b073aa335b6040516001600160a01b03909116815260200160405180910390a1565b6001600160a01b038316611f235760405162461bcd60e51b815260206004820152602360248201527f455243313135353a206275726e2066726f6d20746865207a65726f206164647260448201526265737360e81b6064820152608401610655565b8051825114611f855760405162461bcd60e51b815260206004820152602860248201527f455243313135353a2069647320616e6420616d6f756e7473206c656e677468206044820152670dad2e6dac2e8c6d60c31b6064820152608401610655565b6000339050611fa881856000868660405180602001604052806000815250612835565b60005b83518110156120a9576000848281518110611fc857611fc8613511565b602002602001015190506000848381518110611fe657611fe6613511565b602090810291909101810151600084815280835260408082206001600160a01b038c1683529093529190912054909150818110156120725760405162461bcd60e51b8152602060048201526024808201527f455243313135353a206275726e20616d6f756e7420657863656564732062616c604482015263616e636560e01b6064820152608401610655565b6000928352602083815260408085206001600160a01b038b16865290915290922091039055806120a181613527565b915050611fab565b5060006001600160a01b0316846001600160a01b0316826001600160a01b03167f4a39dc06d4c0dbc64b70af90fd698a233a518aa5d07e595d983b8c0526c8f7fb86866040516120fa9291906135af565b60405180910390a460408051602081019091526000905250505050565b61211f612154565b6003805460ff191660011790557f62e78cea01bee320cd4e420270b5ea74000d11b0c9f74754ebdbfc544b05a258611ea43390565b60035460ff16156121a75760405162461bcd60e51b815260206004820152601060248201527f5061757361626c653a20706175736564000000000000000000000000000000006044820152606401610655565b565b6001600160a01b0384166122255760405162461bcd60e51b815260206004820152602160248201527f455243313135353a206d696e7420746f20746865207a65726f2061646472657360448201527f73000000000000000000000000000000000000000000000000000000000000006064820152608401610655565b33600061223185612a3a565b9050600061223e85612a3a565b905061224f83600089858589612835565b6000868152602081815260408083206001600160a01b038b1684529091528120805487929061227f9084906134c8565b909155505060408051878152602081018790526001600160a01b03808a1692600092918716917fc3d58168c5ae7397731d063d5bbf3d657854427343f4c083240f7aacaa2d0f62910160405180910390a46122df83600089898989612a85565b50505050505050565b6001600160a01b03831661234a5760405162461bcd60e51b815260206004820152602360248201527f455243313135353a206275726e2066726f6d20746865207a65726f206164647260448201526265737360e81b6064820152608401610655565b33600061235684612a3a565b9050600061236384612a3a565b905061238383876000858560405180602001604052806000815250612835565b6000858152602081815260408083206001600160a01b038a168452909152902054848110156124005760405162461bcd60e51b8152602060048201526024808201527f455243313135353a206275726e20616d6f756e7420657863656564732062616c604482015263616e636560e01b6064820152608401610655565b6000868152602081815260408083206001600160a01b038b81168086529184528285208a8703905582518b81529384018a90529092908816917fc3d58168c5ae7397731d063d5bbf3d657854427343f4c083240f7aacaa2d0f62910160405180910390a46040805160208101909152600090526122df565b816001600160a01b0316836001600160a01b0316036124ff5760405162461bcd60e51b815260206004820152602960248201527f455243313135353a2073657474696e6720617070726f76616c2073746174757360448201527f20666f722073656c6600000000000000000000000000000000000000000000006064820152608401610655565b6001600160a01b03838116600081815260016020908152604080832094871680845294825291829020805460ff191686151590811790915591519182527f17307eab39ab6107e8899845ad3d59bd9653f200f220920489ca2b5937696c31910160405180910390a3505050565b6001600160a01b0384166125d05760405162461bcd60e51b815260206004820152602560248201527f455243313135353a207472616e7366657220746f20746865207a65726f206164604482015264647265737360d81b6064820152608401610655565b3360006125dc85612a3a565b905060006125e985612a3a565b90506125f9838989858589612835565b6000868152602081815260408083206001600160a01b038c1684529091529020548581101561267d5760405162461bcd60e51b815260206004820152602a60248201527f455243313135353a20696e73756666696369656e742062616c616e636520666f60448201526939103a3930b739b332b960b11b6064820152608401610655565b6000878152602081815260408083206001600160a01b038d8116855292528083208985039055908a168252812080548892906126ba9084906134c8565b909155505060408051888152602081018890526001600160a01b03808b16928c821692918816917fc3d58168c5ae7397731d063d5bbf3d657854427343f4c083240f7aacaa2d0f62910160405180910390a461271a848a8a8a8a8a612a85565b505050505050505050565b60006001600160e01b031982167fd9b67a2600000000000000000000000000000000000000000000000000000000148061278857506001600160e01b031982167f0e89341c00000000000000000000000000000000000000000000000000000000145b8061068157507f01ffc9a7000000000000000000000000000000000000000000000000000000006001600160e01b0319831614610681565b60008281526004602090815260408083206001600160a01b038516845290915290205460ff16610ea8576127f381612b81565b6127fe836020612b93565b60405160200161280f9291906135dd565b60408051601f198184030181529082905262461bcd60e51b825261065591600401612ebd565b611d42868686868686612d7b565b6001600160a01b0384163b15611d425760405163bc197c8160e01b81526001600160a01b0385169063bc197c8190612887908990899088908890889060040161365e565b6020604051808303816000875af19250505080156128c2575060408051601f3d908101601f191682019092526128bf918101906136bc565b60015b612977576128ce6136d9565b806308c379a00361290757506128e26136f5565b806128ed5750612909565b8060405162461bcd60e51b81526004016106559190612ebd565b505b60405162461bcd60e51b815260206004820152603460248201527f455243313135353a207472616e7366657220746f206e6f6e2d4552433131353560448201527f526563656976657220696d706c656d656e7465720000000000000000000000006064820152608401610655565b6001600160e01b0319811663bc197c8160e01b146122df5760405162461bcd60e51b815260206004820152602860248201527f455243313135353a204552433131353552656365697665722072656a656374656044820152676420746f6b656e7360c01b6064820152608401610655565b60035460ff166121a75760405162461bcd60e51b815260206004820152601460248201527f5061757361626c653a206e6f74207061757365640000000000000000000000006044820152606401610655565b60408051600180825281830190925260609160009190602080830190803683370190505090508281600081518110612a7457612a74613511565b602090810291909101015292915050565b6001600160a01b0384163b15611d425760405163f23a6e6160e01b81526001600160a01b0385169063f23a6e6190612ac9908990899088908890889060040161377f565b6020604051808303816000875af1925050508015612b04575060408051601f3d908101601f19168201909252612b01918101906136bc565b60015b612b10576128ce6136d9565b6001600160e01b0319811663f23a6e6160e01b146122df5760405162461bcd60e51b815260206004820152602860248201527f455243313135353a204552433131353552656365697665722072656a656374656044820152676420746f6b656e7360c01b6064820152608401610655565b60606106816001600160a01b03831660145b60606000612ba283600261348f565b612bad9060026134c8565b67ffffffffffffffff811115612bc557612bc5612ee9565b6040519080825280601f01601f191660200182016040528015612bef576020820181803683370190505b5090507f300000000000000000000000000000000000000000000000000000000000000081600081518110612c2657612c26613511565b60200101906001600160f81b031916908160001a9053507f780000000000000000000000000000000000000000000000000000000000000081600181518110612c7157612c71613511565b60200101906001600160f81b031916908160001a9053506000612c9584600261348f565b612ca09060016134c8565b90505b6001811115612d25577f303132333435363738396162636465660000000000000000000000000000000085600f1660108110612ce157612ce1613511565b1a60f81b828281518110612cf757612cf7613511565b60200101906001600160f81b031916908160001a90535060049490941c93612d1e816137c2565b9050612ca3565b508315612d745760405162461bcd60e51b815260206004820181905260248201527f537472696e67733a20686578206c656e67746820696e73756666696369656e746044820152606401610655565b9392505050565b60035460ff1615611d425760405162461bcd60e51b815260206004820152602c60248201527f455243313135355061757361626c653a20746f6b656e207472616e736665722060448201527f7768696c652070617573656400000000000000000000000000000000000000006064820152608401610655565b80356001600160a01b0381168114612e0b57600080fd5b919050565b60008060408385031215612e2357600080fd5b612e2c83612df4565b946020939093013593505050565b6001600160e01b031981168114610ede57600080fd5b600060208284031215612e6257600080fd5b8135612d7481612e3a565b60005b83811015612e88578181015183820152602001612e70565b50506000910152565b60008151808452612ea9816020860160208601612e6d565b601f01601f19169290920160200192915050565b602081526000612d746020830184612e91565b600060208284031215612ee257600080fd5b5035919050565b634e487b7160e01b600052604160045260246000fd5b601f8201601f1916810167ffffffffffffffff81118282101715612f2557612f25612ee9565b6040525050565b600067ffffffffffffffff821115612f4657612f46612ee9565b5060051b60200190565b600082601f830112612f6157600080fd5b81356020612f6e82612f2c565b604051612f7b8282612eff565b83815260059390931b8501820192828101915086841115612f9b57600080fd5b8286015b84811015612fb65780358352918301918301612f9f565b509695505050505050565b600082601f830112612fd257600080fd5b813567ffffffffffffffff811115612fec57612fec612ee9565b604051613003601f8301601f191660200182612eff565b81815284602083860101111561301857600080fd5b816020850160208301376000918101602001919091529392505050565b600080600080600060a0868803121561304d57600080fd5b61305686612df4565b945061306460208701612df4565b9350604086013567ffffffffffffffff8082111561308157600080fd5b61308d89838a01612f50565b945060608801359150808211156130a357600080fd5b6130af89838a01612f50565b935060808801359150808211156130c557600080fd5b506130d288828901612fc1565b9150509295509295909350565b600080604083850312156130f257600080fd5b8235915061310260208401612df4565b90509250929050565b634e487b7160e01b600052602160045260246000fd5b602081016004831061314357634e487b7160e01b600052602160045260246000fd5b91905290565b6000806040838503121561315c57600080fd5b823567ffffffffffffffff8082111561317457600080fd5b818501915085601f83011261318857600080fd5b8135602061319582612f2c565b6040516131a28282612eff565b83815260059390931b85018201928281019150898411156131c257600080fd5b948201945b838610156131e7576131d886612df4565b825294820194908201906131c7565b965050860135925050808211156131fd57600080fd5b5061320a85828601612f50565b9150509250929050565b600081518084526020808501945080840160005b8381101561324457815187529582019590820190600101613228565b509495945050505050565b602081526000612d746020830184613214565b60008060006060848603121561327757600080fd5b61328084612df4565b9250602084013567ffffffffffffffff8082111561329d57600080fd5b6132a987838801612f50565b935060408601359150808211156132bf57600080fd5b506132cc86828701612f50565b9150509250925092565b8015158114610ede57600080fd5b600080604083850312156132f757600080fd5b61330083612df4565b91506020830135613310816132d6565b809150509250929050565b602080825282518282018190526000919060409081850190868401855b828110156133705781518051855286810151878601528501516001600160a01b03168585015260609093019290850190600101613338565b5091979650505050505050565b6000806040838503121561339057600080fd5b61339983612df4565b915061310260208401612df4565b600080600080600060a086880312156133bf57600080fd5b6133c886612df4565b94506133d660208701612df4565b93506040860135925060608601359150608086013567ffffffffffffffff81111561340057600080fd5b6130d288828901612fc1565b60008060006060848603121561342157600080fd5b61342a84612df4565b95602085013595506040909401359392505050565b600181811c9082168061345357607f821691505b60208210810361347357634e487b7160e01b600052602260045260246000fd5b50919050565b634e487b7160e01b600052601160045260246000fd5b808202811582820484141761068157610681613479565b6000826134c357634e487b7160e01b600052601260045260246000fd5b500490565b8082018082111561068157610681613479565b6000602082840312156134ed57600080fd5b5051919050565b60006020828403121561350657600080fd5b8151612d74816132d6565b634e487b7160e01b600052603260045260246000fd5b60006001820161353957613539613479565b5060010190565b8181038181111561068157610681613479565b60006040820184835260206040818501528185548084526060860191508660005282600020935060005b818110156135a25784546001600160a01b03168352600194850194928401920161357d565b5090979650505050505050565b6040815260006135c26040830185613214565b82810360208401526135d48185613214565b95945050505050565b7f416363657373436f6e74726f6c3a206163636f756e7420000000000000000000815260008351613615816017850160208801612e6d565b7f206973206d697373696e6720726f6c65200000000000000000000000000000006017918401918201528351613652816028840160208801612e6d565b01602801949350505050565b60006001600160a01b03808816835280871660208401525060a0604083015261368a60a0830186613214565b828103606084015261369c8186613214565b905082810360808401526136b08185612e91565b98975050505050505050565b6000602082840312156136ce57600080fd5b8151612d7481612e3a565b600060033d11156136f25760046000803e5060005160e01c5b90565b600060443d10156137035790565b6040516003193d81016004833e81513d67ffffffffffffffff816024840111818411171561373357505050505090565b828501915081518181111561374b5750505050505090565b843d87010160208285010111156137655750505050505090565b61377460208286010187612eff565b509095945050505050565b60006001600160a01b03808816835280871660208401525084604083015283606083015260a060808301526137b760a0830184612e91565b979650505050505050565b6000816137d1576137d1613479565b50600019019056fea264697066735822122049abc140dc9762f73d668f9611fec0f6c839c9577c9187d791de07db5d44f41664736f6c63430008130033416464726573733a206c6f772d6c6576656c2064656c65676174652063616c6c206661696c6564a2646970667358221220ec4f4dfa3b5428f7a2ca39e713e81524cee8e8f454c808fceefc102c96d05bf564736f6c63430008130033",
  "linkReferences": {},
  "deployedLinkReferences": {}
}