{
    "_format": "hh-sol-artifact-1",
    "contractName": "FinancingContract",
    "sourceName": "contracts/NftFactory.sol",
    "abi": [
        {
            "inputs": [
                {
                    "internalType": "string",
                    "name": "_name",
                    "type": "string"
                },
                {
                    "internalType": "string",
                    "name": "_symbol",
                    "type": "string"
                },
                {
                    "internalType": "uint256",
                    "name": "_amountToFinance",
                    "type": "uint256"
                },
                {
                    "internalType": "uint256",
                    "name": "_investmentFractions",
                    "type": "uint256"
                },
                {
                    "internalType": "address",
                    "name": "_addUsdt",
                    "type": "address"
                }
            ],
            "stateMutability": "nonpayable",
            "type": "constructor"
        },
        {
            "anonymous": false,
            "inputs": [
                {
                    "indexed": true,
                    "internalType": "address",
                    "name": "owner",
                    "type": "address"
                },
                {
                    "indexed": true,
                    "internalType": "address",
                    "name": "approved",
                    "type": "address"
                },
                {
                    "indexed": true,
                    "internalType": "uint256",
                    "name": "tokenId",
                    "type": "uint256"
                }
            ],
            "name": "Approval",
            "type": "event"
        },
        {
            "anonymous": false,
            "inputs": [
                {
                    "indexed": true,
                    "internalType": "address",
                    "name": "owner",
                    "type": "address"
                },
                {
                    "indexed": true,
                    "internalType": "address",
                    "name": "operator",
                    "type": "address"
                },
                {
                    "indexed": false,
                    "internalType": "bool",
                    "name": "approved",
                    "type": "bool"
                }
            ],
            "name": "ApprovalForAll",
            "type": "event"
        },
        {
            "anonymous": false,
            "inputs": [
                {
                    "indexed": false,
                    "internalType": "uint256",
                    "name": "tokenId",
                    "type": "uint256"
                }
            ],
            "name": "BurnNft",
            "type": "event"
        },
        {
            "anonymous": false,
            "inputs": [
                {
                    "indexed": false,
                    "internalType": "address",
                    "name": "investor",
                    "type": "address"
                },
                {
                    "indexed": false,
                    "internalType": "uint256",
                    "name": "fractions",
                    "type": "uint256"
                }
            ],
            "name": "Invest",
            "type": "event"
        },
        {
            "anonymous": false,
            "inputs": [
                {
                    "indexed": false,
                    "internalType": "address",
                    "name": "account",
                    "type": "address"
                }
            ],
            "name": "Paused",
            "type": "event"
        },
        {
            "anonymous": false,
            "inputs": [
                {
                    "indexed": true,
                    "internalType": "bytes32",
                    "name": "role",
                    "type": "bytes32"
                },
                {
                    "indexed": true,
                    "internalType": "bytes32",
                    "name": "previousAdminRole",
                    "type": "bytes32"
                },
                {
                    "indexed": true,
                    "internalType": "bytes32",
                    "name": "newAdminRole",
                    "type": "bytes32"
                }
            ],
            "name": "RoleAdminChanged",
            "type": "event"
        },
        {
            "anonymous": false,
            "inputs": [
                {
                    "indexed": true,
                    "internalType": "bytes32",
                    "name": "role",
                    "type": "bytes32"
                },
                {
                    "indexed": true,
                    "internalType": "address",
                    "name": "account",
                    "type": "address"
                },
                {
                    "indexed": true,
                    "internalType": "address",
                    "name": "sender",
                    "type": "address"
                }
            ],
            "name": "RoleGranted",
            "type": "event"
        },
        {
            "anonymous": false,
            "inputs": [
                {
                    "indexed": true,
                    "internalType": "bytes32",
                    "name": "role",
                    "type": "bytes32"
                },
                {
                    "indexed": true,
                    "internalType": "address",
                    "name": "account",
                    "type": "address"
                },
                {
                    "indexed": true,
                    "internalType": "address",
                    "name": "sender",
                    "type": "address"
                }
            ],
            "name": "RoleRevoked",
            "type": "event"
        },
        {
            "anonymous": false,
            "inputs": [],
            "name": "TotalAmountFinanced",
            "type": "event"
        },
        {
            "anonymous": false,
            "inputs": [
                {
                    "indexed": true,
                    "internalType": "address",
                    "name": "from",
                    "type": "address"
                },
                {
                    "indexed": true,
                    "internalType": "address",
                    "name": "to",
                    "type": "address"
                },
                {
                    "indexed": true,
                    "internalType": "uint256",
                    "name": "tokenId",
                    "type": "uint256"
                }
            ],
            "name": "Transfer",
            "type": "event"
        },
        {
            "anonymous": false,
            "inputs": [
                {
                    "indexed": false,
                    "internalType": "address",
                    "name": "account",
                    "type": "address"
                }
            ],
            "name": "Unpaused",
            "type": "event"
        },
        {
            "anonymous": false,
            "inputs": [],
            "name": "WithdrawComplete",
            "type": "event"
        },
        {
            "anonymous": false,
            "inputs": [
                {
                    "indexed": false,
                    "internalType": "uint256",
                    "name": "step",
                    "type": "uint256"
                },
                {
                    "indexed": false,
                    "internalType": "string",
                    "name": "description",
                    "type": "string"
                }
            ],
            "name": "newMilestone",
            "type": "event"
        },
        {
            "inputs": [],
            "name": "DEFAULT_ADMIN_ROLE",
            "outputs": [
                {
                    "internalType": "bytes32",
                    "name": "",
                    "type": "bytes32"
                }
            ],
            "stateMutability": "view",
            "type": "function"
        },
        {
            "inputs": [],
            "name": "PAUSER_ROLE",
            "outputs": [
                {
                    "internalType": "bytes32",
                    "name": "",
                    "type": "bytes32"
                }
            ],
            "stateMutability": "view",
            "type": "function"
        },
        {
            "inputs": [],
            "name": "amountToFinance",
            "outputs": [
                {
                    "internalType": "uint256",
                    "name": "",
                    "type": "uint256"
                }
            ],
            "stateMutability": "view",
            "type": "function"
        },
        {
            "inputs": [
                {
                    "internalType": "address",
                    "name": "to",
                    "type": "address"
                },
                {
                    "internalType": "uint256",
                    "name": "tokenId",
                    "type": "uint256"
                }
            ],
            "name": "approve",
            "outputs": [],
            "stateMutability": "nonpayable",
            "type": "function"
        },
        {
            "inputs": [
                {
                    "internalType": "address",
                    "name": "owner",
                    "type": "address"
                }
            ],
            "name": "balanceOf",
            "outputs": [
                {
                    "internalType": "uint256",
                    "name": "",
                    "type": "uint256"
                }
            ],
            "stateMutability": "view",
            "type": "function"
        },
        {
            "inputs": [
                {
                    "internalType": "uint256",
                    "name": "profit",
                    "type": "uint256"
                }
            ],
            "name": "buyBack",
            "outputs": [],
            "stateMutability": "nonpayable",
            "type": "function"
        },
        {
            "inputs": [
                {
                    "internalType": "uint256",
                    "name": "_amount",
                    "type": "uint256"
                }
            ],
            "name": "buyFraction",
            "outputs": [],
            "stateMutability": "nonpayable",
            "type": "function"
        },
        {
            "inputs": [],
            "name": "contractStatus",
            "outputs": [
                {
                    "internalType": "enum FinancingContract.Status",
                    "name": "",
                    "type": "uint8"
                }
            ],
            "stateMutability": "view",
            "type": "function"
        },
        {
            "inputs": [],
            "name": "fractionPrice",
            "outputs": [
                {
                    "internalType": "uint256",
                    "name": "",
                    "type": "uint256"
                }
            ],
            "stateMutability": "view",
            "type": "function"
        },
        {
            "inputs": [
                {
                    "internalType": "uint256",
                    "name": "tokenId",
                    "type": "uint256"
                }
            ],
            "name": "getApproved",
            "outputs": [
                {
                    "internalType": "address",
                    "name": "",
                    "type": "address"
                }
            ],
            "stateMutability": "view",
            "type": "function"
        },
        {
            "inputs": [
                {
                    "internalType": "bytes32",
                    "name": "role",
                    "type": "bytes32"
                }
            ],
            "name": "getRoleAdmin",
            "outputs": [
                {
                    "internalType": "bytes32",
                    "name": "",
                    "type": "bytes32"
                }
            ],
            "stateMutability": "view",
            "type": "function"
        },
        {
            "inputs": [
                {
                    "internalType": "bytes32",
                    "name": "role",
                    "type": "bytes32"
                },
                {
                    "internalType": "address",
                    "name": "account",
                    "type": "address"
                }
            ],
            "name": "grantRole",
            "outputs": [],
            "stateMutability": "nonpayable",
            "type": "function"
        },
        {
            "inputs": [
                {
                    "internalType": "bytes32",
                    "name": "role",
                    "type": "bytes32"
                },
                {
                    "internalType": "address",
                    "name": "account",
                    "type": "address"
                }
            ],
            "name": "hasRole",
            "outputs": [
                {
                    "internalType": "bool",
                    "name": "",
                    "type": "bool"
                }
            ],
            "stateMutability": "view",
            "type": "function"
        },
        {
            "inputs": [],
            "name": "investmentFractions",
            "outputs": [
                {
                    "internalType": "uint256",
                    "name": "",
                    "type": "uint256"
                }
            ],
            "stateMutability": "view",
            "type": "function"
        },
        {
            "inputs": [
                {
                    "internalType": "address",
                    "name": "owner",
                    "type": "address"
                },
                {
                    "internalType": "address",
                    "name": "operator",
                    "type": "address"
                }
            ],
            "name": "isApprovedForAll",
            "outputs": [
                {
                    "internalType": "bool",
                    "name": "",
                    "type": "bool"
                }
            ],
            "stateMutability": "view",
            "type": "function"
        },
        {
            "inputs": [],
            "name": "name",
            "outputs": [
                {
                    "internalType": "string",
                    "name": "",
                    "type": "string"
                }
            ],
            "stateMutability": "view",
            "type": "function"
        },
        {
            "inputs": [
                {
                    "internalType": "uint256",
                    "name": "tokenId",
                    "type": "uint256"
                }
            ],
            "name": "ownerOf",
            "outputs": [
                {
                    "internalType": "address",
                    "name": "",
                    "type": "address"
                }
            ],
            "stateMutability": "view",
            "type": "function"
        },
        {
            "inputs": [],
            "name": "pause",
            "outputs": [],
            "stateMutability": "nonpayable",
            "type": "function"
        },
        {
            "inputs": [],
            "name": "paused",
            "outputs": [
                {
                    "internalType": "bool",
                    "name": "",
                    "type": "bool"
                }
            ],
            "stateMutability": "view",
            "type": "function"
        },
        {
            "inputs": [
                {
                    "internalType": "bytes32",
                    "name": "role",
                    "type": "bytes32"
                },
                {
                    "internalType": "address",
                    "name": "account",
                    "type": "address"
                }
            ],
            "name": "renounceRole",
            "outputs": [],
            "stateMutability": "nonpayable",
            "type": "function"
        },
        {
            "inputs": [
                {
                    "internalType": "bytes32",
                    "name": "role",
                    "type": "bytes32"
                },
                {
                    "internalType": "address",
                    "name": "account",
                    "type": "address"
                }
            ],
            "name": "revokeRole",
            "outputs": [],
            "stateMutability": "nonpayable",
            "type": "function"
        },
        {
            "inputs": [
                {
                    "internalType": "address",
                    "name": "from",
                    "type": "address"
                },
                {
                    "internalType": "address",
                    "name": "to",
                    "type": "address"
                },
                {
                    "internalType": "uint256",
                    "name": "tokenId",
                    "type": "uint256"
                }
            ],
            "name": "safeTransferFrom",
            "outputs": [],
            "stateMutability": "nonpayable",
            "type": "function"
        },
        {
            "inputs": [
                {
                    "internalType": "address",
                    "name": "from",
                    "type": "address"
                },
                {
                    "internalType": "address",
                    "name": "to",
                    "type": "address"
                },
                {
                    "internalType": "uint256",
                    "name": "tokenId",
                    "type": "uint256"
                },
                {
                    "internalType": "bytes",
                    "name": "data",
                    "type": "bytes"
                }
            ],
            "name": "safeTransferFrom",
            "outputs": [],
            "stateMutability": "nonpayable",
            "type": "function"
        },
        {
            "inputs": [
                {
                    "internalType": "address",
                    "name": "operator",
                    "type": "address"
                },
                {
                    "internalType": "bool",
                    "name": "approved",
                    "type": "bool"
                }
            ],
            "name": "setApprovalForAll",
            "outputs": [],
            "stateMutability": "nonpayable",
            "type": "function"
        },
        {
            "inputs": [
                {
                    "internalType": "bytes4",
                    "name": "interfaceId",
                    "type": "bytes4"
                }
            ],
            "name": "supportsInterface",
            "outputs": [
                {
                    "internalType": "bool",
                    "name": "",
                    "type": "bool"
                }
            ],
            "stateMutability": "view",
            "type": "function"
        },
        {
            "inputs": [],
            "name": "symbol",
            "outputs": [
                {
                    "internalType": "string",
                    "name": "",
                    "type": "string"
                }
            ],
            "stateMutability": "view",
            "type": "function"
        },
        {
            "inputs": [
                {
                    "internalType": "uint256",
                    "name": "index",
                    "type": "uint256"
                }
            ],
            "name": "tokenByIndex",
            "outputs": [
                {
                    "internalType": "uint256",
                    "name": "",
                    "type": "uint256"
                }
            ],
            "stateMutability": "view",
            "type": "function"
        },
        {
            "inputs": [
                {
                    "internalType": "address",
                    "name": "owner",
                    "type": "address"
                },
                {
                    "internalType": "uint256",
                    "name": "index",
                    "type": "uint256"
                }
            ],
            "name": "tokenOfOwnerByIndex",
            "outputs": [
                {
                    "internalType": "uint256",
                    "name": "",
                    "type": "uint256"
                }
            ],
            "stateMutability": "view",
            "type": "function"
        },
        {
            "inputs": [
                {
                    "internalType": "uint256",
                    "name": "tokenId",
                    "type": "uint256"
                }
            ],
            "name": "tokenURI",
            "outputs": [
                {
                    "internalType": "string",
                    "name": "",
                    "type": "string"
                }
            ],
            "stateMutability": "view",
            "type": "function"
        },
        {
            "inputs": [],
            "name": "totalSupply",
            "outputs": [
                {
                    "internalType": "uint256",
                    "name": "",
                    "type": "uint256"
                }
            ],
            "stateMutability": "view",
            "type": "function"
        },
        {
            "inputs": [
                {
                    "internalType": "address",
                    "name": "from",
                    "type": "address"
                },
                {
                    "internalType": "address",
                    "name": "to",
                    "type": "address"
                },
                {
                    "internalType": "uint256",
                    "name": "tokenId",
                    "type": "uint256"
                }
            ],
            "name": "transferFrom",
            "outputs": [],
            "stateMutability": "nonpayable",
            "type": "function"
        },
        {
            "inputs": [],
            "name": "unpause",
            "outputs": [],
            "stateMutability": "nonpayable",
            "type": "function"
        },
        {
            "inputs": [],
            "name": "withdrawUSDT",
            "outputs": [],
            "stateMutability": "nonpayable",
            "type": "function"
        }
    ],
    "bytecode": "0x60806040523480156200001157600080fd5b506040516200338a3803806200338a833981016040819052620000349162000248565b8484600062000044838262000379565b50600162000053828262000379565b5050600a805460ff19169055506200006d600033620000de565b620000997f65d7a28e3265b37a6474929f336521b332c1681b933f6cb9f3376673440d862a33620000de565b60108054610100600160a81b0319166101006001600160a01b03841602179055600d839055600e829055620000cf828462000445565b600f5550620004689350505050565b6000828152600b602090815260408083206001600160a01b038516845290915290205460ff166200017f576000828152600b602090815260408083206001600160a01b03851684529091529020805460ff191660011790556200013e3390565b6001600160a01b0316816001600160a01b0316837f2f8788117e7eff1d82e926ec794901d17c78024a50270940304540a733656f0d60405160405180910390a45b5050565b634e487b7160e01b600052604160045260246000fd5b600082601f830112620001ab57600080fd5b81516001600160401b0380821115620001c857620001c862000183565b604051601f8301601f19908116603f01168101908282118183101715620001f357620001f362000183565b816040528381526020925086838588010111156200021057600080fd5b600091505b8382101562000234578582018301518183018401529082019062000215565b600093810190920192909252949350505050565b600080600080600060a086880312156200026157600080fd5b85516001600160401b03808211156200027957600080fd5b6200028789838a0162000199565b965060208801519150808211156200029e57600080fd5b50620002ad8882890162000199565b6040880151606089015160808a0151929750909550935090506001600160a01b0381168114620002dc57600080fd5b809150509295509295909350565b600181811c90821680620002ff57607f821691505b6020821081036200032057634e487b7160e01b600052602260045260246000fd5b50919050565b601f8211156200037457600081815260208120601f850160051c810160208610156200034f5750805b601f850160051c820191505b8181101562000370578281556001016200035b565b5050505b505050565b81516001600160401b0381111562000395576200039562000183565b620003ad81620003a68454620002ea565b8462000326565b602080601f831160018114620003e55760008415620003cc5750858301515b600019600386901b1c1916600185901b17855562000370565b600085815260208120601f198616915b828110156200041657888601518255948401946001909101908401620003f5565b5085821015620004355787850151600019600388901b60f8161c191681555b5050505050600190811b01905550565b6000826200046357634e487b7160e01b600052601260045260246000fd5b500490565b612f1280620004786000396000f3fe608060405234801561001057600080fd5b506004361061020b5760003560e01c80635c975abb1161012a578063a217fddf116100bd578063c7ee10421161008c578063d547741f11610071578063d547741f1461045a578063e63ab1e91461046d578063e985e9c51461049457600080fd5b8063c7ee10421461043e578063c87b56dd1461044757600080fd5b8063a217fddf146103f6578063a22cb465146103fe578063b88d4fde14610411578063c6ee20d21461042457600080fd5b80638456cb59116100f95780638456cb591461039a5780638e1a3b6e146103a257806391d14854146103b557806395d89b41146103ee57600080fd5b80635c975abb146103605780635ef4e99d1461036b5780636352211e1461037457806370a082311461038757600080fd5b80632f2ff15d116101a25780633f4ba83a116101715780633f4ba83a1461032957806342842e0e146103315780634f6ccce71461034457806356953bda1461035757600080fd5b80632f2ff15d146102e85780632f745c59146102fb578063362e496b1461030e57806336568abe1461031657600080fd5b8063095ea7b3116101de578063095ea7b31461028d57806318160ddd146102a057806323b872dd146102b2578063248a9ca3146102c557600080fd5b806301ffc9a714610210578063053f90401461023857806306fdde031461024d578063081812fc14610262575b600080fd5b61022361021e366004612972565b6104d0565b60405190151581526020015b60405180910390f35b61024b61024636600461298f565b6104e1565b005b61025561081c565b60405161022f91906129f8565b61027561027036600461298f565b6108ae565b6040516001600160a01b03909116815260200161022f565b61024b61029b366004612a27565b6108d5565b6008545b60405190815260200161022f565b61024b6102c0366004612a51565b610a06565b6102a46102d336600461298f565b6000908152600b602052604090206001015490565b61024b6102f6366004612a8d565b610a7d565b6102a4610309366004612a27565b610aa2565b61024b610b4a565b61024b610324366004612a8d565b610d0d565b61024b610d99565b61024b61033f366004612a51565b610dce565b6102a461035236600461298f565b610de9565b6102a4600f5481565b600a5460ff16610223565b6102a4600d5481565b61027561038236600461298f565b610e8d565b6102a4610395366004612ab9565b610ef2565b61024b610f8c565b61024b6103b036600461298f565b610fbe565b6102236103c3366004612a8d565b6000918252600b602090815260408084206001600160a01b0393909316845291905290205460ff1690565b610255611478565b6102a4600081565b61024b61040c366004612ae2565b611487565b61024b61041f366004612b2f565b611492565b6012546104319060ff1681565b60405161022f9190612c21565b6102a4600e5481565b61025561045536600461298f565b611510565b61024b610468366004612a8d565b611584565b6102a47f65d7a28e3265b37a6474929f336521b332c1681b933f6cb9f3376673440d862a81565b6102236104a2366004612c49565b6001600160a01b03918216600090815260056020908152604080832093909416825291909152205460ff1690565b60006104db826115a9565b92915050565b60006104ec816115e7565b600082116105415760405162461bcd60e51b815260206004820152601460248201527f50726f6669742063616e2774206265207a65726f00000000000000000000000060448201526064015b60405180910390fd5b6000606483600d546105539190612c89565b61055d9190612ca0565b600d5461056a9190612cc2565b905061057981620f4240612c89565b6010546040516370a0823160e01b815233600482015291925061010090046001600160a01b0316906370a0823190602401602060405180830381865afa1580156105c7573d6000803e3d6000fd5b505050506040513d601f19601f820116820180604052508101906105eb9190612cd5565b8111156106605760405162461bcd60e51b815260206004820152602760248201527f41646d696e20646f6573206e6f74206861766520656e6f75676820555344542060448201527f62616c616e6365000000000000000000000000000000000000000000000000006064820152608401610538565b60105460405163a9059cbb60e01b8152306004820152602481018390526101009091046001600160a01b03169063a9059cbb906044016020604051808303816000875af11580156106b5573d6000803e3d6000fd5b505050506040513d601f19601f820116820180604052508101906106d99190612cee565b506000606484600f546106ec9190612c89565b6106f69190612ca0565b600f546107039190612cc2565b905060005b600e5481101561081557600081815260116020526040902054610735906001600160a01b03163083610dce565b61073e816115f1565b6040518181527f0588fcb077dc43ae7afb49b8d42e758b467ebcbc03fada515fd5ebf506b5470e9060200160405180910390a1601054600082815260116020526040908190205490516323b872dd60e01b81523060048201526001600160a01b0391821660248201526044810185905261010090920416906323b872dd906064016020604051808303816000875af11580156107de573d6000803e3d6000fd5b505050506040513d601f19601f820116820180604052508101906108029190612cee565b508061080d81612d0b565b915050610708565b5050505050565b60606000805461082b90612d24565b80601f016020809104026020016040519081016040528092919081815260200182805461085790612d24565b80156108a45780601f10610879576101008083540402835291602001916108a4565b820191906000526020600020905b81548152906001019060200180831161088757829003601f168201915b5050505050905090565b60006108b9826116a1565b506000908152600460205260409020546001600160a01b031690565b60006108e082610e8d565b9050806001600160a01b0316836001600160a01b0316036109695760405162461bcd60e51b815260206004820152602160248201527f4552433732313a20617070726f76616c20746f2063757272656e74206f776e6560448201527f72000000000000000000000000000000000000000000000000000000000000006064820152608401610538565b336001600160a01b0382161480610985575061098581336104a2565b6109f75760405162461bcd60e51b815260206004820152603d60248201527f4552433732313a20617070726f76652063616c6c6572206973206e6f7420746f60448201527f6b656e206f776e6572206f7220617070726f76656420666f7220616c6c0000006064820152608401610538565b610a018383611705565b505050565b610a103382611780565b610a725760405162461bcd60e51b815260206004820152602d60248201527f4552433732313a2063616c6c6572206973206e6f7420746f6b656e206f776e6560448201526c1c881bdc88185c1c1c9bdd9959609a1b6064820152608401610538565b610a018383836117ff565b6000828152600b6020526040902060010154610a98816115e7565b610a018383611a12565b6000610aad83610ef2565b8210610b215760405162461bcd60e51b815260206004820152602b60248201527f455243373231456e756d657261626c653a206f776e657220696e646578206f7560448201527f74206f6620626f756e64730000000000000000000000000000000000000000006064820152608401610538565b506001600160a01b03919091166000908152600660209081526040808320938352929052205490565b6000610b55816115e7565b6010546040516370a0823160e01b815230600482015260009161010090046001600160a01b0316906370a0823190602401602060405180830381865afa158015610ba3573d6000803e3d6000fd5b505050506040513d601f19601f82011682018060405250810190610bc79190612cd5565b9050600160125460ff166003811115610be257610be2612c0b565b14610c2f5760405162461bcd60e51b815260206004820152601360248201527f4e6f74206f6e20736f6c64207374617475732e000000000000000000000000006044820152606401610538565b60105460405163a9059cbb60e01b8152336004820152602481018390526101009091046001600160a01b03169063a9059cbb906044016020604051808303816000875af1158015610c84573d6000803e3d6000fd5b505050506040513d601f19601f82011682018060405250810190610ca89190612cee565b610cf45760405162461bcd60e51b815260206004820152601460248201527f55534454207472616e73666572206572726f722e0000000000000000000000006044820152606401610538565b601280546002919060ff19166001835b02179055505050565b6001600160a01b0381163314610d8b5760405162461bcd60e51b815260206004820152602f60248201527f416363657373436f6e74726f6c3a2063616e206f6e6c792072656e6f756e636560448201527f20726f6c657320666f722073656c6600000000000000000000000000000000006064820152608401610538565b610d958282611ab4565b5050565b7f65d7a28e3265b37a6474929f336521b332c1681b933f6cb9f3376673440d862a610dc3816115e7565b610dcb611b37565b50565b610a0183838360405180602001604052806000815250611492565b6000610df460085490565b8210610e685760405162461bcd60e51b815260206004820152602c60248201527f455243373231456e756d657261626c653a20676c6f62616c20696e646578206f60448201527f7574206f6620626f756e647300000000000000000000000000000000000000006064820152608401610538565b60088281548110610e7b57610e7b612d5e565b90600052602060002001549050919050565b6000818152600260205260408120546001600160a01b0316806104db5760405162461bcd60e51b815260206004820152601860248201527f4552433732313a20696e76616c696420746f6b656e20494400000000000000006044820152606401610538565b60006001600160a01b038216610f705760405162461bcd60e51b815260206004820152602960248201527f4552433732313a2061646472657373207a65726f206973206e6f74206120766160448201527f6c6964206f776e657200000000000000000000000000000000000000000000006064820152608401610538565b506001600160a01b031660009081526003602052604090205490565b7f65d7a28e3265b37a6474929f336521b332c1681b933f6cb9f3376673440d862a610fb6816115e7565b610dcb611b89565b610fc6611bc6565b600081600f54620f4240610fda9190612c89565b610fe49190612c89565b9050600060125460ff166003811115610fff57610fff612c0b565b1461104c5760405162461bcd60e51b815260206004820152601360248201527f5468652073616c6520697320636c6f7365642e000000000000000000000000006044820152606401610538565b6000821161109c5760405162461bcd60e51b815260206004820152601660248201527f416d6f756e742063616e6e6f74206265207a65726f2e000000000000000000006044820152606401610538565b600e5482106111135760405162461bcd60e51b815260206004820152602760248201527f416d6f756e7420746f2062757920657863656564657320746f74616c2066726160448201527f6374696f6e732e000000000000000000000000000000000000000000000000006064820152608401610538565b6010546040516370a0823160e01b8152336004820152829161010090046001600160a01b0316906370a0823190602401602060405180830381865afa158015611160573d6000803e3d6000fd5b505050506040513d601f19601f820116820180604052508101906111849190612cd5565b10156111d25760405162461bcd60e51b815260206004820152601a60248201527f496e73737566696369656e7420555344542062616c616e63652e0000000000006044820152606401610538565b6010546040517fdd62ed3e000000000000000000000000000000000000000000000000000000008152336004820152306024820152829161010090046001600160a01b03169063dd62ed3e90604401602060405180830381865afa15801561123e573d6000803e3d6000fd5b505050506040513d601f19601f820116820180604052508101906112629190612cd5565b10156112fc5760405162461bcd60e51b815260206004820152604260248201527f496e206f7264657220746f2070726f636565642c20796f75206d75737420617060448201527f70726f76652074686520726571756972656420616d6f756e74206f662055534460648201527f542e000000000000000000000000000000000000000000000000000000000000608482015260a401610538565b6010546040516323b872dd60e01b8152336004820152306024820152604481018390526101009091046001600160a01b0316906323b872dd906064016020604051808303816000875af1158015611357573d6000803e3d6000fd5b505050506040513d601f19601f8201168201806040525081019061137b9190612cee565b6113c75760405162461bcd60e51b815260206004820152601460248201527f55534454207472616e73666572206572726f722e0000000000000000000000006044820152606401610538565b60005b828160ff161015611415576113e133600c54611c1b565b6113ed30600c546108d5565b600c80549060006113fd83612d0b565b9190505550808061140d90612d74565b9150506113ca565b5060408051338152602081018490527fd90d253a9de34d2fdd5a75ae49ea17fcb43af32fc8ea08cc6d2341991dd3872e910160405180910390a1600e5461145d906001612cc2565b600c5403610d9557601280546001919060ff19168280610d04565b60606001805461082b90612d24565b610d95338383611c35565b61149c3383611780565b6114fe5760405162461bcd60e51b815260206004820152602d60248201527f4552433732313a2063616c6c6572206973206e6f7420746f6b656e206f776e6560448201526c1c881bdc88185c1c1c9bdd9959609a1b6064820152608401610538565b61150a84848484611d03565b50505050565b606061151b826116a1565b600061153260408051602081019091526000815290565b90506000815111611552576040518060200160405280600081525061157d565b8061155c84611d81565b60405160200161156d929190612d93565b6040516020818303038152906040525b9392505050565b6000828152600b602052604090206001015461159f816115e7565b610a018383611ab4565b60006001600160e01b031982167f7965db0b0000000000000000000000000000000000000000000000000000000014806104db57506104db82611e21565b610dcb8133611e5f565b60006115fc82610e8d565b905061160c816000846001611ed4565b61161582610e8d565b6000838152600460209081526040808320805473ffffffffffffffffffffffffffffffffffffffff199081169091556001600160a01b0385168085526003845282852080546000190190558785526002909352818420805490911690555192935084927fddf252ad1be2c89b69c2b068fc378daa952ba7f163c4a11628f55a4df523b3ef908390a45050565b6000818152600260205260409020546001600160a01b0316610dcb5760405162461bcd60e51b815260206004820152601860248201527f4552433732313a20696e76616c696420746f6b656e20494400000000000000006044820152606401610538565b6000818152600460205260409020805473ffffffffffffffffffffffffffffffffffffffff19166001600160a01b038416908117909155819061174782610e8d565b6001600160a01b03167f8c5be1e5ebec7d5bd14f71427d1e84f3dd0314c0f7b2291e5b200ac8c7c3b92560405160405180910390a45050565b60008061178c83610e8d565b9050806001600160a01b0316846001600160a01b031614806117d357506001600160a01b0380821660009081526005602090815260408083209388168352929052205460ff165b806117f75750836001600160a01b03166117ec846108ae565b6001600160a01b0316145b949350505050565b826001600160a01b031661181282610e8d565b6001600160a01b0316146118765760405162461bcd60e51b815260206004820152602560248201527f4552433732313a207472616e736665722066726f6d20696e636f72726563742060448201526437bbb732b960d91b6064820152608401610538565b6001600160a01b0382166118f15760405162461bcd60e51b8152602060048201526024808201527f4552433732313a207472616e7366657220746f20746865207a65726f2061646460448201527f72657373000000000000000000000000000000000000000000000000000000006064820152608401610538565b6118fe8383836001611ed4565b826001600160a01b031661191182610e8d565b6001600160a01b0316146119755760405162461bcd60e51b815260206004820152602560248201527f4552433732313a207472616e736665722066726f6d20696e636f72726563742060448201526437bbb732b960d91b6064820152608401610538565b6000818152600460209081526040808320805473ffffffffffffffffffffffffffffffffffffffff199081169091556001600160a01b0387811680865260038552838620805460001901905590871680865283862080546001019055868652600290945282852080549092168417909155905184937fddf252ad1be2c89b69c2b068fc378daa952ba7f163c4a11628f55a4df523b3ef91a4505050565b6000828152600b602090815260408083206001600160a01b038516845290915290205460ff16610d95576000828152600b602090815260408083206001600160a01b03851684529091529020805460ff19166001179055611a703390565b6001600160a01b0316816001600160a01b0316837f2f8788117e7eff1d82e926ec794901d17c78024a50270940304540a733656f0d60405160405180910390a45050565b6000828152600b602090815260408083206001600160a01b038516845290915290205460ff1615610d95576000828152600b602090815260408083206001600160a01b0385168085529252808320805460ff1916905551339285917ff6391f5c32d9c69d2a47ea670b442974b53935d1edc7fd64eb21e047a839171b9190a45050565b611b3f611ee0565b600a805460ff191690557f5db9ee0a495bf2e6ff9c91a7834c1ba4fdd244a5e8aa4e537bd38aeae4b073aa335b6040516001600160a01b03909116815260200160405180910390a1565b611b91611bc6565b600a805460ff191660011790557f62e78cea01bee320cd4e420270b5ea74000d11b0c9f74754ebdbfc544b05a258611b6c3390565b600a5460ff1615611c195760405162461bcd60e51b815260206004820152601060248201527f5061757361626c653a20706175736564000000000000000000000000000000006044820152606401610538565b565b610d95828260405180602001604052806000815250611f32565b816001600160a01b0316836001600160a01b031603611c965760405162461bcd60e51b815260206004820152601960248201527f4552433732313a20617070726f766520746f2063616c6c6572000000000000006044820152606401610538565b6001600160a01b03838116600081815260056020908152604080832094871680845294825291829020805460ff191686151590811790915591519182527f17307eab39ab6107e8899845ad3d59bd9653f200f220920489ca2b5937696c31910160405180910390a3505050565b611d0e8484846117ff565b611d1a84848484611fb0565b61150a5760405162461bcd60e51b815260206004820152603260248201527f4552433732313a207472616e7366657220746f206e6f6e20455243373231526560448201527131b2b4bb32b91034b6b83632b6b2b73a32b960711b6064820152608401610538565b60606000611d8e836120fc565b600101905060008167ffffffffffffffff811115611dae57611dae612b19565b6040519080825280601f01601f191660200182016040528015611dd8576020820181803683370190505b5090508181016020015b600019017f3031323334353637383961626364656600000000000000000000000000000000600a86061a8153600a8504945084611de257509392505050565b60006001600160e01b031982167f780e9d630000000000000000000000000000000000000000000000000000000014806104db57506104db826121de565b6000828152600b602090815260408083206001600160a01b038516845290915290205460ff16610d9557611e9281612279565b611e9d83602061228b565b604051602001611eae929190612dc2565b60408051601f198184030181529082905262461bcd60e51b8252610538916004016129f8565b61150a8484848461246c565b600a5460ff16611c195760405162461bcd60e51b815260206004820152601460248201527f5061757361626c653a206e6f74207061757365640000000000000000000000006044820152606401610538565b611f3c83836124f1565b611f496000848484611fb0565b610a015760405162461bcd60e51b815260206004820152603260248201527f4552433732313a207472616e7366657220746f206e6f6e20455243373231526560448201527131b2b4bb32b91034b6b83632b6b2b73a32b960711b6064820152608401610538565b60006001600160a01b0384163b156120f157604051630a85bd0160e11b81526001600160a01b0385169063150b7a0290611ff4903390899088908890600401612e43565b6020604051808303816000875af192505050801561202f575060408051601f3d908101601f1916820190925261202c91810190612e7f565b60015b6120d7573d80801561205d576040519150601f19603f3d011682016040523d82523d6000602084013e612062565b606091505b5080516000036120cf5760405162461bcd60e51b815260206004820152603260248201527f4552433732313a207472616e7366657220746f206e6f6e20455243373231526560448201527131b2b4bb32b91034b6b83632b6b2b73a32b960711b6064820152608401610538565b805181602001fd5b6001600160e01b031916630a85bd0160e11b1490506117f7565b506001949350505050565b6000807a184f03e93ff9f4daa797ed6e38ed64bf6a1f0100000000000000008310612145577a184f03e93ff9f4daa797ed6e38ed64bf6a1f010000000000000000830492506040015b6d04ee2d6d415b85acef81000000008310612171576d04ee2d6d415b85acef8100000000830492506020015b662386f26fc10000831061218f57662386f26fc10000830492506010015b6305f5e10083106121a7576305f5e100830492506008015b61271083106121bb57612710830492506004015b606483106121cd576064830492506002015b600a83106104db5760010192915050565b60006001600160e01b031982167f80ac58cd00000000000000000000000000000000000000000000000000000000148061224157506001600160e01b031982167f5b5e139f00000000000000000000000000000000000000000000000000000000145b806104db57507f01ffc9a7000000000000000000000000000000000000000000000000000000006001600160e01b03198316146104db565b60606104db6001600160a01b03831660145b6060600061229a836002612c89565b6122a5906002612cc2565b67ffffffffffffffff8111156122bd576122bd612b19565b6040519080825280601f01601f1916602001820160405280156122e7576020820181803683370190505b5090507f30000000000000000000000000000000000000000000000000000000000000008160008151811061231e5761231e612d5e565b60200101906001600160f81b031916908160001a9053507f78000000000000000000000000000000000000000000000000000000000000008160018151811061236957612369612d5e565b60200101906001600160f81b031916908160001a905350600061238d846002612c89565b612398906001612cc2565b90505b600181111561241d577f303132333435363738396162636465660000000000000000000000000000000085600f16601081106123d9576123d9612d5e565b1a60f81b8282815181106123ef576123ef612d5e565b60200101906001600160f81b031916908160001a90535060049490941c9361241681612e9c565b905061239b565b50831561157d5760405162461bcd60e51b815260206004820181905260248201527f537472696e67733a20686578206c656e67746820696e73756666696369656e746044820152606401610538565b61247884848484612697565b600a5460ff161561150a5760405162461bcd60e51b815260206004820152602b60248201527f4552433732315061757361626c653a20746f6b656e207472616e73666572207760448201527f68696c65207061757365640000000000000000000000000000000000000000006064820152608401610538565b6001600160a01b0382166125475760405162461bcd60e51b815260206004820181905260248201527f4552433732313a206d696e7420746f20746865207a65726f20616464726573736044820152606401610538565b6000818152600260205260409020546001600160a01b0316156125ac5760405162461bcd60e51b815260206004820152601c60248201527f4552433732313a20746f6b656e20616c7265616479206d696e746564000000006044820152606401610538565b6125ba600083836001611ed4565b6000818152600260205260409020546001600160a01b03161561261f5760405162461bcd60e51b815260206004820152601c60248201527f4552433732313a20746f6b656e20616c7265616479206d696e746564000000006044820152606401610538565b6001600160a01b0382166000818152600360209081526040808320805460010190558483526002909152808220805473ffffffffffffffffffffffffffffffffffffffff19168417905551839291907fddf252ad1be2c89b69c2b068fc378daa952ba7f163c4a11628f55a4df523b3ef908290a45050565b600181111561270e5760405162461bcd60e51b815260206004820152603560248201527f455243373231456e756d657261626c653a20636f6e736563757469766520747260448201527f616e7366657273206e6f7420737570706f7274656400000000000000000000006064820152608401610538565b816001600160a01b03851661276a5761276581600880546000838152600960205260408120829055600182018355919091527ff3f7a9fe364faab93b216da50a3214154f22a0a2b415b23a84c8169e8b636ee30155565b61278d565b836001600160a01b0316856001600160a01b03161461278d5761278d85826127cc565b6001600160a01b0384166127a9576127a481612869565b610815565b846001600160a01b0316846001600160a01b031614610815576108158482612918565b600060016127d984610ef2565b6127e39190612eb3565b600083815260076020526040902054909150808214612836576001600160a01b03841660009081526006602090815260408083208584528252808320548484528184208190558352600790915290208190555b5060009182526007602090815260408084208490556001600160a01b039094168352600681528383209183525290812055565b60085460009061287b90600190612eb3565b600083815260096020526040812054600880549394509092849081106128a3576128a3612d5e565b9060005260206000200154905080600883815481106128c4576128c4612d5e565b60009182526020808320909101929092558281526009909152604080822084905585825281205560088054806128fc576128fc612ec6565b6001900381819060005260206000200160009055905550505050565b600061292383610ef2565b6001600160a01b039093166000908152600660209081526040808320868452825280832085905593825260079052919091209190915550565b6001600160e01b031981168114610dcb57600080fd5b60006020828403121561298457600080fd5b813561157d8161295c565b6000602082840312156129a157600080fd5b5035919050565b60005b838110156129c35781810151838201526020016129ab565b50506000910152565b600081518084526129e48160208601602086016129a8565b601f01601f19169290920160200192915050565b60208152600061157d60208301846129cc565b80356001600160a01b0381168114612a2257600080fd5b919050565b60008060408385031215612a3a57600080fd5b612a4383612a0b565b946020939093013593505050565b600080600060608486031215612a6657600080fd5b612a6f84612a0b565b9250612a7d60208501612a0b565b9150604084013590509250925092565b60008060408385031215612aa057600080fd5b82359150612ab060208401612a0b565b90509250929050565b600060208284031215612acb57600080fd5b61157d82612a0b565b8015158114610dcb57600080fd5b60008060408385031215612af557600080fd5b612afe83612a0b565b91506020830135612b0e81612ad4565b809150509250929050565b634e487b7160e01b600052604160045260246000fd5b60008060008060808587031215612b4557600080fd5b612b4e85612a0b565b9350612b5c60208601612a0b565b925060408501359150606085013567ffffffffffffffff80821115612b8057600080fd5b818701915087601f830112612b9457600080fd5b813581811115612ba657612ba6612b19565b604051601f8201601f19908116603f01168101908382118183101715612bce57612bce612b19565b816040528281528a6020848701011115612be757600080fd5b82602086016020830137600060208483010152809550505050505092959194509250565b634e487b7160e01b600052602160045260246000fd5b6020810160048310612c4357634e487b7160e01b600052602160045260246000fd5b91905290565b60008060408385031215612c5c57600080fd5b612c6583612a0b565b9150612ab060208401612a0b565b634e487b7160e01b600052601160045260246000fd5b80820281158282048414176104db576104db612c73565b600082612cbd57634e487b7160e01b600052601260045260246000fd5b500490565b808201808211156104db576104db612c73565b600060208284031215612ce757600080fd5b5051919050565b600060208284031215612d0057600080fd5b815161157d81612ad4565b600060018201612d1d57612d1d612c73565b5060010190565b600181811c90821680612d3857607f821691505b602082108103612d5857634e487b7160e01b600052602260045260246000fd5b50919050565b634e487b7160e01b600052603260045260246000fd5b600060ff821660ff8103612d8a57612d8a612c73565b60010192915050565b60008351612da58184602088016129a8565b835190830190612db98183602088016129a8565b01949350505050565b7f416363657373436f6e74726f6c3a206163636f756e7420000000000000000000815260008351612dfa8160178501602088016129a8565b7f206973206d697373696e6720726f6c65200000000000000000000000000000006017918401918201528351612e378160288401602088016129a8565b01602801949350505050565b60006001600160a01b03808716835280861660208401525083604083015260806060830152612e7560808301846129cc565b9695505050505050565b600060208284031215612e9157600080fd5b815161157d8161295c565b600081612eab57612eab612c73565b506000190190565b818103818111156104db576104db612c73565b634e487b7160e01b600052603160045260246000fdfea264697066735822122069c17c9d180a207ee669f92b1d403732fc9bebc7e22c6a1a3e18c9b7dd896bc964736f6c63430008130033",
    "linkReferences": {},
    "deployedLinkReferences": {}
}