{
    "_format": "hh-sol-artifact-1",
    "contractName": "FinancingContract1155",
    "sourceName": "contracts/NFT1155.sol",
    "abi": [
        {
            "inputs": [
                {
                    "internalType": "string",
                    "name": "_name",
                    "type": "string"
                },
                {
                    "internalType": "string",
                    "name": "_symbol",
                    "type": "string"
                },
                {
                    "internalType": "uint256",
                    "name": "_operationAmount",
                    "type": "uint256"
                },
                {
                    "internalType": "uint256",
                    "name": "_amountToFinance",
                    "type": "uint256"
                },
                {
                    "internalType": "uint256",
                    "name": "_investmentFractions",
                    "type": "uint256"
                },
                {
                    "internalType": "address",
                    "name": "_addUsdt",
                    "type": "address"
                },
                {
                    "internalType": "uint256",
                    "name": "_id",
                    "type": "uint256"
                }
            ],
            "stateMutability": "nonpayable",
            "type": "constructor"
        },
        {
            "anonymous": false,
            "inputs": [
                {
                    "indexed": true,
                    "internalType": "address",
                    "name": "account",
                    "type": "address"
                },
                {
                    "indexed": true,
                    "internalType": "address",
                    "name": "operator",
                    "type": "address"
                },
                {
                    "indexed": false,
                    "internalType": "bool",
                    "name": "approved",
                    "type": "bool"
                }
            ],
            "name": "ApprovalForAll",
            "type": "event"
        },
        {
            "anonymous": false,
            "inputs": [
                {
                    "indexed": false,
                    "internalType": "uint256",
                    "name": "tokenId",
                    "type": "uint256"
                },
                {
                    "indexed": false,
                    "internalType": "uint256",
                    "name": "amount",
                    "type": "uint256"
                }
            ],
            "name": "BurnNfts",
            "type": "event"
        },
        {
            "anonymous": false,
            "inputs": [
                {
                    "indexed": false,
                    "internalType": "address",
                    "name": "investor",
                    "type": "address"
                },
                {
                    "indexed": false,
                    "internalType": "uint256",
                    "name": "fractions",
                    "type": "uint256"
                }
            ],
            "name": "Invest",
            "type": "event"
        },
        {
            "anonymous": false,
            "inputs": [
                {
                    "indexed": false,
                    "internalType": "address",
                    "name": "account",
                    "type": "address"
                }
            ],
            "name": "Paused",
            "type": "event"
        },
        {
            "anonymous": false,
            "inputs": [
                {
                    "indexed": true,
                    "internalType": "bytes32",
                    "name": "role",
                    "type": "bytes32"
                },
                {
                    "indexed": true,
                    "internalType": "bytes32",
                    "name": "previousAdminRole",
                    "type": "bytes32"
                },
                {
                    "indexed": true,
                    "internalType": "bytes32",
                    "name": "newAdminRole",
                    "type": "bytes32"
                }
            ],
            "name": "RoleAdminChanged",
            "type": "event"
        },
        {
            "anonymous": false,
            "inputs": [
                {
                    "indexed": true,
                    "internalType": "bytes32",
                    "name": "role",
                    "type": "bytes32"
                },
                {
                    "indexed": true,
                    "internalType": "address",
                    "name": "account",
                    "type": "address"
                },
                {
                    "indexed": true,
                    "internalType": "address",
                    "name": "sender",
                    "type": "address"
                }
            ],
            "name": "RoleGranted",
            "type": "event"
        },
        {
            "anonymous": false,
            "inputs": [
                {
                    "indexed": true,
                    "internalType": "bytes32",
                    "name": "role",
                    "type": "bytes32"
                },
                {
                    "indexed": true,
                    "internalType": "address",
                    "name": "account",
                    "type": "address"
                },
                {
                    "indexed": true,
                    "internalType": "address",
                    "name": "sender",
                    "type": "address"
                }
            ],
            "name": "RoleRevoked",
            "type": "event"
        },
        {
            "anonymous": false,
            "inputs": [
                {
                    "indexed": false,
                    "internalType": "uint256",
                    "name": "amount",
                    "type": "uint256"
                },
                {
                    "indexed": false,
                    "internalType": "address[]",
                    "name": "investors",
                    "type": "address[]"
                }
            ],
            "name": "TotalAmountFinanced",
            "type": "event"
        },
        {
            "anonymous": false,
            "inputs": [
                {
                    "indexed": true,
                    "internalType": "address",
                    "name": "operator",
                    "type": "address"
                },
                {
                    "indexed": true,
                    "internalType": "address",
                    "name": "from",
                    "type": "address"
                },
                {
                    "indexed": true,
                    "internalType": "address",
                    "name": "to",
                    "type": "address"
                },
                {
                    "indexed": false,
                    "internalType": "uint256[]",
                    "name": "ids",
                    "type": "uint256[]"
                },
                {
                    "indexed": false,
                    "internalType": "uint256[]",
                    "name": "values",
                    "type": "uint256[]"
                }
            ],
            "name": "TransferBatch",
            "type": "event"
        },
        {
            "anonymous": false,
            "inputs": [
                {
                    "indexed": true,
                    "internalType": "address",
                    "name": "operator",
                    "type": "address"
                },
                {
                    "indexed": true,
                    "internalType": "address",
                    "name": "from",
                    "type": "address"
                },
                {
                    "indexed": true,
                    "internalType": "address",
                    "name": "to",
                    "type": "address"
                },
                {
                    "indexed": false,
                    "internalType": "uint256",
                    "name": "id",
                    "type": "uint256"
                },
                {
                    "indexed": false,
                    "internalType": "uint256",
                    "name": "value",
                    "type": "uint256"
                }
            ],
            "name": "TransferSingle",
            "type": "event"
        },
        {
            "anonymous": false,
            "inputs": [
                {
                    "indexed": false,
                    "internalType": "string",
                    "name": "value",
                    "type": "string"
                },
                {
                    "indexed": true,
                    "internalType": "uint256",
                    "name": "id",
                    "type": "uint256"
                }
            ],
            "name": "URI",
            "type": "event"
        },
        {
            "anonymous": false,
            "inputs": [
                {
                    "indexed": false,
                    "internalType": "address",
                    "name": "account",
                    "type": "address"
                }
            ],
            "name": "Unpaused",
            "type": "event"
        },
        {
            "anonymous": false,
            "inputs": [
                {
                    "indexed": false,
                    "internalType": "address",
                    "name": "admin",
                    "type": "address"
                },
                {
                    "indexed": false,
                    "internalType": "uint256",
                    "name": "amount",
                    "type": "uint256"
                }
            ],
            "name": "WithdrawComplete",
            "type": "event"
        },
        {
            "inputs": [],
            "name": "DEFAULT_ADMIN_ROLE",
            "outputs": [
                {
                    "internalType": "bytes32",
                    "name": "",
                    "type": "bytes32"
                }
            ],
            "stateMutability": "view",
            "type": "function"
        },
        {
            "inputs": [],
            "name": "ID",
            "outputs": [
                {
                    "internalType": "uint256",
                    "name": "",
                    "type": "uint256"
                }
            ],
            "stateMutability": "view",
            "type": "function"
        },
        {
            "inputs": [],
            "name": "PAUSER_ROLE",
            "outputs": [
                {
                    "internalType": "bytes32",
                    "name": "",
                    "type": "bytes32"
                }
            ],
            "stateMutability": "view",
            "type": "function"
        },
        {
            "inputs": [],
            "name": "amountToFinance",
            "outputs": [
                {
                    "internalType": "uint256",
                    "name": "",
                    "type": "uint256"
                }
            ],
            "stateMutability": "view",
            "type": "function"
        },
        {
            "inputs": [
                {
                    "internalType": "address",
                    "name": "account",
                    "type": "address"
                },
                {
                    "internalType": "uint256",
                    "name": "id",
                    "type": "uint256"
                }
            ],
            "name": "balanceOf",
            "outputs": [
                {
                    "internalType": "uint256",
                    "name": "",
                    "type": "uint256"
                }
            ],
            "stateMutability": "view",
            "type": "function"
        },
        {
            "inputs": [
                {
                    "internalType": "address[]",
                    "name": "accounts",
                    "type": "address[]"
                },
                {
                    "internalType": "uint256[]",
                    "name": "ids",
                    "type": "uint256[]"
                }
            ],
            "name": "balanceOfBatch",
            "outputs": [
                {
                    "internalType": "uint256[]",
                    "name": "",
                    "type": "uint256[]"
                }
            ],
            "stateMutability": "view",
            "type": "function"
        },
        {
            "inputs": [
                {
                    "internalType": "address",
                    "name": "account",
                    "type": "address"
                },
                {
                    "internalType": "uint256",
                    "name": "id",
                    "type": "uint256"
                },
                {
                    "internalType": "uint256",
                    "name": "value",
                    "type": "uint256"
                }
            ],
            "name": "burn",
            "outputs": [],
            "stateMutability": "nonpayable",
            "type": "function"
        },
        {
            "inputs": [
                {
                    "internalType": "address",
                    "name": "account",
                    "type": "address"
                },
                {
                    "internalType": "uint256[]",
                    "name": "ids",
                    "type": "uint256[]"
                },
                {
                    "internalType": "uint256[]",
                    "name": "values",
                    "type": "uint256[]"
                }
            ],
            "name": "burnBatch",
            "outputs": [],
            "stateMutability": "nonpayable",
            "type": "function"
        },
        {
            "inputs": [],
            "name": "buyBackPrice",
            "outputs": [
                {
                    "internalType": "uint256",
                    "name": "",
                    "type": "uint256"
                }
            ],
            "stateMutability": "view",
            "type": "function"
        },
        {
            "inputs": [
                {
                    "internalType": "uint256",
                    "name": "_amount",
                    "type": "uint256"
                }
            ],
            "name": "buyFraction",
            "outputs": [],
            "stateMutability": "nonpayable",
            "type": "function"
        },
        {
            "inputs": [],
            "name": "contractStatus",
            "outputs": [
                {
                    "internalType": "enum FinancingContract1155.Status",
                    "name": "",
                    "type": "uint8"
                }
            ],
            "stateMutability": "view",
            "type": "function"
        },
        {
            "inputs": [],
            "name": "fractionPrice",
            "outputs": [
                {
                    "internalType": "uint256",
                    "name": "",
                    "type": "uint256"
                }
            ],
            "stateMutability": "view",
            "type": "function"
        },
        {
            "inputs": [],
            "name": "getHistorial",
            "outputs": [
                {
                    "components": [
                        {
                            "internalType": "uint256",
                            "name": "fractions",
                            "type": "uint256"
                        },
                        {
                            "internalType": "uint256",
                            "name": "timestamp",
                            "type": "uint256"
                        },
                        {
                            "internalType": "address",
                            "name": "owner",
                            "type": "address"
                        }
                    ],
                    "internalType": "struct FinancingContract1155.HistoryFractions[]",
                    "name": "",
                    "type": "tuple[]"
                }
            ],
            "stateMutability": "view",
            "type": "function"
        },
        {
            "inputs": [
                {
                    "internalType": "bytes32",
                    "name": "role",
                    "type": "bytes32"
                }
            ],
            "name": "getRoleAdmin",
            "outputs": [
                {
                    "internalType": "bytes32",
                    "name": "",
                    "type": "bytes32"
                }
            ],
            "stateMutability": "view",
            "type": "function"
        },
        {
            "inputs": [
                {
                    "internalType": "bytes32",
                    "name": "role",
                    "type": "bytes32"
                },
                {
                    "internalType": "address",
                    "name": "account",
                    "type": "address"
                }
            ],
            "name": "grantRole",
            "outputs": [],
            "stateMutability": "nonpayable",
            "type": "function"
        },
        {
            "inputs": [
                {
                    "internalType": "bytes32",
                    "name": "role",
                    "type": "bytes32"
                },
                {
                    "internalType": "address",
                    "name": "account",
                    "type": "address"
                }
            ],
            "name": "hasRole",
            "outputs": [
                {
                    "internalType": "bool",
                    "name": "",
                    "type": "bool"
                }
            ],
            "stateMutability": "view",
            "type": "function"
        },
        {
            "inputs": [
                {
                    "internalType": "uint256",
                    "name": "",
                    "type": "uint256"
                }
            ],
            "name": "historyFractions",
            "outputs": [
                {
                    "internalType": "uint256",
                    "name": "fractions",
                    "type": "uint256"
                },
                {
                    "internalType": "uint256",
                    "name": "timestamp",
                    "type": "uint256"
                },
                {
                    "internalType": "address",
                    "name": "owner",
                    "type": "address"
                }
            ],
            "stateMutability": "view",
            "type": "function"
        },
        {
            "inputs": [],
            "name": "investedFractions",
            "outputs": [
                {
                    "internalType": "uint256",
                    "name": "",
                    "type": "uint256"
                }
            ],
            "stateMutability": "view",
            "type": "function"
        },
        {
            "inputs": [],
            "name": "investmentFractions",
            "outputs": [
                {
                    "internalType": "uint256",
                    "name": "",
                    "type": "uint256"
                }
            ],
            "stateMutability": "view",
            "type": "function"
        },
        {
            "inputs": [
                {
                    "internalType": "uint256",
                    "name": "",
                    "type": "uint256"
                }
            ],
            "name": "investors",
            "outputs": [
                {
                    "internalType": "address",
                    "name": "",
                    "type": "address"
                }
            ],
            "stateMutability": "view",
            "type": "function"
        },
        {
            "inputs": [
                {
                    "internalType": "address",
                    "name": "account",
                    "type": "address"
                },
                {
                    "internalType": "address",
                    "name": "operator",
                    "type": "address"
                }
            ],
            "name": "isApprovedForAll",
            "outputs": [
                {
                    "internalType": "bool",
                    "name": "",
                    "type": "bool"
                }
            ],
            "stateMutability": "view",
            "type": "function"
        },
        {
            "inputs": [],
            "name": "name",
            "outputs": [
                {
                    "internalType": "string",
                    "name": "",
                    "type": "string"
                }
            ],
            "stateMutability": "view",
            "type": "function"
        },
        {
            "inputs": [],
            "name": "operationAmount",
            "outputs": [
                {
                    "internalType": "uint256",
                    "name": "",
                    "type": "uint256"
                }
            ],
            "stateMutability": "view",
            "type": "function"
        },
        {
            "inputs": [],
            "name": "pause",
            "outputs": [],
            "stateMutability": "nonpayable",
            "type": "function"
        },
        {
            "inputs": [],
            "name": "paused",
            "outputs": [
                {
                    "internalType": "bool",
                    "name": "",
                    "type": "bool"
                }
            ],
            "stateMutability": "view",
            "type": "function"
        },
        {
            "inputs": [],
            "name": "readBuyBackPrice",
            "outputs": [
                {
                    "internalType": "uint256",
                    "name": "",
                    "type": "uint256"
                }
            ],
            "stateMutability": "view",
            "type": "function"
        },
        {
            "inputs": [],
            "name": "readStatus",
            "outputs": [
                {
                    "internalType": "enum FinancingContract1155.Status",
                    "name": "",
                    "type": "uint8"
                }
            ],
            "stateMutability": "view",
            "type": "function"
        },
        {
            "inputs": [
                {
                    "internalType": "bytes32",
                    "name": "role",
                    "type": "bytes32"
                },
                {
                    "internalType": "address",
                    "name": "account",
                    "type": "address"
                }
            ],
            "name": "renounceRole",
            "outputs": [],
            "stateMutability": "nonpayable",
            "type": "function"
        },
        {
            "inputs": [
                {
                    "internalType": "bytes32",
                    "name": "role",
                    "type": "bytes32"
                },
                {
                    "internalType": "address",
                    "name": "account",
                    "type": "address"
                }
            ],
            "name": "revokeRole",
            "outputs": [],
            "stateMutability": "nonpayable",
            "type": "function"
        },
        {
            "inputs": [
                {
                    "internalType": "address",
                    "name": "from",
                    "type": "address"
                },
                {
                    "internalType": "address",
                    "name": "to",
                    "type": "address"
                },
                {
                    "internalType": "uint256[]",
                    "name": "ids",
                    "type": "uint256[]"
                },
                {
                    "internalType": "uint256[]",
                    "name": "amounts",
                    "type": "uint256[]"
                },
                {
                    "internalType": "bytes",
                    "name": "data",
                    "type": "bytes"
                }
            ],
            "name": "safeBatchTransferFrom",
            "outputs": [],
            "stateMutability": "nonpayable",
            "type": "function"
        },
        {
            "inputs": [
                {
                    "internalType": "address",
                    "name": "from",
                    "type": "address"
                },
                {
                    "internalType": "address",
                    "name": "to",
                    "type": "address"
                },
                {
                    "internalType": "uint256",
                    "name": "id",
                    "type": "uint256"
                },
                {
                    "internalType": "uint256",
                    "name": "amount",
                    "type": "uint256"
                },
                {
                    "internalType": "bytes",
                    "name": "data",
                    "type": "bytes"
                }
            ],
            "name": "safeTransferFrom",
            "outputs": [],
            "stateMutability": "nonpayable",
            "type": "function"
        },
        {
            "inputs": [
                {
                    "internalType": "address",
                    "name": "operator",
                    "type": "address"
                },
                {
                    "internalType": "bool",
                    "name": "approved",
                    "type": "bool"
                }
            ],
            "name": "setApprovalForAll",
            "outputs": [],
            "stateMutability": "nonpayable",
            "type": "function"
        },
        {
            "inputs": [
                {
                    "internalType": "uint256",
                    "name": "profit",
                    "type": "uint256"
                }
            ],
            "name": "setBuyBack",
            "outputs": [],
            "stateMutability": "nonpayable",
            "type": "function"
        },
        {
            "inputs": [
                {
                    "internalType": "bytes4",
                    "name": "interfaceId",
                    "type": "bytes4"
                }
            ],
            "name": "supportsInterface",
            "outputs": [
                {
                    "internalType": "bool",
                    "name": "",
                    "type": "bool"
                }
            ],
            "stateMutability": "view",
            "type": "function"
        },
        {
            "inputs": [],
            "name": "symbol",
            "outputs": [
                {
                    "internalType": "string",
                    "name": "",
                    "type": "string"
                }
            ],
            "stateMutability": "view",
            "type": "function"
        },
        {
            "inputs": [],
            "name": "unpause",
            "outputs": [],
            "stateMutability": "nonpayable",
            "type": "function"
        },
        {
            "inputs": [
                {
                    "internalType": "uint256",
                    "name": "",
                    "type": "uint256"
                }
            ],
            "name": "uri",
            "outputs": [
                {
                    "internalType": "string",
                    "name": "",
                    "type": "string"
                }
            ],
            "stateMutability": "view",
            "type": "function"
        },
        {
            "inputs": [],
            "name": "withdrawBuyBack",
            "outputs": [],
            "stateMutability": "nonpayable",
            "type": "function"
        },
        {
            "inputs": [],
            "name": "withdrawUSDT",
            "outputs": [],
            "stateMutability": "nonpayable",
            "type": "function"
        }
    ],
    "bytecode": "0x60806040523480156200001157600080fd5b5060405162003cd038038062003cd083398101604081905262000034916200027e565b6040805160208101909152600081526200004e8162000103565b506003805460ff191690556200006660003362000115565b620000927f65d7a28e3265b37a6474929f336521b332c1681b933f6cb9f3376673440d862a3362000115565b600f80546001600160a01b0319166001600160a01b0384161790556005620000bb8882620003c2565b506006620000ca8782620003c2565b5060088590556009849055600a839055620000e683856200048e565b600b5560075550506011805460ff1916905550620004b192505050565b6002620001118282620003c2565b5050565b60008281526004602090815260408083206001600160a01b038516845290915290205460ff16620001115760008281526004602090815260408083206001600160a01b03851684529091529020805460ff19166001179055620001753390565b6001600160a01b0316816001600160a01b0316837f2f8788117e7eff1d82e926ec794901d17c78024a50270940304540a733656f0d60405160405180910390a45050565b634e487b7160e01b600052604160045260246000fd5b600082601f830112620001e157600080fd5b81516001600160401b0380821115620001fe57620001fe620001b9565b604051601f8301601f19908116603f01168101908282118183101715620002295762000229620001b9565b816040528381526020925086838588010111156200024657600080fd5b600091505b838210156200026a57858201830151818301840152908201906200024b565b600093810190920192909252949350505050565b600080600080600080600060e0888a0312156200029a57600080fd5b87516001600160401b0380821115620002b257600080fd5b620002c08b838c01620001cf565b985060208a0151915080821115620002d757600080fd5b50620002e68a828b01620001cf565b60408a015160608b015160808c015160a08d0151939a509198509650945090506001600160a01b03811681146200031c57600080fd5b8092505060c0880151905092959891949750929550565b600181811c908216806200034857607f821691505b6020821081036200036957634e487b7160e01b600052602260045260246000fd5b50919050565b601f821115620003bd57600081815260208120601f850160051c81016020861015620003985750805b601f850160051c820191505b81811015620003b957828155600101620003a4565b5050505b505050565b81516001600160401b03811115620003de57620003de620001b9565b620003f681620003ef845462000333565b846200036f565b602080601f8311600181146200042e5760008415620004155750858301515b600019600386901b1c1916600185901b178555620003b9565b600085815260208120601f198616915b828110156200045f578886015182559484019460019091019084016200043e565b50858210156200047e5787850151600019600388901b60f8161c191681555b5050505050600190811b01905550565b600082620004ac57634e487b7160e01b600052601260045260246000fd5b500490565b61380f80620004c16000396000f3fe608060405234801561001057600080fd5b50600436106102ac5760003560e01c80638e1a3b6e1161017b578063b773f909116100d8578063e63ab1e91161008c578063f242432a11610071578063f242432a146105ac578063f5298aca146105bf578063f8dd3292146105d257600080fd5b8063e63ab1e914610549578063e985e9c51461057057600080fd5b8063c7ee1042116100bd578063c7ee104214610524578063d547741f1461052d578063e23000a01461054057600080fd5b8063b773f90914610502578063c6ee20d21461051757600080fd5b80639d4150be1161012f578063a22cb46511610114578063a22cb465146104dd578063b1efc755146104f0578063b3cea217146104f957600080fd5b80639d4150be1461049e578063a217fddf146104d557600080fd5b806391d148541161016057806391d148541461045557806395d89b411461048e578063974137b11461049657600080fd5b80638e1a3b6e1461043a5780638efe68141461044d57600080fd5b806336568abe1161022957806356953bda116101dd5780635ef4e99d116101c25780635ef4e99d146104165780636b20c4541461041f5780638456cb591461043257600080fd5b806356953bda146104025780635c975abb1461040b57600080fd5b80633f4ba83a1161020e5780633f4ba83a146103af5780633feb5f2b146103b75780634e1273f4146103e257600080fd5b806336568abe146103885780633eed6a171461039b57600080fd5b8063248a9ca3116102805780632eb2c2d6116102655780632eb2c2d61461035a5780632f2ff15d1461036d578063362e496b1461038057600080fd5b8063248a9ca3146103225780632a7f505b1461034557600080fd5b8062fdd58e146102b157806301ffc9a7146102d757806306fdde03146102fa5780630e89341c1461030f575b600080fd5b6102c46102bf366004612e10565b6105db565b6040519081526020015b60405180910390f35b6102ea6102e5366004612e50565b610687565b60405190151581526020016102ce565b610302610692565b6040516102ce9190612ebd565b61030261031d366004612ed0565b610720565b6102c4610330366004612ed0565b60009081526004602052604090206001015490565b610358610353366004612ed0565b6107b4565b005b610358610368366004613035565b610b81565b61035861037b3660046130df565b610c14565b610358610c3e565b6103586103963660046130df565b610e20565b60115460ff165b6040516102ce9190613121565b610358610eac565b6103ca6103c5366004612ed0565b610ee1565b6040516001600160a01b0390911681526020016102ce565b6103f56103f0366004613149565b610f0b565b6040516102ce919061324f565b6102c4600b5481565b60035460ff166102ea565b6102c460095481565b61035861042d366004613262565b611049565b6103586110d3565b610358610448366004612ed0565b611105565b6103586116a4565b6102ea6104633660046130df565b60009182526004602090815260408084206001600160a01b0393909316845291905290205460ff1690565b610302611885565b600c546102c4565b6104b16104ac366004612ed0565b611892565b6040805193845260208401929092526001600160a01b0316908201526060016102ce565b6102c4600081565b6103586104eb3660046132e4565b6118ce565b6102c460085481565b6102c460075481565b61050a6118d9565b6040516102ce919061331b565b6011546103a29060ff1681565b6102c4600a5481565b61035861053b3660046130df565b61195b565b6102c4600c5481565b6102c47f65d7a28e3265b37a6474929f336521b332c1681b933f6cb9f3376673440d862a81565b6102ea61057e36600461337d565b6001600160a01b03918216600090815260016020908152604080832093909416825291909152205460ff1690565b6103586105ba3660046133a7565b611980565b6103586105cd36600461340c565b611a0c565b6102c4600d5481565b60006001600160a01b03831661065e5760405162461bcd60e51b815260206004820152602a60248201527f455243313135353a2061646472657373207a65726f206973206e6f742061207660448201527f616c6964206f776e65720000000000000000000000000000000000000000000060648201526084015b60405180910390fd5b506000818152602081815260408083206001600160a01b03861684529091529020545b92915050565b600061068182611a96565b6005805461069f9061343f565b80601f01602080910402602001604051908101604052809291908181526020018280546106cb9061343f565b80156107185780601f106106ed57610100808354040283529160200191610718565b820191906000526020600020905b8154815290600101906020018083116106fb57829003601f168201915b505050505081565b60606002805461072f9061343f565b80601f016020809104026020016040519081016040528092919081815260200182805461075b9061343f565b80156107a85780601f1061077d576101008083540402835291602001916107a8565b820191906000526020600020905b81548152906001019060200180831161078b57829003601f168201915b50505050509050919050565b60006107bf81611ad4565b600260115460ff1660038111156107d8576107d861310b565b146108255760405162461bcd60e51b815260206004820152601b60248201527f496e76616c69642073746174757320666f72204275796261636b2e00000000006044820152606401610655565b600082116108755760405162461bcd60e51b815260206004820152601460248201527f50726f6669742063616e2774206265207a65726f0000000000000000000000006044820152606401610655565b6000606483600954610887919061348f565b61089191906134a6565b60095461089e91906134c8565b90506108ad81620f424061348f565b600f546040516370a0823160e01b81523360048201529192506001600160a01b0316906370a0823190602401602060405180830381865afa1580156108f6573d6000803e3d6000fd5b505050506040513d601f19601f8201168201806040525081019061091a91906134db565b8111156109695760405162461bcd60e51b815260206004820152601760248201527f4e6f7420656e6f75676820555344542062616c616e63650000000000000000006044820152606401610655565b600f54604051636eb1769f60e11b815233600482015230602482015282916001600160a01b03169063dd62ed3e90604401602060405180830381865afa1580156109b7573d6000803e3d6000fd5b505050506040513d601f19601f820116820180604052508101906109db91906134db565b1015610a755760405162461bcd60e51b815260206004820152604260248201527f496e206f7264657220746f2070726f636565642c20796f75206d75737420617060448201527f70726f76652074686520726571756972656420616d6f756e74206f662055534460648201527f542e000000000000000000000000000000000000000000000000000000000000608482015260a401610655565b600f546040516323b872dd60e01b8152336004820152306024820152604481018390526001600160a01b03909116906323b872dd906064016020604051808303816000875af1158015610acc573d6000803e3d6000fd5b505050506040513d601f19601f82011682018060405250810190610af091906134f4565b610b335760405162461bcd60e51b81526020600482015260146024820152732aa9a22a103a3930b739b332b91032b93937b91760611b6044820152606401610655565b606483600b54610b43919061348f565b610b4d91906134a6565b600b54610b5a91906134c8565b600c819055610b6c90620f424061348f565b600c5550506011805460ff1916600317905550565b6001600160a01b038516331480610b9d5750610b9d853361057e565b610c005760405162461bcd60e51b815260206004820152602e60248201527f455243313135353a2063616c6c6572206973206e6f7420746f6b656e206f776e60448201526d195c881bdc88185c1c1c9bdd995960921b6064820152608401610655565b610c0d8585858585611ade565b5050505050565b600082815260046020526040902060010154610c2f81611ad4565b610c398383611d4a565b505050565b6000610c4981611ad4565b600f546040516370a0823160e01b81523060048201526000916001600160a01b0316906370a0823190602401602060405180830381865afa158015610c92573d6000803e3d6000fd5b505050506040513d601f19601f82011682018060405250810190610cb691906134db565b9050600160115460ff166003811115610cd157610cd161310b565b14610d1e5760405162461bcd60e51b815260206004820152601360248201527f4e6f74206f6e20736f6c64207374617475732e000000000000000000000000006044820152606401610655565b600f5460405163a9059cbb60e01b8152336004820152602481018390526001600160a01b039091169063a9059cbb906044016020604051808303816000875af1158015610d6f573d6000803e3d6000fd5b505050506040513d601f19601f82011682018060405250810190610d9391906134f4565b610dd65760405162461bcd60e51b81526020600482015260146024820152732aa9a22a103a3930b739b332b91032b93937b91760611b6044820152606401610655565b6011805460ff1916600217905560408051338152602081018390527fe3d1236ecf6efa77c3b3e79162ba9c387bb4b5230852cabb42b2e3f6a65ffec2910160405180910390a15050565b6001600160a01b0381163314610e9e5760405162461bcd60e51b815260206004820152602f60248201527f416363657373436f6e74726f6c3a2063616e206f6e6c792072656e6f756e636560448201527f20726f6c657320666f722073656c6600000000000000000000000000000000006064820152608401610655565b610ea88282611dec565b5050565b7f65d7a28e3265b37a6474929f336521b332c1681b933f6cb9f3376673440d862a610ed681611ad4565b610ede611e6f565b50565b600e8181548110610ef157600080fd5b6000918252602090912001546001600160a01b0316905081565b60608151835114610f845760405162461bcd60e51b815260206004820152602960248201527f455243313135353a206163636f756e747320616e6420696473206c656e67746860448201527f206d69736d6174636800000000000000000000000000000000000000000000006064820152608401610655565b6000835167ffffffffffffffff811115610fa057610fa0612ee9565b604051908082528060200260200182016040528015610fc9578160200160208202803683370190505b50905060005b845181101561104157611014858281518110610fed57610fed613511565b602002602001015185838151811061100757611007613511565b60200260200101516105db565b82828151811061102657611026613511565b602090810291909101015261103a81613527565b9050610fcf565b509392505050565b6001600160a01b0383163314806110655750611065833361057e565b6110c85760405162461bcd60e51b815260206004820152602e60248201527f455243313135353a2063616c6c6572206973206e6f7420746f6b656e206f776e60448201526d195c881bdc88185c1c1c9bdd995960921b6064820152608401610655565b610c39838383611ec1565b7f65d7a28e3265b37a6474929f336521b332c1681b933f6cb9f3376673440d862a6110fd81611ad4565b610ede612117565b61110d612154565b600081600b54620f4240611121919061348f565b61112b919061348f565b9050600060115460ff1660038111156111465761114661310b565b146111935760405162461bcd60e51b815260206004820152601360248201527f5468652073616c6520697320636c6f7365642e000000000000000000000000006044820152606401610655565b600082116111e35760405162461bcd60e51b815260206004820152601660248201527f416d6f756e742063616e6e6f74206265207a65726f2e000000000000000000006044820152606401610655565b600d54600a546111f39190613540565b8211156112685760405162461bcd60e51b815260206004820152602660248201527f416d6f756e7420746f20627579206578636565647320746f74616c206672616360448201527f74696f6e732e00000000000000000000000000000000000000000000000000006064820152608401610655565b600f546040516370a0823160e01b815233600482015282916001600160a01b0316906370a0823190602401602060405180830381865afa1580156112b0573d6000803e3d6000fd5b505050506040513d601f19601f820116820180604052508101906112d491906134db565b10156113225760405162461bcd60e51b815260206004820152601a60248201527f496e73756666696369656e7420555344542062616c616e63652e0000000000006044820152606401610655565b600f54604051636eb1769f60e11b815233600482015230602482015282916001600160a01b03169063dd62ed3e90604401602060405180830381865afa158015611370573d6000803e3d6000fd5b505050506040513d601f19601f8201168201806040525081019061139491906134db565b10156114075760405162461bcd60e51b8152602060048201526024808201527f417070726f76652074686520726571756972656420616d6f756e74206f66205560448201527f5344542e000000000000000000000000000000000000000000000000000000006064820152608401610655565b600f546040516323b872dd60e01b8152336004820152306024820152604481018390526001600160a01b03909116906323b872dd906064016020604051808303816000875af115801561145e573d6000803e3d6000fd5b505050506040513d601f19601f8201168201806040525081019061148291906134f4565b6114c55760405162461bcd60e51b81526020600482015260146024820152732aa9a22a103a3930b739b332b91032b93937b91760611b6044820152606401610655565b6114e23360075484604051806020016040528060008152506121a9565b60408051338152602081018490527fd90d253a9de34d2fdd5a75ae49ea17fcb43af32fc8ea08cc6d2341991dd3872e910160405180910390a1600e805460018101825560009182527fbb7b4a454dc3493923482f07822329ed19e8244eff582cc204f8554c3620c3fd01805473ffffffffffffffffffffffffffffffffffffffff191633179055600d805484929061157b9084906134c8565b9091555050600a54600d54036115d5576011805460ff191660011790556009546040517fa9bd1ee47937bee215a99910f193b3d3f3dec63a935e5be277309ce06b0a2b9f916115cc91600e90613553565b60405180910390a15b50604080516060810182529182524260208301908152339183019182526010805460018101825560009190915292517f1b6847dc741a1b0cd08d278845f9d819d87b734759afb55fe2de5cb82a9ae672600390940293840155517f1b6847dc741a1b0cd08d278845f9d819d87b734759afb55fe2de5cb82a9ae673830155517f1b6847dc741a1b0cd08d278845f9d819d87b734759afb55fe2de5cb82a9ae674909101805473ffffffffffffffffffffffffffffffffffffffff19166001600160a01b03909216919091179055565b6116ac612154565b600360115460ff1660038111156116c5576116c561310b565b146117125760405162461bcd60e51b815260206004820152601960248201527f436f6e7472616374206973206e6f742066696e69736865642e000000000000006044820152606401610655565b6000611720336007546105db565b9050600081116117725760405162461bcd60e51b815260206004820152601560248201527f43616c6c657220686173206e6f20746f6b656e732e00000000000000000000006044820152606401610655565b6000600c5482611782919061348f565b905061179133600754846122e8565b60075460408051918252602082018490527fb98a7424d5f1b26fcef82bf9ffc50913246b18195d53475580c9ba5ee7c0fc75910160405180910390a1600f5460405163a9059cbb60e01b8152336004820152602481018390526001600160a01b039091169063a9059cbb906044016020604051808303816000875af115801561181e573d6000803e3d6000fd5b505050506040513d601f19601f8201168201806040525081019061184291906134f4565b610ea85760405162461bcd60e51b81526020600482015260146024820152732aa9a22a103a3930b739b332b91032b93937b91760611b6044820152606401610655565b6006805461069f9061343f565b601081815481106118a257600080fd5b60009182526020909120600390910201805460018201546002909201549092506001600160a01b031683565b610ea8338383612478565b60606010805480602002602001604051908101604052809291908181526020016000905b82821015611952576000848152602090819020604080516060810182526003860290920180548352600180820154848601526002909101546001600160a01b03169183019190915290835290920191016118fd565b50505050905090565b60008281526004602052604090206001015461197681611ad4565b610c398383611dec565b6001600160a01b03851633148061199c575061199c853361057e565b6119ff5760405162461bcd60e51b815260206004820152602e60248201527f455243313135353a2063616c6c6572206973206e6f7420746f6b656e206f776e60448201526d195c881bdc88185c1c1c9bdd995960921b6064820152608401610655565b610c0d858585858561256c565b6001600160a01b038316331480611a285750611a28833361057e565b611a8b5760405162461bcd60e51b815260206004820152602e60248201527f455243313135353a2063616c6c6572206973206e6f7420746f6b656e206f776e60448201526d195c881bdc88185c1c1c9bdd995960921b6064820152608401610655565b610c398383836122e8565b60006001600160e01b031982167f7965db0b000000000000000000000000000000000000000000000000000000001480610681575061068182612725565b610ede81336127c0565b8151835114611b405760405162461bcd60e51b815260206004820152602860248201527f455243313135353a2069647320616e6420616d6f756e7473206c656e677468206044820152670dad2e6dac2e8c6d60c31b6064820152608401610655565b6001600160a01b038416611ba45760405162461bcd60e51b815260206004820152602560248201527f455243313135353a207472616e7366657220746f20746865207a65726f206164604482015264647265737360d81b6064820152608401610655565b33611bb3818787878787612835565b60005b8451811015611cdc576000858281518110611bd357611bd3613511565b602002602001015190506000858381518110611bf157611bf1613511565b602090810291909101810151600084815280835260408082206001600160a01b038e168352909352919091205490915081811015611c845760405162461bcd60e51b815260206004820152602a60248201527f455243313135353a20696e73756666696369656e742062616c616e636520666f60448201526939103a3930b739b332b960b11b6064820152608401610655565b6000838152602081815260408083206001600160a01b038e8116855292528083208585039055908b16825281208054849290611cc19084906134c8565b9250508190555050505080611cd590613527565b9050611bb6565b50846001600160a01b0316866001600160a01b0316826001600160a01b03167f4a39dc06d4c0dbc64b70af90fd698a233a518aa5d07e595d983b8c0526c8f7fb8787604051611d2c9291906135af565b60405180910390a4611d42818787878787612843565b505050505050565b60008281526004602090815260408083206001600160a01b038516845290915290205460ff16610ea85760008281526004602090815260408083206001600160a01b03851684529091529020805460ff19166001179055611da83390565b6001600160a01b0316816001600160a01b0316837f2f8788117e7eff1d82e926ec794901d17c78024a50270940304540a733656f0d60405160405180910390a45050565b60008281526004602090815260408083206001600160a01b038516845290915290205460ff1615610ea85760008281526004602090815260408083206001600160a01b0385168085529252808320805460ff1916905551339285917ff6391f5c32d9c69d2a47ea670b442974b53935d1edc7fd64eb21e047a839171b9190a45050565b611e776129e8565b6003805460ff191690557f5db9ee0a495bf2e6ff9c91a7834c1ba4fdd244a5e8aa4e537bd38aeae4b073aa335b6040516001600160a01b03909116815260200160405180910390a1565b6001600160a01b038316611f235760405162461bcd60e51b815260206004820152602360248201527f455243313135353a206275726e2066726f6d20746865207a65726f206164647260448201526265737360e81b6064820152608401610655565b8051825114611f855760405162461bcd60e51b815260206004820152602860248201527f455243313135353a2069647320616e6420616d6f756e7473206c656e677468206044820152670dad2e6dac2e8c6d60c31b6064820152608401610655565b6000339050611fa881856000868660405180602001604052806000815250612835565b60005b83518110156120a9576000848281518110611fc857611fc8613511565b602002602001015190506000848381518110611fe657611fe6613511565b602090810291909101810151600084815280835260408082206001600160a01b038c1683529093529190912054909150818110156120725760405162461bcd60e51b8152602060048201526024808201527f455243313135353a206275726e20616d6f756e7420657863656564732062616c604482015263616e636560e01b6064820152608401610655565b6000928352602083815260408085206001600160a01b038b16865290915290922091039055806120a181613527565b915050611fab565b5060006001600160a01b0316846001600160a01b0316826001600160a01b03167f4a39dc06d4c0dbc64b70af90fd698a233a518aa5d07e595d983b8c0526c8f7fb86866040516120fa9291906135af565b60405180910390a460408051602081019091526000905250505050565b61211f612154565b6003805460ff191660011790557f62e78cea01bee320cd4e420270b5ea74000d11b0c9f74754ebdbfc544b05a258611ea43390565b60035460ff16156121a75760405162461bcd60e51b815260206004820152601060248201527f5061757361626c653a20706175736564000000000000000000000000000000006044820152606401610655565b565b6001600160a01b0384166122255760405162461bcd60e51b815260206004820152602160248201527f455243313135353a206d696e7420746f20746865207a65726f2061646472657360448201527f73000000000000000000000000000000000000000000000000000000000000006064820152608401610655565b33600061223185612a3a565b9050600061223e85612a3a565b905061224f83600089858589612835565b6000868152602081815260408083206001600160a01b038b1684529091528120805487929061227f9084906134c8565b909155505060408051878152602081018790526001600160a01b03808a1692600092918716917fc3d58168c5ae7397731d063d5bbf3d657854427343f4c083240f7aacaa2d0f62910160405180910390a46122df83600089898989612a85565b50505050505050565b6001600160a01b03831661234a5760405162461bcd60e51b815260206004820152602360248201527f455243313135353a206275726e2066726f6d20746865207a65726f206164647260448201526265737360e81b6064820152608401610655565b33600061235684612a3a565b9050600061236384612a3a565b905061238383876000858560405180602001604052806000815250612835565b6000858152602081815260408083206001600160a01b038a168452909152902054848110156124005760405162461bcd60e51b8152602060048201526024808201527f455243313135353a206275726e20616d6f756e7420657863656564732062616c604482015263616e636560e01b6064820152608401610655565b6000868152602081815260408083206001600160a01b038b81168086529184528285208a8703905582518b81529384018a90529092908816917fc3d58168c5ae7397731d063d5bbf3d657854427343f4c083240f7aacaa2d0f62910160405180910390a46040805160208101909152600090526122df565b816001600160a01b0316836001600160a01b0316036124ff5760405162461bcd60e51b815260206004820152602960248201527f455243313135353a2073657474696e6720617070726f76616c2073746174757360448201527f20666f722073656c6600000000000000000000000000000000000000000000006064820152608401610655565b6001600160a01b03838116600081815260016020908152604080832094871680845294825291829020805460ff191686151590811790915591519182527f17307eab39ab6107e8899845ad3d59bd9653f200f220920489ca2b5937696c31910160405180910390a3505050565b6001600160a01b0384166125d05760405162461bcd60e51b815260206004820152602560248201527f455243313135353a207472616e7366657220746f20746865207a65726f206164604482015264647265737360d81b6064820152608401610655565b3360006125dc85612a3a565b905060006125e985612a3a565b90506125f9838989858589612835565b6000868152602081815260408083206001600160a01b038c1684529091529020548581101561267d5760405162461bcd60e51b815260206004820152602a60248201527f455243313135353a20696e73756666696369656e742062616c616e636520666f60448201526939103a3930b739b332b960b11b6064820152608401610655565b6000878152602081815260408083206001600160a01b038d8116855292528083208985039055908a168252812080548892906126ba9084906134c8565b909155505060408051888152602081018890526001600160a01b03808b16928c821692918816917fc3d58168c5ae7397731d063d5bbf3d657854427343f4c083240f7aacaa2d0f62910160405180910390a461271a848a8a8a8a8a612a85565b505050505050505050565b60006001600160e01b031982167fd9b67a2600000000000000000000000000000000000000000000000000000000148061278857506001600160e01b031982167f0e89341c00000000000000000000000000000000000000000000000000000000145b8061068157507f01ffc9a7000000000000000000000000000000000000000000000000000000006001600160e01b0319831614610681565b60008281526004602090815260408083206001600160a01b038516845290915290205460ff16610ea8576127f381612b81565b6127fe836020612b93565b60405160200161280f9291906135dd565b60408051601f198184030181529082905262461bcd60e51b825261065591600401612ebd565b611d42868686868686612d7b565b6001600160a01b0384163b15611d425760405163bc197c8160e01b81526001600160a01b0385169063bc197c8190612887908990899088908890889060040161365e565b6020604051808303816000875af19250505080156128c2575060408051601f3d908101601f191682019092526128bf918101906136bc565b60015b612977576128ce6136d9565b806308c379a00361290757506128e26136f5565b806128ed5750612909565b8060405162461bcd60e51b81526004016106559190612ebd565b505b60405162461bcd60e51b815260206004820152603460248201527f455243313135353a207472616e7366657220746f206e6f6e2d4552433131353560448201527f526563656976657220696d706c656d656e7465720000000000000000000000006064820152608401610655565b6001600160e01b0319811663bc197c8160e01b146122df5760405162461bcd60e51b815260206004820152602860248201527f455243313135353a204552433131353552656365697665722072656a656374656044820152676420746f6b656e7360c01b6064820152608401610655565b60035460ff166121a75760405162461bcd60e51b815260206004820152601460248201527f5061757361626c653a206e6f74207061757365640000000000000000000000006044820152606401610655565b60408051600180825281830190925260609160009190602080830190803683370190505090508281600081518110612a7457612a74613511565b602090810291909101015292915050565b6001600160a01b0384163b15611d425760405163f23a6e6160e01b81526001600160a01b0385169063f23a6e6190612ac9908990899088908890889060040161377f565b6020604051808303816000875af1925050508015612b04575060408051601f3d908101601f19168201909252612b01918101906136bc565b60015b612b10576128ce6136d9565b6001600160e01b0319811663f23a6e6160e01b146122df5760405162461bcd60e51b815260206004820152602860248201527f455243313135353a204552433131353552656365697665722072656a656374656044820152676420746f6b656e7360c01b6064820152608401610655565b60606106816001600160a01b03831660145b60606000612ba283600261348f565b612bad9060026134c8565b67ffffffffffffffff811115612bc557612bc5612ee9565b6040519080825280601f01601f191660200182016040528015612bef576020820181803683370190505b5090507f300000000000000000000000000000000000000000000000000000000000000081600081518110612c2657612c26613511565b60200101906001600160f81b031916908160001a9053507f780000000000000000000000000000000000000000000000000000000000000081600181518110612c7157612c71613511565b60200101906001600160f81b031916908160001a9053506000612c9584600261348f565b612ca09060016134c8565b90505b6001811115612d25577f303132333435363738396162636465660000000000000000000000000000000085600f1660108110612ce157612ce1613511565b1a60f81b828281518110612cf757612cf7613511565b60200101906001600160f81b031916908160001a90535060049490941c93612d1e816137c2565b9050612ca3565b508315612d745760405162461bcd60e51b815260206004820181905260248201527f537472696e67733a20686578206c656e67746820696e73756666696369656e746044820152606401610655565b9392505050565b60035460ff1615611d425760405162461bcd60e51b815260206004820152602c60248201527f455243313135355061757361626c653a20746f6b656e207472616e736665722060448201527f7768696c652070617573656400000000000000000000000000000000000000006064820152608401610655565b80356001600160a01b0381168114612e0b57600080fd5b919050565b60008060408385031215612e2357600080fd5b612e2c83612df4565b946020939093013593505050565b6001600160e01b031981168114610ede57600080fd5b600060208284031215612e6257600080fd5b8135612d7481612e3a565b60005b83811015612e88578181015183820152602001612e70565b50506000910152565b60008151808452612ea9816020860160208601612e6d565b601f01601f19169290920160200192915050565b602081526000612d746020830184612e91565b600060208284031215612ee257600080fd5b5035919050565b634e487b7160e01b600052604160045260246000fd5b601f8201601f1916810167ffffffffffffffff81118282101715612f2557612f25612ee9565b6040525050565b600067ffffffffffffffff821115612f4657612f46612ee9565b5060051b60200190565b600082601f830112612f6157600080fd5b81356020612f6e82612f2c565b604051612f7b8282612eff565b83815260059390931b8501820192828101915086841115612f9b57600080fd5b8286015b84811015612fb65780358352918301918301612f9f565b509695505050505050565b600082601f830112612fd257600080fd5b813567ffffffffffffffff811115612fec57612fec612ee9565b604051613003601f8301601f191660200182612eff565b81815284602083860101111561301857600080fd5b816020850160208301376000918101602001919091529392505050565b600080600080600060a0868803121561304d57600080fd5b61305686612df4565b945061306460208701612df4565b9350604086013567ffffffffffffffff8082111561308157600080fd5b61308d89838a01612f50565b945060608801359150808211156130a357600080fd5b6130af89838a01612f50565b935060808801359150808211156130c557600080fd5b506130d288828901612fc1565b9150509295509295909350565b600080604083850312156130f257600080fd5b8235915061310260208401612df4565b90509250929050565b634e487b7160e01b600052602160045260246000fd5b602081016004831061314357634e487b7160e01b600052602160045260246000fd5b91905290565b6000806040838503121561315c57600080fd5b823567ffffffffffffffff8082111561317457600080fd5b818501915085601f83011261318857600080fd5b8135602061319582612f2c565b6040516131a28282612eff565b83815260059390931b85018201928281019150898411156131c257600080fd5b948201945b838610156131e7576131d886612df4565b825294820194908201906131c7565b965050860135925050808211156131fd57600080fd5b5061320a85828601612f50565b9150509250929050565b600081518084526020808501945080840160005b8381101561324457815187529582019590820190600101613228565b509495945050505050565b602081526000612d746020830184613214565b60008060006060848603121561327757600080fd5b61328084612df4565b9250602084013567ffffffffffffffff8082111561329d57600080fd5b6132a987838801612f50565b935060408601359150808211156132bf57600080fd5b506132cc86828701612f50565b9150509250925092565b8015158114610ede57600080fd5b600080604083850312156132f757600080fd5b61330083612df4565b91506020830135613310816132d6565b809150509250929050565b602080825282518282018190526000919060409081850190868401855b828110156133705781518051855286810151878601528501516001600160a01b03168585015260609093019290850190600101613338565b5091979650505050505050565b6000806040838503121561339057600080fd5b61339983612df4565b915061310260208401612df4565b600080600080600060a086880312156133bf57600080fd5b6133c886612df4565b94506133d660208701612df4565b93506040860135925060608601359150608086013567ffffffffffffffff81111561340057600080fd5b6130d288828901612fc1565b60008060006060848603121561342157600080fd5b61342a84612df4565b95602085013595506040909401359392505050565b600181811c9082168061345357607f821691505b60208210810361347357634e487b7160e01b600052602260045260246000fd5b50919050565b634e487b7160e01b600052601160045260246000fd5b808202811582820484141761068157610681613479565b6000826134c357634e487b7160e01b600052601260045260246000fd5b500490565b8082018082111561068157610681613479565b6000602082840312156134ed57600080fd5b5051919050565b60006020828403121561350657600080fd5b8151612d74816132d6565b634e487b7160e01b600052603260045260246000fd5b60006001820161353957613539613479565b5060010190565b8181038181111561068157610681613479565b60006040820184835260206040818501528185548084526060860191508660005282600020935060005b818110156135a25784546001600160a01b03168352600194850194928401920161357d565b5090979650505050505050565b6040815260006135c26040830185613214565b82810360208401526135d48185613214565b95945050505050565b7f416363657373436f6e74726f6c3a206163636f756e7420000000000000000000815260008351613615816017850160208801612e6d565b7f206973206d697373696e6720726f6c65200000000000000000000000000000006017918401918201528351613652816028840160208801612e6d565b01602801949350505050565b60006001600160a01b03808816835280871660208401525060a0604083015261368a60a0830186613214565b828103606084015261369c8186613214565b905082810360808401526136b08185612e91565b98975050505050505050565b6000602082840312156136ce57600080fd5b8151612d7481612e3a565b600060033d11156136f25760046000803e5060005160e01c5b90565b600060443d10156137035790565b6040516003193d81016004833e81513d67ffffffffffffffff816024840111818411171561373357505050505090565b828501915081518181111561374b5750505050505090565b843d87010160208285010111156137655750505050505090565b61377460208286010187612eff565b509095945050505050565b60006001600160a01b03808816835280871660208401525084604083015283606083015260a060808301526137b760a0830184612e91565b979650505050505050565b6000816137d1576137d1613479565b50600019019056fea264697066735822122049abc140dc9762f73d668f9611fec0f6c839c9577c9187d791de07db5d44f41664736f6c63430008130033",
    "linkReferences": {},
    "deployedLinkReferences": {}
}