{
    "_format": "hh-sol-artifact-1",
    "contractName": "FinancingContract",
    "sourceName": "contracts/NftFactory.sol",
    "abi": [
        {
            "inputs": [
                {
                    "internalType": "string",
                    "name": "_name",
                    "type": "string"
                },
                {
                    "internalType": "string",
                    "name": "_symbol",
                    "type": "string"
                },
                {
                    "internalType": "uint256",
                    "name": "_amountToFinance",
                    "type": "uint256"
                },
                {
                    "internalType": "uint256",
                    "name": "_investmentFractions",
                    "type": "uint256"
                },
                {
                    "internalType": "address",
                    "name": "_addUsdt",
                    "type": "address"
                }
            ],
            "stateMutability": "nonpayable",
            "type": "constructor"
        },
        {
            "anonymous": false,
            "inputs": [
                {
                    "indexed": true,
                    "internalType": "address",
                    "name": "owner",
                    "type": "address"
                },
                {
                    "indexed": true,
                    "internalType": "address",
                    "name": "approved",
                    "type": "address"
                },
                {
                    "indexed": true,
                    "internalType": "uint256",
                    "name": "tokenId",
                    "type": "uint256"
                }
            ],
            "name": "Approval",
            "type": "event"
        },
        {
            "anonymous": false,
            "inputs": [
                {
                    "indexed": true,
                    "internalType": "address",
                    "name": "owner",
                    "type": "address"
                },
                {
                    "indexed": true,
                    "internalType": "address",
                    "name": "operator",
                    "type": "address"
                },
                {
                    "indexed": false,
                    "internalType": "bool",
                    "name": "approved",
                    "type": "bool"
                }
            ],
            "name": "ApprovalForAll",
            "type": "event"
        },
        {
            "anonymous": false,
            "inputs": [
                {
                    "indexed": false,
                    "internalType": "uint256",
                    "name": "tokenId",
                    "type": "uint256"
                }
            ],
            "name": "BurnNft",
            "type": "event"
        },
        {
            "anonymous": false,
            "inputs": [
                {
                    "indexed": false,
                    "internalType": "address",
                    "name": "investor",
                    "type": "address"
                },
                {
                    "indexed": false,
                    "internalType": "uint256",
                    "name": "fractions",
                    "type": "uint256"
                }
            ],
            "name": "Invest",
            "type": "event"
        },
        {
            "anonymous": false,
            "inputs": [
                {
                    "indexed": false,
                    "internalType": "address",
                    "name": "account",
                    "type": "address"
                }
            ],
            "name": "Paused",
            "type": "event"
        },
        {
            "anonymous": false,
            "inputs": [
                {
                    "indexed": true,
                    "internalType": "bytes32",
                    "name": "role",
                    "type": "bytes32"
                },
                {
                    "indexed": true,
                    "internalType": "bytes32",
                    "name": "previousAdminRole",
                    "type": "bytes32"
                },
                {
                    "indexed": true,
                    "internalType": "bytes32",
                    "name": "newAdminRole",
                    "type": "bytes32"
                }
            ],
            "name": "RoleAdminChanged",
            "type": "event"
        },
        {
            "anonymous": false,
            "inputs": [
                {
                    "indexed": true,
                    "internalType": "bytes32",
                    "name": "role",
                    "type": "bytes32"
                },
                {
                    "indexed": true,
                    "internalType": "address",
                    "name": "account",
                    "type": "address"
                },
                {
                    "indexed": true,
                    "internalType": "address",
                    "name": "sender",
                    "type": "address"
                }
            ],
            "name": "RoleGranted",
            "type": "event"
        },
        {
            "anonymous": false,
            "inputs": [
                {
                    "indexed": true,
                    "internalType": "bytes32",
                    "name": "role",
                    "type": "bytes32"
                },
                {
                    "indexed": true,
                    "internalType": "address",
                    "name": "account",
                    "type": "address"
                },
                {
                    "indexed": true,
                    "internalType": "address",
                    "name": "sender",
                    "type": "address"
                }
            ],
            "name": "RoleRevoked",
            "type": "event"
        },
        {
            "anonymous": false,
            "inputs": [],
            "name": "TotalAmountFinanced",
            "type": "event"
        },
        {
            "anonymous": false,
            "inputs": [
                {
                    "indexed": true,
                    "internalType": "address",
                    "name": "from",
                    "type": "address"
                },
                {
                    "indexed": true,
                    "internalType": "address",
                    "name": "to",
                    "type": "address"
                },
                {
                    "indexed": true,
                    "internalType": "uint256",
                    "name": "tokenId",
                    "type": "uint256"
                }
            ],
            "name": "Transfer",
            "type": "event"
        },
        {
            "anonymous": false,
            "inputs": [
                {
                    "indexed": false,
                    "internalType": "address",
                    "name": "account",
                    "type": "address"
                }
            ],
            "name": "Unpaused",
            "type": "event"
        },
        {
            "anonymous": false,
            "inputs": [],
            "name": "WithdrawComplete",
            "type": "event"
        },
        {
            "anonymous": false,
            "inputs": [
                {
                    "indexed": false,
                    "internalType": "uint256",
                    "name": "step",
                    "type": "uint256"
                },
                {
                    "indexed": false,
                    "internalType": "string",
                    "name": "description",
                    "type": "string"
                }
            ],
            "name": "newMilestone",
            "type": "event"
        },
        {
            "inputs": [],
            "name": "DEFAULT_ADMIN_ROLE",
            "outputs": [
                {
                    "internalType": "bytes32",
                    "name": "",
                    "type": "bytes32"
                }
            ],
            "stateMutability": "view",
            "type": "function"
        },
        {
            "inputs": [],
            "name": "PAUSER_ROLE",
            "outputs": [
                {
                    "internalType": "bytes32",
                    "name": "",
                    "type": "bytes32"
                }
            ],
            "stateMutability": "view",
            "type": "function"
        },
        {
            "inputs": [],
            "name": "amountToFinance",
            "outputs": [
                {
                    "internalType": "uint256",
                    "name": "",
                    "type": "uint256"
                }
            ],
            "stateMutability": "view",
            "type": "function"
        },
        {
            "inputs": [
                {
                    "internalType": "address",
                    "name": "to",
                    "type": "address"
                },
                {
                    "internalType": "uint256",
                    "name": "tokenId",
                    "type": "uint256"
                }
            ],
            "name": "approve",
            "outputs": [],
            "stateMutability": "nonpayable",
            "type": "function"
        },
        {
            "inputs": [
                {
                    "internalType": "address",
                    "name": "owner",
                    "type": "address"
                }
            ],
            "name": "balanceOf",
            "outputs": [
                {
                    "internalType": "uint256",
                    "name": "",
                    "type": "uint256"
                }
            ],
            "stateMutability": "view",
            "type": "function"
        },
        {
            "inputs": [
                {
                    "internalType": "uint256",
                    "name": "profit",
                    "type": "uint256"
                }
            ],
            "name": "buyBack",
            "outputs": [],
            "stateMutability": "nonpayable",
            "type": "function"
        },
        {
            "inputs": [
                {
                    "internalType": "uint256",
                    "name": "_amount",
                    "type": "uint256"
                }
            ],
            "name": "buyFraction",
            "outputs": [],
            "stateMutability": "nonpayable",
            "type": "function"
        },
        {
            "inputs": [],
            "name": "contractStatus",
            "outputs": [
                {
                    "internalType": "enum FinancingContract.Status",
                    "name": "",
                    "type": "uint8"
                }
            ],
            "stateMutability": "view",
            "type": "function"
        },
        {
            "inputs": [],
            "name": "fractionPrice",
            "outputs": [
                {
                    "internalType": "uint256",
                    "name": "",
                    "type": "uint256"
                }
            ],
            "stateMutability": "view",
            "type": "function"
        },
        {
            "inputs": [
                {
                    "internalType": "uint256",
                    "name": "tokenId",
                    "type": "uint256"
                }
            ],
            "name": "getApproved",
            "outputs": [
                {
                    "internalType": "address",
                    "name": "",
                    "type": "address"
                }
            ],
            "stateMutability": "view",
            "type": "function"
        },
        {
            "inputs": [
                {
                    "internalType": "bytes32",
                    "name": "role",
                    "type": "bytes32"
                }
            ],
            "name": "getRoleAdmin",
            "outputs": [
                {
                    "internalType": "bytes32",
                    "name": "",
                    "type": "bytes32"
                }
            ],
            "stateMutability": "view",
            "type": "function"
        },
        {
            "inputs": [
                {
                    "internalType": "bytes32",
                    "name": "role",
                    "type": "bytes32"
                },
                {
                    "internalType": "address",
                    "name": "account",
                    "type": "address"
                }
            ],
            "name": "grantRole",
            "outputs": [],
            "stateMutability": "nonpayable",
            "type": "function"
        },
        {
            "inputs": [
                {
                    "internalType": "bytes32",
                    "name": "role",
                    "type": "bytes32"
                },
                {
                    "internalType": "address",
                    "name": "account",
                    "type": "address"
                }
            ],
            "name": "hasRole",
            "outputs": [
                {
                    "internalType": "bool",
                    "name": "",
                    "type": "bool"
                }
            ],
            "stateMutability": "view",
            "type": "function"
        },
        {
            "inputs": [],
            "name": "investmentFractions",
            "outputs": [
                {
                    "internalType": "uint256",
                    "name": "",
                    "type": "uint256"
                }
            ],
            "stateMutability": "view",
            "type": "function"
        },
        {
            "inputs": [
                {
                    "internalType": "address",
                    "name": "owner",
                    "type": "address"
                },
                {
                    "internalType": "address",
                    "name": "operator",
                    "type": "address"
                }
            ],
            "name": "isApprovedForAll",
            "outputs": [
                {
                    "internalType": "bool",
                    "name": "",
                    "type": "bool"
                }
            ],
            "stateMutability": "view",
            "type": "function"
        },
        {
            "inputs": [],
            "name": "name",
            "outputs": [
                {
                    "internalType": "string",
                    "name": "",
                    "type": "string"
                }
            ],
            "stateMutability": "view",
            "type": "function"
        },
        {
            "inputs": [
                {
                    "internalType": "uint256",
                    "name": "tokenId",
                    "type": "uint256"
                }
            ],
            "name": "ownerOf",
            "outputs": [
                {
                    "internalType": "address",
                    "name": "",
                    "type": "address"
                }
            ],
            "stateMutability": "view",
            "type": "function"
        },
        {
            "inputs": [],
            "name": "pause",
            "outputs": [],
            "stateMutability": "nonpayable",
            "type": "function"
        },
        {
            "inputs": [],
            "name": "paused",
            "outputs": [
                {
                    "internalType": "bool",
                    "name": "",
                    "type": "bool"
                }
            ],
            "stateMutability": "view",
            "type": "function"
        },
        {
            "inputs": [
                {
                    "internalType": "bytes32",
                    "name": "role",
                    "type": "bytes32"
                },
                {
                    "internalType": "address",
                    "name": "account",
                    "type": "address"
                }
            ],
            "name": "renounceRole",
            "outputs": [],
            "stateMutability": "nonpayable",
            "type": "function"
        },
        {
            "inputs": [
                {
                    "internalType": "bytes32",
                    "name": "role",
                    "type": "bytes32"
                },
                {
                    "internalType": "address",
                    "name": "account",
                    "type": "address"
                }
            ],
            "name": "revokeRole",
            "outputs": [],
            "stateMutability": "nonpayable",
            "type": "function"
        },
        {
            "inputs": [
                {
                    "internalType": "address",
                    "name": "from",
                    "type": "address"
                },
                {
                    "internalType": "address",
                    "name": "to",
                    "type": "address"
                },
                {
                    "internalType": "uint256",
                    "name": "tokenId",
                    "type": "uint256"
                }
            ],
            "name": "safeTransferFrom",
            "outputs": [],
            "stateMutability": "nonpayable",
            "type": "function"
        },
        {
            "inputs": [
                {
                    "internalType": "address",
                    "name": "from",
                    "type": "address"
                },
                {
                    "internalType": "address",
                    "name": "to",
                    "type": "address"
                },
                {
                    "internalType": "uint256",
                    "name": "tokenId",
                    "type": "uint256"
                },
                {
                    "internalType": "bytes",
                    "name": "data",
                    "type": "bytes"
                }
            ],
            "name": "safeTransferFrom",
            "outputs": [],
            "stateMutability": "nonpayable",
            "type": "function"
        },
        {
            "inputs": [
                {
                    "internalType": "address",
                    "name": "operator",
                    "type": "address"
                },
                {
                    "internalType": "bool",
                    "name": "approved",
                    "type": "bool"
                }
            ],
            "name": "setApprovalForAll",
            "outputs": [],
            "stateMutability": "nonpayable",
            "type": "function"
        },
        {
            "inputs": [
                {
                    "internalType": "bytes4",
                    "name": "interfaceId",
                    "type": "bytes4"
                }
            ],
            "name": "supportsInterface",
            "outputs": [
                {
                    "internalType": "bool",
                    "name": "",
                    "type": "bool"
                }
            ],
            "stateMutability": "view",
            "type": "function"
        },
        {
            "inputs": [],
            "name": "symbol",
            "outputs": [
                {
                    "internalType": "string",
                    "name": "",
                    "type": "string"
                }
            ],
            "stateMutability": "view",
            "type": "function"
        },
        {
            "inputs": [
                {
                    "internalType": "uint256",
                    "name": "index",
                    "type": "uint256"
                }
            ],
            "name": "tokenByIndex",
            "outputs": [
                {
                    "internalType": "uint256",
                    "name": "",
                    "type": "uint256"
                }
            ],
            "stateMutability": "view",
            "type": "function"
        },
        {
            "inputs": [
                {
                    "internalType": "address",
                    "name": "owner",
                    "type": "address"
                },
                {
                    "internalType": "uint256",
                    "name": "index",
                    "type": "uint256"
                }
            ],
            "name": "tokenOfOwnerByIndex",
            "outputs": [
                {
                    "internalType": "uint256",
                    "name": "",
                    "type": "uint256"
                }
            ],
            "stateMutability": "view",
            "type": "function"
        },
        {
            "inputs": [
                {
                    "internalType": "uint256",
                    "name": "tokenId",
                    "type": "uint256"
                }
            ],
            "name": "tokenURI",
            "outputs": [
                {
                    "internalType": "string",
                    "name": "",
                    "type": "string"
                }
            ],
            "stateMutability": "view",
            "type": "function"
        },
        {
            "inputs": [],
            "name": "totalSupply",
            "outputs": [
                {
                    "internalType": "uint256",
                    "name": "",
                    "type": "uint256"
                }
            ],
            "stateMutability": "view",
            "type": "function"
        },
        {
            "inputs": [
                {
                    "internalType": "address",
                    "name": "from",
                    "type": "address"
                },
                {
                    "internalType": "address",
                    "name": "to",
                    "type": "address"
                },
                {
                    "internalType": "uint256",
                    "name": "tokenId",
                    "type": "uint256"
                }
            ],
            "name": "transferFrom",
            "outputs": [],
            "stateMutability": "nonpayable",
            "type": "function"
        },
        {
            "inputs": [],
            "name": "unpause",
            "outputs": [],
            "stateMutability": "nonpayable",
            "type": "function"
        },
        {
            "inputs": [],
            "name": "withdrawUSDT",
            "outputs": [],
            "stateMutability": "nonpayable",
            "type": "function"
        }
    ],
    "bytecode": "0x60806040523480156200001157600080fd5b5060405162003b6a38038062003b6a833981016040819052620000349162000a79565b8484600062000044838262000ba9565b50600162000053828262000ba9565b5050600a805460ff19169055506200006d600033620000e8565b620000997f65d7a28e3265b37a6474929f336521b332c1681b933f6cb9f3376673440d862a33620000e8565b60108054610100600160a81b0319166101006001600160a01b03841602179055600d839055600e829055620000cf828462000c8b565b600f55620000dd8262000173565b505050505062000d9b565b620000f48282620001fc565b6200016f576000828152600b602090815260408083206001600160a01b03851684529091529020805460ff191660011790556200012e3390565b6001600160a01b0316816001600160a01b0316837f2f8788117e7eff1d82e926ec794901d17c78024a50270940304540a733656f0d60405160405180910390a45b5050565b60008111620001c95760405162461bcd60e51b815260206004820152601660248201527f416d6f756e742063616e6e6f74206265207a65726f2e0000000000000000000060448201526064015b60405180910390fd5b60005b818160ff1610156200016f57620001e73060ff831662000229565b80620001f38162000cae565b915050620001cc565b6000828152600b602090815260408083206001600160a01b038516845290915290205460ff165b92915050565b6200016f8282604051806020016040528060008152506200024b60201b60201c565b620002578383620002c3565b62000266600084848462000464565b620002be5760405162461bcd60e51b8152602060048201526032602482015260008051602062003b4a83398151915260448201527131b2b4bb32b91034b6b83632b6b2b73a32b960711b6064820152608401620001c0565b505050565b6001600160a01b0382166200031b5760405162461bcd60e51b815260206004820181905260248201527f4552433732313a206d696e7420746f20746865207a65726f20616464726573736044820152606401620001c0565b6000818152600260205260409020546001600160a01b031615620003825760405162461bcd60e51b815260206004820152601c60248201527f4552433732313a20746f6b656e20616c7265616479206d696e746564000000006044820152606401620001c0565b62000392600083836001620005ac565b6000818152600260205260409020546001600160a01b031615620003f95760405162461bcd60e51b815260206004820152601c60248201527f4552433732313a20746f6b656e20616c7265616479206d696e746564000000006044820152606401620001c0565b6001600160a01b038216600081815260036020908152604080832080546001019055848352600290915280822080546001600160a01b0319168417905551839291907fddf252ad1be2c89b69c2b068fc378daa952ba7f163c4a11628f55a4df523b3ef908290a45050565b60006001600160a01b0384163b15620005a057604051630a85bd0160e11b81526001600160a01b0385169063150b7a0290620004ab90339089908890889060040162000cd0565b6020604051808303816000875af1925050508015620004e9575060408051601f3d908101601f19168201909252620004e69181019062000d26565b60015b62000585573d8080156200051a576040519150601f19603f3d011682016040523d82523d6000602084013e6200051f565b606091505b5080516000036200057d5760405162461bcd60e51b8152602060048201526032602482015260008051602062003b4a83398151915260448201527131b2b4bb32b91034b6b83632b6b2b73a32b960711b6064820152608401620001c0565b805181602001fd5b6001600160e01b031916630a85bd0160e11b149050620005a4565b5060015b949350505050565b620005ba84848484620005c0565b50505050565b620005ce8484848462000637565b600a5460ff1615620005ba5760405162461bcd60e51b815260206004820152602b60248201527f4552433732315061757361626c653a20746f6b656e207472616e73666572207760448201526a1a1a5b19481c185d5cd95960aa1b6064820152608401620001c0565b6001811115620006b05760405162461bcd60e51b815260206004820152603560248201527f455243373231456e756d657261626c653a20636f6e736563757469766520747260448201527f616e7366657273206e6f7420737570706f7274656400000000000000000000006064820152608401620001c0565b816001600160a01b0385166200070f576200070981600880546000838152600960205260408120829055600182018355919091527ff3f7a9fe364faab93b216da50a3214154f22a0a2b415b23a84c8169e8b636ee30155565b62000735565b836001600160a01b0316856001600160a01b031614620007355762000735858262000782565b6001600160a01b03841662000755576200074f8162000824565b6200077b565b846001600160a01b0316846001600160a01b0316146200077b576200077b8482620008de565b5050505050565b60006001620007918462000924565b6200079d919062000d59565b600083815260076020526040902054909150808214620007f1576001600160a01b03841660009081526006602090815260408083208584528252808320548484528184208190558352600790915290208190555b5060009182526007602090815260408084208490556001600160a01b039094168352600681528383209183525290812055565b600854600090620008389060019062000d59565b6000838152600960205260408120546008805493945090928490811062000863576200086362000d6f565b90600052602060002001549050806008838154811062000887576200088762000d6f565b6000918252602080832090910192909255828152600990915260408082208490558582528120556008805480620008c257620008c262000d85565b6001900381819060005260206000200160009055905550505050565b6000620008eb8362000924565b6001600160a01b039093166000908152600660209081526040808320868452825280832085905593825260079052919091209190915550565b60006001600160a01b038216620009905760405162461bcd60e51b815260206004820152602960248201527f4552433732313a2061646472657373207a65726f206973206e6f7420612076616044820152683634b21037bbb732b960b91b6064820152608401620001c0565b506001600160a01b031660009081526003602052604090205490565b634e487b7160e01b600052604160045260246000fd5b60005b83811015620009df578181015183820152602001620009c5565b50506000910152565b600082601f830112620009fa57600080fd5b81516001600160401b038082111562000a175762000a17620009ac565b604051601f8301601f19908116603f0116810190828211818310171562000a425762000a42620009ac565b8160405283815286602085880101111562000a5c57600080fd5b62000a6f846020830160208901620009c2565b9695505050505050565b600080600080600060a0868803121562000a9257600080fd5b85516001600160401b038082111562000aaa57600080fd5b62000ab889838a01620009e8565b9650602088015191508082111562000acf57600080fd5b5062000ade88828901620009e8565b6040880151606089015160808a0151929750909550935090506001600160a01b038116811462000b0d57600080fd5b809150509295509295909350565b600181811c9082168062000b3057607f821691505b60208210810362000b5157634e487b7160e01b600052602260045260246000fd5b50919050565b601f821115620002be57600081815260208120601f850160051c8101602086101562000b805750805b601f850160051c820191505b8181101562000ba15782815560010162000b8c565b505050505050565b81516001600160401b0381111562000bc55762000bc5620009ac565b62000bdd8162000bd6845462000b1b565b8462000b57565b602080601f83116001811462000c15576000841562000bfc5750858301515b600019600386901b1c1916600185901b17855562000ba1565b600085815260208120601f198616915b8281101562000c465788860151825594840194600190910190840162000c25565b508582101562000c655787850151600019600388901b60f8161c191681555b5050505050600190811b01905550565b634e487b7160e01b600052601160045260246000fd5b60008262000ca957634e487b7160e01b600052601260045260246000fd5b500490565b600060ff821660ff810362000cc75762000cc762000c75565b60010192915050565b600060018060a01b03808716835280861660208401525083604083015260806060830152825180608084015262000d0f8160a0850160208701620009c2565b601f01601f19169190910160a00195945050505050565b60006020828403121562000d3957600080fd5b81516001600160e01b03198116811462000d5257600080fd5b9392505050565b8181038181111562000223576200022362000c75565b634e487b7160e01b600052603260045260246000fd5b634e487b7160e01b600052603160045260246000fd5b612d9f8062000dab6000396000f3fe608060405234801561001057600080fd5b506004361061020b5760003560e01c80635c975abb1161012a578063a217fddf116100bd578063c7ee10421161008c578063d547741f11610071578063d547741f1461045a578063e63ab1e91461046d578063e985e9c51461049457600080fd5b8063c7ee10421461043e578063c87b56dd1461044757600080fd5b8063a217fddf146103f6578063a22cb465146103fe578063b88d4fde14610411578063c6ee20d21461042457600080fd5b80638456cb59116100f95780638456cb591461039a5780638e1a3b6e146103a257806391d14854146103b557806395d89b41146103ee57600080fd5b80635c975abb146103605780635ef4e99d1461036b5780636352211e1461037457806370a082311461038757600080fd5b80632f2ff15d116101a25780633f4ba83a116101715780633f4ba83a1461032957806342842e0e146103315780634f6ccce71461034457806356953bda1461035757600080fd5b80632f2ff15d146102e85780632f745c59146102fb578063362e496b1461030e57806336568abe1461031657600080fd5b8063095ea7b3116101de578063095ea7b31461028d57806318160ddd146102a057806323b872dd146102b2578063248a9ca3146102c557600080fd5b806301ffc9a714610210578063053f90401461023857806306fdde031461024d578063081812fc14610262575b600080fd5b61022361021e3660046127ff565b6104d0565b60405190151581526020015b60405180910390f35b61024b61024636600461281c565b6104e1565b005b610255610860565b60405161022f9190612885565b61027561027036600461281c565b6108f2565b6040516001600160a01b03909116815260200161022f565b61024b61029b3660046128b4565b610919565b6008545b60405190815260200161022f565b61024b6102c03660046128de565b610a4a565b6102a46102d336600461281c565b6000908152600b602052604090206001015490565b61024b6102f636600461291a565b610ac1565b6102a46103093660046128b4565b610ae6565b61024b610b8e565b61024b61032436600461291a565b610d8c565b61024b610e14565b61024b61033f3660046128de565b610e49565b6102a461035236600461281c565b610e64565b6102a4600f5481565b600a5460ff16610223565b6102a4600d5481565b61027561038236600461281c565b610f08565b6102a4610395366004612946565b610f6d565b61024b611007565b61024b6103b036600461281c565b611039565b6102236103c336600461291a565b6000918252600b602090815260408084206001600160a01b0393909316845291905290205460ff1690565b61025561152d565b6102a4600081565b61024b61040c36600461296f565b61153c565b61024b61041f3660046129bc565b611547565b6012546104319060ff1681565b60405161022f9190612aae565b6102a4600e5481565b61025561045536600461281c565b6115c5565b61024b61046836600461291a565b611639565b6102a47f65d7a28e3265b37a6474929f336521b332c1681b933f6cb9f3376673440d862a81565b6102236104a2366004612ad6565b6001600160a01b03918216600090815260056020908152604080832093909416825291909152205460ff1690565b60006104db8261165e565b92915050565b60006104ec8161169c565b600082116105415760405162461bcd60e51b815260206004820152601460248201527f50726f6669742063616e2774206265207a65726f00000000000000000000000060448201526064015b60405180910390fd5b6000606483600d546105539190612b16565b61055d9190612b2d565b600d5461056a9190612b4f565b905061057981620f4240612b16565b6010546040516370a0823160e01b815233600482015291925061010090046001600160a01b0316906370a0823190602401602060405180830381865afa1580156105c7573d6000803e3d6000fd5b505050506040513d601f19601f820116820180604052508101906105eb9190612b62565b8111156106605760405162461bcd60e51b815260206004820152602760248201527f41646d696e20646f6573206e6f74206861766520656e6f75676820555344542060448201527f62616c616e6365000000000000000000000000000000000000000000000000006064820152608401610538565b60105460405163a9059cbb60e01b8152306004820152602481018390526101009091046001600160a01b03169063a9059cbb906044016020604051808303816000875af11580156106b5573d6000803e3d6000fd5b505050506040513d601f19601f820116820180604052508101906106d99190612b7b565b506000606484600f546106ec9190612b16565b6106f69190612b2d565b600f546107039190612b4f565b905060005b600e5481101561085957600081815260116020526040902054610735906001600160a01b03163083610e49565b600081815260116020526040808220549051839230926001600160a01b0316917fddf252ad1be2c89b69c2b068fc378daa952ba7f163c4a11628f55a4df523b3ef9190a4610782816116a6565b6040518181527f0588fcb077dc43ae7afb49b8d42e758b467ebcbc03fada515fd5ebf506b5470e9060200160405180910390a1601054600082815260116020526040908190205490516323b872dd60e01b81523060048201526001600160a01b0391821660248201526044810185905261010090920416906323b872dd906064016020604051808303816000875af1158015610822573d6000803e3d6000fd5b505050506040513d601f19601f820116820180604052508101906108469190612b7b565b508061085181612b98565b915050610708565b5050505050565b60606000805461086f90612bb1565b80601f016020809104026020016040519081016040528092919081815260200182805461089b90612bb1565b80156108e85780601f106108bd576101008083540402835291602001916108e8565b820191906000526020600020905b8154815290600101906020018083116108cb57829003601f168201915b5050505050905090565b60006108fd82611756565b506000908152600460205260409020546001600160a01b031690565b600061092482610f08565b9050806001600160a01b0316836001600160a01b0316036109ad5760405162461bcd60e51b815260206004820152602160248201527f4552433732313a20617070726f76616c20746f2063757272656e74206f776e6560448201527f72000000000000000000000000000000000000000000000000000000000000006064820152608401610538565b336001600160a01b03821614806109c957506109c981336104a2565b610a3b5760405162461bcd60e51b815260206004820152603d60248201527f4552433732313a20617070726f76652063616c6c6572206973206e6f7420746f60448201527f6b656e206f776e6572206f7220617070726f76656420666f7220616c6c0000006064820152608401610538565b610a4583836117ba565b505050565b610a543382611835565b610ab65760405162461bcd60e51b815260206004820152602d60248201527f4552433732313a2063616c6c6572206973206e6f7420746f6b656e206f776e6560448201526c1c881bdc88185c1c1c9bdd9959609a1b6064820152608401610538565b610a458383836118b4565b6000828152600b6020526040902060010154610adc8161169c565b610a458383611ac7565b6000610af183610f6d565b8210610b655760405162461bcd60e51b815260206004820152602b60248201527f455243373231456e756d657261626c653a206f776e657220696e646578206f7560448201527f74206f6620626f756e64730000000000000000000000000000000000000000006064820152608401610538565b506001600160a01b03919091166000908152600660209081526040808320938352929052205490565b6000610b998161169c565b6010546040516370a0823160e01b815230600482015260009161010090046001600160a01b0316906370a0823190602401602060405180830381865afa158015610be7573d6000803e3d6000fd5b505050506040513d601f19601f82011682018060405250810190610c0b9190612b62565b9050600160125460ff166003811115610c2657610c26612a98565b14610c735760405162461bcd60e51b815260206004820152600d60248201527f53616c65206973206f70656e2e000000000000000000000000000000000000006044820152606401610538565b60008111610cc35760405162461bcd60e51b815260206004820152601860248201527f436f6e747261637420776974686f75742062616c616e636500000000000000006044820152606401610538565b60105460405163a9059cbb60e01b8152336004820152602481018390526101009091046001600160a01b03169063a9059cbb906044016020604051808303816000875af1158015610d18573d6000803e3d6000fd5b505050506040513d601f19601f82011682018060405250810190610d3c9190612b7b565b610d885760405162461bcd60e51b815260206004820152601460248201527f55534454207472616e73666572206572726f722e0000000000000000000000006044820152606401610538565b5050565b6001600160a01b0381163314610e0a5760405162461bcd60e51b815260206004820152602f60248201527f416363657373436f6e74726f6c3a2063616e206f6e6c792072656e6f756e636560448201527f20726f6c657320666f722073656c6600000000000000000000000000000000006064820152608401610538565b610d888282611b69565b7f65d7a28e3265b37a6474929f336521b332c1681b933f6cb9f3376673440d862a610e3e8161169c565b610e46611bec565b50565b610a4583838360405180602001604052806000815250611547565b6000610e6f60085490565b8210610ee35760405162461bcd60e51b815260206004820152602c60248201527f455243373231456e756d657261626c653a20676c6f62616c20696e646578206f60448201527f7574206f6620626f756e647300000000000000000000000000000000000000006064820152608401610538565b60088281548110610ef657610ef6612beb565b90600052602060002001549050919050565b6000818152600260205260408120546001600160a01b0316806104db5760405162461bcd60e51b815260206004820152601860248201527f4552433732313a20696e76616c696420746f6b656e20494400000000000000006044820152606401610538565b60006001600160a01b038216610feb5760405162461bcd60e51b815260206004820152602960248201527f4552433732313a2061646472657373207a65726f206973206e6f74206120766160448201527f6c6964206f776e657200000000000000000000000000000000000000000000006064820152608401610538565b506001600160a01b031660009081526003602052604090205490565b7f65d7a28e3265b37a6474929f336521b332c1681b933f6cb9f3376673440d862a6110318161169c565b610e46611c3e565b611041611c7b565b600081600f54620f42406110559190612b16565b61105f9190612b16565b9050600060125460ff16600381111561107a5761107a612a98565b146110c75760405162461bcd60e51b815260206004820152601760248201527f4c6120636f6d707261206573746120636572726164612e0000000000000000006044820152606401610538565b600082116111175760405162461bcd60e51b815260206004820152601660248201527f416d6f756e742063616e6e6f74206265207a65726f2e000000000000000000006044820152606401610538565b600e54821061118e5760405162461bcd60e51b815260206004820152602760248201527f416d6f756e7420746f2062757920657863656564657320746f74616c2066726160448201527f6374696f6e732e000000000000000000000000000000000000000000000000006064820152608401610538565b6010546040516370a0823160e01b8152336004820152829161010090046001600160a01b0316906370a0823190602401602060405180830381865afa1580156111db573d6000803e3d6000fd5b505050506040513d601f19601f820116820180604052508101906111ff9190612b62565b101561124d5760405162461bcd60e51b815260206004820152601a60248201527f496e73737566696369656e7420555344542062616c616e63652e0000000000006044820152606401610538565b6010546040517fdd62ed3e000000000000000000000000000000000000000000000000000000008152336004820152306024820152829161010090046001600160a01b03169063dd62ed3e90604401602060405180830381865afa1580156112b9573d6000803e3d6000fd5b505050506040513d601f19601f820116820180604052508101906112dd9190612b62565b10156113775760405162461bcd60e51b815260206004820152604260248201527f496e206f7264657220746f2070726f636565642c20796f75206d75737420617060448201527f70726f76652074686520726571756972656420616d6f756e74206f662055534460648201527f542e000000000000000000000000000000000000000000000000000000000000608482015260a401610538565b6010546040516323b872dd60e01b8152336004820152306024820152604481018390526101009091046001600160a01b0316906323b872dd906064016020604051808303816000875af11580156113d2573d6000803e3d6000fd5b505050506040513d601f19601f820116820180604052508101906113f69190612b7b565b6114425760405162461bcd60e51b815260206004820152601460248201527f55534454207472616e73666572206572726f722e0000000000000000000000006044820152606401610538565b61144b30610f6d565b82111561145757600080fd5b60005b828160ff1610156114d2576114723033600c54610e49565b61147e30600c54610919565b600c80546000908152601160205260408120805473ffffffffffffffffffffffffffffffffffffffff191633179055815491906114ba83612b98565b919050555080806114ca90612c01565b91505061145a565b5060408051338152602081018490527fd90d253a9de34d2fdd5a75ae49ea17fcb43af32fc8ea08cc6d2341991dd3872e910160405180910390a161151530610f6d565b600003610d885750506012805460ff19166001179055565b60606001805461086f90612bb1565b610d88338383611cd0565b6115513383611835565b6115b35760405162461bcd60e51b815260206004820152602d60248201527f4552433732313a2063616c6c6572206973206e6f7420746f6b656e206f776e6560448201526c1c881bdc88185c1c1c9bdd9959609a1b6064820152608401610538565b6115bf84848484611d9e565b50505050565b60606115d082611756565b60006115e760408051602081019091526000815290565b905060008151116116075760405180602001604052806000815250611632565b8061161184611e27565b604051602001611622929190612c20565b6040516020818303038152906040525b9392505050565b6000828152600b60205260409020600101546116548161169c565b610a458383611b69565b60006001600160e01b031982167f7965db0b0000000000000000000000000000000000000000000000000000000014806104db57506104db82611ec7565b610e468133611f05565b60006116b182610f08565b90506116c1816000846001611f7a565b6116ca82610f08565b6000838152600460209081526040808320805473ffffffffffffffffffffffffffffffffffffffff199081169091556001600160a01b0385168085526003845282852080546000190190558785526002909352818420805490911690555192935084927fddf252ad1be2c89b69c2b068fc378daa952ba7f163c4a11628f55a4df523b3ef908390a45050565b6000818152600260205260409020546001600160a01b0316610e465760405162461bcd60e51b815260206004820152601860248201527f4552433732313a20696e76616c696420746f6b656e20494400000000000000006044820152606401610538565b6000818152600460205260409020805473ffffffffffffffffffffffffffffffffffffffff19166001600160a01b03841690811790915581906117fc82610f08565b6001600160a01b03167f8c5be1e5ebec7d5bd14f71427d1e84f3dd0314c0f7b2291e5b200ac8c7c3b92560405160405180910390a45050565b60008061184183610f08565b9050806001600160a01b0316846001600160a01b0316148061188857506001600160a01b0380821660009081526005602090815260408083209388168352929052205460ff165b806118ac5750836001600160a01b03166118a1846108f2565b6001600160a01b0316145b949350505050565b826001600160a01b03166118c782610f08565b6001600160a01b03161461192b5760405162461bcd60e51b815260206004820152602560248201527f4552433732313a207472616e736665722066726f6d20696e636f72726563742060448201526437bbb732b960d91b6064820152608401610538565b6001600160a01b0382166119a65760405162461bcd60e51b8152602060048201526024808201527f4552433732313a207472616e7366657220746f20746865207a65726f2061646460448201527f72657373000000000000000000000000000000000000000000000000000000006064820152608401610538565b6119b38383836001611f7a565b826001600160a01b03166119c682610f08565b6001600160a01b031614611a2a5760405162461bcd60e51b815260206004820152602560248201527f4552433732313a207472616e736665722066726f6d20696e636f72726563742060448201526437bbb732b960d91b6064820152608401610538565b6000818152600460209081526040808320805473ffffffffffffffffffffffffffffffffffffffff199081169091556001600160a01b0387811680865260038552838620805460001901905590871680865283862080546001019055868652600290945282852080549092168417909155905184937fddf252ad1be2c89b69c2b068fc378daa952ba7f163c4a11628f55a4df523b3ef91a4505050565b6000828152600b602090815260408083206001600160a01b038516845290915290205460ff16610d88576000828152600b602090815260408083206001600160a01b03851684529091529020805460ff19166001179055611b253390565b6001600160a01b0316816001600160a01b0316837f2f8788117e7eff1d82e926ec794901d17c78024a50270940304540a733656f0d60405160405180910390a45050565b6000828152600b602090815260408083206001600160a01b038516845290915290205460ff1615610d88576000828152600b602090815260408083206001600160a01b0385168085529252808320805460ff1916905551339285917ff6391f5c32d9c69d2a47ea670b442974b53935d1edc7fd64eb21e047a839171b9190a45050565b611bf4611f86565b600a805460ff191690557f5db9ee0a495bf2e6ff9c91a7834c1ba4fdd244a5e8aa4e537bd38aeae4b073aa335b6040516001600160a01b03909116815260200160405180910390a1565b611c46611c7b565b600a805460ff191660011790557f62e78cea01bee320cd4e420270b5ea74000d11b0c9f74754ebdbfc544b05a258611c213390565b600a5460ff1615611cce5760405162461bcd60e51b815260206004820152601060248201527f5061757361626c653a20706175736564000000000000000000000000000000006044820152606401610538565b565b816001600160a01b0316836001600160a01b031603611d315760405162461bcd60e51b815260206004820152601960248201527f4552433732313a20617070726f766520746f2063616c6c6572000000000000006044820152606401610538565b6001600160a01b03838116600081815260056020908152604080832094871680845294825291829020805460ff191686151590811790915591519182527f17307eab39ab6107e8899845ad3d59bd9653f200f220920489ca2b5937696c31910160405180910390a3505050565b611da98484846118b4565b611db584848484611fd8565b6115bf5760405162461bcd60e51b815260206004820152603260248201527f4552433732313a207472616e7366657220746f206e6f6e20455243373231526560448201527f63656976657220696d706c656d656e74657200000000000000000000000000006064820152608401610538565b60606000611e348361212f565b600101905060008167ffffffffffffffff811115611e5457611e546129a6565b6040519080825280601f01601f191660200182016040528015611e7e576020820181803683370190505b5090508181016020015b600019017f3031323334353637383961626364656600000000000000000000000000000000600a86061a8153600a8504945084611e8857509392505050565b60006001600160e01b031982167f780e9d630000000000000000000000000000000000000000000000000000000014806104db57506104db82612211565b6000828152600b602090815260408083206001600160a01b038516845290915290205460ff16610d8857611f38816122ac565b611f438360206122be565b604051602001611f54929190612c4f565b60408051601f198184030181529082905262461bcd60e51b825261053891600401612885565b6115bf8484848461249f565b600a5460ff16611cce5760405162461bcd60e51b815260206004820152601460248201527f5061757361626c653a206e6f74207061757365640000000000000000000000006044820152606401610538565b60006001600160a01b0384163b1561212457604051630a85bd0160e11b81526001600160a01b0385169063150b7a029061201c903390899088908890600401612cd0565b6020604051808303816000875af1925050508015612057575060408051601f3d908101601f1916820190925261205491810190612d0c565b60015b61210a573d808015612085576040519150601f19603f3d011682016040523d82523d6000602084013e61208a565b606091505b5080516000036121025760405162461bcd60e51b815260206004820152603260248201527f4552433732313a207472616e7366657220746f206e6f6e20455243373231526560448201527f63656976657220696d706c656d656e74657200000000000000000000000000006064820152608401610538565b805181602001fd5b6001600160e01b031916630a85bd0160e11b1490506118ac565b506001949350505050565b6000807a184f03e93ff9f4daa797ed6e38ed64bf6a1f0100000000000000008310612178577a184f03e93ff9f4daa797ed6e38ed64bf6a1f010000000000000000830492506040015b6d04ee2d6d415b85acef810000000083106121a4576d04ee2d6d415b85acef8100000000830492506020015b662386f26fc1000083106121c257662386f26fc10000830492506010015b6305f5e10083106121da576305f5e100830492506008015b61271083106121ee57612710830492506004015b60648310612200576064830492506002015b600a83106104db5760010192915050565b60006001600160e01b031982167f80ac58cd00000000000000000000000000000000000000000000000000000000148061227457506001600160e01b031982167f5b5e139f00000000000000000000000000000000000000000000000000000000145b806104db57507f01ffc9a7000000000000000000000000000000000000000000000000000000006001600160e01b03198316146104db565b60606104db6001600160a01b03831660145b606060006122cd836002612b16565b6122d8906002612b4f565b67ffffffffffffffff8111156122f0576122f06129a6565b6040519080825280601f01601f19166020018201604052801561231a576020820181803683370190505b5090507f30000000000000000000000000000000000000000000000000000000000000008160008151811061235157612351612beb565b60200101906001600160f81b031916908160001a9053507f78000000000000000000000000000000000000000000000000000000000000008160018151811061239c5761239c612beb565b60200101906001600160f81b031916908160001a90535060006123c0846002612b16565b6123cb906001612b4f565b90505b6001811115612450577f303132333435363738396162636465660000000000000000000000000000000085600f166010811061240c5761240c612beb565b1a60f81b82828151811061242257612422612beb565b60200101906001600160f81b031916908160001a90535060049490941c9361244981612d29565b90506123ce565b5083156116325760405162461bcd60e51b815260206004820181905260248201527f537472696e67733a20686578206c656e67746820696e73756666696369656e746044820152606401610538565b6124ab84848484612524565b600a5460ff16156115bf5760405162461bcd60e51b815260206004820152602b60248201527f4552433732315061757361626c653a20746f6b656e207472616e73666572207760448201527f68696c65207061757365640000000000000000000000000000000000000000006064820152608401610538565b600181111561259b5760405162461bcd60e51b815260206004820152603560248201527f455243373231456e756d657261626c653a20636f6e736563757469766520747260448201527f616e7366657273206e6f7420737570706f7274656400000000000000000000006064820152608401610538565b816001600160a01b0385166125f7576125f281600880546000838152600960205260408120829055600182018355919091527ff3f7a9fe364faab93b216da50a3214154f22a0a2b415b23a84c8169e8b636ee30155565b61261a565b836001600160a01b0316856001600160a01b03161461261a5761261a8582612659565b6001600160a01b03841661263657612631816126f6565b610859565b846001600160a01b0316846001600160a01b0316146108595761085984826127a5565b6000600161266684610f6d565b6126709190612d40565b6000838152600760205260409020549091508082146126c3576001600160a01b03841660009081526006602090815260408083208584528252808320548484528184208190558352600790915290208190555b5060009182526007602090815260408084208490556001600160a01b039094168352600681528383209183525290812055565b60085460009061270890600190612d40565b6000838152600960205260408120546008805493945090928490811061273057612730612beb565b90600052602060002001549050806008838154811061275157612751612beb565b600091825260208083209091019290925582815260099091526040808220849055858252812055600880548061278957612789612d53565b6001900381819060005260206000200160009055905550505050565b60006127b083610f6d565b6001600160a01b039093166000908152600660209081526040808320868452825280832085905593825260079052919091209190915550565b6001600160e01b031981168114610e4657600080fd5b60006020828403121561281157600080fd5b8135611632816127e9565b60006020828403121561282e57600080fd5b5035919050565b60005b83811015612850578181015183820152602001612838565b50506000910152565b60008151808452612871816020860160208601612835565b601f01601f19169290920160200192915050565b6020815260006116326020830184612859565b80356001600160a01b03811681146128af57600080fd5b919050565b600080604083850312156128c757600080fd5b6128d083612898565b946020939093013593505050565b6000806000606084860312156128f357600080fd5b6128fc84612898565b925061290a60208501612898565b9150604084013590509250925092565b6000806040838503121561292d57600080fd5b8235915061293d60208401612898565b90509250929050565b60006020828403121561295857600080fd5b61163282612898565b8015158114610e4657600080fd5b6000806040838503121561298257600080fd5b61298b83612898565b9150602083013561299b81612961565b809150509250929050565b634e487b7160e01b600052604160045260246000fd5b600080600080608085870312156129d257600080fd5b6129db85612898565b93506129e960208601612898565b925060408501359150606085013567ffffffffffffffff80821115612a0d57600080fd5b818701915087601f830112612a2157600080fd5b813581811115612a3357612a336129a6565b604051601f8201601f19908116603f01168101908382118183101715612a5b57612a5b6129a6565b816040528281528a6020848701011115612a7457600080fd5b82602086016020830137600060208483010152809550505050505092959194509250565b634e487b7160e01b600052602160045260246000fd5b6020810160048310612ad057634e487b7160e01b600052602160045260246000fd5b91905290565b60008060408385031215612ae957600080fd5b612af283612898565b915061293d60208401612898565b634e487b7160e01b600052601160045260246000fd5b80820281158282048414176104db576104db612b00565b600082612b4a57634e487b7160e01b600052601260045260246000fd5b500490565b808201808211156104db576104db612b00565b600060208284031215612b7457600080fd5b5051919050565b600060208284031215612b8d57600080fd5b815161163281612961565b600060018201612baa57612baa612b00565b5060010190565b600181811c90821680612bc557607f821691505b602082108103612be557634e487b7160e01b600052602260045260246000fd5b50919050565b634e487b7160e01b600052603260045260246000fd5b600060ff821660ff8103612c1757612c17612b00565b60010192915050565b60008351612c32818460208801612835565b835190830190612c46818360208801612835565b01949350505050565b7f416363657373436f6e74726f6c3a206163636f756e7420000000000000000000815260008351612c87816017850160208801612835565b7f206973206d697373696e6720726f6c65200000000000000000000000000000006017918401918201528351612cc4816028840160208801612835565b01602801949350505050565b60006001600160a01b03808716835280861660208401525083604083015260806060830152612d026080830184612859565b9695505050505050565b600060208284031215612d1e57600080fd5b8151611632816127e9565b600081612d3857612d38612b00565b506000190190565b818103818111156104db576104db612b00565b634e487b7160e01b600052603160045260246000fdfea2646970667358221220ffd12c671e349d139d5286792bcc22d845caa1adb7d5b93b5a484d866671125464736f6c634300081300334552433732313a207472616e7366657220746f206e6f6e204552433732315265",
    "linkReferences": {},
    "deployedLinkReferences": {}
}